{
  "contractName": "ActivistContract",
  "abi": [
    {
      "inputs": [],
      "name": "activistsCount",
      "outputs": [
        {
          "internalType": "uint256",
          "name": "",
          "type": "uint256"
        }
      ],
      "stateMutability": "view",
      "type": "function"
    },
    {
      "inputs": [
        {
          "internalType": "address",
          "name": "addr",
          "type": "address"
        }
      ],
      "name": "getUser",
      "outputs": [
        {
          "internalType": "enum UserContract.UserType",
          "name": "",
          "type": "uint8"
        }
      ],
      "stateMutability": "view",
      "type": "function"
    },
    {
      "inputs": [],
      "name": "getUserTypes",
      "outputs": [
        {
          "internalType": "string",
          "name": "",
          "type": "string"
        },
        {
          "internalType": "string",
          "name": "",
          "type": "string"
        },
        {
          "internalType": "string",
          "name": "",
          "type": "string"
        }
      ],
      "stateMutability": "pure",
      "type": "function"
    },
    {
      "inputs": [],
      "name": "usersCount",
      "outputs": [
        {
          "internalType": "uint256",
          "name": "",
          "type": "uint256"
        }
      ],
      "stateMutability": "view",
      "type": "function"
    },
    {
      "inputs": [
        {
          "internalType": "string",
          "name": "name",
          "type": "string"
        },
        {
          "internalType": "string",
          "name": "document",
          "type": "string"
        },
        {
          "internalType": "string",
          "name": "documentType",
          "type": "string"
        },
        {
          "internalType": "string",
          "name": "country",
          "type": "string"
        },
        {
          "internalType": "string",
          "name": "state",
          "type": "string"
        },
        {
          "internalType": "string",
          "name": "city",
          "type": "string"
        },
        {
          "internalType": "string",
          "name": "cep",
          "type": "string"
        }
      ],
      "name": "addActivist",
      "outputs": [
        {
          "components": [
            {
              "internalType": "uint256",
              "name": "id",
              "type": "uint256"
            },
            {
              "internalType": "address",
              "name": "activistWallet",
              "type": "address"
            },
            {
              "internalType": "enum UserContract.UserType",
              "name": "userType",
              "type": "uint8"
            },
            {
              "internalType": "string",
              "name": "name",
              "type": "string"
            },
            {
              "internalType": "string",
              "name": "document",
              "type": "string"
            },
            {
              "internalType": "string",
              "name": "documentType",
              "type": "string"
            },
            {
              "internalType": "bool",
              "name": "recentInspection",
              "type": "bool"
            },
            {
              "internalType": "uint256",
              "name": "totalInspections",
              "type": "uint256"
            },
            {
              "components": [
                {
                  "internalType": "string",
                  "name": "country",
                  "type": "string"
                },
                {
                  "internalType": "string",
                  "name": "state",
                  "type": "string"
                },
                {
                  "internalType": "string",
                  "name": "city",
                  "type": "string"
                },
                {
                  "internalType": "string",
                  "name": "cep",
                  "type": "string"
                }
              ],
              "internalType": "struct ActivistContract.ActivistAddress",
              "name": "activistAddress",
              "type": "tuple"
            }
          ],
          "internalType": "struct ActivistContract.Activist",
          "name": "",
          "type": "tuple"
        }
      ],
      "stateMutability": "nonpayable",
      "type": "function"
    },
    {
      "inputs": [],
      "name": "getActivists",
      "outputs": [
        {
          "components": [
            {
              "internalType": "uint256",
              "name": "id",
              "type": "uint256"
            },
            {
              "internalType": "address",
              "name": "activistWallet",
              "type": "address"
            },
            {
              "internalType": "enum UserContract.UserType",
              "name": "userType",
              "type": "uint8"
            },
            {
              "internalType": "string",
              "name": "name",
              "type": "string"
            },
            {
              "internalType": "string",
              "name": "document",
              "type": "string"
            },
            {
              "internalType": "string",
              "name": "documentType",
              "type": "string"
            },
            {
              "internalType": "bool",
              "name": "recentInspection",
              "type": "bool"
            },
            {
              "internalType": "uint256",
              "name": "totalInspections",
              "type": "uint256"
            },
            {
              "components": [
                {
                  "internalType": "string",
                  "name": "country",
                  "type": "string"
                },
                {
                  "internalType": "string",
                  "name": "state",
                  "type": "string"
                },
                {
                  "internalType": "string",
                  "name": "city",
                  "type": "string"
                },
                {
                  "internalType": "string",
                  "name": "cep",
                  "type": "string"
                }
              ],
              "internalType": "struct ActivistContract.ActivistAddress",
              "name": "activistAddress",
              "type": "tuple"
            }
          ],
          "internalType": "struct ActivistContract.Activist[]",
          "name": "",
          "type": "tuple[]"
        }
      ],
      "stateMutability": "view",
      "type": "function"
    },
    {
      "inputs": [
        {
          "internalType": "address",
          "name": "addr",
          "type": "address"
        }
      ],
      "name": "getActivist",
      "outputs": [
        {
          "components": [
            {
              "internalType": "uint256",
              "name": "id",
              "type": "uint256"
            },
            {
              "internalType": "address",
              "name": "activistWallet",
              "type": "address"
            },
            {
              "internalType": "enum UserContract.UserType",
              "name": "userType",
              "type": "uint8"
            },
            {
              "internalType": "string",
              "name": "name",
              "type": "string"
            },
            {
              "internalType": "string",
              "name": "document",
              "type": "string"
            },
            {
              "internalType": "string",
              "name": "documentType",
              "type": "string"
            },
            {
              "internalType": "bool",
              "name": "recentInspection",
              "type": "bool"
            },
            {
              "internalType": "uint256",
              "name": "totalInspections",
              "type": "uint256"
            },
            {
              "components": [
                {
                  "internalType": "string",
                  "name": "country",
                  "type": "string"
                },
                {
                  "internalType": "string",
                  "name": "state",
                  "type": "string"
                },
                {
                  "internalType": "string",
                  "name": "city",
                  "type": "string"
                },
                {
                  "internalType": "string",
                  "name": "cep",
                  "type": "string"
                }
              ],
              "internalType": "struct ActivistContract.ActivistAddress",
              "name": "activistAddress",
              "type": "tuple"
            }
          ],
          "internalType": "struct ActivistContract.Activist",
          "name": "",
          "type": "tuple"
        }
      ],
      "stateMutability": "view",
      "type": "function"
    },
    {
      "inputs": [
        {
          "internalType": "address",
          "name": "addr",
          "type": "address"
        }
      ],
      "name": "activistExists",
      "outputs": [
        {
          "internalType": "bool",
          "name": "",
          "type": "bool"
        }
      ],
      "stateMutability": "view",
      "type": "function"
    }
  ],
  "bytecode": "0x608060405234801561001057600080fd5b506115b7806100206000396000f3fe608060405234801561001057600080fd5b50600436106100885760003560e01c80636337dc1a1161005b5780636337dc1a146100f15780636ba13a821461015a5780636f77926b146101635780638c4772fc1461019c57600080fd5b806309e1b1d11461008d57806340f52841146100a957806342e187dd146100c957806362efeff7146100de575b600080fd5b61009660045481565b6040519081526020015b60405180910390f35b6100bc6100b736600461113b565b6101bf565b6040516100a0919061140b565b6100d1610574565b6040516100a09190611425565b6100bc6100ec366004611487565b610a55565b604080518082018252600880825267282927a22aa1a2a960c11b60208084019190915283518085018552918252671050d512559254d560c21b8282015283518085018552600a8152692922a9a2a0a921a422a960b11b9181019190915292516100a093906114b0565b61009660015481565b61018f610171366004611487565b6001600160a01b031660009081526020819052604090205460ff1690565b6040516100a091906114e9565b6101af6101aa366004611487565b610f03565b60405190151581526020016100a0565b6101c7610f89565b600060045460016101d89190611513565b604080516080810182528881526020808201899052818301889052606082018790528251610120810184528481523391810191909152929350600292909160009190810184815260208082018f905260408083018f9052606083018e905260006080840181905260a0840181905260c09093018690526002805460018101825593528351600b9093027f405787fa12a823e0f2b7631cc41b3ba8828b3321ca811111fa75cd3aa3bb5ace8101938455918401517f405787fa12a823e0f2b7631cc41b3ba8828b3321ca811111fa75cd3aa3bb5acf90920180546001600160a01b039093166001600160a01b03198416811782559185015194955085949290916001600160a81b031990911617600160a01b8360038111156102fb576102fb611256565b02179055506060820151805161031b916002840191602090910190610fff565b5060808201518051610337916003840191602090910190610fff565b5060a08201518051610353916004840191602090910190610fff565b5060c082015160058201805460ff191691151591909117905560e0820151600682015561010082015180518051600784019161039491839160200190610fff565b5060208281015180516103ad9260018501920190610fff565b50604082015180516103c9916002840191602090910190610fff565b50606082015180516103e5916003840191602090910190610fff565b50503360009081526003602081815260409283902087518155908701516001820180546001600160a01b031981166001600160a01b0390931692831782559489015189985092965091945090926001600160a81b0319161790600160a01b90849081111561045557610455611256565b021790555060608201518051610475916002840191602090910190610fff565b5060808201518051610491916003840191602090910190610fff565b5060a082015180516104ad916004840191602090910190610fff565b5060c082015160058201805460ff191691151591909117905560e082015160068201556101008201518051805160078401916104ee91839160200190610fff565b5060208281015180516105079260018501920190610fff565b5060408201518051610523916002840191602090910190610fff565b506060820151805161053f916003840191602090910190610fff565b50506004805493509150600090506105568361152b565b91905055506105653384610f36565b9b9a5050505050505050505050565b60606002805480602002602001604051908101604052809291908181526020016000905b82821015610a4c5760008481526020908190206040805161012081018252600b86029092018054835260018101546001600160a01b03811694840194909452919290830190600160a01b900460ff1660038111156105f8576105f8611256565b600381111561060957610609611256565b815260200160028201805461061d90611546565b80601f016020809104026020016040519081016040528092919081815260200182805461064990611546565b80156106965780601f1061066b57610100808354040283529160200191610696565b820191906000526020600020905b81548152906001019060200180831161067957829003601f168201915b505050505081526020016003820180546106af90611546565b80601f01602080910402602001604051908101604052809291908181526020018280546106db90611546565b80156107285780601f106106fd57610100808354040283529160200191610728565b820191906000526020600020905b81548152906001019060200180831161070b57829003601f168201915b5050505050815260200160048201805461074190611546565b80601f016020809104026020016040519081016040528092919081815260200182805461076d90611546565b80156107ba5780601f1061078f576101008083540402835291602001916107ba565b820191906000526020600020905b81548152906001019060200180831161079d57829003601f168201915b5050509183525050600582015460ff161515602082015260068201546040808301919091528051608081019091526007830180546060909301928290829061080190611546565b80601f016020809104026020016040519081016040528092919081815260200182805461082d90611546565b801561087a5780601f1061084f5761010080835404028352916020019161087a565b820191906000526020600020905b81548152906001019060200180831161085d57829003601f168201915b5050505050815260200160018201805461089390611546565b80601f01602080910402602001604051908101604052809291908181526020018280546108bf90611546565b801561090c5780601f106108e15761010080835404028352916020019161090c565b820191906000526020600020905b8154815290600101906020018083116108ef57829003601f168201915b5050505050815260200160028201805461092590611546565b80601f016020809104026020016040519081016040528092919081815260200182805461095190611546565b801561099e5780601f106109735761010080835404028352916020019161099e565b820191906000526020600020905b81548152906001019060200180831161098157829003601f168201915b505050505081526020016003820180546109b790611546565b80601f01602080910402602001604051908101604052809291908181526020018280546109e390611546565b8015610a305780601f10610a0557610100808354040283529160200191610a30565b820191906000526020600020905b815481529060010190602001808311610a1357829003601f168201915b5050505050815250508152505081526020019060010190610598565b50505050905090565b610a5d610f89565b6001600160a01b038281166000908152600360208181526040928390208351610120810185528154815260018201549586169281019290925290939092840191600160a01b90910460ff1690811115610ab857610ab8611256565b6003811115610ac957610ac9611256565b8152602001600282018054610add90611546565b80601f0160208091040260200160405190810160405280929190818152602001828054610b0990611546565b8015610b565780601f10610b2b57610100808354040283529160200191610b56565b820191906000526020600020905b815481529060010190602001808311610b3957829003601f168201915b50505050508152602001600382018054610b6f90611546565b80601f0160208091040260200160405190810160405280929190818152602001828054610b9b90611546565b8015610be85780601f10610bbd57610100808354040283529160200191610be8565b820191906000526020600020905b815481529060010190602001808311610bcb57829003601f168201915b50505050508152602001600482018054610c0190611546565b80601f0160208091040260200160405190810160405280929190818152602001828054610c2d90611546565b8015610c7a5780601f10610c4f57610100808354040283529160200191610c7a565b820191906000526020600020905b815481529060010190602001808311610c5d57829003601f168201915b5050509183525050600582015460ff1615156020820152600682015460408083019190915280516080810190915260078301805460609093019282908290610cc190611546565b80601f0160208091040260200160405190810160405280929190818152602001828054610ced90611546565b8015610d3a5780601f10610d0f57610100808354040283529160200191610d3a565b820191906000526020600020905b815481529060010190602001808311610d1d57829003601f168201915b50505050508152602001600182018054610d5390611546565b80601f0160208091040260200160405190810160405280929190818152602001828054610d7f90611546565b8015610dcc5780601f10610da157610100808354040283529160200191610dcc565b820191906000526020600020905b815481529060010190602001808311610daf57829003601f168201915b50505050508152602001600282018054610de590611546565b80601f0160208091040260200160405190810160405280929190818152602001828054610e1190611546565b8015610e5e5780601f10610e3357610100808354040283529160200191610e5e565b820191906000526020600020905b815481529060010190602001808311610e4157829003601f168201915b50505050508152602001600382018054610e7790611546565b80601f0160208091040260200160405190810160405280929190818152602001828054610ea390611546565b8015610ef05780601f10610ec557610100808354040283529160200191610ef0565b820191906000526020600020905b815481529060010190602001808311610ed357829003601f168201915b5050509190925250505090525092915050565b6001600160a01b03811660009081526003602052604081206002018054829190610f2c90611546565b9050119050919050565b6001600160a01b0382166000908152602081905260409020805482919060ff19166001836003811115610f6b57610f6b611256565b021790555060018054906000610f808361152b565b91905055505050565b60408051610120810182526000808252602082018190529091820190815260200160608152602001606081526020016060815260200160001515815260200160008152602001610ffa6040518060800160405280606081526020016060815260200160608152602001606081525090565b905290565b82805461100b90611546565b90600052602060002090601f01602090048101928261102d5760008555611073565b82601f1061104657805160ff1916838001178555611073565b82800160010185558215611073579182015b82811115611073578251825591602001919060010190611058565b5061107f929150611083565b5090565b5b8082111561107f5760008155600101611084565b634e487b7160e01b600052604160045260246000fd5b600082601f8301126110bf57600080fd5b813567ffffffffffffffff808211156110da576110da611098565b604051601f8301601f19908116603f0116810190828211818310171561110257611102611098565b8160405283815286602085880101111561111b57600080fd5b836020870160208301376000602085830101528094505050505092915050565b600080600080600080600060e0888a03121561115657600080fd5b873567ffffffffffffffff8082111561116e57600080fd5b61117a8b838c016110ae565b985060208a013591508082111561119057600080fd5b61119c8b838c016110ae565b975060408a01359150808211156111b257600080fd5b6111be8b838c016110ae565b965060608a01359150808211156111d457600080fd5b6111e08b838c016110ae565b955060808a01359150808211156111f657600080fd5b6112028b838c016110ae565b945060a08a013591508082111561121857600080fd5b6112248b838c016110ae565b935060c08a013591508082111561123a57600080fd5b506112478a828b016110ae565b91505092959891949750929550565b634e487b7160e01b600052602160045260246000fd5b6004811061128a57634e487b7160e01b600052602160045260246000fd5b9052565b6000815180845260005b818110156112b457602081850181015186830182015201611298565b818111156112c6576000602083870101525b50601f01601f19169290920160200192915050565b60008151608084526112f0608085018261128e565b905060208301518482036020860152611309828261128e565b91505060408301518482036040860152611323828261128e565b9150506060830151848203606086015261133d828261128e565b95945050505050565b600061012082518452602083015161136960208601826001600160a01b03169052565b50604083015161137c604086018261126c565b5060608301518160608601526113948286018261128e565b915050608083015184820360808601526113ae828261128e565b91505060a083015184820360a08601526113c8828261128e565b91505060c08301516113de60c086018215159052565b5060e083015160e0850152610100808401518583038287015261140183826112db565b9695505050505050565b60208152600061141e6020830184611346565b9392505050565b6000602080830181845280855180835260408601915060408160051b870101925083870160005b8281101561147a57603f19888603018452611468858351611346565b9450928501929085019060010161144c565b5092979650505050505050565b60006020828403121561149957600080fd5b81356001600160a01b038116811461141e57600080fd5b6060815260006114c3606083018661128e565b82810360208401526114d5818661128e565b90508281036040840152611401818561128e565b602081016114f7828461126c565b92915050565b634e487b7160e01b600052601160045260246000fd5b60008219821115611526576115266114fd565b500190565b600060001982141561153f5761153f6114fd565b5060010190565b600181811c9082168061155a57607f821691505b6020821081141561157b57634e487b7160e01b600052602260045260246000fd5b5091905056fea26469706673582212208738b02054d197195a362ea126d1976c5fc38e91321e4f024894f1b661dbd30964736f6c634300080b0033",
  "immutableReferences": {},
  "source": "// SPDX-License-Identifier: GPL-3.0\r\n\r\npragma solidity >=0.7.0 <0.9.0;\r\n\r\nimport \"./UserContract.sol\";\r\n\r\ncontract ActivistContract is UserContract {\r\n    struct Activist {\r\n        uint id;\r\n        address activistWallet; // Hash of wallet\r\n        UserType userType;\r\n        string name;\r\n        string document;\r\n        string documentType;\r\n        bool recentInspection;\r\n        uint totalInspections;\r\n        ActivistAddress activistAddress;\r\n    }\r\n    \r\n    struct ActivistAddress {\r\n        string country;\r\n        string state;\r\n        string city;\r\n        string cep;\r\n    }\r\n    \r\n    Activist[] internal activistsList;\r\n    mapping(address => Activist) internal activists;\r\n    uint public activistsCount;\r\n    \r\n    /**\r\n   * @dev Allow a new register of activist\r\n   * @param name the name of the activist\r\n   * @param document the document of activist\r\n   * @param documentType the document type type of activist. CPF/CNPJ\r\n   * @param country the country where the activist is\r\n   * @param state the state of the activist\r\n   * @param city the of the activist\r\n   * @param cep the cep of the activist\r\n   * @return a Activist\r\n   */\r\n    function addActivist( \r\n        string memory name, \r\n        string memory document, \r\n        string memory documentType, \r\n        string memory country, \r\n        string memory state, \r\n        string memory city, \r\n        string memory cep) public returns(Activist memory) {           \r\n            uint id = activistsCount + 1;\r\n            UserType userType = UserType.ACTIVIST;\r\n            \r\n            ActivistAddress memory activistAddress = ActivistAddress(country, state, city, cep);\r\n            Activist memory activist = Activist(id, msg.sender, userType, name, document, documentType, false, 0, activistAddress);\r\n            \r\n            activistsList.push(activist);\r\n            activists[msg.sender] = activist;\r\n            activistsCount++;\r\n            addUser(msg.sender, userType);\r\n            \r\n            return activist;\r\n    }\r\n    \r\n    /**\r\n   * @dev Returns all registered activists\r\n   * @return Activist struct array\r\n   */\r\n    function getActivists() public view returns(Activist[] memory) {\r\n        return activistsList;\r\n    }\r\n\r\n    /**\r\n   * @dev Return a specific activist\r\n   * @param addr the address of the activist.\r\n   */\r\n    function getActivist(address addr) public view returns(Activist memory) {\r\n        return activists[addr];\r\n    }\r\n    \r\n    /**\r\n   * @dev Check if a specific activist exists\r\n   * @return a bool that represent if a activist exists or not\r\n   */\r\n    function activistExists(address addr) public view returns(bool) {\r\n        return bytes(activists[addr].name).length > 0;\r\n    }\r\n}",
  "sourcePath": "C:\\Users\\felip\\OneDrive\\\\Ionic\\SintropContract\\contracts\\ActivistContract.sol",
  "compiler": {
    "name": "solc",
    "version": "0.8.11+commit.d7f03943.Emscripten.clang"
  },
  "schemaVersion": "3.4.3",
  "updatedAt": "2022-01-07T02:43:17.522Z",
  "devdoc": {
    "kind": "dev",
    "methods": {
      "activistExists(address)": {
        "details": "Check if a specific activist exists",
        "returns": {
          "_0": "a bool that represent if a activist exists or not"
        }
      },
      "addActivist(string,string,string,string,string,string,string)": {
        "details": "Allow a new register of activist",
        "params": {
          "cep": "the cep of the activist",
          "city": "the of the activist",
          "country": "the country where the activist is",
          "document": "the document of activist",
          "documentType": "the document type type of activist. CPF/CNPJ",
          "name": "the name of the activist",
          "state": "the state of the activist"
        },
        "returns": {
          "_0": "a Activist"
        }
      },
      "getActivist(address)": {
        "details": "Return a specific activist",
        "params": {
          "addr": "the address of the activist."
        }
      },
      "getActivists()": {
        "details": "Returns all registered activists",
        "returns": {
          "_0": "Activist struct array"
        }
      },
      "getUser(address)": {
        "details": "Returns the user type if the user is registered",
        "params": {
          "addr": "the user address that want check if exists"
        }
      },
      "getUserTypes()": {
        "details": "Returns the enum UserType of the system"
      }
    },
    "version": 1
  },
  "userdoc": {
    "kind": "user",
    "methods": {},
    "version": 1
  }
}