{
  "contractName": "DeveloperPool",
  "abi": [
    {
      "inputs": [
        {
          "internalType": "address",
          "name": "_satTokenAddress",
          "type": "address"
        },
        {
          "internalType": "uint256",
          "name": "_tokensPerEra",
          "type": "uint256"
        },
        {
          "internalType": "uint256",
          "name": "_blocksPerEra",
          "type": "uint256"
        },
        {
          "internalType": "uint256",
          "name": "_eraMax",
          "type": "uint256"
        }
      ],
      "stateMutability": "nonpayable",
      "type": "constructor"
    },
    {
      "anonymous": false,
      "inputs": [
        {
          "indexed": true,
          "internalType": "address",
          "name": "previousOwner",
          "type": "address"
        },
        {
          "indexed": true,
          "internalType": "address",
          "name": "newOwner",
          "type": "address"
        }
      ],
      "name": "OwnershipTransferred",
      "type": "event"
    },
    {
      "inputs": [],
      "name": "blocksPerEra",
      "outputs": [
        {
          "internalType": "uint256",
          "name": "",
          "type": "uint256"
        }
      ],
      "stateMutability": "view",
      "type": "function",
      "constant": true
    },
    {
      "inputs": [],
      "name": "blocksPrecision",
      "outputs": [
        {
          "internalType": "uint256",
          "name": "",
          "type": "uint256"
        }
      ],
      "stateMutability": "view",
      "type": "function",
      "constant": true
    },
    {
      "inputs": [],
      "name": "deployedAt",
      "outputs": [
        {
          "internalType": "uint256",
          "name": "",
          "type": "uint256"
        }
      ],
      "stateMutability": "view",
      "type": "function",
      "constant": true
    },
    {
      "inputs": [],
      "name": "developersCount",
      "outputs": [
        {
          "internalType": "uint256",
          "name": "",
          "type": "uint256"
        }
      ],
      "stateMutability": "view",
      "type": "function",
      "constant": true
    },
    {
      "inputs": [],
      "name": "eraMax",
      "outputs": [
        {
          "internalType": "uint256",
          "name": "",
          "type": "uint256"
        }
      ],
      "stateMutability": "view",
      "type": "function",
      "constant": true
    },
    {
      "inputs": [
        {
          "internalType": "uint256",
          "name": "",
          "type": "uint256"
        }
      ],
      "name": "eras",
      "outputs": [
        {
          "internalType": "uint256",
          "name": "era",
          "type": "uint256"
        },
        {
          "internalType": "uint256",
          "name": "tokens",
          "type": "uint256"
        },
        {
          "internalType": "uint256",
          "name": "developers",
          "type": "uint256"
        }
      ],
      "stateMutability": "view",
      "type": "function",
      "constant": true
    },
    {
      "inputs": [
        {
          "internalType": "uint256",
          "name": "",
          "type": "uint256"
        }
      ],
      "name": "levelsSumPerEra",
      "outputs": [
        {
          "internalType": "uint256",
          "name": "",
          "type": "uint256"
        }
      ],
      "stateMutability": "view",
      "type": "function",
      "constant": true
    },
    {
      "inputs": [],
      "name": "owner",
      "outputs": [
        {
          "internalType": "address",
          "name": "",
          "type": "address"
        }
      ],
      "stateMutability": "view",
      "type": "function",
      "constant": true
    },
    {
      "inputs": [],
      "name": "renounceOwnership",
      "outputs": [],
      "stateMutability": "nonpayable",
      "type": "function"
    },
    {
      "inputs": [],
      "name": "tokensPerEra",
      "outputs": [
        {
          "internalType": "uint256",
          "name": "",
          "type": "uint256"
        }
      ],
      "stateMutability": "view",
      "type": "function",
      "constant": true
    },
    {
      "inputs": [
        {
          "internalType": "address",
          "name": "newOwner",
          "type": "address"
        }
      ],
      "name": "transferOwnership",
      "outputs": [],
      "stateMutability": "nonpayable",
      "type": "function"
    },
    {
      "inputs": [
        {
          "internalType": "address",
          "name": "_address",
          "type": "address"
        }
      ],
      "name": "getDeveloper",
      "outputs": [
        {
          "components": [
            {
              "internalType": "address",
              "name": "_address",
              "type": "address"
            },
            {
              "internalType": "uint256",
              "name": "level",
              "type": "uint256"
            },
            {
              "internalType": "uint256",
              "name": "currentEra",
              "type": "uint256"
            },
            {
              "internalType": "uint256",
              "name": "createdAt",
              "type": "uint256"
            }
          ],
          "internalType": "struct DeveloperPool.Developer",
          "name": "",
          "type": "tuple"
        }
      ],
      "stateMutability": "view",
      "type": "function",
      "constant": true
    },
    {
      "inputs": [],
      "name": "getDevelopersAddress",
      "outputs": [
        {
          "internalType": "address[]",
          "name": "",
          "type": "address[]"
        }
      ],
      "stateMutability": "view",
      "type": "function",
      "constant": true
    },
    {
      "inputs": [
        {
          "internalType": "address",
          "name": "_address",
          "type": "address"
        }
      ],
      "name": "addDeveloper",
      "outputs": [],
      "stateMutability": "nonpayable",
      "type": "function"
    },
    {
      "inputs": [],
      "name": "currentContractEra",
      "outputs": [
        {
          "internalType": "uint256",
          "name": "",
          "type": "uint256"
        }
      ],
      "stateMutability": "view",
      "type": "function",
      "constant": true
    },
    {
      "inputs": [
        {
          "internalType": "address",
          "name": "_address",
          "type": "address"
        }
      ],
      "name": "addLevel",
      "outputs": [],
      "stateMutability": "nonpayable",
      "type": "function"
    },
    {
      "inputs": [
        {
          "internalType": "address",
          "name": "_address",
          "type": "address"
        }
      ],
      "name": "undoLevel",
      "outputs": [],
      "stateMutability": "nonpayable",
      "type": "function"
    },
    {
      "inputs": [],
      "name": "approve",
      "outputs": [
        {
          "internalType": "bool",
          "name": "",
          "type": "bool"
        }
      ],
      "stateMutability": "nonpayable",
      "type": "function"
    },
    {
      "inputs": [],
      "name": "withDraw",
      "outputs": [
        {
          "internalType": "bool",
          "name": "",
          "type": "bool"
        }
      ],
      "stateMutability": "nonpayable",
      "type": "function"
    },
    {
      "inputs": [],
      "name": "allowance",
      "outputs": [
        {
          "internalType": "uint256",
          "name": "",
          "type": "uint256"
        }
      ],
      "stateMutability": "view",
      "type": "function",
      "constant": true
    },
    {
      "inputs": [],
      "name": "nextApproveTime",
      "outputs": [
        {
          "internalType": "int256",
          "name": "",
          "type": "int256"
        }
      ],
      "stateMutability": "view",
      "type": "function",
      "constant": true
    },
    {
      "inputs": [],
      "name": "canApproveTimes",
      "outputs": [
        {
          "internalType": "uint256",
          "name": "",
          "type": "uint256"
        }
      ],
      "stateMutability": "view",
      "type": "function",
      "constant": true
    }
  ],
  "bytecode": "0x60806040523480156200001157600080fd5b506040516200156f3803806200156f83398101604081905262000034916200017d565b6200003f336200009a565b600480546001600160a01b0319166001600160a01b038616179055620000624390565b6018556200008583670de0b6b3a7640000620000ea602090811b620009b817901c565b601955601a91909155601b55506200021b9050565b600080546001600160a01b038381166001600160a01b0319831681178455604051919092169283917f8be0079c531659141344cd1fd0a4f28419497f9722a3daafe3b4186f6b6457e09190a35050565b600082620000fb5750600062000177565b6000620001098385620001ca565b905082620001188583620001f8565b14620001745760405162461bcd60e51b815260206004820152602160248201527f536166654d6174683a206d756c7469706c69636174696f6e206f766572666c6f6044820152607760f81b606482015260840160405180910390fd5b90505b92915050565b600080600080608085870312156200019457600080fd5b84516001600160a01b0381168114620001ac57600080fd5b60208601516040870151606090970151919890975090945092505050565b6000816000190483118215151615620001f357634e487b7160e01b600052601160045260246000fd5b500290565b6000826200021657634e487b7160e01b600052601260045260246000fd5b500490565b611344806200022b6000396000f3fe608060405234801561001057600080fd5b50600436106101425760003560e01c80638ff9b8ac116100b8578063d32ae64b1161007c578063d32ae64b146102b7578063de242ff4146102cc578063eae4c19f146102d4578063ed0df79e146102dd578063f1272b6a146102e5578063f2fde38b146102ed57600080fd5b80638ff9b8ac1461027757806393fd498c1461028a57806396831f6c14610292578063b4897e171461029b578063c3cca0cc146102a457600080fd5b806322fbf1e81161010a57806322fbf1e81461019e57806367e13ee0146101b3578063715018a614610202578063720a70bd1461020a578063757dbe2b146102535780638da5cb5b1461025c57600080fd5b80630fd07d98146101475780630fdb1c101461016357806311d64d4a1461017b57806312424e3f1461018e5780631f652c2314610196575b600080fd5b610150601a5481565b6040519081526020015b60405180910390f35b61016b610300565b604051901515815260200161015a565b610150610189366004610ef1565b61039e565b61016b6103b5565b6101506104dc565b6101b16101ac366004610f0a565b61052b565b005b6101c66101c1366004610f0a565b610651565b60405161015a919081516001600160a01b0316815260208083015190820152604080830151908201526060918201519181019190915260800190565b6101b16106d2565b610238610218366004610ef1565b600260208190526000918252604090912080546001820154919092015483565b6040805193845260208401929092529082015260600161015a565b61015060195481565b6000546040516001600160a01b03909116815260200161015a565b6101b1610285366004610f0a565b610708565b610150600581565b610150601b5481565b61015060055481565b6101b16102b2366004610f0a565b61076b565b6102bf6107e0565b60405161015a9190610f33565b610150610842565b61015060185481565b6101506108bf565b6101506108e5565b6101b16102fb366004610f0a565b61091d565b6004546000906001600160a01b03166323b872dd303361031e610842565b6040516001600160e01b031960e086901b1681526001600160a01b03938416600482015292909116602483015260448201526064016020604051808303816000875af1158015610372573d6000803e3d6000fd5b505050506040513d601f19601f820116820180604052508101906103969190610f80565b506001905090565b600681601281106103ae57600080fd5b0154905081565b60006103bf610a40565b6104095760405162461bcd60e51b8152602060048201526016602482015275165bdd4818d85b89dd081dda5d1a191c985dc81e595d60521b60448201526064015b60405180910390fd5b600061041433610651565b9050600061042a82602001518360400151610a87565b600480546040516333ff8bd360e11b81523392810192909252602482018390529192506001600160a01b03909116906367ff17a6906044016020604051808303816000875af1158015610481573d6000803e3d6000fd5b505050506040513d601f19601f820116820180604052508101906104a59190610fa2565b506104b4826040015182610ada565b6104bc610b70565b6104c4610a40565b156104d3576104d16103b5565b505b60019250505090565b6000806104e76108e5565b905060008113156104fa57600091505090565b601a546105259061051f6105106005600a6110b5565b610519856110c1565b906109b8565b90610b95565b91505090565b6000546001600160a01b031633146105555760405162461bcd60e51b8152600401610400906110de565b600061055f6108bf565b90506040518060800160405280836001600160a01b031681526020016001815260200182815260200161058f4290565b90526001600160a01b03838116600090815260016020818152604092839020855181546001600160a01b03191695169490941784558401519083015582015160028201556060909101516003909101556105e881610bd7565b600580549060006105f883611113565b9091555050600380546001810182556000919091527fc2575a0e9e593c00f959f8c92f12db2869c3395a3b0502d05e2516446f71f85b0180546001600160a01b0319166001600160a01b03939093169290921790915550565b610685604051806080016040528060006001600160a01b031681526020016000815260200160008152602001600081525090565b506001600160a01b03908116600090815260016020818152604092839020835160808101855281549095168552918201549084015260028101549183019190915260030154606082015290565b6000546001600160a01b031633146106fc5760405162461bcd60e51b8152600401610400906110de565b6107066000610c74565b565b6000546001600160a01b031633146107325760405162461bcd60e51b8152600401610400906110de565b600061073d82610651565b905061074d816040015182610cc4565b506001600160a01b0316600090815260016020819052604082200155565b6000546001600160a01b031633146107955760405162461bcd60e51b8152600401610400906110de565b60006107a082610651565b6001600160a01b03831660009081526001602081905260408220018054929350906107ca83611113565b91905055506107dc8160400151610bd7565b5050565b6060600380548060200260200160405190810160405280929190818152602001828054801561083857602002820191906000526020600020905b81546001600160a01b0316815260019091019060200180831161081a575b5050505050905090565b60048054604051636eb1769f60e11b815230928101929092523360248301526000916001600160a01b039091169063dd62ed3e90604401602060405180830381865afa158015610896573d6000803e3d6000fd5b505050506040513d601f19601f820116820180604052508101906108ba9190610fa2565b905090565b60006108ba60016108df601a5461051f6018546108d94390565b90610d68565b90610daa565b6000806108f133610651565b9050438160400151601a54610906919061112e565b60185461091391906111b3565b61052591906111f4565b6000546001600160a01b031633146109475760405162461bcd60e51b8152600401610400906110de565b6001600160a01b0381166109ac5760405162461bcd60e51b815260206004820152602660248201527f4f776e61626c653a206e6577206f776e657220697320746865207a65726f206160448201526564647265737360d01b6064820152608401610400565b6109b581610c74565b50565b6000826109c757506000610a3a565b60006109d38385611233565b9050826109e08583611252565b14610a375760405162461bcd60e51b815260206004820152602160248201527f536166654d6174683a206d756c7469706c69636174696f6e206f766572666c6f6044820152607760f81b6064820152608401610400565b90505b92915050565b600080610a4c33610651565b9050806020015160001415610a6357600091505090565b610a71438260400151610e09565b801561052557506040810151601b541015610525565b6000806006610a97600185611274565b60128110610aa757610aa761128b565b0154905080610aba576000915050610a3a565b601954610ad290610acb9083610b95565b85906109b8565b949350505050565b60006001905060006040518060600160405280858152602001610b1c600260008881526020019081526020016000206001015486610daa90919063ffffffff16565b815260008681526002602081815260409092200154910190610b3f908590610daa565b9052600094855260026020818152604096879020835181559083015160018201559590910151940193909355505050565b336000908152600160205260408120600201805491610b8e83611113565b9190505550565b6000610a3783836040518060400160405280601a81526020017f536166654d6174683a206469766973696f6e206279207a65726f000000000000815250610e36565b6040805161024081019182905260009160069060129082845b815481526020019060010190808311610bf0575050601b5493945060009250610c1e91506001905085611274565b90505b81811015610c6057828160128110610c3b57610c3b61128b565b60200201805190610c4b82611113565b90525080610c5881611113565b915050610c21565b50610c6e6006836012610e9e565b50505050565b600080546001600160a01b038381166001600160a01b0319831681178455604051919092169283917f8be0079c531659141344cd1fd0a4f28419497f9722a3daafe3b4186f6b6457e09190a35050565b6040805161024081019182905260009160069060129082845b815481526020019060010190808311610cdd575050601b5493945060009250610d0b91506001905086611274565b90505b81811015610d53578360200151838260128110610d2d57610d2d61128b565b60200201818151610d3e9190611274565b90525080610d4b81611113565b915050610d0e565b50610d616006836012610e9e565b5050505050565b6000610a3783836040518060400160405280601e81526020017f536166654d6174683a207375627472616374696f6e206f766572666c6f770000815250610e6d565b600080610db783856112a1565b905083811015610a375760405162461bcd60e51b815260206004820152601b60248201527f536166654d6174683a206164646974696f6e206f766572666c6f7700000000006044820152606401610400565b600082610e2d610e2484601a546109b890919063ffffffff16565b60185490610daa565b11159392505050565b60008183610e575760405162461bcd60e51b815260040161040091906112b9565b506000610e648486611252565b95945050505050565b60008184841115610e915760405162461bcd60e51b815260040161040091906112b9565b506000610e648486611274565b8260128101928215610ecc579160200282015b82811115610ecc578251825591602001919060010190610eb1565b50610ed8929150610edc565b5090565b5b80821115610ed85760008155600101610edd565b600060208284031215610f0357600080fd5b5035919050565b600060208284031215610f1c57600080fd5b81356001600160a01b0381168114610a3757600080fd5b6020808252825182820181905260009190848201906040850190845b81811015610f745783516001600160a01b031683529284019291840191600101610f4f565b50909695505050505050565b600060208284031215610f9257600080fd5b81518015158114610a3757600080fd5b600060208284031215610fb457600080fd5b5051919050565b634e487b7160e01b600052601160045260246000fd5b600181815b8085111561100c578160001904821115610ff257610ff2610fbb565b80851615610fff57918102915b93841c9390800290610fd6565b509250929050565b60008261102357506001610a3a565b8161103057506000610a3a565b816001811461104657600281146110505761106c565b6001915050610a3a565b60ff84111561106157611061610fbb565b50506001821b610a3a565b5060208310610133831016604e8410600b841016171561108f575081810a610a3a565b6110998383610fd1565b80600019048211156110ad576110ad610fbb565b029392505050565b6000610a378383611014565b6000600160ff1b8214156110d7576110d7610fbb565b5060000390565b6020808252818101527f4f776e61626c653a2063616c6c6572206973206e6f7420746865206f776e6572604082015260600190565b600060001982141561112757611127610fbb565b5060010190565b60006001600160ff1b038184138284138082168684048611161561115457611154610fbb565b600160ff1b600087128281168783058912161561117357611173610fbb565b6000871292508782058712848416161561118f5761118f610fbb565b878505871281841616156111a5576111a5610fbb565b505050929093029392505050565b600080821280156001600160ff1b03849003851316156111d5576111d5610fbb565b600160ff1b83900384128116156111ee576111ee610fbb565b50500190565b60008083128015600160ff1b85018412161561121257611212610fbb565b6001600160ff1b038401831381161561122d5761122d610fbb565b50500390565b600081600019048311821515161561124d5761124d610fbb565b500290565b60008261126f57634e487b7160e01b600052601260045260246000fd5b500490565b60008282101561128657611286610fbb565b500390565b634e487b7160e01b600052603260045260246000fd5b600082198211156112b4576112b4610fbb565b500190565b600060208083528351808285015260005b818110156112e6578581018301518582016040015282016112ca565b818111156112f8576000604083870101525b50601f01601f191692909201604001939250505056fea2646970667358221220661cf273ef931a773480c77c07694f335373f79198cc51007f19adb60628ef4764736f6c634300080b0033",
  "immutableReferences": {},
  "source": "pragma solidity >=0.7.0 <=0.9.0;\r\n// SPDX-License-Identifier: GPL-3.0-or-later\r\n\r\nimport \"@openzeppelin/contracts/access/Ownable.sol\";\r\nimport \"./PoolInterface.sol\";\r\n\r\n/**\r\n* @author Everson B. Silva\r\n* @title DeveloperContract\r\n* @dev DeveloperPool is a contract to reward developers\r\n*/\r\ncontract DeveloperPool is Ownable, PoolInterface {\r\n    using SafeMath for uint256;\r\n\r\n    struct Developer {\r\n        address _address;\r\n        uint level;\r\n        uint currentEra;\r\n        uint createdAt;\r\n    }\r\n\r\n    struct Era {\r\n        uint era;\r\n        uint tokens;\r\n        uint developers;\r\n    }\r\n\r\n    mapping(address => Developer) internal developers;\r\n    mapping(uint => Era) public eras;\r\n\r\n    address[] internal developersAddress;\r\n\r\n    SatTokenInterface internal satToken;\r\n\r\n    uint public developersCount;\r\n\r\n    uint[18] public levelsSumPerEra;\r\n\r\n    uint public deployedAt;\r\n\r\n    uint public tokensPerEra;\r\n\r\n    uint public blocksPerEra;\r\n\r\n    uint public eraMax;\r\n\r\n    uint public constant blocksPrecision = 5;\r\n\r\n    constructor(address _satTokenAddress, uint _tokensPerEra, uint _blocksPerEra, uint _eraMax) {\r\n        satToken = SatTokenInterface(_satTokenAddress);\r\n        deployedAt = currentBlockNumber();\r\n        tokensPerEra = _tokensPerEra.mul(10**18);\r\n        blocksPerEra = _blocksPerEra;\r\n        eraMax = _eraMax;\r\n    }\r\n\r\n    /**\r\n   * @dev Return a specific developer\r\n   * @param _address the address of the developer\r\n   */\r\n    function getDeveloper(address _address) public view returns (Developer memory) {\r\n        return developers[_address];\r\n    }\r\n\r\n    /**\r\n   * @dev Return the developers address of the system\r\n   */\r\n    function getDevelopersAddress() public view returns(address[] memory) {\r\n        return developersAddress;\r\n    }\r\n\r\n    /**\r\n   * @dev Add a new develop to the pool\r\n   * @param _address the address of the developer\r\n   */\r\n    function addDeveloper(address _address) public onlyOwner {\r\n        uint _currentEra = currentContractEra();\r\n        developers[_address] = Developer(_address, 1, _currentEra, timestamp());\r\n        upLevels(_currentEra);\r\n        developersCount++;\r\n        developersAddress.push(_address);\r\n    }\r\n\r\n    /**\r\n   * @dev Increment the levels + 1 per era always that a developer is added or the level is up\r\n   * @param _fromEra the era of developer\r\n   */\r\n    function upLevels(uint _fromEra) internal {\r\n        uint[18] memory _levels = levelsSumPerEra;\r\n        uint _eraMax = eraMax;\r\n\r\n        for(uint i = _fromEra - 1; i < _eraMax; i++) {\r\n            _levels[i]++;\r\n        }\r\n\r\n        levelsSumPerEra = _levels;\r\n    }\r\n\r\n    /**\r\n   * @dev Decrement the levels of the undo developer\r\n   * @param _fromEra the era of developer\r\n   */\r\n    function downLevels(uint _fromEra, Developer memory developer) internal {\r\n        uint[18] memory _levels = levelsSumPerEra;\r\n        uint _eraMax = eraMax;\r\n\r\n        for(uint i = _fromEra - 1; i < _eraMax; i++) {\r\n            _levels[i] -= developer.level;\r\n        }\r\n\r\n        levelsSumPerEra = _levels;\r\n    }\r\n\r\n    /**\r\n   * @dev Return the current era of the contract\r\n   */\r\n    function currentContractEra() public view returns(uint) {\r\n        return currentBlockNumber().sub(deployedAt).div(blocksPerEra).add(1);\r\n    }\r\n\r\n    /**\r\n   * @dev Increment the level of the develop\r\n   * @param _address the address of the developer\r\n   */\r\n    function addLevel(address _address) public onlyOwner {\r\n        Developer memory developer = getDeveloper(_address);\r\n\r\n        developers[_address].level++;\r\n        upLevels(developer.currentEra);\r\n    }\r\n\r\n    /**\r\n   * @dev Set to zero the level of the develop\r\n   * @param _address the address of the developer\r\n   */\r\n    function undoLevel(address _address) public onlyOwner {\r\n        Developer memory developer = getDeveloper(_address);\r\n        downLevels(developer.currentEra, developer);\r\n        developers[_address].level = 0;\r\n    }\r\n\r\n    /**\r\n   * @dev Allow the developer to approve tokens from DeveloperPool address. DeveloperPool address must have tokens in SAT TOKEN\r\n   * TODO Check external code call - EXTCALL\r\n   */\r\n    function approve() public override returns(bool){\r\n        require(canApprove(), \"You can't withdraw yet\");\r\n\r\n        Developer memory developer = getDeveloper(msg.sender);\r\n\r\n        uint tokens = calcTokens(developer.level, developer.currentEra);\r\n\r\n        satToken.approveWith(msg.sender, tokens);\r\n\r\n        setEraMetrics(developer.currentEra, tokens);\r\n\r\n        developerNextEra();\r\n\r\n        if (canApprove()) approve();\r\n\r\n        return true;\r\n    }\r\n\r\n    /**\r\n   * @dev Add metrics actions to eras. The metrics are numbers of tokens and developers.\r\n   * @param _era The current era that the develop approve() tokens\r\n   * @param _tokens How much tokens the win to this era\r\n   */\r\n    function setEraMetrics(uint _era, uint _tokens) internal {\r\n        uint oneDev = 1;\r\n        Era memory newEra = Era(_era, _tokens.add(eras[_era].tokens), oneDev.add(eras[_era].developers));\r\n        eras[_era] = newEra;\r\n    }\r\n\r\n    /**\r\n   * @dev Allow the dev withdraw tokens from DeveloperPool address to his address\r\n   * TODO Check external code call - EXTCALL\r\n   */\r\n    function withDraw() public override returns(bool){\r\n        satToken.transferFrom(address(this), msg.sender, allowance()); \r\n        return true;\r\n    }\r\n\r\n    /**\r\n   * @dev Show how much tokens the developer can withdraw from DeveloperPool address\r\n   * TODO Check external code call - EXTCALL\r\n   */\r\n    function allowance() public override view returns (uint){\r\n        return satToken.allowance(address(this), msg.sender);\r\n    }\r\n\r\n    /**\r\n   * @dev Check if the developer can approve tokens\r\n   */\r\n    function canApprove() internal view returns(bool) {\r\n        Developer memory developer = getDeveloper(msg.sender);\r\n\r\n        if (developer.level == 0) return false;\r\n\r\n        return canApproveFromPresent(currentBlockNumber(), developer.currentEra) && eraLimit(developer.currentEra);\r\n    }\r\n\r\n    /**\r\n   * @dev Check if the limit of eras is the maximum. The state eraMax is the limit\r\n   */\r\n    function eraLimit(uint _currentEra) internal view returns(bool) {\r\n        return _currentEra <= eraMax;\r\n    }\r\n\r\n    /**\r\n   * @dev Check if the developer can approve. This funcion check the initial block deploy with the current block\r\n   */\r\n    function canApproveFromPresent(uint _currentBlock, uint _currentEra) internal view returns(bool) {\r\n        return deployedAt.add(blocksPerEra.mul(_currentEra)) <= _currentBlock;\r\n    }\r\n\r\n    /**\r\n   * @dev Increment a new era to a developer. This funcions called when the developer approve tokens\r\n   */\r\n    function developerNextEra() internal { \r\n        developers[msg.sender].currentEra++;\r\n    }\r\n\r\n    /**\r\n   * @dev Calc how much tokens the dev can approve in some era\r\n   * @param _level The level of the developer\r\n   * @param _era Era to calc in\r\n   */\r\n    function calcTokens(uint _level, uint _era) internal view returns(uint) {\r\n        uint _levelsSum = levelsSumPerEra[_era - 1];\r\n        if (_levelsSum == 0) return 0;\r\n        return _level.mul((tokensPerEra.div(_levelsSum)));\r\n    }\r\n\r\n    /**\r\n   * @dev Show how much block missing to approve new tokens\r\n   */\r\n    function nextApproveTime() public view returns(int) {\r\n        Developer memory developer = getDeveloper(msg.sender);\r\n        return int(deployedAt) + (int(blocksPerEra) * int(developer.currentEra)) - int(currentBlockNumber());\r\n    }\r\n\r\n    /**\r\n   * @dev Show how much times the developer can approve tokens. How much eras passed.\r\n   * @return A uint with precision of blocksPrecision state. The real return can be get by return/blocksPrecision and Math.ceil\r\n   */\r\n    function canApproveTimes() public view returns(uint) {\r\n        int approvesTimes = nextApproveTime();\r\n        if (approvesTimes > 0) return 0;\r\n\r\n        return uint(-approvesTimes).mul(10**blocksPrecision).div(blocksPerEra);\r\n    }\r\n\r\n    /**\r\n   * @dev Returns the timestamp\r\n   */\r\n    function timestamp() internal view returns(uint) {\r\n        return block.timestamp;\r\n    }\r\n\r\n    /**\r\n   * @dev Returns the current block number\r\n   */\r\n    function currentBlockNumber() internal view returns(uint) {\r\n        return block.number;\r\n    }\r\n\r\n}\r\n\r\ninterface SatTokenInterface {\r\n    function allowance(address owner, address delegate) external view returns(uint);\r\n    function approveWith(address delegate, uint numTokens) external returns(uint);\r\n    function transferFrom(address owner, address to, uint numTokens) external returns(bool);\r\n}\r\n\r\nlibrary SafeMath {\r\n    function add(uint256 a, uint256 b) internal pure returns (uint256) {\r\n        uint256 c = a + b;\r\n        require(c >= a, \"SafeMath: addition overflow\");\r\n\r\n        return c;\r\n    }\r\n\r\n    function sub(uint256 a, uint256 b) internal pure returns (uint256) {\r\n        return sub(a, b, \"SafeMath: subtraction overflow\");\r\n    }\r\n\r\n    function sub(uint256 a, uint256 b, string memory errorMessage) internal pure returns (uint256) {\r\n        require(b <= a, errorMessage);\r\n        uint256 c = a - b;\r\n\r\n        return c;\r\n    }\r\n\r\n    function mul(uint256 a, uint256 b) internal pure returns (uint256) {\r\n        if (a == 0) {\r\n            return 0;\r\n        }\r\n\r\n        uint256 c = a * b;\r\n        require(c / a == b, \"SafeMath: multiplication overflow\");\r\n\r\n        return c;\r\n    }\r\n\r\n    function div(uint256 a, uint256 b) internal pure returns (uint256) {\r\n        return div(a, b, \"SafeMath: division by zero\");\r\n    }\r\n\r\n    function div(uint256 a, uint256 b, string memory errorMessage) internal pure returns (uint256) {\r\n        // Solidity only automatically asserts when dividing by 0\r\n        require(b > 0, errorMessage);\r\n        uint256 c = a / b;\r\n        // assert(a == b * c + a % b); // There is no case in which this doesn't hold\r\n\r\n        return c;\r\n    }\r\n\r\n    function mod(uint256 a, uint256 b) internal pure returns (uint256) {\r\n        return mod(a, b, \"SafeMath: modulo by zero\");\r\n    }\r\n\r\n    function mod(uint256 a, uint256 b, string memory errorMessage) internal pure returns (uint256) {\r\n        require(b != 0, errorMessage);\r\n        return a % b;\r\n    }\r\n}\r\n",
  "sourcePath": "C:\\Users\\felip\\OneDrive\\\\Ionic\\SintropContract\\contracts\\DeveloperPool.sol",
  "compiler": {
    "name": "solc",
    "version": "0.8.11+commit.d7f03943.Emscripten.clang"
  },
  "schemaVersion": "3.4.3",
  "updatedAt": "2022-01-31T19:53:53.238Z",
  "networkType": "ethereum",
  "devdoc": {
    "author": "Everson B. Silva",
    "details": "DeveloperPool is a contract to reward developers",
    "kind": "dev",
    "methods": {
      "addDeveloper(address)": {
        "details": "Add a new develop to the pool",
        "params": {
          "_address": "the address of the developer"
        }
      },
      "addLevel(address)": {
        "details": "Increment the level of the develop",
        "params": {
          "_address": "the address of the developer"
        }
      },
      "allowance()": {
        "details": "Show how much tokens the developer can withdraw from DeveloperPool address TODO Check external code call - EXTCALL"
      },
      "approve()": {
        "details": "Allow the developer to approve tokens from DeveloperPool address. DeveloperPool address must have tokens in SAT TOKEN TODO Check external code call - EXTCALL"
      },
      "canApproveTimes()": {
        "details": "Show how much times the developer can approve tokens. How much eras passed.",
        "returns": {
          "_0": "A uint with precision of blocksPrecision state. The real return can be get by return/blocksPrecision and Math.ceil"
        }
      },
      "currentContractEra()": {
        "details": "Return the current era of the contract"
      },
      "getDeveloper(address)": {
        "details": "Return a specific developer",
        "params": {
          "_address": "the address of the developer"
        }
      },
      "getDevelopersAddress()": {
        "details": "Return the developers address of the system"
      },
      "nextApproveTime()": {
        "details": "Show how much block missing to approve new tokens"
      },
      "owner()": {
        "details": "Returns the address of the current owner."
      },
      "renounceOwnership()": {
        "details": "Leaves the contract without owner. It will not be possible to call `onlyOwner` functions anymore. Can only be called by the current owner. NOTE: Renouncing ownership will leave the contract without an owner, thereby removing any functionality that is only available to the owner."
      },
      "transferOwnership(address)": {
        "details": "Transfers ownership of the contract to a new account (`newOwner`). Can only be called by the current owner."
      },
      "undoLevel(address)": {
        "details": "Set to zero the level of the develop",
        "params": {
          "_address": "the address of the developer"
        }
      },
      "withDraw()": {
        "details": "Allow the dev withdraw tokens from DeveloperPool address to his address TODO Check external code call - EXTCALL"
      }
    },
    "title": "DeveloperContract",
    "version": 1
  },
  "userdoc": {
    "kind": "user",
    "methods": {},
    "version": 1
  }
}