{
  "contractName": "DeveloperPool",
  "abi": [
    {
      "inputs": [
        {
          "internalType": "address",
          "name": "satTokenAddress",
          "type": "address"
        }
      ],
      "stateMutability": "nonpayable",
      "type": "constructor"
    },
    {
      "inputs": [],
      "name": "developersCount",
      "outputs": [
        {
          "internalType": "uint256",
          "name": "",
          "type": "uint256"
        }
      ],
      "stateMutability": "view",
      "type": "function"
    },
    {
      "inputs": [
        {
          "internalType": "address",
          "name": "_developerAddress",
          "type": "address"
        }
      ],
      "name": "getDeveloper",
      "outputs": [
        {
          "components": [
            {
              "internalType": "address",
              "name": "_address",
              "type": "address"
            },
            {
              "internalType": "uint8",
              "name": "level",
              "type": "uint8"
            },
            {
              "internalType": "uint8",
              "name": "contributions",
              "type": "uint8"
            },
            {
              "internalType": "uint256",
              "name": "tokens",
              "type": "uint256"
            }
          ],
          "internalType": "struct DeveloperPool.Developer",
          "name": "",
          "type": "tuple"
        }
      ],
      "stateMutability": "view",
      "type": "function"
    },
    {
      "inputs": [
        {
          "internalType": "address",
          "name": "_developerAddress",
          "type": "address"
        }
      ],
      "name": "add",
      "outputs": [],
      "stateMutability": "nonpayable",
      "type": "function"
    },
    {
      "inputs": [
        {
          "internalType": "address",
          "name": "_developerAddress",
          "type": "address"
        },
        {
          "internalType": "uint8",
          "name": "_contributions",
          "type": "uint8"
        }
      ],
      "name": "newContribuitions",
      "outputs": [],
      "stateMutability": "nonpayable",
      "type": "function"
    },
    {
      "inputs": [
        {
          "internalType": "address",
          "name": "_developerAddress",
          "type": "address"
        },
        {
          "internalType": "uint8",
          "name": "_level",
          "type": "uint8"
        }
      ],
      "name": "newLevel",
      "outputs": [],
      "stateMutability": "nonpayable",
      "type": "function"
    },
    {
      "inputs": [
        {
          "internalType": "address",
          "name": "_developerAddress",
          "type": "address"
        },
        {
          "internalType": "uint8",
          "name": "_tokens",
          "type": "uint8"
        }
      ],
      "name": "newTokens",
      "outputs": [],
      "stateMutability": "nonpayable",
      "type": "function"
    },
    {
      "inputs": [],
      "name": "approve",
      "outputs": [
        {
          "internalType": "bool",
          "name": "",
          "type": "bool"
        }
      ],
      "stateMutability": "nonpayable",
      "type": "function"
    },
    {
      "inputs": [],
      "name": "withDraw",
      "outputs": [
        {
          "internalType": "bool",
          "name": "",
          "type": "bool"
        }
      ],
      "stateMutability": "nonpayable",
      "type": "function"
    },
    {
      "inputs": [],
      "name": "allowance",
      "outputs": [
        {
          "internalType": "uint256",
          "name": "",
          "type": "uint256"
        }
      ],
      "stateMutability": "view",
      "type": "function"
    }
  ],
  "bytecode": "0x608060405234801561001057600080fd5b506040516106f23803806106f283398101604081905261002f91610054565b600280546001600160a01b0319166001600160a01b0392909216919091179055610084565b60006020828403121561006657600080fd5b81516001600160a01b038116811461007d57600080fd5b9392505050565b61065f806100936000396000f3fe608060405234801561001057600080fd5b50600436106100935760003560e01c806367e13ee01161006657806367e13ee0146100e557806379633a00146101af578063b4897e17146101c2578063de242ff4146101d9578063f96d6301146101e157600080fd5b80630a3b0a4f146100985780630fdb1c10146100ad57806312424e3f146100ca57806327260d85146100d2575b600080fd5b6100ab6100a6366004610521565b6101f4565b005b6100b561028a565b60405190151581526020015b60405180910390f35b6100b5610328565b6100ab6100e0366004610543565b6103d0565b61016b6100f3366004610521565b60408051608080820183526000808352602080840182905283850182905260609384018290526001600160a01b039586168252600180825291859020855193840186528054968716845260ff600160a01b8804811692850192909252600160a81b909604169382019390935292909101549082015290565b6040805182516001600160a01b0316815260208084015160ff90811691830191909152838301511691810191909152606091820151918101919091526080016100c1565b6100ab6101bd366004610543565b610407565b6101cb60005481565b6040519081526020016100c1565b6101cb610458565b6100ab6101ef366004610543565b6104d0565b604080516080810182526001600160a01b038381168083526001602080850182815260008688018181526060880182815295825292849052968720865181549251935160ff908116600160a81b0260ff60a81b1991909516600160a01b026001600160a81b0319909416919097161791909117949094161783559051910155815490918061028183610596565b91905055505050565b6002546000906001600160a01b03166323b872dd30336102a8610458565b6040516001600160e01b031960e086901b1681526001600160a01b03938416600482015292909116602483015260448201526064016020604051808303816000875af11580156102fc573d6000803e3d6000fd5b505050506040513d601f19601f8201168201806040525081019061032091906105b1565b506001905090565b6002543360008181526001602081905260408083209091015490516333ff8bd360e11b815260048101939093526024830152916001600160a01b0316906367ff17a6906044016020604051808303816000875af115801561038d573d6000803e3d6000fd5b505050506040513d601f19601f820116820180604052508101906103b191906105d3565b506103ca33600090815260016020819052604082200155565b50600190565b6001600160a01b0382166000908152600160208190526040822001805460ff841692906103fe9084906105ec565b90915550505050565b6001600160a01b0382166000908152600160205260409020805482919060159061043c908490600160a81b900460ff16610604565b92506101000a81548160ff021916908360ff1602179055505050565b600254604051636eb1769f60e11b81523060048201523360248201526000916001600160a01b03169063dd62ed3e90604401602060405180830381865afa1580156104a7573d6000803e3d6000fd5b505050506040513d601f19601f820116820180604052508101906104cb91906105d3565b905090565b6001600160a01b0382166000908152600160205260409020805482919060149061043c908490600160a01b900460ff16610604565b80356001600160a01b038116811461051c57600080fd5b919050565b60006020828403121561053357600080fd5b61053c82610505565b9392505050565b6000806040838503121561055657600080fd5b61055f83610505565b9150602083013560ff8116811461057557600080fd5b809150509250929050565b634e487b7160e01b600052601160045260246000fd5b60006000198214156105aa576105aa610580565b5060010190565b6000602082840312156105c357600080fd5b8151801515811461053c57600080fd5b6000602082840312156105e557600080fd5b5051919050565b600082198211156105ff576105ff610580565b500190565b600060ff821660ff84168060ff0382111561062157610621610580565b01939250505056fea264697066735822122047014a167543d960d43901268257663be7827a6285cf3c8d317e7d37ff3828cd64736f6c634300080b0033",
  "immutableReferences": {},
  "source": "pragma solidity >=0.7.0 <=0.9.0;\r\n// SPDX-License-Identifier: GPL-3.0-or-later\r\n\r\n// import \"@openzeppelin/contracts/access/Ownable.sol\";\r\nimport \"./PoolInterface.sol\";\r\n\r\ninterface SatTokenInterface {\r\n    function allowance(address owner, address delegate) external view returns(uint);\r\n    function approveWith(address delegate, uint numTokens) external returns(uint);\r\n    function transferFrom(address owner, address to, uint numTokens) external returns(bool);\r\n}\r\n\r\ncontract Ownable {\r\n\r\n  modifier onlyOwner {\r\n    _;\r\n  }\r\n}\r\n\r\n/**\r\n* @title DeveloperContract\r\n* @dev DeveloperPool is a contract to reward developers\r\n*/\r\ncontract DeveloperPool is Ownable, PoolInterface {\r\n    struct Developer {\r\n        address _address;\r\n        uint8 level;\r\n        uint8 contributions;\r\n        uint tokens;\r\n    }\r\n    uint public developersCount;\r\n\r\n    mapping(address => Developer) developers;\r\n\r\n    SatTokenInterface satToken;\r\n\r\n    constructor(address satTokenAddress) {\r\n        satToken = SatTokenInterface(satTokenAddress);\r\n    }\r\n    \r\n    // METHODS TO DEVELOPER MANAGE\r\n\r\n    function getDeveloper(address _developerAddress) public view returns (Developer memory) {\r\n        return developers[_developerAddress];\r\n    }\r\n\r\n    function add(address _developerAddress) public onlyOwner {\r\n        Developer memory developer = Developer(_developerAddress, 1, 0, 0);\r\n        developers[_developerAddress] = developer;\r\n        developersCount++;\r\n    }\r\n\r\n    function newContribuitions(address _developerAddress, uint8 _contributions) public onlyOwner {\r\n        developers[_developerAddress].contributions += _contributions;\r\n    }\r\n\r\n    function newLevel(address _developerAddress, uint8 _level) public onlyOwner {\r\n        developers[_developerAddress].level += _level;\r\n    }\r\n\r\n    function newTokens(address _developerAddress, uint8 _tokens) public onlyOwner {\r\n        developers[_developerAddress].tokens += _tokens;\r\n    }\r\n\r\n    // METHODS TO TOKEN POOL BELOW\r\n\r\n    function undoDeveloperTokens() internal {\r\n        developers[msg.sender].tokens = 0;\r\n    }\r\n\r\n    function approve() public override returns(bool){\r\n        satToken.approveWith(msg.sender, developers[msg.sender].tokens);\r\n\r\n        undoDeveloperTokens();\r\n\r\n        return true;\r\n    }\r\n\r\n    function withDraw() public override returns(bool){\r\n        satToken.transferFrom(address(this), msg.sender, allowance()); \r\n        return true;\r\n    }\r\n\r\n    function allowance() public override view returns (uint){\r\n        return satToken.allowance(address(this), msg.sender);\r\n    }\r\n}",
  "sourcePath": "C:\\Users\\felip\\OneDrive\\\\Ionic\\SintropContract\\contracts\\DeveloperPool.sol",
  "compiler": {
    "name": "solc",
    "version": "0.8.11+commit.d7f03943.Emscripten.clang"
  },
  "schemaVersion": "3.4.3",
  "updatedAt": "2022-01-07T02:43:17.583Z",
  "devdoc": {
    "details": "DeveloperPool is a contract to reward developers",
    "kind": "dev",
    "methods": {},
    "title": "DeveloperContract",
    "version": 1
  },
  "userdoc": {
    "kind": "user",
    "methods": {},
    "version": 1
  }
}