{
  "contractName": "InspectionContract",
  "abi": [
    {
      "inputs": [
        {
          "internalType": "address",
          "name": "addr",
          "type": "address"
        }
      ],
      "name": "activistExists",
      "outputs": [
        {
          "internalType": "bool",
          "name": "",
          "type": "bool"
        }
      ],
      "stateMutability": "view",
      "type": "function"
    },
    {
      "inputs": [],
      "name": "activistsCount",
      "outputs": [
        {
          "internalType": "uint256",
          "name": "",
          "type": "uint256"
        }
      ],
      "stateMutability": "view",
      "type": "function"
    },
    {
      "inputs": [
        {
          "internalType": "string",
          "name": "name",
          "type": "string"
        },
        {
          "internalType": "string",
          "name": "document",
          "type": "string"
        },
        {
          "internalType": "string",
          "name": "documentType",
          "type": "string"
        },
        {
          "internalType": "string",
          "name": "country",
          "type": "string"
        },
        {
          "internalType": "string",
          "name": "state",
          "type": "string"
        },
        {
          "internalType": "string",
          "name": "city",
          "type": "string"
        },
        {
          "internalType": "string",
          "name": "cep",
          "type": "string"
        }
      ],
      "name": "addActivist",
      "outputs": [
        {
          "components": [
            {
              "internalType": "uint256",
              "name": "id",
              "type": "uint256"
            },
            {
              "internalType": "address",
              "name": "activistWallet",
              "type": "address"
            },
            {
              "internalType": "enum UserContract.UserType",
              "name": "userType",
              "type": "uint8"
            },
            {
              "internalType": "string",
              "name": "name",
              "type": "string"
            },
            {
              "internalType": "string",
              "name": "document",
              "type": "string"
            },
            {
              "internalType": "string",
              "name": "documentType",
              "type": "string"
            },
            {
              "internalType": "bool",
              "name": "recentInspection",
              "type": "bool"
            },
            {
              "internalType": "uint256",
              "name": "totalInspections",
              "type": "uint256"
            },
            {
              "components": [
                {
                  "internalType": "string",
                  "name": "country",
                  "type": "string"
                },
                {
                  "internalType": "string",
                  "name": "state",
                  "type": "string"
                },
                {
                  "internalType": "string",
                  "name": "city",
                  "type": "string"
                },
                {
                  "internalType": "string",
                  "name": "cep",
                  "type": "string"
                }
              ],
              "internalType": "struct ActivistContract.ActivistAddress",
              "name": "activistAddress",
              "type": "tuple"
            }
          ],
          "internalType": "struct ActivistContract.Activist",
          "name": "",
          "type": "tuple"
        }
      ],
      "stateMutability": "nonpayable",
      "type": "function"
    },
    {
      "inputs": [
        {
          "internalType": "string",
          "name": "name",
          "type": "string"
        },
        {
          "internalType": "string",
          "name": "description",
          "type": "string"
        },
        {
          "internalType": "string",
          "name": "totallySustainable",
          "type": "string"
        },
        {
          "internalType": "string",
          "name": "partiallySustainable",
          "type": "string"
        },
        {
          "internalType": "string",
          "name": "neutro",
          "type": "string"
        },
        {
          "internalType": "string",
          "name": "partiallyNotSustainable",
          "type": "string"
        },
        {
          "internalType": "string",
          "name": "totallyNotSustainable",
          "type": "string"
        }
      ],
      "name": "addCategory",
      "outputs": [
        {
          "internalType": "bool",
          "name": "",
          "type": "bool"
        }
      ],
      "stateMutability": "nonpayable",
      "type": "function"
    },
    {
      "inputs": [
        {
          "internalType": "string",
          "name": "name",
          "type": "string"
        },
        {
          "internalType": "string",
          "name": "document",
          "type": "string"
        },
        {
          "internalType": "string",
          "name": "documentType",
          "type": "string"
        },
        {
          "internalType": "string",
          "name": "country",
          "type": "string"
        },
        {
          "internalType": "string",
          "name": "state",
          "type": "string"
        },
        {
          "internalType": "string",
          "name": "city",
          "type": "string"
        },
        {
          "internalType": "string",
          "name": "cep",
          "type": "string"
        }
      ],
      "name": "addProducer",
      "outputs": [
        {
          "internalType": "bool",
          "name": "",
          "type": "bool"
        }
      ],
      "stateMutability": "nonpayable",
      "type": "function"
    },
    {
      "inputs": [],
      "name": "category",
      "outputs": [
        {
          "internalType": "uint256",
          "name": "id",
          "type": "uint256"
        },
        {
          "internalType": "address",
          "name": "createdBy",
          "type": "address"
        },
        {
          "internalType": "string",
          "name": "name",
          "type": "string"
        },
        {
          "internalType": "string",
          "name": "description",
          "type": "string"
        },
        {
          "internalType": "string",
          "name": "totallySustainable",
          "type": "string"
        },
        {
          "internalType": "string",
          "name": "partiallySustainable",
          "type": "string"
        },
        {
          "internalType": "string",
          "name": "neutro",
          "type": "string"
        },
        {
          "internalType": "string",
          "name": "partiallyNotSustainable",
          "type": "string"
        },
        {
          "internalType": "string",
          "name": "totallyNotSustainable",
          "type": "string"
        },
        {
          "internalType": "uint256",
          "name": "votesCount",
          "type": "uint256"
        },
        {
          "internalType": "uint256",
          "name": "index",
          "type": "uint256"
        }
      ],
      "stateMutability": "view",
      "type": "function"
    },
    {
      "inputs": [],
      "name": "categoryCounts",
      "outputs": [
        {
          "internalType": "uint256",
          "name": "",
          "type": "uint256"
        }
      ],
      "stateMutability": "view",
      "type": "function"
    },
    {
      "inputs": [
        {
          "internalType": "address",
          "name": "addr",
          "type": "address"
        }
      ],
      "name": "getActivist",
      "outputs": [
        {
          "components": [
            {
              "internalType": "uint256",
              "name": "id",
              "type": "uint256"
            },
            {
              "internalType": "address",
              "name": "activistWallet",
              "type": "address"
            },
            {
              "internalType": "enum UserContract.UserType",
              "name": "userType",
              "type": "uint8"
            },
            {
              "internalType": "string",
              "name": "name",
              "type": "string"
            },
            {
              "internalType": "string",
              "name": "document",
              "type": "string"
            },
            {
              "internalType": "string",
              "name": "documentType",
              "type": "string"
            },
            {
              "internalType": "bool",
              "name": "recentInspection",
              "type": "bool"
            },
            {
              "internalType": "uint256",
              "name": "totalInspections",
              "type": "uint256"
            },
            {
              "components": [
                {
                  "internalType": "string",
                  "name": "country",
                  "type": "string"
                },
                {
                  "internalType": "string",
                  "name": "state",
                  "type": "string"
                },
                {
                  "internalType": "string",
                  "name": "city",
                  "type": "string"
                },
                {
                  "internalType": "string",
                  "name": "cep",
                  "type": "string"
                }
              ],
              "internalType": "struct ActivistContract.ActivistAddress",
              "name": "activistAddress",
              "type": "tuple"
            }
          ],
          "internalType": "struct ActivistContract.Activist",
          "name": "",
          "type": "tuple"
        }
      ],
      "stateMutability": "view",
      "type": "function"
    },
    {
      "inputs": [],
      "name": "getActivists",
      "outputs": [
        {
          "components": [
            {
              "internalType": "uint256",
              "name": "id",
              "type": "uint256"
            },
            {
              "internalType": "address",
              "name": "activistWallet",
              "type": "address"
            },
            {
              "internalType": "enum UserContract.UserType",
              "name": "userType",
              "type": "uint8"
            },
            {
              "internalType": "string",
              "name": "name",
              "type": "string"
            },
            {
              "internalType": "string",
              "name": "document",
              "type": "string"
            },
            {
              "internalType": "string",
              "name": "documentType",
              "type": "string"
            },
            {
              "internalType": "bool",
              "name": "recentInspection",
              "type": "bool"
            },
            {
              "internalType": "uint256",
              "name": "totalInspections",
              "type": "uint256"
            },
            {
              "components": [
                {
                  "internalType": "string",
                  "name": "country",
                  "type": "string"
                },
                {
                  "internalType": "string",
                  "name": "state",
                  "type": "string"
                },
                {
                  "internalType": "string",
                  "name": "city",
                  "type": "string"
                },
                {
                  "internalType": "string",
                  "name": "cep",
                  "type": "string"
                }
              ],
              "internalType": "struct ActivistContract.ActivistAddress",
              "name": "activistAddress",
              "type": "tuple"
            }
          ],
          "internalType": "struct ActivistContract.Activist[]",
          "name": "",
          "type": "tuple[]"
        }
      ],
      "stateMutability": "view",
      "type": "function"
    },
    {
      "inputs": [],
      "name": "getCategories",
      "outputs": [
        {
          "components": [
            {
              "internalType": "uint256",
              "name": "id",
              "type": "uint256"
            },
            {
              "internalType": "address",
              "name": "createdBy",
              "type": "address"
            },
            {
              "internalType": "string",
              "name": "name",
              "type": "string"
            },
            {
              "internalType": "string",
              "name": "description",
              "type": "string"
            },
            {
              "internalType": "string",
              "name": "totallySustainable",
              "type": "string"
            },
            {
              "internalType": "string",
              "name": "partiallySustainable",
              "type": "string"
            },
            {
              "internalType": "string",
              "name": "neutro",
              "type": "string"
            },
            {
              "internalType": "string",
              "name": "partiallyNotSustainable",
              "type": "string"
            },
            {
              "internalType": "string",
              "name": "totallyNotSustainable",
              "type": "string"
            },
            {
              "internalType": "uint256",
              "name": "votesCount",
              "type": "uint256"
            },
            {
              "internalType": "uint256",
              "name": "index",
              "type": "uint256"
            }
          ],
          "internalType": "struct CategoryContract.Category[]",
          "name": "",
          "type": "tuple[]"
        }
      ],
      "stateMutability": "view",
      "type": "function"
    },
    {
      "inputs": [
        {
          "internalType": "uint256",
          "name": "id",
          "type": "uint256"
        }
      ],
      "name": "getCategory",
      "outputs": [
        {
          "components": [
            {
              "internalType": "uint256",
              "name": "id",
              "type": "uint256"
            },
            {
              "internalType": "address",
              "name": "createdBy",
              "type": "address"
            },
            {
              "internalType": "string",
              "name": "name",
              "type": "string"
            },
            {
              "internalType": "string",
              "name": "description",
              "type": "string"
            },
            {
              "internalType": "string",
              "name": "totallySustainable",
              "type": "string"
            },
            {
              "internalType": "string",
              "name": "partiallySustainable",
              "type": "string"
            },
            {
              "internalType": "string",
              "name": "neutro",
              "type": "string"
            },
            {
              "internalType": "string",
              "name": "partiallyNotSustainable",
              "type": "string"
            },
            {
              "internalType": "string",
              "name": "totallyNotSustainable",
              "type": "string"
            },
            {
              "internalType": "uint256",
              "name": "votesCount",
              "type": "uint256"
            },
            {
              "internalType": "uint256",
              "name": "index",
              "type": "uint256"
            }
          ],
          "internalType": "struct CategoryContract.Category",
          "name": "",
          "type": "tuple"
        }
      ],
      "stateMutability": "view",
      "type": "function"
    },
    {
      "inputs": [],
      "name": "getIsas",
      "outputs": [
        {
          "internalType": "string",
          "name": "",
          "type": "string"
        },
        {
          "internalType": "string",
          "name": "",
          "type": "string"
        },
        {
          "internalType": "string",
          "name": "",
          "type": "string"
        },
        {
          "internalType": "string",
          "name": "",
          "type": "string"
        },
        {
          "internalType": "string",
          "name": "",
          "type": "string"
        }
      ],
      "stateMutability": "pure",
      "type": "function"
    },
    {
      "inputs": [
        {
          "internalType": "address",
          "name": "addr",
          "type": "address"
        }
      ],
      "name": "getProducer",
      "outputs": [
        {
          "components": [
            {
              "internalType": "uint256",
              "name": "id",
              "type": "uint256"
            },
            {
              "internalType": "address",
              "name": "producer_wallet",
              "type": "address"
            },
            {
              "internalType": "enum UserContract.UserType",
              "name": "userType",
              "type": "uint8"
            },
            {
              "internalType": "string",
              "name": "name",
              "type": "string"
            },
            {
              "internalType": "string",
              "name": "document",
              "type": "string"
            },
            {
              "internalType": "string",
              "name": "documentType",
              "type": "string"
            },
            {
              "internalType": "bool",
              "name": "recentInspection",
              "type": "bool"
            },
            {
              "internalType": "uint256",
              "name": "totalRequests",
              "type": "uint256"
            },
            {
              "internalType": "uint256",
              "name": "isaPoints",
              "type": "uint256"
            },
            {
              "components": [
                {
                  "internalType": "uint256",
                  "name": "allowed",
                  "type": "uint256"
                },
                {
                  "internalType": "bool",
                  "name": "withdrewToken",
                  "type": "bool"
                }
              ],
              "internalType": "struct ProducerContract.TokenApprove",
              "name": "tokenApprove",
              "type": "tuple"
            },
            {
              "components": [
                {
                  "internalType": "string",
                  "name": "country",
                  "type": "string"
                },
                {
                  "internalType": "string",
                  "name": "state",
                  "type": "string"
                },
                {
                  "internalType": "string",
                  "name": "city",
                  "type": "string"
                },
                {
                  "internalType": "string",
                  "name": "cep",
                  "type": "string"
                }
              ],
              "internalType": "struct ProducerContract.PropertyAddress",
              "name": "property_address",
              "type": "tuple"
            }
          ],
          "internalType": "struct ProducerContract.Producer",
          "name": "producer",
          "type": "tuple"
        }
      ],
      "stateMutability": "view",
      "type": "function"
    },
    {
      "inputs": [
        {
          "internalType": "address",
          "name": "address_",
          "type": "address"
        }
      ],
      "name": "getProducerApprove",
      "outputs": [
        {
          "internalType": "uint256",
          "name": "",
          "type": "uint256"
        }
      ],
      "stateMutability": "view",
      "type": "function"
    },
    {
      "inputs": [],
      "name": "getProducers",
      "outputs": [
        {
          "components": [
            {
              "internalType": "uint256",
              "name": "id",
              "type": "uint256"
            },
            {
              "internalType": "address",
              "name": "producer_wallet",
              "type": "address"
            },
            {
              "internalType": "enum UserContract.UserType",
              "name": "userType",
              "type": "uint8"
            },
            {
              "internalType": "string",
              "name": "name",
              "type": "string"
            },
            {
              "internalType": "string",
              "name": "document",
              "type": "string"
            },
            {
              "internalType": "string",
              "name": "documentType",
              "type": "string"
            },
            {
              "internalType": "bool",
              "name": "recentInspection",
              "type": "bool"
            },
            {
              "internalType": "uint256",
              "name": "totalRequests",
              "type": "uint256"
            },
            {
              "internalType": "uint256",
              "name": "isaPoints",
              "type": "uint256"
            },
            {
              "components": [
                {
                  "internalType": "uint256",
                  "name": "allowed",
                  "type": "uint256"
                },
                {
                  "internalType": "bool",
                  "name": "withdrewToken",
                  "type": "bool"
                }
              ],
              "internalType": "struct ProducerContract.TokenApprove",
              "name": "tokenApprove",
              "type": "tuple"
            },
            {
              "components": [
                {
                  "internalType": "string",
                  "name": "country",
                  "type": "string"
                },
                {
                  "internalType": "string",
                  "name": "state",
                  "type": "string"
                },
                {
                  "internalType": "string",
                  "name": "city",
                  "type": "string"
                },
                {
                  "internalType": "string",
                  "name": "cep",
                  "type": "string"
                }
              ],
              "internalType": "struct ProducerContract.PropertyAddress",
              "name": "property_address",
              "type": "tuple"
            }
          ],
          "internalType": "struct ProducerContract.Producer[]",
          "name": "",
          "type": "tuple[]"
        }
      ],
      "stateMutability": "view",
      "type": "function"
    },
    {
      "inputs": [
        {
          "internalType": "address",
          "name": "addr",
          "type": "address"
        }
      ],
      "name": "getUser",
      "outputs": [
        {
          "internalType": "enum UserContract.UserType",
          "name": "",
          "type": "uint8"
        }
      ],
      "stateMutability": "view",
      "type": "function"
    },
    {
      "inputs": [],
      "name": "getUserTypes",
      "outputs": [
        {
          "internalType": "string",
          "name": "",
          "type": "string"
        },
        {
          "internalType": "string",
          "name": "",
          "type": "string"
        },
        {
          "internalType": "string",
          "name": "",
          "type": "string"
        }
      ],
      "stateMutability": "pure",
      "type": "function"
    },
    {
      "inputs": [
        {
          "internalType": "address",
          "name": "addr",
          "type": "address"
        }
      ],
      "name": "producerExists",
      "outputs": [
        {
          "internalType": "bool",
          "name": "",
          "type": "bool"
        }
      ],
      "stateMutability": "view",
      "type": "function"
    },
    {
      "inputs": [],
      "name": "producersCount",
      "outputs": [
        {
          "internalType": "uint256",
          "name": "",
          "type": "uint256"
        }
      ],
      "stateMutability": "view",
      "type": "function"
    },
    {
      "inputs": [
        {
          "internalType": "uint256",
          "name": "",
          "type": "uint256"
        }
      ],
      "name": "producersList",
      "outputs": [
        {
          "internalType": "uint256",
          "name": "id",
          "type": "uint256"
        },
        {
          "internalType": "address",
          "name": "producer_wallet",
          "type": "address"
        },
        {
          "internalType": "enum UserContract.UserType",
          "name": "userType",
          "type": "uint8"
        },
        {
          "internalType": "string",
          "name": "name",
          "type": "string"
        },
        {
          "internalType": "string",
          "name": "document",
          "type": "string"
        },
        {
          "internalType": "string",
          "name": "documentType",
          "type": "string"
        },
        {
          "internalType": "bool",
          "name": "recentInspection",
          "type": "bool"
        },
        {
          "internalType": "uint256",
          "name": "totalRequests",
          "type": "uint256"
        },
        {
          "internalType": "uint256",
          "name": "isaPoints",
          "type": "uint256"
        },
        {
          "components": [
            {
              "internalType": "uint256",
              "name": "allowed",
              "type": "uint256"
            },
            {
              "internalType": "bool",
              "name": "withdrewToken",
              "type": "bool"
            }
          ],
          "internalType": "struct ProducerContract.TokenApprove",
          "name": "tokenApprove",
          "type": "tuple"
        },
        {
          "components": [
            {
              "internalType": "string",
              "name": "country",
              "type": "string"
            },
            {
              "internalType": "string",
              "name": "state",
              "type": "string"
            },
            {
              "internalType": "string",
              "name": "city",
              "type": "string"
            },
            {
              "internalType": "string",
              "name": "cep",
              "type": "string"
            }
          ],
          "internalType": "struct ProducerContract.PropertyAddress",
          "name": "property_address",
          "type": "tuple"
        }
      ],
      "stateMutability": "view",
      "type": "function"
    },
    {
      "inputs": [],
      "name": "usersCount",
      "outputs": [
        {
          "internalType": "uint256",
          "name": "",
          "type": "uint256"
        }
      ],
      "stateMutability": "view",
      "type": "function"
    },
    {
      "inputs": [
        {
          "internalType": "uint256",
          "name": "id",
          "type": "uint256"
        }
      ],
      "name": "vote",
      "outputs": [
        {
          "internalType": "bool",
          "name": "",
          "type": "bool"
        }
      ],
      "stateMutability": "nonpayable",
      "type": "function"
    },
    {
      "inputs": [],
      "name": "getInspectionsHistory",
      "outputs": [
        {
          "components": [
            {
              "internalType": "uint256",
              "name": "id",
              "type": "uint256"
            },
            {
              "internalType": "enum InspectionContract.InspectionStatus",
              "name": "status",
              "type": "uint8"
            },
            {
              "internalType": "address",
              "name": "producerWallet",
              "type": "address"
            },
            {
              "internalType": "address",
              "name": "activistWallet",
              "type": "address"
            },
            {
              "internalType": "uint256[][]",
              "name": "isas",
              "type": "uint256[][]"
            },
            {
              "internalType": "uint256",
              "name": "isaPoints",
              "type": "uint256"
            },
            {
              "internalType": "uint256",
              "name": "expiresIn",
              "type": "uint256"
            },
            {
              "internalType": "uint256",
              "name": "createdAt",
              "type": "uint256"
            },
            {
              "internalType": "uint256",
              "name": "index",
              "type": "uint256"
            }
          ],
          "internalType": "struct InspectionContract.Inspection[]",
          "name": "",
          "type": "tuple[]"
        }
      ],
      "stateMutability": "view",
      "type": "function"
    },
    {
      "inputs": [],
      "name": "requestInspection",
      "outputs": [
        {
          "internalType": "bool",
          "name": "",
          "type": "bool"
        }
      ],
      "stateMutability": "nonpayable",
      "type": "function"
    },
    {
      "inputs": [
        {
          "internalType": "uint256",
          "name": "inspectionId",
          "type": "uint256"
        }
      ],
      "name": "acceptInspection",
      "outputs": [
        {
          "internalType": "bool",
          "name": "",
          "type": "bool"
        }
      ],
      "stateMutability": "nonpayable",
      "type": "function"
    },
    {
      "inputs": [
        {
          "internalType": "uint256",
          "name": "inspectionId",
          "type": "uint256"
        },
        {
          "internalType": "uint256[][]",
          "name": "isas",
          "type": "uint256[][]"
        }
      ],
      "name": "realizeInspection",
      "outputs": [
        {
          "internalType": "bool",
          "name": "",
          "type": "bool"
        }
      ],
      "stateMutability": "nonpayable",
      "type": "function"
    },
    {
      "inputs": [
        {
          "internalType": "uint256",
          "name": "id",
          "type": "uint256"
        }
      ],
      "name": "getInspection",
      "outputs": [
        {
          "components": [
            {
              "internalType": "uint256",
              "name": "id",
              "type": "uint256"
            },
            {
              "internalType": "enum InspectionContract.InspectionStatus",
              "name": "status",
              "type": "uint8"
            },
            {
              "internalType": "address",
              "name": "producerWallet",
              "type": "address"
            },
            {
              "internalType": "address",
              "name": "activistWallet",
              "type": "address"
            },
            {
              "internalType": "uint256[][]",
              "name": "isas",
              "type": "uint256[][]"
            },
            {
              "internalType": "uint256",
              "name": "isaPoints",
              "type": "uint256"
            },
            {
              "internalType": "uint256",
              "name": "expiresIn",
              "type": "uint256"
            },
            {
              "internalType": "uint256",
              "name": "createdAt",
              "type": "uint256"
            },
            {
              "internalType": "uint256",
              "name": "index",
              "type": "uint256"
            }
          ],
          "internalType": "struct InspectionContract.Inspection",
          "name": "",
          "type": "tuple"
        }
      ],
      "stateMutability": "view",
      "type": "function"
    },
    {
      "inputs": [],
      "name": "getInspections",
      "outputs": [
        {
          "components": [
            {
              "internalType": "uint256",
              "name": "id",
              "type": "uint256"
            },
            {
              "internalType": "enum InspectionContract.InspectionStatus",
              "name": "status",
              "type": "uint8"
            },
            {
              "internalType": "address",
              "name": "producerWallet",
              "type": "address"
            },
            {
              "internalType": "address",
              "name": "activistWallet",
              "type": "address"
            },
            {
              "internalType": "uint256[][]",
              "name": "isas",
              "type": "uint256[][]"
            },
            {
              "internalType": "uint256",
              "name": "isaPoints",
              "type": "uint256"
            },
            {
              "internalType": "uint256",
              "name": "expiresIn",
              "type": "uint256"
            },
            {
              "internalType": "uint256",
              "name": "createdAt",
              "type": "uint256"
            },
            {
              "internalType": "uint256",
              "name": "index",
              "type": "uint256"
            }
          ],
          "internalType": "struct InspectionContract.Inspection[]",
          "name": "",
          "type": "tuple[]"
        }
      ],
      "stateMutability": "view",
      "type": "function"
    },
    {
      "inputs": [],
      "name": "getInspectionsStatus",
      "outputs": [
        {
          "internalType": "string",
          "name": "",
          "type": "string"
        },
        {
          "internalType": "string",
          "name": "",
          "type": "string"
        },
        {
          "internalType": "string",
          "name": "",
          "type": "string"
        },
        {
          "internalType": "string",
          "name": "",
          "type": "string"
        }
      ],
      "stateMutability": "pure",
      "type": "function"
    },
    {
      "inputs": [
        {
          "internalType": "uint256",
          "name": "id",
          "type": "uint256"
        }
      ],
      "name": "inspectionExists",
      "outputs": [
        {
          "internalType": "bool",
          "name": "",
          "type": "bool"
        }
      ],
      "stateMutability": "view",
      "type": "function"
    }
  ],
  "bytecode": "0x608060405262093a8060165534801561001757600080fd5b50615c8580620000286000396000f3fe608060405234801561001057600080fd5b50600436106101da5760003560e01c80638ed5540d11610104578063e7857502116100a2578063ef430aa611610071578063ef430aa6146105b7578063f2836670146105d6578063f3052d26146105f6578063fe5a4fa41461061657600080fd5b8063e785750214610574578063e80a7eb914610587578063e9e797ac1461059c578063ee699fc1146105af57600080fd5b8063b7399d88116100de578063b7399d88146103fb578063b92bd2d9146104d8578063dd6850c6146104eb578063e53142e21461056b57600080fd5b80638ed5540d146103b5578063a1c24d64146103c8578063aab147b2146103db57600080fd5b806362efeff71161017c5780637333afcf1161014b5780637333afcf1461036557806386ae2fb11461036e5780638c4772fc146103765780638cf054421461038957600080fd5b806362efeff7146102a75780636337dc1a146102ba5780636ba13a82146103235780636f77926b1461032c57600080fd5b80630cc94acc116101b85780630cc94acc1461023357806340f528411461025d57806342e187dd1461027d5780634db0412c1461029257600080fd5b80630121b93f146101df57806309e1b1d1146102075780630bbec3c21461021e575b600080fd5b6101f26101ed366004614eee565b61063a565b60405190151581526020015b60405180910390f35b61021060075481565b6040519081526020016101fe565b610226610713565b6040516101fe9190615069565b610246610241366004614eee565b6108b0565b6040516101fe9b9a99989796959493929190615183565b61027061026b3660046152f0565b610d30565b6040516101fe91906154d0565b6102856110e4565b6040516101fe91906154ea565b61029a6115bc565b6040516101fe919061563a565b6102706102b536600461568f565b611a45565b604080518082018252600880825267282927a22aa1a2a960c11b60208084019190915283518085018552918252671050d512559254d560c21b8282015283518085018552600a8152692922a9a2a0a921a422a960b11b9181019190915292516101fe93906156b8565b61021060015481565b61035861033a36600461568f565b6001600160a01b031660009081526020819052604090205460ff1690565b6040516101fe91906156f1565b61021060135481565b6101f2611ef3565b6101f261038436600461568f565b61204b565b61021061039736600461568f565b6001600160a01b031660009081526003602052604090206008015490565b6101f26103c33660046152f0565b61207e565b6101f26103d63660046152f0565b612487565b6103ee6103e936600461568f565b6128e0565b6040516101fe91906157e7565b604080518082018252601380825272544f54414c4c595f5355535441494e41424c4560681b60208084019190915283518085018552918252725041525449414c5f5355535441494e41424c4560681b828201528351808501855260068152654e455554524f60d01b818301528451808601865260178082527f5041525449414c5f4e4f545f5355535441494e41424c4500000000000000000082850152865180880188529081527f544f54414c4c595f4e4f545f5355535441494e41424c450000000000000000009381019390935294516101fe959192906157fa565b6101f26104e636600461588b565b612b82565b604080518082018252600481526327a822a760e11b6020808301919091528251808401845260078152661156141254915160ca1b81830152835180850185526009815268125394d41150d5115160ba1b818401528451808601865260088152671050d0d15415115160c21b9381019390935293516101fe949192906159a3565b61021060045481565b6101f2610582366004614eee565b612dfc565b61058f6131c0565b6040516101fe91906159fb565b6101f26105aa36600461568f565b6136ce565b6102266136f7565b6105bf613880565b6040516101fe9b9a99989796959493929190615a50565b6105e96105e4366004614eee565b613c85565b6040516101fe9190615b0f565b610609610604366004614eee565b613e30565b6040516101fe9190615b22565b6101f2610624366004614eee565b6000908152601960205260409020546001111590565b600081815260156020526040812054829061069c5760405162461bcd60e51b815260206004820152601a60248201527f546869732063617465676f727920646f6e27742065786973747300000000000060448201526064015b60405180910390fd5b60008381526015602052604081206009018054916106b983615b4b565b90915550506000838152601560205260409020600a01546014805490919081106106e5576106e5615b66565b6000918252602082206009600b909202010180549161070383615b4b565b9190505550600191505b50919050565b336000908152601860209081526040808320805482518185028101850190935280835260609492939192909184015b828210156108a7578382906000526020600020906008020160405180610120016040529081600082015481526020016001820160009054906101000a900460ff16600381111561079457610794614f07565b60038111156107a5576107a5614f07565b815260018201546001600160a01b0361010090910481166020808401919091526002840154909116604080840191909152600384018054825181850281018501909352808352606090940193919290919060009084015b828210156108685760008481526020908190208301805460408051828502810185019091528181529283018282801561085457602002820191906000526020600020905b815481526020019060010190808311610840575b5050505050815260200190600101906107fc565b50505050815260200160048201548152602001600582015481526020016006820154815260200160078201548152505081526020019060010190610742565b50505050905090565b600281815481106108c057600080fd5b60009182526020909120600e90910201805460018201546002830180549294506001600160a01b03821693600160a01b90920460ff169261090090615b7c565b80601f016020809104026020016040519081016040528092919081815260200182805461092c90615b7c565b80156109795780601f1061094e57610100808354040283529160200191610979565b820191906000526020600020905b81548152906001019060200180831161095c57829003601f168201915b50505050509080600301805461098e90615b7c565b80601f01602080910402602001604051908101604052809291908181526020018280546109ba90615b7c565b8015610a075780601f106109dc57610100808354040283529160200191610a07565b820191906000526020600020905b8154815290600101906020018083116109ea57829003601f168201915b505050505090806004018054610a1c90615b7c565b80601f0160208091040260200160405190810160405280929190818152602001828054610a4890615b7c565b8015610a955780601f10610a6a57610100808354040283529160200191610a95565b820191906000526020600020905b815481529060010190602001808311610a7857829003601f168201915b5050505060058301546006840154600785015460408051808201825260088801548152600988015460ff90811615156020830152825160808101909352600a89018054989991909616979496509294909382908290610af390615b7c565b80601f0160208091040260200160405190810160405280929190818152602001828054610b1f90615b7c565b8015610b6c5780601f10610b4157610100808354040283529160200191610b6c565b820191906000526020600020905b815481529060010190602001808311610b4f57829003601f168201915b50505050508152602001600182018054610b8590615b7c565b80601f0160208091040260200160405190810160405280929190818152602001828054610bb190615b7c565b8015610bfe5780601f10610bd357610100808354040283529160200191610bfe565b820191906000526020600020905b815481529060010190602001808311610be157829003601f168201915b50505050508152602001600282018054610c1790615b7c565b80601f0160208091040260200160405190810160405280929190818152602001828054610c4390615b7c565b8015610c905780601f10610c6557610100808354040283529160200191610c90565b820191906000526020600020905b815481529060010190602001808311610c7357829003601f168201915b50505050508152602001600382018054610ca990615b7c565b80601f0160208091040260200160405190810160405280929190818152602001828054610cd590615b7c565b8015610d225780601f10610cf757610100808354040283529160200191610d22565b820191906000526020600020905b815481529060010190602001808311610d0557829003601f168201915b50505050508152505090508b565b610d38614b6c565b60006007546001610d499190615bb1565b604080516080810182528881526020808201899052818301889052606082018790528251610120810184528481523391810191909152929350600292909160009190810184815260208082018f905260408083018f9052606083018e905260006080840181905260a0840181905260c09093018690526005805460018101825593528351600b9093027f036b6384b5eca791c62761152d0c79bb0604c104a5fb6f4eb0703f3154bb3db08101938455918401517f036b6384b5eca791c62761152d0c79bb0604c104a5fb6f4eb0703f3154bb3db190920180546001600160a01b039093166001600160a01b03198416811782559185015194955085949290916001600160a81b031990911617600160a01b836003811115610e6c57610e6c614f07565b021790555060608201518051610e8c916002840191602090910190614be2565b5060808201518051610ea8916003840191602090910190614be2565b5060a08201518051610ec4916004840191602090910190614be2565b5060c082015160058201805460ff191691151591909117905560e08201516006820155610100820151805180516007840191610f0591839160200190614be2565b506020828101518051610f1e9260018501920190614be2565b5060408201518051610f3a916002840191602090910190614be2565b5060608201518051610f56916003840191602090910190614be2565b50503360009081526006602090815260409182902086518155908601516001820180546001600160a01b031981166001600160a01b0390931692831782559388015188975092955091935090916001600160a81b03191617600160a01b836003811115610fc557610fc5614f07565b021790555060608201518051610fe5916002840191602090910190614be2565b5060808201518051611001916003840191602090910190614be2565b5060a0820151805161101d916004840191602090910190614be2565b5060c082015160058201805460ff191691151591909117905560e0820151600682015561010082015180518051600784019161105e91839160200190614be2565b5060208281015180516110779260018501920190614be2565b5060408201518051611093916002840191602090910190614be2565b50606082015180516110af916003840191602090910190614be2565b50506007805493509150600090506110c683615b4b565b91905055506110d533846142ea565b9b9a5050505050505050505050565b60606005805480602002602001604051908101604052809291908181526020016000905b828210156108a75760008481526020908190206040805161012081018252600b86029092018054835260018101546001600160a01b03811694840194909452919290830190600160a01b900460ff16600381111561116857611168614f07565b600381111561117957611179614f07565b815260200160028201805461118d90615b7c565b80601f01602080910402602001604051908101604052809291908181526020018280546111b990615b7c565b80156112065780601f106111db57610100808354040283529160200191611206565b820191906000526020600020905b8154815290600101906020018083116111e957829003601f168201915b5050505050815260200160038201805461121f90615b7c565b80601f016020809104026020016040519081016040528092919081815260200182805461124b90615b7c565b80156112985780601f1061126d57610100808354040283529160200191611298565b820191906000526020600020905b81548152906001019060200180831161127b57829003601f168201915b505050505081526020016004820180546112b190615b7c565b80601f01602080910402602001604051908101604052809291908181526020018280546112dd90615b7c565b801561132a5780601f106112ff5761010080835404028352916020019161132a565b820191906000526020600020905b81548152906001019060200180831161130d57829003601f168201915b5050509183525050600582015460ff161515602082015260068201546040808301919091528051608081019091526007830180546060909301928290829061137190615b7c565b80601f016020809104026020016040519081016040528092919081815260200182805461139d90615b7c565b80156113ea5780601f106113bf576101008083540402835291602001916113ea565b820191906000526020600020905b8154815290600101906020018083116113cd57829003601f168201915b5050505050815260200160018201805461140390615b7c565b80601f016020809104026020016040519081016040528092919081815260200182805461142f90615b7c565b801561147c5780601f106114515761010080835404028352916020019161147c565b820191906000526020600020905b81548152906001019060200180831161145f57829003601f168201915b5050505050815260200160028201805461149590615b7c565b80601f01602080910402602001604051908101604052809291908181526020018280546114c190615b7c565b801561150e5780601f106114e35761010080835404028352916020019161150e565b820191906000526020600020905b8154815290600101906020018083116114f157829003601f168201915b5050505050815260200160038201805461152790615b7c565b80601f016020809104026020016040519081016040528092919081815260200182805461155390615b7c565b80156115a05780601f10611575576101008083540402835291602001916115a0565b820191906000526020600020905b81548152906001019060200180831161158357829003601f168201915b5050505050815250508152505081526020019060010190611108565b60606014805480602002602001604051908101604052809291908181526020016000905b828210156108a75760008481526020908190206040805161016081018252600b86029092018054835260018101546001600160a01b0316938301939093526002830180549293929184019161163490615b7c565b80601f016020809104026020016040519081016040528092919081815260200182805461166090615b7c565b80156116ad5780601f10611682576101008083540402835291602001916116ad565b820191906000526020600020905b81548152906001019060200180831161169057829003601f168201915b505050505081526020016003820180546116c690615b7c565b80601f01602080910402602001604051908101604052809291908181526020018280546116f290615b7c565b801561173f5780601f106117145761010080835404028352916020019161173f565b820191906000526020600020905b81548152906001019060200180831161172257829003601f168201915b5050505050815260200160048201805461175890615b7c565b80601f016020809104026020016040519081016040528092919081815260200182805461178490615b7c565b80156117d15780601f106117a6576101008083540402835291602001916117d1565b820191906000526020600020905b8154815290600101906020018083116117b457829003601f168201915b505050505081526020016005820180546117ea90615b7c565b80601f016020809104026020016040519081016040528092919081815260200182805461181690615b7c565b80156118635780601f1061183857610100808354040283529160200191611863565b820191906000526020600020905b81548152906001019060200180831161184657829003601f168201915b5050505050815260200160068201805461187c90615b7c565b80601f01602080910402602001604051908101604052809291908181526020018280546118a890615b7c565b80156118f55780601f106118ca576101008083540402835291602001916118f5565b820191906000526020600020905b8154815290600101906020018083116118d857829003601f168201915b5050505050815260200160078201805461190e90615b7c565b80601f016020809104026020016040519081016040528092919081815260200182805461193a90615b7c565b80156119875780601f1061195c57610100808354040283529160200191611987565b820191906000526020600020905b81548152906001019060200180831161196a57829003601f168201915b505050505081526020016008820180546119a090615b7c565b80601f01602080910402602001604051908101604052809291908181526020018280546119cc90615b7c565b8015611a195780601f106119ee57610100808354040283529160200191611a19565b820191906000526020600020905b8154815290600101906020018083116119fc57829003601f168201915b5050505050815260200160098201548152602001600a82015481525050815260200190600101906115e0565b611a4d614b6c565b6001600160a01b038281166000908152600660209081526040918290208251610120810184528154815260018201549485169281019290925290929091830190600160a01b900460ff166003811115611aa857611aa8614f07565b6003811115611ab957611ab9614f07565b8152602001600282018054611acd90615b7c565b80601f0160208091040260200160405190810160405280929190818152602001828054611af990615b7c565b8015611b465780601f10611b1b57610100808354040283529160200191611b46565b820191906000526020600020905b815481529060010190602001808311611b2957829003601f168201915b50505050508152602001600382018054611b5f90615b7c565b80601f0160208091040260200160405190810160405280929190818152602001828054611b8b90615b7c565b8015611bd85780601f10611bad57610100808354040283529160200191611bd8565b820191906000526020600020905b815481529060010190602001808311611bbb57829003601f168201915b50505050508152602001600482018054611bf190615b7c565b80601f0160208091040260200160405190810160405280929190818152602001828054611c1d90615b7c565b8015611c6a5780601f10611c3f57610100808354040283529160200191611c6a565b820191906000526020600020905b815481529060010190602001808311611c4d57829003601f168201915b5050509183525050600582015460ff1615156020820152600682015460408083019190915280516080810190915260078301805460609093019282908290611cb190615b7c565b80601f0160208091040260200160405190810160405280929190818152602001828054611cdd90615b7c565b8015611d2a5780601f10611cff57610100808354040283529160200191611d2a565b820191906000526020600020905b815481529060010190602001808311611d0d57829003601f168201915b50505050508152602001600182018054611d4390615b7c565b80601f0160208091040260200160405190810160405280929190818152602001828054611d6f90615b7c565b8015611dbc5780601f10611d9157610100808354040283529160200191611dbc565b820191906000526020600020905b815481529060010190602001808311611d9f57829003601f168201915b50505050508152602001600282018054611dd590615b7c565b80601f0160208091040260200160405190810160405280929190818152602001828054611e0190615b7c565b8015611e4e5780601f10611e2357610100808354040283529160200191611e4e565b820191906000526020600020905b815481529060010190602001808311611e3157829003601f168201915b50505050508152602001600382018054611e6790615b7c565b80601f0160208091040260200160405190810160405280929190818152602001828054611e9390615b7c565b8015611ee05780601f10611eb557610100808354040283529160200191611ee0565b820191906000526020600020905b815481529060010190602001808311611ec357829003601f168201915b5050509190925250505090525092915050565b6000611efe336136ce565b611f615760405162461bcd60e51b815260206004820152602e60248201527f596f7520617265206e6f7420612070726f64756365722120506c65617365207260448201526d65676973746572206173206f6e6560901b6064820152608401610693565b3360009081526003602052604090206005015460ff161561201f5760405162461bcd60e51b815260206004820152606660248201527f596f752068617665206120696e7370656374696f6e2072657175657374204f5060448201527f454e206f7220414343455054454421205761697420612061637469766973742060648201527f7265616c697a6520696e7370656374696f6e206f7220796f752063616e20636c6084820152651bdcd9481a5d60d21b60a482015260c401610693565b61202761433d565b50336000908152600360205260409020600501805460ff1916600190811790915590565b6001600160a01b0381166000908152600660205260408120600201805482919061207490615b7c565b9050119050919050565b60008060045460016120909190615bb1565b60408051608081018252888152602080820189905281830188905260608201879052825180840184526000808252818301819052845161016081018652868152339381019390935294955060019492939092919081018581526020018e81526020018d81526020018c8152602001600015158152602001600081526020016000815260200183815260200184815250905060028190806001815401808255809150506001900390600052602060002090600e02016000909190919091506000820151816000015560208201518160010160006101000a8154816001600160a01b0302191690836001600160a01b0316021790555060408201518160010160146101000a81548160ff021916908360038111156121ae576121ae614f07565b0217905550606082015180516121ce916002840191602090910190614be2565b50608082015180516121ea916003840191602090910190614be2565b5060a08201518051612206916004840191602090910190614be2565b5060c082015160058201805491151560ff1992831617905560e083015160068301556101008301516007830155610120830151805160088401556020908101516009840180549115159190931617909155610140830151805180519192600a8501926122759284920190614be2565b50602082810151805161228e9260018501920190614be2565b50604082015180516122aa916002840191602090910190614be2565b50606082015180516122c6916003840191602090910190614be2565b50503360009081526003602081815260409283902087518155908701516001820180546001600160a01b031981166001600160a01b0390931692831782559489015189985092965091945090926001600160a81b0319161790600160a01b90849081111561233657612336614f07565b021790555060608201518051612356916002840191602090910190614be2565b5060808201518051612372916003840191602090910190614be2565b5060a0820151805161238e916004840191602090910190614be2565b5060c082015160058201805491151560ff1992831617905560e083015160068301556101008301516007830155610120830151805160088401556020908101516009840180549115159190931617909155610140830151805180519192600a8501926123fd9284920190614be2565b5060208281015180516124169260018501920190614be2565b5060408201518051612432916002840191602090910190614be2565b506060820151805161244e916003840191602090910190614be2565b505060048054935091506000905061246583615b4b565b919050555061247433856142ea565b5060019c9b505050505050505050505050565b60008060135460016124999190615bb1565b905060006124a8600183615bc9565b60408051610160810182528481523360208083018290529282018e9052606082018d9052608082018c905260a082018b905260c082018a905260e082018990526101008201889052600061012083015261014082018490526008868155600980546001600160a01b0319169092179091558d519394509092909161253191600a918f0190614be2565b506060820151805161254d916003840191602090910190614be2565b5060808201518051612569916004840191602090910190614be2565b5060a08201518051612585916005840191602090910190614be2565b5060c082015180516125a1916006840191602090910190614be2565b5060e082015180516125bd916007840191602090910190614be2565b5061010082015180516125da916008840191602090910190614be2565b5061012082015160098083019190915561014090920151600a918201556014805460018101825560009190915260088054600b9092027fce6d7b5282bd9a3661ae061feed1dbda4e52ab073b1f9285be6e155d9c38d4ec810192835593547fce6d7b5282bd9a3661ae061feed1dbda4e52ab073b1f9285be6e155d9c38d4ed850180546001600160a01b0319166001600160a01b039092169190911790558254909391927fce6d7b5282bd9a3661ae061feed1dbda4e52ab073b1f9285be6e155d9c38d4ee90920191906126ad90615b7c565b6126b8929190614c66565b5060038201816003019080546126cd90615b7c565b6126d8929190614c66565b5060048201816004019080546126ed90615b7c565b6126f8929190614c66565b50600582018160050190805461270d90615b7c565b612718929190614c66565b50600682018160060190805461272d90615b7c565b612738929190614c66565b50600782018160070190805461274d90615b7c565b612758929190614c66565b50600882018160080190805461276d90615b7c565b612778929190614c66565b5060098281015482820155600a9283015491830191909155600084815260156020526040902060088054825591546001820180546001600160a01b0319166001600160a01b039092169190911790558254919290916002830191906127dc90615b7c565b6127e7929190614c66565b5060038201816003019080546127fc90615b7c565b612807929190614c66565b50600482018160040190805461281c90615b7c565b612827929190614c66565b50600582018160050190805461283c90615b7c565b612847929190614c66565b50600682018160060190805461285c90615b7c565b612867929190614c66565b50600782018160070190805461287c90615b7c565b612887929190614c66565b50600882018160080190805461289c90615b7c565b6128a7929190614c66565b5060098281015490820155600a91820154910155601380549060006128cb83615b4b565b9091555060019b9a5050505050505050505050565b6128e8614ce1565b6001600160a01b038281166000908152600360208181526040928390208351610160810185528154815260018201549586169281019290925290939092840191600160a01b90910460ff169081111561294357612943614f07565b600381111561295457612954614f07565b815260200160028201805461296890615b7c565b80601f016020809104026020016040519081016040528092919081815260200182805461299490615b7c565b80156129e15780601f106129b6576101008083540402835291602001916129e1565b820191906000526020600020905b8154815290600101906020018083116129c457829003601f168201915b505050505081526020016003820180546129fa90615b7c565b80601f0160208091040260200160405190810160405280929190818152602001828054612a2690615b7c565b8015612a735780601f10612a4857610100808354040283529160200191612a73565b820191906000526020600020905b815481529060010190602001808311612a5657829003601f168201915b50505050508152602001600482018054612a8c90615b7c565b80601f0160208091040260200160405190810160405280929190818152602001828054612ab890615b7c565b8015612b055780601f10612ada57610100808354040283529160200191612b05565b820191906000526020600020905b815481529060010190602001808311612ae857829003601f168201915b5050509183525050600582015460ff90811615156020808401919091526006840154604080850191909152600785015460608501528051808201825260088601548152600986015490931615159183019190915260808084019290925280519182019052600a8301805460a09093019282908290611cb190615b7c565b6000612b8d3361204b565b612ba95760405162461bcd60e51b815260040161069390615be0565b600083815260196020526040902054839060011115612c0a5760405162461bcd60e51b815260206004820152601c60248201527f5468697320696e7370656374696f6e20646f6e277420657869737473000000006044820152606401610693565b612c13846145d1565b612c205760009150612df5565b612c44846000908152601960205260409020600201546001600160a01b0316331490565b612c515760009150612df5565b600084815260196020908152604080832081516101208101909252805482526001810154919290919083019060ff166003811115612c9157612c91614f07565b6003811115612ca257612ca2614f07565b815260018201546001600160a01b0361010090910481166020808401919091526002840154909116604080840191909152600384018054825181850281018501909352808352606090940193919290919060009084015b82821015612d6557600084815260209081902083018054604080518285028101850190915281815292830182828015612d5157602002820191906000526020600020905b815481526020019060010190808311612d3d575b505050505081526020019060010190612cf9565b5050505081526020016004820154815260200160058201548152602001600682015481526020016007820154815250509050612da18185614602565b612daa856147dd565b60a081015160008681526019602090815260408083206001015461010090046001600160a01b031683526003909152902060070155612def81604001516107d0614a65565b60019250505b5092915050565b6000612e073361204b565b612e235760405162461bcd60e51b815260040161069390615be0565b600082815260196020526040902054829060011115612e845760405162461bcd60e51b815260206004820152601c60248201527f5468697320696e7370656374696f6e20646f6e277420657869737473000000006044820152606401610693565b600083815260196020908152604080832081516101208101909252805482526001810154919290919083019060ff166003811115612ec457612ec4614f07565b6003811115612ed557612ed5614f07565b815260018201546001600160a01b0361010090910481166020808401919091526002840154909116604080840191909152600384018054825181850281018501909352808352606090940193919290919060009084015b82821015612f9857600084815260209081902083018054604080518285028101850190915281815292830182828015612f8457602002820191906000526020600020905b815481526020019060010190808311612f70575b505050505081526020019060010190612f2c565b505050908252506004820154602082015260058201546040820152600682015460608201526007909101546080909101529050600081602001516003811115612fe357612fe3614f07565b14612ff257600092505061070d565b60036020828101828152336060850152600087815260199092526040909120835181559051600180830180548695919260ff1990911691849081111561303a5761303a614f07565b02179055506040820151600182018054610100600160a81b0319166101006001600160a01b039384160217905560608301516002830180546001600160a01b031916919092161790556080820151805161309e916003840191602090910190614d7d565b5060a0820151816004015560c0820151816005015560e082015181600601556101008201518160070155905050806017826101000151815481106130e4576130e4615b66565b90600052602060002090600802016000820151816000015560208201518160010160006101000a81548160ff0219169083600381111561312657613126614f07565b02179055506040820151600182018054610100600160a81b0319166101006001600160a01b039384160217905560608301516002830180546001600160a01b031916919092161790556080820151805161318a916003840191602090910190614d7d565b5060a0820151600482015560c0820151600582015560e08201516006820155610100909101516007909101555060019392505050565b60606002805480602002602001604051908101604052809291908181526020016000905b828210156108a75760008481526020908190206040805161016081018252600e86029092018054835260018101546001600160a01b03811694840194909452919290830190600160a01b900460ff16600381111561324457613244614f07565b600381111561325557613255614f07565b815260200160028201805461326990615b7c565b80601f016020809104026020016040519081016040528092919081815260200182805461329590615b7c565b80156132e25780601f106132b7576101008083540402835291602001916132e2565b820191906000526020600020905b8154815290600101906020018083116132c557829003601f168201915b505050505081526020016003820180546132fb90615b7c565b80601f016020809104026020016040519081016040528092919081815260200182805461332790615b7c565b80156133745780601f1061334957610100808354040283529160200191613374565b820191906000526020600020905b81548152906001019060200180831161335757829003601f168201915b5050505050815260200160048201805461338d90615b7c565b80601f01602080910402602001604051908101604052809291908181526020018280546133b990615b7c565b80156134065780601f106133db57610100808354040283529160200191613406565b820191906000526020600020905b8154815290600101906020018083116133e957829003601f168201915b5050509183525050600582015460ff90811615156020808401919091526006840154604080850191909152600785015460608501528051808201825260088601548152600986015490931615159183019190915260808084019290925280519182019052600a8301805460a0909301928290829061348390615b7c565b80601f01602080910402602001604051908101604052809291908181526020018280546134af90615b7c565b80156134fc5780601f106134d1576101008083540402835291602001916134fc565b820191906000526020600020905b8154815290600101906020018083116134df57829003601f168201915b5050505050815260200160018201805461351590615b7c565b80601f016020809104026020016040519081016040528092919081815260200182805461354190615b7c565b801561358e5780601f106135635761010080835404028352916020019161358e565b820191906000526020600020905b81548152906001019060200180831161357157829003601f168201915b505050505081526020016002820180546135a790615b7c565b80601f01602080910402602001604051908101604052809291908181526020018280546135d390615b7c565b80156136205780601f106135f557610100808354040283529160200191613620565b820191906000526020600020905b81548152906001019060200180831161360357829003601f168201915b5050505050815260200160038201805461363990615b7c565b80601f016020809104026020016040519081016040528092919081815260200182805461366590615b7c565b80156136b25780601f10613687576101008083540402835291602001916136b2565b820191906000526020600020905b81548152906001019060200180831161369557829003601f168201915b50505050508152505081525050815260200190600101906131e4565b6001600160a01b0381166000908152600360205260408120600201805482919061207490615b7c565b60606017805480602002602001604051908101604052809291908181526020016000905b828210156108a7578382906000526020600020906008020160405180610120016040529081600082015481526020016001820160009054906101000a900460ff16600381111561376d5761376d614f07565b600381111561377e5761377e614f07565b815260018201546001600160a01b0361010090910481166020808401919091526002840154909116604080840191909152600384018054825181850281018501909352808352606090940193919290919060009084015b828210156138415760008481526020908190208301805460408051828502810185019091528181529283018282801561382d57602002820191906000526020600020905b815481526020019060010190808311613819575b5050505050815260200190600101906137d5565b5050505081526020016004820154815260200160058201548152602001600682015481526020016007820154815250508152602001906001019061371b565b60088054600954600a805492936001600160a01b03909216926138a290615b7c565b80601f01602080910402602001604051908101604052809291908181526020018280546138ce90615b7c565b801561391b5780601f106138f05761010080835404028352916020019161391b565b820191906000526020600020905b8154815290600101906020018083116138fe57829003601f168201915b50505050509080600301805461393090615b7c565b80601f016020809104026020016040519081016040528092919081815260200182805461395c90615b7c565b80156139a95780601f1061397e576101008083540402835291602001916139a9565b820191906000526020600020905b81548152906001019060200180831161398c57829003601f168201915b5050505050908060040180546139be90615b7c565b80601f01602080910402602001604051908101604052809291908181526020018280546139ea90615b7c565b8015613a375780601f10613a0c57610100808354040283529160200191613a37565b820191906000526020600020905b815481529060010190602001808311613a1a57829003601f168201915b505050505090806005018054613a4c90615b7c565b80601f0160208091040260200160405190810160405280929190818152602001828054613a7890615b7c565b8015613ac55780601f10613a9a57610100808354040283529160200191613ac5565b820191906000526020600020905b815481529060010190602001808311613aa857829003601f168201915b505050505090806006018054613ada90615b7c565b80601f0160208091040260200160405190810160405280929190818152602001828054613b0690615b7c565b8015613b535780601f10613b2857610100808354040283529160200191613b53565b820191906000526020600020905b815481529060010190602001808311613b3657829003601f168201915b505050505090806007018054613b6890615b7c565b80601f0160208091040260200160405190810160405280929190818152602001828054613b9490615b7c565b8015613be15780601f10613bb657610100808354040283529160200191613be1565b820191906000526020600020905b815481529060010190602001808311613bc457829003601f168201915b505050505090806008018054613bf690615b7c565b80601f0160208091040260200160405190810160405280929190818152602001828054613c2290615b7c565b8015613c6f5780601f10613c4457610100808354040283529160200191613c6f565b820191906000526020600020905b815481529060010190602001808311613c5257829003601f168201915b50505050509080600901549080600a015490508b565b613ce760408051610120810190915260008082526020820190815260200160006001600160a01b0316815260200160006001600160a01b0316815260200160608152602001600081526020016000815260200160008152602001600081525090565b60008281526019602090815260409182902082516101208101909352805483526001810154909183019060ff166003811115613d2557613d25614f07565b6003811115613d3657613d36614f07565b815260018201546001600160a01b0361010090910481166020808401919091526002840154909116604080840191909152600384018054825181850281018501909352808352606090940193919290919060009084015b82821015613df957600084815260209081902083018054604080518285028101850190915281815292830182828015613de557602002820191906000526020600020905b815481526020019060010190808311613dd1575b505050505081526020019060010190613d8d565b5050505081526020016004820154815260200160058201548152602001600682015481526020016007820154815250509050919050565b613e966040518061016001604052806000815260200160006001600160a01b031681526020016060815260200160608152602001606081526020016060815260200160608152602001606081526020016060815260200160008152602001600081525090565b6000828152601560209081526040918290208251610160810184528154815260018201546001600160a01b0316928101929092526002810180549293919291840191613ee190615b7c565b80601f0160208091040260200160405190810160405280929190818152602001828054613f0d90615b7c565b8015613f5a5780601f10613f2f57610100808354040283529160200191613f5a565b820191906000526020600020905b815481529060010190602001808311613f3d57829003601f168201915b50505050508152602001600382018054613f7390615b7c565b80601f0160208091040260200160405190810160405280929190818152602001828054613f9f90615b7c565b8015613fec5780601f10613fc157610100808354040283529160200191613fec565b820191906000526020600020905b815481529060010190602001808311613fcf57829003601f168201915b5050505050815260200160048201805461400590615b7c565b80601f016020809104026020016040519081016040528092919081815260200182805461403190615b7c565b801561407e5780601f106140535761010080835404028352916020019161407e565b820191906000526020600020905b81548152906001019060200180831161406157829003601f168201915b5050505050815260200160058201805461409790615b7c565b80601f01602080910402602001604051908101604052809291908181526020018280546140c390615b7c565b80156141105780601f106140e557610100808354040283529160200191614110565b820191906000526020600020905b8154815290600101906020018083116140f357829003601f168201915b5050505050815260200160068201805461412990615b7c565b80601f016020809104026020016040519081016040528092919081815260200182805461415590615b7c565b80156141a25780601f10614177576101008083540402835291602001916141a2565b820191906000526020600020905b81548152906001019060200180831161418557829003601f168201915b505050505081526020016007820180546141bb90615b7c565b80601f01602080910402602001604051908101604052809291908181526020018280546141e790615b7c565b80156142345780601f1061420957610100808354040283529160200191614234565b820191906000526020600020905b81548152906001019060200180831161421757829003601f168201915b5050505050815260200160088201805461424d90615b7c565b80601f016020809104026020016040519081016040528092919081815260200182805461427990615b7c565b80156142c65780601f1061429b576101008083540402835291602001916142c6565b820191906000526020600020905b8154815290600101906020018083116142a957829003601f168201915b5050505050815260200160098201548152602001600a820154815250509050919050565b6001600160a01b0382166000908152602081905260409020805482919060ff1916600183600381111561431f5761431f614f07565b02179055506001805490600061433483615b4b565b91905055505050565b6000601a54600161434e9190615bb1565b9050600061435d600183615bc9565b905060606000601654426143719190615bb1565b905060006040518061012001604052808681526020016000600381111561439a5761439a614f07565b815233602080830182905260408301919091526060820186905260006080830181905260a083018690524260c084015260e0909201879052601780546001818101835591909352835160089093027fc624b66cc0138b8fabc209247f72d758e1cf3343756d543badbf24212bed8c158101938455918401517fc624b66cc0138b8fabc209247f72d758e1cf3343756d543badbf24212bed8c1690920180549495508594909160ff199091169083600381111561445857614458614f07565b02179055506040820151600182018054610100600160a81b0319166101006001600160a01b039384160217905560608301516002830180546001600160a01b03191691909216179055608082015180516144bc916003840191602090910190614d7d565b5060a0820151600482015560c0820151600582015560e082015160068201556101009091015160079091015560008581526019602090815260409091208251815590820151600180830180548594939260ff199091169083600381111561452557614525614f07565b02179055506040820151600182018054610100600160a81b0319166101006001600160a01b039384160217905560608301516002830180546001600160a01b0319169190921617905560808201518051614589916003840191602090910190614d7d565b5060a0820151600482015560c0820151600582015560e0820151600682015561010090910151600790910155601a80549060006145c583615b4b565b91905055505050505050565b6000600360008381526019602052604090206001015460ff1660038111156145fb576145fb614f07565b1492915050565b608082018190526002602083015261461982614add565b60a0830152815160009081526019602090815260409091208351815590830151600180830180548694939260ff199091169083600381111561465d5761465d614f07565b02179055506040820151600182018054610100600160a81b0319166101006001600160a01b039384160217905560608301516002830180546001600160a01b03191691909216179055608082015180516146c1916003840191602090910190614d7d565b5060a0820151816004015560c0820151816005015560e0820151816006015561010082015181600701559050508160178361010001518154811061470757614707615b66565b90600052602060002090600802016000820151816000015560208201518160010160006101000a81548160ff0219169083600381111561474957614749614f07565b02179055506040820151600182018054610100600160a81b0319166101006001600160a01b039384160217905560608301516002830180546001600160a01b03191691909216179055608082015180516147ad916003840191602090910190614d7d565b5060a0820151600482015560c0820151600582015560e08201516006820155610100909101516007909101555050565b600081815260196020908152604080832060018101546002909101546001600160a01b0390811680865260069485905292852060058101805460ff191690559093018054610100909204909316939192909161483883615b4b565b90915550506001600160a01b038216600090815260036020526040812060058101805460ff1916905560060180549161487083615b4b565b90915550506001600160a01b03821660009081526018602090815260408083208684526019835290832081546001818101845592855292909320835460089093020191825580830154828201805460ff90921692909160ff1916908360038111156148dd576148dd614f07565b021790555060018281015490820180546001600160a01b03610100938490048116909302610100600160a81b031990911617905560028084015490830180546001600160a01b03191691909216179055600380830180546149419284019190614dd6565b506004828101549082015560058083015490820155600680830154908201556007918201549101556001600160a01b03811660009081526018602090815260408083208684526019835290832081546001818101845592855292909320835460089093020191825580830154828201805460ff90921692909160ff1916908360038111156149d1576149d1614f07565b021790555060018281015490820180546001600160a01b03610100938490048116909302610100600160a81b031990911617905560028084015490830180546001600160a01b0319169190921617905560038083018054614a359284019190614dd6565b50600482015481600401556005820154816005015560068201548160060155600782015481600701555050505050565b6001600160a01b038216600090815260036020526040908190206008015481518083019092529080614a978484615bb1565b8152600060209182018190526001600160a01b03959095168552600381526040909420815160088201559301516009909301805460ff1916931515939093179092555050565b608081015160009081614aef82614af7565b949350505050565b600080805b83518160ff161015612df5576000848260ff1681518110614b1f57614b1f615b66565b6020026020010151600181518110614b3957614b39615b66565b6020026020010151905060028111614b595782614b5581615b4b565b9350505b5080614b6481615c2f565b915050614afc565b60408051610120810182526000808252602082018190529091820190815260200160608152602001606081526020016060815260200160001515815260200160008152602001614bdd6040518060800160405280606081526020016060815260200160608152602001606081525090565b905290565b828054614bee90615b7c565b90600052602060002090601f016020900481019282614c105760008555614c56565b82601f10614c2957805160ff1916838001178555614c56565b82800160010185558215614c56579182015b82811115614c56578251825591602001919060010190614c3b565b50614c62929150614e22565b5090565b828054614c7290615b7c565b90600052602060002090601f016020900481019282614c945760008555614c56565b82601f10614ca55780548555614c56565b82800160010185558215614c5657600052602060002091601f016020900482015b82811115614c56578254825591600101919060010190614cc6565b6040805161016081018252600080825260208201819052909182019081526020016060815260200160608152602001606081526020016000151581526020016000815260200160008152602001614d4d6040518060400160405280600081526020016000151581525090565b8152602001614bdd6040518060800160405280606081526020016060815260200160608152602001606081525090565b828054828255906000526020600020908101928215614dca579160200282015b82811115614dca5782518051614dba918491602090910190614e37565b5091602001919060010190614d9d565b50614c62929150614e71565b828054828255906000526020600020908101928215614dca5760005260206000209182015b82811115614dca578254614e129083908590614e8e565b5091600101919060010190614dfb565b5b80821115614c625760008155600101614e23565b828054828255906000526020600020908101928215614c565791602002820182811115614c56578251825591602001919060010190614c3b565b80821115614c62576000614e858282614ecd565b50600101614e71565b828054828255906000526020600020908101928215614c5657600052602060002091820182811115614c56578254825591600101919060010190614cc6565b5080546000825590600052602060002090810190614eeb9190614e22565b50565b600060208284031215614f0057600080fd5b5035919050565b634e487b7160e01b600052602160045260246000fd5b60048110614eeb57634e487b7160e01b600052602160045260246000fd5b614f4481614f1d565b9052565b600082825180855260208086019550808260051b8401018186016000805b85811015614fb957868403601f19018a52825180518086529086019086860190845b81811015614fa457835183529288019291880191600101614f88565b50509a86019a94505091840191600101614f66565b509198975050505050505050565b6000610120825184526020830151614fde81614f1d565b806020860152506040830151614fff60408601826001600160a01b03169052565b50606083015161501a60608601826001600160a01b03169052565b50608083015181608086015261503282860182614f48565b91505060a083015160a085015260c083015160c085015260e083015160e08501526101008084015181860152508091505092915050565b6000602080830181845280855180835260408601915060408160051b870101925083870160005b828110156150be57603f198886030184526150ac858351614fc7565b94509285019290850190600101615090565b5092979650505050505050565b6000815180845260005b818110156150f1576020818501810151868301820152016150d5565b81811115615103576000602083870101525b50601f01601f19169290920160200192915050565b600081516080845261512d60808501826150cb565b90506020830151848203602086015261514682826150cb565b9150506040830151848203604086015261516082826150cb565b9150506060830151848203606086015261517a82826150cb565b95945050505050565b8b81526001600160a01b038b16602082015260006101806151a38c614f1d565b8b60408401528060608401526151bb8184018c6150cb565b905082810360808401526151cf818b6150cb565b905082810360a08401526151e3818a6150cb565b905087151560c08401528660e084015285610100840152615214610120840186805182526020908101511515910152565b8281036101608401526152278185615118565b9e9d5050505050505050505050505050565b634e487b7160e01b600052604160045260246000fd5b604051601f8201601f1916810167ffffffffffffffff8111828210171561527857615278615239565b604052919050565b600082601f83011261529157600080fd5b813567ffffffffffffffff8111156152ab576152ab615239565b6152be601f8201601f191660200161524f565b8181528460208386010111156152d357600080fd5b816020850160208301376000918101602001919091529392505050565b600080600080600080600060e0888a03121561530b57600080fd5b873567ffffffffffffffff8082111561532357600080fd5b61532f8b838c01615280565b985060208a013591508082111561534557600080fd5b6153518b838c01615280565b975060408a013591508082111561536757600080fd5b6153738b838c01615280565b965060608a013591508082111561538957600080fd5b6153958b838c01615280565b955060808a01359150808211156153ab57600080fd5b6153b78b838c01615280565b945060a08a01359150808211156153cd57600080fd5b6153d98b838c01615280565b935060c08a01359150808211156153ef57600080fd5b506153fc8a828b01615280565b91505092959891949750929550565b600061012082518452602083015161542e60208601826001600160a01b03169052565b5060408301516154416040860182614f3b565b506060830151816060860152615459828601826150cb565b9150506080830151848203608086015261547382826150cb565b91505060a083015184820360a086015261548d82826150cb565b91505060c08301516154a360c086018215159052565b5060e083015160e085015261010080840151858303828701526154c68382615118565b9695505050505050565b6020815260006154e3602083018461540b565b9392505050565b6000602080830181845280855180835260408601915060408160051b870101925083870160005b828110156150be57603f1988860301845261552d85835161540b565b94509285019290850190600101615511565b600061016082518452602083015161556260208601826001600160a01b03169052565b50604083015181604086015261557a828601826150cb565b9150506060830151848203606086015261559482826150cb565b915050608083015184820360808601526155ae82826150cb565b91505060a083015184820360a08601526155c882826150cb565b91505060c083015184820360c08601526155e282826150cb565b91505060e083015184820360e08601526155fc82826150cb565b915050610100808401518583038287015261561783826150cb565b610120868101519088015261014095860151959096019490945250929392505050565b6000602080830181845280855180835260408601915060408160051b870101925083870160005b828110156150be57603f1988860301845261567d85835161553f565b94509285019290850190600101615661565b6000602082840312156156a157600080fd5b81356001600160a01b03811681146154e357600080fd5b6060815260006156cb60608301866150cb565b82810360208401526156dd81866150cb565b905082810360408401526154c681856150cb565b602081016156fe83614f1d565b91905290565b600061018082518452602083015161572760208601826001600160a01b03169052565b50604083015161573a6040860182614f3b565b506060830151816060860152615752828601826150cb565b9150506080830151848203608086015261576c82826150cb565b91505060a083015184820360a086015261578682826150cb565b91505060c083015161579c60c086018215159052565b5060e0838101519085015261010080840151908501526101208084015180518287015260208101511515610140870152505061014083015184820361016086015261517a8282615118565b6020815260006154e36020830184615704565b60a08152600061580d60a08301886150cb565b828103602084015261581f81886150cb565b9050828103604084015261583381876150cb565b9050828103606084015261584781866150cb565b9050828103608084015261585b81856150cb565b98975050505050505050565b600067ffffffffffffffff82111561588157615881615239565b5060051b60200190565b600080604080848603121561589f57600080fd5b8335925060208085013567ffffffffffffffff808211156158bf57600080fd5b818701915087601f8301126158d357600080fd5b81356158e66158e182615867565b61524f565b81815260059190911b8301840190848101908a83111561590557600080fd5b8585015b83811015615991578035858111156159215760008081fd5b8601603f81018d136159335760008081fd5b878101356159436158e182615867565b81815260059190911b82018a0190898101908f8311156159635760008081fd5b928b01925b828410156159815783358252928a0192908a0190615968565b8652505050918601918601615909565b50809750505050505050509250929050565b6080815260006159b660808301876150cb565b82810360208401526159c881876150cb565b905082810360408401526159dc81866150cb565b905082810360608401526159f081856150cb565b979650505050505050565b6000602080830181845280855180835260408601915060408160051b870101925083870160005b828110156150be57603f19888603018452615a3e858351615704565b94509285019290850190600101615a22565b8b81526001600160a01b038b1660208201526000610160806040840152615a798184018d6150cb565b90508281036060840152615a8d818c6150cb565b90508281036080840152615aa1818b6150cb565b905082810360a0840152615ab5818a6150cb565b905082810360c0840152615ac981896150cb565b905082810360e0840152615add81886150cb565b9050828103610100840152615af281876150cb565b610120840195909552505061014001529998505050505050505050565b6020815260006154e36020830184614fc7565b6020815260006154e3602083018461553f565b634e487b7160e01b600052601160045260246000fd5b6000600019821415615b5f57615b5f615b35565b5060010190565b634e487b7160e01b600052603260045260246000fd5b600181811c90821680615b9057607f821691505b6020821081141561070d57634e487b7160e01b600052602260045260246000fd5b60008219821115615bc457615bc4615b35565b500190565b600082821015615bdb57615bdb615b35565b500390565b6020808252602f908201527f596f75206d75737420626520616e2061637469766973742120506c656173652060408201526e7265676973746572206173206f6e6560881b606082015260800190565b600060ff821660ff811415615c4657615c46615b35565b6001019291505056fea2646970667358221220115ed42c505568f357d1d532980bad10747b58eb867af140024b163a7f0b8e9164736f6c63430008090033",
  "immutableReferences": {},
  "source": "pragma solidity >=0.5.0 <=0.9.0;\r\n// SPDX-License-Identifier: GPL-3.0-or-later\r\n\r\nimport './ProducerContract.sol';\r\nimport './ActivistContract.sol';\r\nimport './CategoryContract.sol';\r\n\r\n/**\r\n* @title InspectionContract\r\n* @dev Inpection action core\r\n*/\r\ncontract InspectionContract is ProducerContract, ActivistContract, CategoryContract {\r\n    enum InspectionStatus { OPEN, EXPIRED, INSPECTED, ACCEPTED } \r\n    uint inspactionExpireIn = 604800; // Seven days\r\n    \r\n    struct Inspection {\r\n        uint id;\r\n        InspectionStatus status;\r\n        address producerWallet;\r\n        address activistWallet;\r\n        uint[][] isas;\r\n        uint isaPoints;\r\n        uint expiresIn;\r\n        uint createdAt;\r\n        uint index;\r\n    }\r\n    Inspection[] inspectionsList;\r\n    mapping(address => Inspection[]) userInspections;\r\n    mapping(uint256 => Inspection) inspections;\r\n    uint256 inspectionsCount;\r\n\r\n    /**\r\n   * @dev Allows the current user producer/activist get all yours inspections with status INSPECTED\r\n   */\r\n    function getInspectionsHistory() public view returns(Inspection[] memory) {\r\n        return userInspections[msg.sender];\r\n    }\r\n\r\n  /**\r\n   * @dev Allows the current user (producer) request a inspection.\r\n   */\r\n    function requestInspection() public returns(bool) {\r\n        require(producerExists(msg.sender), \"You are not a producer! Please register as one\");\r\n        require(producers[msg.sender].recentInspection == false, \"You have a inspection request OPEN or ACCEPTED! Wait a activist realize inspection or you can close it\");\r\n        \r\n        createRequest();\r\n        producers[msg.sender].recentInspection = true;\r\n        \r\n        return true;\r\n    }     \r\n    \r\n    function createRequest() internal{\r\n        uint id = inspectionsCount + 1;\r\n        uint index = id - 1;\r\n        uint[][] memory isas;\r\n        uint expiresIn = block.timestamp + inspactionExpireIn;\r\n        Inspection memory inspection = Inspection(id, InspectionStatus.OPEN, msg.sender, msg.sender, isas,  0, expiresIn,  block.timestamp, index);\r\n        inspectionsList.push(inspection);\r\n        inspections[id] = inspection;\r\n        inspectionsCount++;\r\n    }\r\n    \r\n    /**\r\n   * @dev Allows the current user (activist) accept a inspection.\r\n   * @param inspectionId The id of the inspection that the activist want accept.\r\n   */\r\n    function acceptInspection(uint inspectionId) public requireActivist requireInspectionExists(inspectionId) returns(bool) {\r\n        Inspection memory inspection = inspections[inspectionId];\r\n        if (inspection.status != InspectionStatus.OPEN) return false;\r\n\r\n        inspection.status = InspectionStatus.ACCEPTED;\r\n        inspection.activistWallet = msg.sender;\r\n        inspections[inspectionId] = inspection;\r\n\r\n        inspectionsList[inspection.index] = inspection;\r\n        return true;\r\n    }  \r\n    \r\n    /**\r\n   * @dev Calculate the ISA of the inspection based in the category and the ISA level of the category\r\n   * @param inspection Receive the inspected inspection with your isas levels\r\n   */\r\n    function calculateIsa(Inspection memory inspection) internal pure returns(uint){ \r\n        uint[][] memory isas = inspection.isas;\r\n        uint isaPoints = checkIsaPoints(isas);\r\n        return isaPoints;\r\n    }\r\n    \r\n    /**\r\n     * @dev Allow a activist realize a inspection and mark as INSPECTED\r\n     * @param inspectionId The id of the inspection to be realized\r\n     * @param isas The uint[][] of categoryId and isaIndex. Ex: isas = [ [categoryId, isaIndex], [categoryId, isaIndex] ]\r\n     */ \r\n    function realizeInspection(uint inspectionId, uint[][] memory isas) public  requireActivist requireInspectionExists(inspectionId) returns(bool) {\r\n        if (!isAccepted(inspectionId)) return false;\r\n        if (!isActivistOwner(inspectionId)) return false;\r\n\r\n        Inspection memory inspection = inspections[inspectionId];\r\n\r\n        markAsRealized(inspection, isas);\r\n        afterRealizeInspection(inspectionId);\r\n        updateProducerIsa(inspectionId, inspection.isaPoints);\r\n        approveProducerNewTokens(inspection.producerWallet, 2000);  \r\n        return true;\r\n    } \r\n\r\n    function markAsRealized(Inspection memory inspection, uint[][] memory isas) internal {   \r\n        inspection.isas = isas;\r\n        inspection.status = InspectionStatus.INSPECTED;\r\n        inspection.isaPoints = calculateIsa(inspection);\r\n        inspections[inspection.id] = inspection;\r\n        inspectionsList[inspection.index] = inspection;\r\n    }\r\n\r\n    function updateProducerIsa(uint inspectionId, uint isaPoints) internal {\r\n        producers[inspections[inspectionId].producerWallet].isaPoints = isaPoints;\r\n    }  \r\n    \r\n    /**\r\n   * @dev Returns a inspection by id if that exists.\r\n   * @param id The id of the inspection to return.\r\n   */\r\n    function getInspection(uint256 id) public view returns(Inspection memory) {\r\n        return inspections[id];\r\n    }\r\n    \r\n    /**\r\n   * @dev Returns all requested inspections.\r\n   */\r\n    function getInspections() public view returns (Inspection[] memory) {\r\n        return inspectionsList;\r\n    }\r\n    \r\n    /**\r\n   * @dev Returns all inpections status string.\r\n   */\r\n    function getInspectionsStatus() public pure returns(string memory, string memory, string memory, string memory) {\r\n        return (\"OPEN\", \"EXPIRED\", \"INSPECTED\", \"ACCEPTED\");\r\n    }\r\n    \r\n    /**\r\n   * @dev Check if an inspections exists in mapping.\r\n   * @param id The id of the inspection that the activist want accept.\r\n   */\r\n    function inspectionExists(uint256 id) public view returns(bool) {\r\n        return inspections[id].id >= 1;\r\n    }\r\n    \r\n    /**\r\n   * @dev Inscrement producer and activist request action and mark both as no recent open requests and inspection\r\n   * @param inspectionId The id of the inspection\r\n   */\r\n    function afterRealizeInspection(uint inspectionId) internal {\r\n        address producerWallet = inspections[inspectionId].producerWallet;\r\n        address activistWallet = inspections[inspectionId].activistWallet;\r\n        \r\n        // Increment actvist inspections and release to carry out new inspections\r\n        activists[activistWallet].recentInspection = false;\r\n        activists[activistWallet].totalInspections++;\r\n        \r\n        // Increment producer requests and release to carry out new requests\r\n        producers[producerWallet].recentInspection = false;\r\n        producers[producerWallet].totalRequests++;\r\n        \r\n        userInspections[producerWallet].push(inspections[inspectionId]);\r\n        userInspections[activistWallet].push(inspections[inspectionId]);\r\n    }\r\n\r\n    /**\r\n   * @dev Sum the ISA points\r\n   * @param isas The isas values\r\n   */\r\n    function checkIsaPoints(uint[][] memory isas) internal pure returns(uint) {\r\n        uint isaPoints = 0;\r\n        for (uint8 i = 0; i < isas.length; i++) {\r\n            uint isaIndex = isas[i][1];\r\n            if (isaIndex <= 2) {\r\n                isaPoints++;\r\n            }\r\n        }\r\n        return isaPoints;\r\n    }\r\n    \r\n    function isActivistOwner(uint inspectionId) internal view returns(bool) {\r\n        return inspections[inspectionId].activistWallet == msg.sender;\r\n    }\r\n \r\n    function isAccepted(uint inspectionId) internal view returns(bool) {\r\n        return inspections[inspectionId].status == InspectionStatus.ACCEPTED;\r\n    }\r\n    \r\n    // MODIFIERS\r\n    modifier requireActivist() {\r\n        require(activistExists(msg.sender), \"You must be an activist! Please register as one\");\r\n        _;\r\n    }\r\n    \r\n    modifier requireInspectionExists(uint inspectionId) {\r\n        require(inspectionExists(inspectionId), \"This inspection don't exists\");\r\n        _;\r\n    }\r\n    \r\n}\r\n",
  "sourcePath": "C:\\Users\\Breno\\Downloads\\SintropContract (1)\\contracts\\InspectionContract.sol",
  "compiler": {
    "name": "solc",
    "version": "0.8.9+commit.e5eed63a.Emscripten.clang"
  },
  "schemaVersion": "3.2.3",
  "updatedAt": "2021-12-21T17:21:54.068Z",
  "devdoc": {
    "details": "Inpection action core",
    "kind": "dev",
    "methods": {
      "acceptInspection(uint256)": {
        "details": "Allows the current user (activist) accept a inspection.",
        "params": {
          "inspectionId": "The id of the inspection that the activist want accept."
        }
      },
      "activistExists(address)": {
        "details": "Check if a specific activist exists",
        "returns": {
          "_0": "a bool that represent if a activist exists or not"
        }
      },
      "addActivist(string,string,string,string,string,string,string)": {
        "details": "Allow a new register of activist",
        "params": {
          "cep": "the cep of the activist",
          "city": "the of the activist",
          "country": "the country where the activist is",
          "document": "the document of activist",
          "documentType": "the document type type of activist. CPF/CNPJ",
          "name": "the name of the activist",
          "state": "the state of the activist"
        },
        "returns": {
          "_0": "a Activist"
        }
      },
      "addCategory(string,string,string,string,string,string,string)": {
        "details": "add a new category",
        "params": {
          "description": "the description of category",
          "name": "the name of category",
          "neutro": "the description text to this metric",
          "partiallyNotSustainable": "the description text to this metric",
          "partiallySustainable": "the description text to this metric",
          "totallyNotSustainable": "the description text to this metric",
          "totallySustainable": "the description text to this metric"
        },
        "returns": {
          "_0": "bool"
        }
      },
      "addProducer(string,string,string,string,string,string,string)": {
        "details": "Allow a new register of producer",
        "params": {
          "cep": "the cep of the producer",
          "city": "the of the producer",
          "country": "the country where the producer is",
          "document": "the document of producer",
          "documentType": "the document type type of producer. CPF/CNPJ",
          "name": "the name of the producer",
          "state": "the state of the producer"
        }
      },
      "getActivist(address)": {
        "details": "Return a specific activist",
        "params": {
          "addr": "the address of the activist."
        }
      },
      "getActivists()": {
        "details": "Returns all registered activists",
        "returns": {
          "_0": "Activist struct array"
        }
      },
      "getCategories()": {
        "details": "Returns all added categories",
        "returns": {
          "_0": "category struc array"
        }
      },
      "getCategory(uint256)": {
        "details": "get a specific category",
        "params": {
          "id": "the id of a category"
        }
      },
      "getInspection(uint256)": {
        "details": "Returns a inspection by id if that exists.",
        "params": {
          "id": "The id of the inspection to return."
        }
      },
      "getInspections()": {
        "details": "Returns all requested inspections."
      },
      "getInspectionsHistory()": {
        "details": "Allows the current user producer/activist get all yours inspections with status INSPECTED"
      },
      "getInspectionsStatus()": {
        "details": "Returns all inpections status string."
      },
      "getIsas()": {
        "details": "Returns all isas string."
      },
      "getProducer(address)": {
        "details": "Return a specific producer",
        "params": {
          "addr": "the address of the producer."
        }
      },
      "getProducers()": {
        "details": "Returns all registered producers",
        "returns": {
          "_0": "Producer struct array"
        }
      },
      "getUser(address)": {
        "details": "Returns the user type if the user is registered",
        "params": {
          "addr": "the user address that want check if exists"
        }
      },
      "getUserTypes()": {
        "details": "Returns the enum UserType of the system"
      },
      "inspectionExists(uint256)": {
        "details": "Check if an inspections exists in mapping.",
        "params": {
          "id": "The id of the inspection that the activist want accept."
        }
      },
      "producerExists(address)": {
        "details": "Check if a specific producer exists",
        "returns": {
          "_0": "a bool that represent if a producer exists or not"
        }
      },
      "realizeInspection(uint256,uint256[][])": {
        "details": "Allow a activist realize a inspection and mark as INSPECTED",
        "params": {
          "inspectionId": "The id of the inspection to be realized",
          "isas": "The uint[][] of categoryId and isaIndex. Ex: isas = [ [categoryId, isaIndex], [categoryId, isaIndex] ]"
        }
      },
      "requestInspection()": {
        "details": "Allows the current user (producer) request a inspection."
      },
      "vote(uint256)": {
        "details": "Allow a user vote in a category",
        "params": {
          "id": "the id of a category that receives a vote."
        },
        "returns": {
          "_0": "category struc array"
        }
      }
    },
    "title": "InspectionContract",
    "version": 1
  },
  "userdoc": {
    "kind": "user",
    "methods": {},
    "version": 1
  }
}