{
  "contractName": "InspectionContract",
  "abi": [
    {
      "inputs": [
        {
          "internalType": "address",
          "name": "addr",
          "type": "address"
        }
      ],
      "name": "activistExists",
      "outputs": [
        {
          "internalType": "bool",
          "name": "",
          "type": "bool"
        }
      ],
      "stateMutability": "view",
      "type": "function"
    },
    {
      "inputs": [],
      "name": "activistsCount",
      "outputs": [
        {
          "internalType": "uint256",
          "name": "",
          "type": "uint256"
        }
      ],
      "stateMutability": "view",
      "type": "function"
    },
    {
      "inputs": [
        {
          "internalType": "string",
          "name": "name",
          "type": "string"
        },
        {
          "internalType": "string",
          "name": "document",
          "type": "string"
        },
        {
          "internalType": "string",
          "name": "documentType",
          "type": "string"
        },
        {
          "internalType": "string",
          "name": "country",
          "type": "string"
        },
        {
          "internalType": "string",
          "name": "state",
          "type": "string"
        },
        {
          "internalType": "string",
          "name": "city",
          "type": "string"
        },
        {
          "internalType": "string",
          "name": "cep",
          "type": "string"
        }
      ],
      "name": "addActivist",
      "outputs": [
        {
          "components": [
            {
              "internalType": "uint256",
              "name": "id",
              "type": "uint256"
            },
            {
              "internalType": "address",
              "name": "activistWallet",
              "type": "address"
            },
            {
              "internalType": "enum UserContract.UserType",
              "name": "userType",
              "type": "uint8"
            },
            {
              "internalType": "string",
              "name": "name",
              "type": "string"
            },
            {
              "internalType": "string",
              "name": "document",
              "type": "string"
            },
            {
              "internalType": "string",
              "name": "documentType",
              "type": "string"
            },
            {
              "internalType": "bool",
              "name": "recentInspection",
              "type": "bool"
            },
            {
              "internalType": "uint256",
              "name": "totalInspections",
              "type": "uint256"
            },
            {
              "components": [
                {
                  "internalType": "string",
                  "name": "country",
                  "type": "string"
                },
                {
                  "internalType": "string",
                  "name": "state",
                  "type": "string"
                },
                {
                  "internalType": "string",
                  "name": "city",
                  "type": "string"
                },
                {
                  "internalType": "string",
                  "name": "cep",
                  "type": "string"
                }
              ],
              "internalType": "struct ActivistContract.ActivistAddress",
              "name": "activistAddress",
              "type": "tuple"
            }
          ],
          "internalType": "struct ActivistContract.Activist",
          "name": "",
          "type": "tuple"
        }
      ],
      "stateMutability": "nonpayable",
      "type": "function"
    },
    {
      "inputs": [
        {
          "internalType": "string",
          "name": "name",
          "type": "string"
        },
        {
          "internalType": "string",
          "name": "description",
          "type": "string"
        },
        {
          "internalType": "string",
          "name": "totallySustainable",
          "type": "string"
        },
        {
          "internalType": "string",
          "name": "partiallySustainable",
          "type": "string"
        },
        {
          "internalType": "string",
          "name": "neutro",
          "type": "string"
        },
        {
          "internalType": "string",
          "name": "partiallyNotSustainable",
          "type": "string"
        },
        {
          "internalType": "string",
          "name": "totallyNotSustainable",
          "type": "string"
        }
      ],
      "name": "addCategory",
      "outputs": [
        {
          "internalType": "bool",
          "name": "",
          "type": "bool"
        }
      ],
      "stateMutability": "nonpayable",
      "type": "function"
    },
    {
      "inputs": [
        {
          "internalType": "string",
          "name": "name",
          "type": "string"
        },
        {
          "internalType": "string",
          "name": "document",
          "type": "string"
        },
        {
          "internalType": "string",
          "name": "documentType",
          "type": "string"
        },
        {
          "internalType": "string",
          "name": "country",
          "type": "string"
        },
        {
          "internalType": "string",
          "name": "state",
          "type": "string"
        },
        {
          "internalType": "string",
          "name": "city",
          "type": "string"
        },
        {
          "internalType": "string",
          "name": "cep",
          "type": "string"
        }
      ],
      "name": "addProducer",
      "outputs": [
        {
          "internalType": "bool",
          "name": "",
          "type": "bool"
        }
      ],
      "stateMutability": "nonpayable",
      "type": "function"
    },
    {
      "inputs": [],
      "name": "category",
      "outputs": [
        {
          "internalType": "uint256",
          "name": "id",
          "type": "uint256"
        },
        {
          "internalType": "address",
          "name": "createdBy",
          "type": "address"
        },
        {
          "internalType": "string",
          "name": "name",
          "type": "string"
        },
        {
          "internalType": "string",
          "name": "description",
          "type": "string"
        },
        {
          "internalType": "string",
          "name": "totallySustainable",
          "type": "string"
        },
        {
          "internalType": "string",
          "name": "partiallySustainable",
          "type": "string"
        },
        {
          "internalType": "string",
          "name": "neutro",
          "type": "string"
        },
        {
          "internalType": "string",
          "name": "partiallyNotSustainable",
          "type": "string"
        },
        {
          "internalType": "string",
          "name": "totallyNotSustainable",
          "type": "string"
        },
        {
          "internalType": "uint256",
          "name": "votesCount",
          "type": "uint256"
        },
        {
          "internalType": "uint256",
          "name": "index",
          "type": "uint256"
        }
      ],
      "stateMutability": "view",
      "type": "function"
    },
    {
      "inputs": [],
      "name": "categoryCounts",
      "outputs": [
        {
          "internalType": "uint256",
          "name": "",
          "type": "uint256"
        }
      ],
      "stateMutability": "view",
      "type": "function"
    },
    {
      "inputs": [
        {
          "internalType": "address",
          "name": "addr",
          "type": "address"
        }
      ],
      "name": "getActivist",
      "outputs": [
        {
          "components": [
            {
              "internalType": "uint256",
              "name": "id",
              "type": "uint256"
            },
            {
              "internalType": "address",
              "name": "activistWallet",
              "type": "address"
            },
            {
              "internalType": "enum UserContract.UserType",
              "name": "userType",
              "type": "uint8"
            },
            {
              "internalType": "string",
              "name": "name",
              "type": "string"
            },
            {
              "internalType": "string",
              "name": "document",
              "type": "string"
            },
            {
              "internalType": "string",
              "name": "documentType",
              "type": "string"
            },
            {
              "internalType": "bool",
              "name": "recentInspection",
              "type": "bool"
            },
            {
              "internalType": "uint256",
              "name": "totalInspections",
              "type": "uint256"
            },
            {
              "components": [
                {
                  "internalType": "string",
                  "name": "country",
                  "type": "string"
                },
                {
                  "internalType": "string",
                  "name": "state",
                  "type": "string"
                },
                {
                  "internalType": "string",
                  "name": "city",
                  "type": "string"
                },
                {
                  "internalType": "string",
                  "name": "cep",
                  "type": "string"
                }
              ],
              "internalType": "struct ActivistContract.ActivistAddress",
              "name": "activistAddress",
              "type": "tuple"
            }
          ],
          "internalType": "struct ActivistContract.Activist",
          "name": "",
          "type": "tuple"
        }
      ],
      "stateMutability": "view",
      "type": "function"
    },
    {
      "inputs": [],
      "name": "getActivists",
      "outputs": [
        {
          "components": [
            {
              "internalType": "uint256",
              "name": "id",
              "type": "uint256"
            },
            {
              "internalType": "address",
              "name": "activistWallet",
              "type": "address"
            },
            {
              "internalType": "enum UserContract.UserType",
              "name": "userType",
              "type": "uint8"
            },
            {
              "internalType": "string",
              "name": "name",
              "type": "string"
            },
            {
              "internalType": "string",
              "name": "document",
              "type": "string"
            },
            {
              "internalType": "string",
              "name": "documentType",
              "type": "string"
            },
            {
              "internalType": "bool",
              "name": "recentInspection",
              "type": "bool"
            },
            {
              "internalType": "uint256",
              "name": "totalInspections",
              "type": "uint256"
            },
            {
              "components": [
                {
                  "internalType": "string",
                  "name": "country",
                  "type": "string"
                },
                {
                  "internalType": "string",
                  "name": "state",
                  "type": "string"
                },
                {
                  "internalType": "string",
                  "name": "city",
                  "type": "string"
                },
                {
                  "internalType": "string",
                  "name": "cep",
                  "type": "string"
                }
              ],
              "internalType": "struct ActivistContract.ActivistAddress",
              "name": "activistAddress",
              "type": "tuple"
            }
          ],
          "internalType": "struct ActivistContract.Activist[]",
          "name": "",
          "type": "tuple[]"
        }
      ],
      "stateMutability": "view",
      "type": "function"
    },
    {
      "inputs": [],
      "name": "getCategories",
      "outputs": [
        {
          "components": [
            {
              "internalType": "uint256",
              "name": "id",
              "type": "uint256"
            },
            {
              "internalType": "address",
              "name": "createdBy",
              "type": "address"
            },
            {
              "internalType": "string",
              "name": "name",
              "type": "string"
            },
            {
              "internalType": "string",
              "name": "description",
              "type": "string"
            },
            {
              "internalType": "string",
              "name": "totallySustainable",
              "type": "string"
            },
            {
              "internalType": "string",
              "name": "partiallySustainable",
              "type": "string"
            },
            {
              "internalType": "string",
              "name": "neutro",
              "type": "string"
            },
            {
              "internalType": "string",
              "name": "partiallyNotSustainable",
              "type": "string"
            },
            {
              "internalType": "string",
              "name": "totallyNotSustainable",
              "type": "string"
            },
            {
              "internalType": "uint256",
              "name": "votesCount",
              "type": "uint256"
            },
            {
              "internalType": "uint256",
              "name": "index",
              "type": "uint256"
            }
          ],
          "internalType": "struct CategoryContract.Category[]",
          "name": "",
          "type": "tuple[]"
        }
      ],
      "stateMutability": "view",
      "type": "function"
    },
    {
      "inputs": [
        {
          "internalType": "uint256",
          "name": "id",
          "type": "uint256"
        }
      ],
      "name": "getCategory",
      "outputs": [
        {
          "components": [
            {
              "internalType": "uint256",
              "name": "id",
              "type": "uint256"
            },
            {
              "internalType": "address",
              "name": "createdBy",
              "type": "address"
            },
            {
              "internalType": "string",
              "name": "name",
              "type": "string"
            },
            {
              "internalType": "string",
              "name": "description",
              "type": "string"
            },
            {
              "internalType": "string",
              "name": "totallySustainable",
              "type": "string"
            },
            {
              "internalType": "string",
              "name": "partiallySustainable",
              "type": "string"
            },
            {
              "internalType": "string",
              "name": "neutro",
              "type": "string"
            },
            {
              "internalType": "string",
              "name": "partiallyNotSustainable",
              "type": "string"
            },
            {
              "internalType": "string",
              "name": "totallyNotSustainable",
              "type": "string"
            },
            {
              "internalType": "uint256",
              "name": "votesCount",
              "type": "uint256"
            },
            {
              "internalType": "uint256",
              "name": "index",
              "type": "uint256"
            }
          ],
          "internalType": "struct CategoryContract.Category",
          "name": "",
          "type": "tuple"
        }
      ],
      "stateMutability": "view",
      "type": "function"
    },
    {
      "inputs": [],
      "name": "getIsas",
      "outputs": [
        {
          "internalType": "string",
          "name": "",
          "type": "string"
        },
        {
          "internalType": "string",
          "name": "",
          "type": "string"
        },
        {
          "internalType": "string",
          "name": "",
          "type": "string"
        },
        {
          "internalType": "string",
          "name": "",
          "type": "string"
        },
        {
          "internalType": "string",
          "name": "",
          "type": "string"
        }
      ],
      "stateMutability": "pure",
      "type": "function"
    },
    {
      "inputs": [
        {
          "internalType": "address",
          "name": "addr",
          "type": "address"
        }
      ],
      "name": "getProducer",
      "outputs": [
        {
          "components": [
            {
              "internalType": "uint256",
              "name": "id",
              "type": "uint256"
            },
            {
              "internalType": "address",
              "name": "producer_wallet",
              "type": "address"
            },
            {
              "internalType": "enum UserContract.UserType",
              "name": "userType",
              "type": "uint8"
            },
            {
              "internalType": "string",
              "name": "name",
              "type": "string"
            },
            {
              "internalType": "string",
              "name": "document",
              "type": "string"
            },
            {
              "internalType": "string",
              "name": "documentType",
              "type": "string"
            },
            {
              "internalType": "bool",
              "name": "recentInspection",
              "type": "bool"
            },
            {
              "internalType": "uint256",
              "name": "totalRequests",
              "type": "uint256"
            },
            {
              "internalType": "int256",
              "name": "isaPoints",
              "type": "int256"
            },
            {
              "components": [
                {
                  "internalType": "uint256",
                  "name": "allowed",
                  "type": "uint256"
                },
                {
                  "internalType": "bool",
                  "name": "withdrewToken",
                  "type": "bool"
                }
              ],
              "internalType": "struct ProducerContract.TokenApprove",
              "name": "tokenApprove",
              "type": "tuple"
            },
            {
              "components": [
                {
                  "internalType": "string",
                  "name": "country",
                  "type": "string"
                },
                {
                  "internalType": "string",
                  "name": "state",
                  "type": "string"
                },
                {
                  "internalType": "string",
                  "name": "city",
                  "type": "string"
                },
                {
                  "internalType": "string",
                  "name": "cep",
                  "type": "string"
                }
              ],
              "internalType": "struct ProducerContract.PropertyAddress",
              "name": "property_address",
              "type": "tuple"
            }
          ],
          "internalType": "struct ProducerContract.Producer",
          "name": "producer",
          "type": "tuple"
        }
      ],
      "stateMutability": "view",
      "type": "function"
    },
    {
      "inputs": [
        {
          "internalType": "address",
          "name": "address_",
          "type": "address"
        }
      ],
      "name": "getProducerApprove",
      "outputs": [
        {
          "internalType": "uint256",
          "name": "",
          "type": "uint256"
        }
      ],
      "stateMutability": "view",
      "type": "function"
    },
    {
      "inputs": [],
      "name": "getProducers",
      "outputs": [
        {
          "components": [
            {
              "internalType": "uint256",
              "name": "id",
              "type": "uint256"
            },
            {
              "internalType": "address",
              "name": "producer_wallet",
              "type": "address"
            },
            {
              "internalType": "enum UserContract.UserType",
              "name": "userType",
              "type": "uint8"
            },
            {
              "internalType": "string",
              "name": "name",
              "type": "string"
            },
            {
              "internalType": "string",
              "name": "document",
              "type": "string"
            },
            {
              "internalType": "string",
              "name": "documentType",
              "type": "string"
            },
            {
              "internalType": "bool",
              "name": "recentInspection",
              "type": "bool"
            },
            {
              "internalType": "uint256",
              "name": "totalRequests",
              "type": "uint256"
            },
            {
              "internalType": "int256",
              "name": "isaPoints",
              "type": "int256"
            },
            {
              "components": [
                {
                  "internalType": "uint256",
                  "name": "allowed",
                  "type": "uint256"
                },
                {
                  "internalType": "bool",
                  "name": "withdrewToken",
                  "type": "bool"
                }
              ],
              "internalType": "struct ProducerContract.TokenApprove",
              "name": "tokenApprove",
              "type": "tuple"
            },
            {
              "components": [
                {
                  "internalType": "string",
                  "name": "country",
                  "type": "string"
                },
                {
                  "internalType": "string",
                  "name": "state",
                  "type": "string"
                },
                {
                  "internalType": "string",
                  "name": "city",
                  "type": "string"
                },
                {
                  "internalType": "string",
                  "name": "cep",
                  "type": "string"
                }
              ],
              "internalType": "struct ProducerContract.PropertyAddress",
              "name": "property_address",
              "type": "tuple"
            }
          ],
          "internalType": "struct ProducerContract.Producer[]",
          "name": "",
          "type": "tuple[]"
        }
      ],
      "stateMutability": "view",
      "type": "function"
    },
    {
      "inputs": [
        {
          "internalType": "address",
          "name": "addr",
          "type": "address"
        }
      ],
      "name": "getUser",
      "outputs": [
        {
          "internalType": "enum UserContract.UserType",
          "name": "",
          "type": "uint8"
        }
      ],
      "stateMutability": "view",
      "type": "function"
    },
    {
      "inputs": [],
      "name": "getUserTypes",
      "outputs": [
        {
          "internalType": "string",
          "name": "",
          "type": "string"
        },
        {
          "internalType": "string",
          "name": "",
          "type": "string"
        },
        {
          "internalType": "string",
          "name": "",
          "type": "string"
        }
      ],
      "stateMutability": "pure",
      "type": "function"
    },
    {
      "inputs": [
        {
          "internalType": "address",
          "name": "addr",
          "type": "address"
        }
      ],
      "name": "producerExists",
      "outputs": [
        {
          "internalType": "bool",
          "name": "",
          "type": "bool"
        }
      ],
      "stateMutability": "view",
      "type": "function"
    },
    {
      "inputs": [],
      "name": "producersCount",
      "outputs": [
        {
          "internalType": "uint256",
          "name": "",
          "type": "uint256"
        }
      ],
      "stateMutability": "view",
      "type": "function"
    },
    {
      "inputs": [
        {
          "internalType": "uint256",
          "name": "",
          "type": "uint256"
        }
      ],
      "name": "producersList",
      "outputs": [
        {
          "internalType": "uint256",
          "name": "id",
          "type": "uint256"
        },
        {
          "internalType": "address",
          "name": "producer_wallet",
          "type": "address"
        },
        {
          "internalType": "enum UserContract.UserType",
          "name": "userType",
          "type": "uint8"
        },
        {
          "internalType": "string",
          "name": "name",
          "type": "string"
        },
        {
          "internalType": "string",
          "name": "document",
          "type": "string"
        },
        {
          "internalType": "string",
          "name": "documentType",
          "type": "string"
        },
        {
          "internalType": "bool",
          "name": "recentInspection",
          "type": "bool"
        },
        {
          "internalType": "uint256",
          "name": "totalRequests",
          "type": "uint256"
        },
        {
          "internalType": "int256",
          "name": "isaPoints",
          "type": "int256"
        },
        {
          "components": [
            {
              "internalType": "uint256",
              "name": "allowed",
              "type": "uint256"
            },
            {
              "internalType": "bool",
              "name": "withdrewToken",
              "type": "bool"
            }
          ],
          "internalType": "struct ProducerContract.TokenApprove",
          "name": "tokenApprove",
          "type": "tuple"
        },
        {
          "components": [
            {
              "internalType": "string",
              "name": "country",
              "type": "string"
            },
            {
              "internalType": "string",
              "name": "state",
              "type": "string"
            },
            {
              "internalType": "string",
              "name": "city",
              "type": "string"
            },
            {
              "internalType": "string",
              "name": "cep",
              "type": "string"
            }
          ],
          "internalType": "struct ProducerContract.PropertyAddress",
          "name": "property_address",
          "type": "tuple"
        }
      ],
      "stateMutability": "view",
      "type": "function"
    },
    {
      "inputs": [],
      "name": "usersCount",
      "outputs": [
        {
          "internalType": "uint256",
          "name": "",
          "type": "uint256"
        }
      ],
      "stateMutability": "view",
      "type": "function"
    },
    {
      "inputs": [
        {
          "internalType": "uint256",
          "name": "id",
          "type": "uint256"
        }
      ],
      "name": "vote",
      "outputs": [
        {
          "internalType": "bool",
          "name": "",
          "type": "bool"
        }
      ],
      "stateMutability": "nonpayable",
      "type": "function"
    },
    {
      "inputs": [
        {
          "internalType": "address",
          "name": "addr",
          "type": "address"
        }
      ],
      "name": "getInspectionsHistory",
      "outputs": [
        {
          "components": [
            {
              "internalType": "uint256",
              "name": "id",
              "type": "uint256"
            },
            {
              "internalType": "enum InspectionContract.InspectionStatus",
              "name": "status",
              "type": "uint8"
            },
            {
              "internalType": "address",
              "name": "producerWallet",
              "type": "address"
            },
            {
              "internalType": "address",
              "name": "activistWallet",
              "type": "address"
            },
            {
              "internalType": "uint256[][]",
              "name": "isas",
              "type": "uint256[][]"
            },
            {
              "internalType": "int256",
              "name": "isaPoints",
              "type": "int256"
            },
            {
              "internalType": "uint256",
              "name": "expiresIn",
              "type": "uint256"
            },
            {
              "internalType": "uint256",
              "name": "createdAt",
              "type": "uint256"
            },
            {
              "internalType": "uint256",
              "name": "updatedAt",
              "type": "uint256"
            },
            {
              "internalType": "uint256",
              "name": "index",
              "type": "uint256"
            }
          ],
          "internalType": "struct InspectionContract.Inspection[]",
          "name": "",
          "type": "tuple[]"
        }
      ],
      "stateMutability": "view",
      "type": "function"
    },
    {
      "inputs": [],
      "name": "requestInspection",
      "outputs": [
        {
          "internalType": "bool",
          "name": "",
          "type": "bool"
        }
      ],
      "stateMutability": "nonpayable",
      "type": "function"
    },
    {
      "inputs": [
        {
          "internalType": "uint256",
          "name": "inspectionId",
          "type": "uint256"
        }
      ],
      "name": "acceptInspection",
      "outputs": [
        {
          "internalType": "bool",
          "name": "",
          "type": "bool"
        }
      ],
      "stateMutability": "nonpayable",
      "type": "function"
    },
    {
      "inputs": [
        {
          "internalType": "uint256",
          "name": "inspectionId",
          "type": "uint256"
        },
        {
          "internalType": "uint256[][]",
          "name": "isas",
          "type": "uint256[][]"
        }
      ],
      "name": "realizeInspection",
      "outputs": [
        {
          "internalType": "bool",
          "name": "",
          "type": "bool"
        }
      ],
      "stateMutability": "nonpayable",
      "type": "function"
    },
    {
      "inputs": [
        {
          "internalType": "uint256",
          "name": "id",
          "type": "uint256"
        }
      ],
      "name": "getInspection",
      "outputs": [
        {
          "components": [
            {
              "internalType": "uint256",
              "name": "id",
              "type": "uint256"
            },
            {
              "internalType": "enum InspectionContract.InspectionStatus",
              "name": "status",
              "type": "uint8"
            },
            {
              "internalType": "address",
              "name": "producerWallet",
              "type": "address"
            },
            {
              "internalType": "address",
              "name": "activistWallet",
              "type": "address"
            },
            {
              "internalType": "uint256[][]",
              "name": "isas",
              "type": "uint256[][]"
            },
            {
              "internalType": "int256",
              "name": "isaPoints",
              "type": "int256"
            },
            {
              "internalType": "uint256",
              "name": "expiresIn",
              "type": "uint256"
            },
            {
              "internalType": "uint256",
              "name": "createdAt",
              "type": "uint256"
            },
            {
              "internalType": "uint256",
              "name": "updatedAt",
              "type": "uint256"
            },
            {
              "internalType": "uint256",
              "name": "index",
              "type": "uint256"
            }
          ],
          "internalType": "struct InspectionContract.Inspection",
          "name": "",
          "type": "tuple"
        }
      ],
      "stateMutability": "view",
      "type": "function"
    },
    {
      "inputs": [],
      "name": "getInspections",
      "outputs": [
        {
          "components": [
            {
              "internalType": "uint256",
              "name": "id",
              "type": "uint256"
            },
            {
              "internalType": "enum InspectionContract.InspectionStatus",
              "name": "status",
              "type": "uint8"
            },
            {
              "internalType": "address",
              "name": "producerWallet",
              "type": "address"
            },
            {
              "internalType": "address",
              "name": "activistWallet",
              "type": "address"
            },
            {
              "internalType": "uint256[][]",
              "name": "isas",
              "type": "uint256[][]"
            },
            {
              "internalType": "int256",
              "name": "isaPoints",
              "type": "int256"
            },
            {
              "internalType": "uint256",
              "name": "expiresIn",
              "type": "uint256"
            },
            {
              "internalType": "uint256",
              "name": "createdAt",
              "type": "uint256"
            },
            {
              "internalType": "uint256",
              "name": "updatedAt",
              "type": "uint256"
            },
            {
              "internalType": "uint256",
              "name": "index",
              "type": "uint256"
            }
          ],
          "internalType": "struct InspectionContract.Inspection[]",
          "name": "",
          "type": "tuple[]"
        }
      ],
      "stateMutability": "view",
      "type": "function"
    },
    {
      "inputs": [],
      "name": "getInspectionsStatus",
      "outputs": [
        {
          "internalType": "string",
          "name": "",
          "type": "string"
        },
        {
          "internalType": "string",
          "name": "",
          "type": "string"
        },
        {
          "internalType": "string",
          "name": "",
          "type": "string"
        },
        {
          "internalType": "string",
          "name": "",
          "type": "string"
        }
      ],
      "stateMutability": "pure",
      "type": "function"
    },
    {
      "inputs": [
        {
          "internalType": "uint256",
          "name": "id",
          "type": "uint256"
        }
      ],
      "name": "inspectionExists",
      "outputs": [
        {
          "internalType": "bool",
          "name": "",
          "type": "bool"
        }
      ],
      "stateMutability": "view",
      "type": "function"
    }
  ],
  "bytecode": "0x608060405262093a8060165534801561001757600080fd5b50615dd480620000286000396000f3fe608060405234801561001057600080fd5b50600436106101da5760003560e01c80638ed5540d11610104578063e7857502116100a2578063ef430aa611610071578063ef430aa6146105c2578063f2836670146105e1578063f3052d2614610601578063fe5a4fa41461062157600080fd5b8063e78575021461057f578063e80a7eb914610592578063e9e797ac146105a7578063ee699fc1146105ba57600080fd5b8063b7399d88116100de578063b7399d8814610406578063b92bd2d9146104e3578063dd6850c6146104f6578063e53142e21461057657600080fd5b80638ed5540d146103c0578063a1c24d64146103d3578063aab147b2146103e657600080fd5b80636337dc1a1161017c5780637b7984681161014b5780637b7984681461035957806386ae2fb1146103795780638c4772fc146103815780638cf054421461039457600080fd5b80636337dc1a146102a55780636ba13a821461030e5780636f77926b146103175780637333afcf1461035057600080fd5b806340f52841116101b857806340f528411461024857806342e187dd146102685780634db0412c1461027d57806362efeff71461029257600080fd5b80630121b93f146101df57806309e1b1d1146102075780630cc94acc1461021e575b600080fd5b6101f26101ed366004614ff5565b610645565b60405190151581526020015b60405180910390f35b61021060075481565b6040519081526020016101fe565b61023161022c366004614ff5565b61071e565b6040516101fe9b9a99989796959493929190615107565b61025b610256366004615274565b610b9e565b6040516101fe9190615454565b610270610f52565b6040516101fe919061546e565b610285611433565b6040516101fe91906155cb565b61025b6102a0366004615620565b6118bc565b604080518082018252600880825267282927a22aa1a2a960c11b60208084019190915283518085018552918252671050d512559254d560c21b8282015283518085018552600a8152692922a9a2a0a921a422a960b11b9181019190915292516101fe9390615649565b61021060015481565b610343610325366004615620565b6001600160a01b031660009081526020819052604090205460ff1690565b6040516101fe9190615682565b61021060135481565b61036c610367366004615620565b611d6a565b6040516101fe91906157bd565b6101f2611f1c565b6101f261038f366004615620565b612074565b6102106103a2366004615620565b6001600160a01b031660009081526003602052604090206008015490565b6101f26103ce366004615274565b6120a7565b6101f26103e1366004615274565b6124b0565b6103f96103f4366004615620565b612909565b6040516101fe91906158f5565b604080518082018252601380825272544f54414c4c595f5355535441494e41424c4560681b60208084019190915283518085018552918252725041525449414c5f5355535441494e41424c4560681b828201528351808501855260068152654e455554524f60d01b818301528451808601865260178082527f5041525449414c5f4e4f545f5355535441494e41424c4500000000000000000082850152865180880188529081527f544f54414c4c595f4e4f545f5355535441494e41424c450000000000000000009381019390935294516101fe95919290615908565b6101f26104f1366004615999565b612bab565b604080518082018252600481526327a822a760e11b6020808301919091528251808401845260078152661156141254915160ca1b81830152835180850185526009815268125394d41150d5115160ba1b818401528451808601865260088152671050d0d15415115160c21b9381019390935293516101fe94919290615ab1565b61021060045481565b6101f261058d366004614ff5565b612e2f565b61059a61321b565b6040516101fe9190615b09565b6101f26105b5366004615620565b613729565b61036c613752565b6105ca6138e5565b6040516101fe9b9a99989796959493929190615b5e565b6105f46105ef366004614ff5565b613cea565b6040516101fe9190615c1d565b61061461060f366004614ff5565b613ea6565b6040516101fe9190615c30565b6101f261062f366004614ff5565b6000908152601960205260409020546001111590565b60008181526015602052604081205482906106a75760405162461bcd60e51b815260206004820152601a60248201527f546869732063617465676f727920646f6e27742065786973747300000000000060448201526064015b60405180910390fd5b60008381526015602052604081206009018054916106c483615c59565b90915550506000838152601560205260409020600a01546014805490919081106106f0576106f0615c74565b6000918252602082206009600b909202010180549161070e83615c59565b9190505550600191505b50919050565b6002818154811061072e57600080fd5b60009182526020909120600e90910201805460018201546002830180549294506001600160a01b03821693600160a01b90920460ff169261076e90615c8a565b80601f016020809104026020016040519081016040528092919081815260200182805461079a90615c8a565b80156107e75780601f106107bc576101008083540402835291602001916107e7565b820191906000526020600020905b8154815290600101906020018083116107ca57829003601f168201915b5050505050908060030180546107fc90615c8a565b80601f016020809104026020016040519081016040528092919081815260200182805461082890615c8a565b80156108755780601f1061084a57610100808354040283529160200191610875565b820191906000526020600020905b81548152906001019060200180831161085857829003601f168201915b50505050509080600401805461088a90615c8a565b80601f01602080910402602001604051908101604052809291908181526020018280546108b690615c8a565b80156109035780601f106108d857610100808354040283529160200191610903565b820191906000526020600020905b8154815290600101906020018083116108e657829003601f168201915b5050505060058301546006840154600785015460408051808201825260088801548152600988015460ff90811615156020830152825160808101909352600a8901805498999190961697949650929490938290829061096190615c8a565b80601f016020809104026020016040519081016040528092919081815260200182805461098d90615c8a565b80156109da5780601f106109af576101008083540402835291602001916109da565b820191906000526020600020905b8154815290600101906020018083116109bd57829003601f168201915b505050505081526020016001820180546109f390615c8a565b80601f0160208091040260200160405190810160405280929190818152602001828054610a1f90615c8a565b8015610a6c5780601f10610a4157610100808354040283529160200191610a6c565b820191906000526020600020905b815481529060010190602001808311610a4f57829003601f168201915b50505050508152602001600282018054610a8590615c8a565b80601f0160208091040260200160405190810160405280929190818152602001828054610ab190615c8a565b8015610afe5780601f10610ad357610100808354040283529160200191610afe565b820191906000526020600020905b815481529060010190602001808311610ae157829003601f168201915b50505050508152602001600382018054610b1790615c8a565b80601f0160208091040260200160405190810160405280929190818152602001828054610b4390615c8a565b8015610b905780601f10610b6557610100808354040283529160200191610b90565b820191906000526020600020905b815481529060010190602001808311610b7357829003601f168201915b50505050508152505090508b565b610ba6614c73565b60006007546001610bb79190615cbf565b604080516080810182528881526020808201899052818301889052606082018790528251610120810184528481523391810191909152929350600292909160009190810184815260208082018f905260408083018f9052606083018e905260006080840181905260a0840181905260c09093018690526005805460018101825593528351600b9093027f036b6384b5eca791c62761152d0c79bb0604c104a5fb6f4eb0703f3154bb3db08101938455918401517f036b6384b5eca791c62761152d0c79bb0604c104a5fb6f4eb0703f3154bb3db190920180546001600160a01b039093166001600160a01b03198416811782559185015194955085949290916001600160a81b031990911617600160a01b836003811115610cda57610cda61500e565b021790555060608201518051610cfa916002840191602090910190614ce9565b5060808201518051610d16916003840191602090910190614ce9565b5060a08201518051610d32916004840191602090910190614ce9565b5060c082015160058201805460ff191691151591909117905560e08201516006820155610100820151805180516007840191610d7391839160200190614ce9565b506020828101518051610d8c9260018501920190614ce9565b5060408201518051610da8916002840191602090910190614ce9565b5060608201518051610dc4916003840191602090910190614ce9565b50503360009081526006602090815260409182902086518155908601516001820180546001600160a01b031981166001600160a01b0390931692831782559388015188975092955091935090916001600160a81b03191617600160a01b836003811115610e3357610e3361500e565b021790555060608201518051610e53916002840191602090910190614ce9565b5060808201518051610e6f916003840191602090910190614ce9565b5060a08201518051610e8b916004840191602090910190614ce9565b5060c082015160058201805460ff191691151591909117905560e08201516006820155610100820151805180516007840191610ecc91839160200190614ce9565b506020828101518051610ee59260018501920190614ce9565b5060408201518051610f01916002840191602090910190614ce9565b5060608201518051610f1d916003840191602090910190614ce9565b5050600780549350915060009050610f3483615c59565b9190505550610f433384614360565b9b9a5050505050505050505050565b60606005805480602002602001604051908101604052809291908181526020016000905b8282101561142a5760008481526020908190206040805161012081018252600b86029092018054835260018101546001600160a01b03811694840194909452919290830190600160a01b900460ff166003811115610fd657610fd661500e565b6003811115610fe757610fe761500e565b8152602001600282018054610ffb90615c8a565b80601f016020809104026020016040519081016040528092919081815260200182805461102790615c8a565b80156110745780601f1061104957610100808354040283529160200191611074565b820191906000526020600020905b81548152906001019060200180831161105757829003601f168201915b5050505050815260200160038201805461108d90615c8a565b80601f01602080910402602001604051908101604052809291908181526020018280546110b990615c8a565b80156111065780601f106110db57610100808354040283529160200191611106565b820191906000526020600020905b8154815290600101906020018083116110e957829003601f168201915b5050505050815260200160048201805461111f90615c8a565b80601f016020809104026020016040519081016040528092919081815260200182805461114b90615c8a565b80156111985780601f1061116d57610100808354040283529160200191611198565b820191906000526020600020905b81548152906001019060200180831161117b57829003601f168201915b5050509183525050600582015460ff16151560208201526006820154604080830191909152805160808101909152600783018054606090930192829082906111df90615c8a565b80601f016020809104026020016040519081016040528092919081815260200182805461120b90615c8a565b80156112585780601f1061122d57610100808354040283529160200191611258565b820191906000526020600020905b81548152906001019060200180831161123b57829003601f168201915b5050505050815260200160018201805461127190615c8a565b80601f016020809104026020016040519081016040528092919081815260200182805461129d90615c8a565b80156112ea5780601f106112bf576101008083540402835291602001916112ea565b820191906000526020600020905b8154815290600101906020018083116112cd57829003601f168201915b5050505050815260200160028201805461130390615c8a565b80601f016020809104026020016040519081016040528092919081815260200182805461132f90615c8a565b801561137c5780601f106113515761010080835404028352916020019161137c565b820191906000526020600020905b81548152906001019060200180831161135f57829003601f168201915b5050505050815260200160038201805461139590615c8a565b80601f01602080910402602001604051908101604052809291908181526020018280546113c190615c8a565b801561140e5780601f106113e35761010080835404028352916020019161140e565b820191906000526020600020905b8154815290600101906020018083116113f157829003601f168201915b5050505050815250508152505081526020019060010190610f76565b50505050905090565b60606014805480602002602001604051908101604052809291908181526020016000905b8282101561142a5760008481526020908190206040805161016081018252600b86029092018054835260018101546001600160a01b031693830193909352600283018054929392918401916114ab90615c8a565b80601f01602080910402602001604051908101604052809291908181526020018280546114d790615c8a565b80156115245780601f106114f957610100808354040283529160200191611524565b820191906000526020600020905b81548152906001019060200180831161150757829003601f168201915b5050505050815260200160038201805461153d90615c8a565b80601f016020809104026020016040519081016040528092919081815260200182805461156990615c8a565b80156115b65780601f1061158b576101008083540402835291602001916115b6565b820191906000526020600020905b81548152906001019060200180831161159957829003601f168201915b505050505081526020016004820180546115cf90615c8a565b80601f01602080910402602001604051908101604052809291908181526020018280546115fb90615c8a565b80156116485780601f1061161d57610100808354040283529160200191611648565b820191906000526020600020905b81548152906001019060200180831161162b57829003601f168201915b5050505050815260200160058201805461166190615c8a565b80601f016020809104026020016040519081016040528092919081815260200182805461168d90615c8a565b80156116da5780601f106116af576101008083540402835291602001916116da565b820191906000526020600020905b8154815290600101906020018083116116bd57829003601f168201915b505050505081526020016006820180546116f390615c8a565b80601f016020809104026020016040519081016040528092919081815260200182805461171f90615c8a565b801561176c5780601f106117415761010080835404028352916020019161176c565b820191906000526020600020905b81548152906001019060200180831161174f57829003601f168201915b5050505050815260200160078201805461178590615c8a565b80601f01602080910402602001604051908101604052809291908181526020018280546117b190615c8a565b80156117fe5780601f106117d3576101008083540402835291602001916117fe565b820191906000526020600020905b8154815290600101906020018083116117e157829003601f168201915b5050505050815260200160088201805461181790615c8a565b80601f016020809104026020016040519081016040528092919081815260200182805461184390615c8a565b80156118905780601f1061186557610100808354040283529160200191611890565b820191906000526020600020905b81548152906001019060200180831161187357829003601f168201915b5050505050815260200160098201548152602001600a8201548152505081526020019060010190611457565b6118c4614c73565b6001600160a01b038281166000908152600660209081526040918290208251610120810184528154815260018201549485169281019290925290929091830190600160a01b900460ff16600381111561191f5761191f61500e565b60038111156119305761193061500e565b815260200160028201805461194490615c8a565b80601f016020809104026020016040519081016040528092919081815260200182805461197090615c8a565b80156119bd5780601f10611992576101008083540402835291602001916119bd565b820191906000526020600020905b8154815290600101906020018083116119a057829003601f168201915b505050505081526020016003820180546119d690615c8a565b80601f0160208091040260200160405190810160405280929190818152602001828054611a0290615c8a565b8015611a4f5780601f10611a2457610100808354040283529160200191611a4f565b820191906000526020600020905b815481529060010190602001808311611a3257829003601f168201915b50505050508152602001600482018054611a6890615c8a565b80601f0160208091040260200160405190810160405280929190818152602001828054611a9490615c8a565b8015611ae15780601f10611ab657610100808354040283529160200191611ae1565b820191906000526020600020905b815481529060010190602001808311611ac457829003601f168201915b5050509183525050600582015460ff1615156020820152600682015460408083019190915280516080810190915260078301805460609093019282908290611b2890615c8a565b80601f0160208091040260200160405190810160405280929190818152602001828054611b5490615c8a565b8015611ba15780601f10611b7657610100808354040283529160200191611ba1565b820191906000526020600020905b815481529060010190602001808311611b8457829003601f168201915b50505050508152602001600182018054611bba90615c8a565b80601f0160208091040260200160405190810160405280929190818152602001828054611be690615c8a565b8015611c335780601f10611c0857610100808354040283529160200191611c33565b820191906000526020600020905b815481529060010190602001808311611c1657829003601f168201915b50505050508152602001600282018054611c4c90615c8a565b80601f0160208091040260200160405190810160405280929190818152602001828054611c7890615c8a565b8015611cc55780601f10611c9a57610100808354040283529160200191611cc5565b820191906000526020600020905b815481529060010190602001808311611ca857829003601f168201915b50505050508152602001600382018054611cde90615c8a565b80601f0160208091040260200160405190810160405280929190818152602001828054611d0a90615c8a565b8015611d575780601f10611d2c57610100808354040283529160200191611d57565b820191906000526020600020905b815481529060010190602001808311611d3a57829003601f168201915b5050509190925250505090525092915050565b6001600160a01b0381166000908152601860209081526040808320805482518185028101850190935280835260609492939192909184015b82821015611f11578382906000526020600020906009020160405180610140016040529081600082015481526020016001820160009054906101000a900460ff166003811115611df457611df461500e565b6003811115611e0557611e0561500e565b815260018201546001600160a01b0361010090910481166020808401919091526002840154909116604080840191909152600384018054825181850281018501909352808352606090940193919290919060009084015b82821015611ec857600084815260209081902083018054604080518285028101850190915281815292830182828015611eb457602002820191906000526020600020905b815481526020019060010190808311611ea0575b505050505081526020019060010190611e5c565b5050505081526020016004820154815260200160058201548152602001600682015481526020016007820154815260200160088201548152505081526020019060010190611da2565b505050509050919050565b6000611f2733613729565b611f8a5760405162461bcd60e51b815260206004820152602e60248201527f596f7520617265206e6f7420612070726f64756365722120506c65617365207260448201526d65676973746572206173206f6e6560901b606482015260840161069e565b3360009081526003602052604090206005015460ff16156120485760405162461bcd60e51b815260206004820152606660248201527f596f752068617665206120696e7370656374696f6e2072657175657374204f5060448201527f454e206f7220414343455054454421205761697420612061637469766973742060648201527f7265616c697a6520696e7370656374696f6e206f7220796f752063616e20636c6084820152651bdcd9481a5d60d21b60a482015260c40161069e565b6120506143b3565b50336000908152600360205260409020600501805460ff1916600190811790915590565b6001600160a01b0381166000908152600660205260408120600201805482919061209d90615c8a565b9050119050919050565b60008060045460016120b99190615cbf565b60408051608081018252888152602080820189905281830188905260608201879052825180840184526000808252818301819052845161016081018652868152339381019390935294955060019492939092919081018581526020018e81526020018d81526020018c8152602001600015158152602001600081526020016000815260200183815260200184815250905060028190806001815401808255809150506001900390600052602060002090600e02016000909190919091506000820151816000015560208201518160010160006101000a8154816001600160a01b0302191690836001600160a01b0316021790555060408201518160010160146101000a81548160ff021916908360038111156121d7576121d761500e565b0217905550606082015180516121f7916002840191602090910190614ce9565b5060808201518051612213916003840191602090910190614ce9565b5060a0820151805161222f916004840191602090910190614ce9565b5060c082015160058201805491151560ff1992831617905560e083015160068301556101008301516007830155610120830151805160088401556020908101516009840180549115159190931617909155610140830151805180519192600a85019261229e9284920190614ce9565b5060208281015180516122b79260018501920190614ce9565b50604082015180516122d3916002840191602090910190614ce9565b50606082015180516122ef916003840191602090910190614ce9565b50503360009081526003602081815260409283902087518155908701516001820180546001600160a01b031981166001600160a01b0390931692831782559489015189985092965091945090926001600160a81b0319161790600160a01b90849081111561235f5761235f61500e565b02179055506060820151805161237f916002840191602090910190614ce9565b506080820151805161239b916003840191602090910190614ce9565b5060a082015180516123b7916004840191602090910190614ce9565b5060c082015160058201805491151560ff1992831617905560e083015160068301556101008301516007830155610120830151805160088401556020908101516009840180549115159190931617909155610140830151805180519192600a8501926124269284920190614ce9565b50602082810151805161243f9260018501920190614ce9565b506040820151805161245b916002840191602090910190614ce9565b5060608201518051612477916003840191602090910190614ce9565b505060048054935091506000905061248e83615c59565b919050555061249d3385614360565b5060019c9b505050505050505050505050565b60008060135460016124c29190615cbf565b905060006124d1600183615cd7565b60408051610160810182528481523360208083018290529282018e9052606082018d9052608082018c905260a082018b905260c082018a905260e082018990526101008201889052600061012083015261014082018490526008868155600980546001600160a01b0319169092179091558d519394509092909161255a91600a918f0190614ce9565b5060608201518051612576916003840191602090910190614ce9565b5060808201518051612592916004840191602090910190614ce9565b5060a082015180516125ae916005840191602090910190614ce9565b5060c082015180516125ca916006840191602090910190614ce9565b5060e082015180516125e6916007840191602090910190614ce9565b506101008201518051612603916008840191602090910190614ce9565b5061012082015160098083019190915561014090920151600a918201556014805460018101825560009190915260088054600b9092027fce6d7b5282bd9a3661ae061feed1dbda4e52ab073b1f9285be6e155d9c38d4ec810192835593547fce6d7b5282bd9a3661ae061feed1dbda4e52ab073b1f9285be6e155d9c38d4ed850180546001600160a01b0319166001600160a01b039092169190911790558254909391927fce6d7b5282bd9a3661ae061feed1dbda4e52ab073b1f9285be6e155d9c38d4ee90920191906126d690615c8a565b6126e1929190614d6d565b5060038201816003019080546126f690615c8a565b612701929190614d6d565b50600482018160040190805461271690615c8a565b612721929190614d6d565b50600582018160050190805461273690615c8a565b612741929190614d6d565b50600682018160060190805461275690615c8a565b612761929190614d6d565b50600782018160070190805461277690615c8a565b612781929190614d6d565b50600882018160080190805461279690615c8a565b6127a1929190614d6d565b5060098281015482820155600a9283015491830191909155600084815260156020526040902060088054825591546001820180546001600160a01b0319166001600160a01b0390921691909117905582549192909160028301919061280590615c8a565b612810929190614d6d565b50600382018160030190805461282590615c8a565b612830929190614d6d565b50600482018160040190805461284590615c8a565b612850929190614d6d565b50600582018160050190805461286590615c8a565b612870929190614d6d565b50600682018160060190805461288590615c8a565b612890929190614d6d565b5060078201816007019080546128a590615c8a565b6128b0929190614d6d565b5060088201816008019080546128c590615c8a565b6128d0929190614d6d565b5060098281015490820155600a91820154910155601380549060006128f483615c59565b9091555060019b9a5050505050505050505050565b612911614de8565b6001600160a01b038281166000908152600360208181526040928390208351610160810185528154815260018201549586169281019290925290939092840191600160a01b90910460ff169081111561296c5761296c61500e565b600381111561297d5761297d61500e565b815260200160028201805461299190615c8a565b80601f01602080910402602001604051908101604052809291908181526020018280546129bd90615c8a565b8015612a0a5780601f106129df57610100808354040283529160200191612a0a565b820191906000526020600020905b8154815290600101906020018083116129ed57829003601f168201915b50505050508152602001600382018054612a2390615c8a565b80601f0160208091040260200160405190810160405280929190818152602001828054612a4f90615c8a565b8015612a9c5780601f10612a7157610100808354040283529160200191612a9c565b820191906000526020600020905b815481529060010190602001808311612a7f57829003601f168201915b50505050508152602001600482018054612ab590615c8a565b80601f0160208091040260200160405190810160405280929190818152602001828054612ae190615c8a565b8015612b2e5780601f10612b0357610100808354040283529160200191612b2e565b820191906000526020600020905b815481529060010190602001808311612b1157829003601f168201915b5050509183525050600582015460ff90811615156020808401919091526006840154604080850191909152600785015460608501528051808201825260088601548152600986015490931615159183019190915260808084019290925280519182019052600a8301805460a09093019282908290611b2890615c8a565b6000612bb633612074565b612bd25760405162461bcd60e51b815260040161069e90615cee565b600083815260196020526040902054839060011115612c335760405162461bcd60e51b815260206004820152601c60248201527f5468697320696e7370656374696f6e20646f6e27742065786973747300000000604482015260640161069e565b612c3c84614666565b612c495760009150612e28565b612c6d846000908152601960205260409020600201546001600160a01b0316331490565b612c7a5760009150612e28565b600084815260196020908152604080832081516101408101909252805482526001810154919290919083019060ff166003811115612cba57612cba61500e565b6003811115612ccb57612ccb61500e565b815260018201546001600160a01b0361010090910481166020808401919091526002840154909116604080840191909152600384018054825181850281018501909352808352606090940193919290919060009084015b82821015612d8e57600084815260209081902083018054604080518285028101850190915281815292830182828015612d7a57602002820191906000526020600020905b815481526020019060010190808311612d66575b505050505081526020019060010190612d22565b505050508152602001600482015481526020016005820154815260200160068201548152602001600782015481526020016008820154815250509050612dd48185614697565b612ddd8561488f565b60a081015160008681526019602090815260408083206001015461010090046001600160a01b031683526003909152902060070155612e2281604001516107d0614b2b565b60019250505b5092915050565b6000612e3a33612074565b612e565760405162461bcd60e51b815260040161069e90615cee565b600082815260196020526040902054829060011115612eb75760405162461bcd60e51b815260206004820152601c60248201527f5468697320696e7370656374696f6e20646f6e27742065786973747300000000604482015260640161069e565b600083815260196020908152604080832081516101408101909252805482526001810154919290919083019060ff166003811115612ef757612ef761500e565b6003811115612f0857612f0861500e565b815260018201546001600160a01b0361010090910481166020808401919091526002840154909116604080840191909152600384018054825181850281018501909352808352606090940193919290919060009084015b82821015612fcb57600084815260209081902083018054604080518285028101850190915281815292830182828015612fb757602002820191906000526020600020905b815481526020019060010190808311612fa3575b505050505081526020019060010190612f5f565b505050908252506004820154602082015260058201546040820152600682015460608201526007820154608082015260089091015460a09091015290506000816020015160038111156130205761302061500e565b1461302f576000925050610718565b6003602082810182815242610100850152336060850152600087815260199092526040909120835181559051600180830180548695919260ff199190911691849081111561307f5761307f61500e565b02179055506040820151600182018054610100600160a81b0319166101006001600160a01b039384160217905560608301516002830180546001600160a01b03191691909216179055608082015180516130e3916003840191602090910190614e84565b5060a0820151816004015560c0820151816005015560e08201518160060155610100820151816007015561012082015181600801559050508060178261012001518154811061313457613134615c74565b90600052602060002090600902016000820151816000015560208201518160010160006101000a81548160ff021916908360038111156131765761317661500e565b02179055506040820151600182018054610100600160a81b0319166101006001600160a01b039384160217905560608301516002830180546001600160a01b03191691909216179055608082015180516131da916003840191602090910190614e84565b5060a0820151600482015560c0820151600582015560e082015160068201556101008201516007820155610120909101516008909101555060019392505050565b60606002805480602002602001604051908101604052809291908181526020016000905b8282101561142a5760008481526020908190206040805161016081018252600e86029092018054835260018101546001600160a01b03811694840194909452919290830190600160a01b900460ff16600381111561329f5761329f61500e565b60038111156132b0576132b061500e565b81526020016002820180546132c490615c8a565b80601f01602080910402602001604051908101604052809291908181526020018280546132f090615c8a565b801561333d5780601f106133125761010080835404028352916020019161333d565b820191906000526020600020905b81548152906001019060200180831161332057829003601f168201915b5050505050815260200160038201805461335690615c8a565b80601f016020809104026020016040519081016040528092919081815260200182805461338290615c8a565b80156133cf5780601f106133a4576101008083540402835291602001916133cf565b820191906000526020600020905b8154815290600101906020018083116133b257829003601f168201915b505050505081526020016004820180546133e890615c8a565b80601f016020809104026020016040519081016040528092919081815260200182805461341490615c8a565b80156134615780601f1061343657610100808354040283529160200191613461565b820191906000526020600020905b81548152906001019060200180831161344457829003601f168201915b5050509183525050600582015460ff90811615156020808401919091526006840154604080850191909152600785015460608501528051808201825260088601548152600986015490931615159183019190915260808084019290925280519182019052600a8301805460a090930192829082906134de90615c8a565b80601f016020809104026020016040519081016040528092919081815260200182805461350a90615c8a565b80156135575780601f1061352c57610100808354040283529160200191613557565b820191906000526020600020905b81548152906001019060200180831161353a57829003601f168201915b5050505050815260200160018201805461357090615c8a565b80601f016020809104026020016040519081016040528092919081815260200182805461359c90615c8a565b80156135e95780601f106135be576101008083540402835291602001916135e9565b820191906000526020600020905b8154815290600101906020018083116135cc57829003601f168201915b5050505050815260200160028201805461360290615c8a565b80601f016020809104026020016040519081016040528092919081815260200182805461362e90615c8a565b801561367b5780601f106136505761010080835404028352916020019161367b565b820191906000526020600020905b81548152906001019060200180831161365e57829003601f168201915b5050505050815260200160038201805461369490615c8a565b80601f01602080910402602001604051908101604052809291908181526020018280546136c090615c8a565b801561370d5780601f106136e25761010080835404028352916020019161370d565b820191906000526020600020905b8154815290600101906020018083116136f057829003601f168201915b505050505081525050815250508152602001906001019061323f565b6001600160a01b0381166000908152600360205260408120600201805482919061209d90615c8a565b60606017805480602002602001604051908101604052809291908181526020016000905b8282101561142a578382906000526020600020906009020160405180610140016040529081600082015481526020016001820160009054906101000a900460ff1660038111156137c8576137c861500e565b60038111156137d9576137d961500e565b815260018201546001600160a01b0361010090910481166020808401919091526002840154909116604080840191909152600384018054825181850281018501909352808352606090940193919290919060009084015b8282101561389c5760008481526020908190208301805460408051828502810185019091528181529283018282801561388857602002820191906000526020600020905b815481526020019060010190808311613874575b505050505081526020019060010190613830565b5050505081526020016004820154815260200160058201548152602001600682015481526020016007820154815260200160088201548152505081526020019060010190613776565b60088054600954600a805492936001600160a01b039092169261390790615c8a565b80601f016020809104026020016040519081016040528092919081815260200182805461393390615c8a565b80156139805780601f1061395557610100808354040283529160200191613980565b820191906000526020600020905b81548152906001019060200180831161396357829003601f168201915b50505050509080600301805461399590615c8a565b80601f01602080910402602001604051908101604052809291908181526020018280546139c190615c8a565b8015613a0e5780601f106139e357610100808354040283529160200191613a0e565b820191906000526020600020905b8154815290600101906020018083116139f157829003601f168201915b505050505090806004018054613a2390615c8a565b80601f0160208091040260200160405190810160405280929190818152602001828054613a4f90615c8a565b8015613a9c5780601f10613a7157610100808354040283529160200191613a9c565b820191906000526020600020905b815481529060010190602001808311613a7f57829003601f168201915b505050505090806005018054613ab190615c8a565b80601f0160208091040260200160405190810160405280929190818152602001828054613add90615c8a565b8015613b2a5780601f10613aff57610100808354040283529160200191613b2a565b820191906000526020600020905b815481529060010190602001808311613b0d57829003601f168201915b505050505090806006018054613b3f90615c8a565b80601f0160208091040260200160405190810160405280929190818152602001828054613b6b90615c8a565b8015613bb85780601f10613b8d57610100808354040283529160200191613bb8565b820191906000526020600020905b815481529060010190602001808311613b9b57829003601f168201915b505050505090806007018054613bcd90615c8a565b80601f0160208091040260200160405190810160405280929190818152602001828054613bf990615c8a565b8015613c465780601f10613c1b57610100808354040283529160200191613c46565b820191906000526020600020905b815481529060010190602001808311613c2957829003601f168201915b505050505090806008018054613c5b90615c8a565b80601f0160208091040260200160405190810160405280929190818152602001828054613c8790615c8a565b8015613cd45780601f10613ca957610100808354040283529160200191613cd4565b820191906000526020600020905b815481529060010190602001808311613cb757829003601f168201915b50505050509080600901549080600a015490508b565b613d5360408051610140810190915260008082526020820190815260200160006001600160a01b0316815260200160006001600160a01b031681526020016060815260200160008152602001600081526020016000815260200160008152602001600081525090565b60008281526019602090815260409182902082516101408101909352805483526001810154909183019060ff166003811115613d9157613d9161500e565b6003811115613da257613da261500e565b815260018201546001600160a01b0361010090910481166020808401919091526002840154909116604080840191909152600384018054825181850281018501909352808352606090940193919290919060009084015b82821015613e6557600084815260209081902083018054604080518285028101850190915281815292830182828015613e5157602002820191906000526020600020905b815481526020019060010190808311613e3d575b505050505081526020019060010190613df9565b505050508152602001600482015481526020016005820154815260200160068201548152602001600782015481526020016008820154815250509050919050565b613f0c6040518061016001604052806000815260200160006001600160a01b031681526020016060815260200160608152602001606081526020016060815260200160608152602001606081526020016060815260200160008152602001600081525090565b6000828152601560209081526040918290208251610160810184528154815260018201546001600160a01b0316928101929092526002810180549293919291840191613f5790615c8a565b80601f0160208091040260200160405190810160405280929190818152602001828054613f8390615c8a565b8015613fd05780601f10613fa557610100808354040283529160200191613fd0565b820191906000526020600020905b815481529060010190602001808311613fb357829003601f168201915b50505050508152602001600382018054613fe990615c8a565b80601f016020809104026020016040519081016040528092919081815260200182805461401590615c8a565b80156140625780601f1061403757610100808354040283529160200191614062565b820191906000526020600020905b81548152906001019060200180831161404557829003601f168201915b5050505050815260200160048201805461407b90615c8a565b80601f01602080910402602001604051908101604052809291908181526020018280546140a790615c8a565b80156140f45780601f106140c9576101008083540402835291602001916140f4565b820191906000526020600020905b8154815290600101906020018083116140d757829003601f168201915b5050505050815260200160058201805461410d90615c8a565b80601f016020809104026020016040519081016040528092919081815260200182805461413990615c8a565b80156141865780601f1061415b57610100808354040283529160200191614186565b820191906000526020600020905b81548152906001019060200180831161416957829003601f168201915b5050505050815260200160068201805461419f90615c8a565b80601f01602080910402602001604051908101604052809291908181526020018280546141cb90615c8a565b80156142185780601f106141ed57610100808354040283529160200191614218565b820191906000526020600020905b8154815290600101906020018083116141fb57829003601f168201915b5050505050815260200160078201805461423190615c8a565b80601f016020809104026020016040519081016040528092919081815260200182805461425d90615c8a565b80156142aa5780601f1061427f576101008083540402835291602001916142aa565b820191906000526020600020905b81548152906001019060200180831161428d57829003601f168201915b505050505081526020016008820180546142c390615c8a565b80601f01602080910402602001604051908101604052809291908181526020018280546142ef90615c8a565b801561433c5780601f106143115761010080835404028352916020019161433c565b820191906000526020600020905b81548152906001019060200180831161431f57829003601f168201915b5050505050815260200160098201548152602001600a820154815250509050919050565b6001600160a01b0382166000908152602081905260409020805482919060ff191660018360038111156143955761439561500e565b0217905550600180549060006143aa83615c59565b91905055505050565b6000601a5460016143c49190615cbf565b905060006143d3600183615cd7565b905060606000601654426143e79190615cbf565b90506000604051806101400160405280868152602001600060038111156144105761441061500e565b815233602080830182905260408301919091526060820186905260006080830181905260a083018690524260c084015260e08301819052610100909201879052601780546001818101835591909352835160099093027fc624b66cc0138b8fabc209247f72d758e1cf3343756d543badbf24212bed8c158101938455918401517fc624b66cc0138b8fabc209247f72d758e1cf3343756d543badbf24212bed8c1690920180549495508594909160ff1991909116908360038111156144d7576144d761500e565b02179055506040820151600182018054610100600160a81b0319166101006001600160a01b039384160217905560608301516002830180546001600160a01b031916919092161790556080820151805161453b916003840191602090910190614e84565b5060a0820151600482015560c0820151600582015560e0820151600682015561010082015160078201556101209091015160089091015560008581526019602090815260409091208251815590820151600180830180548594939260ff19909116908360038111156145af576145af61500e565b02179055506040820151600182018054610100600160a81b0319166101006001600160a01b039384160217905560608301516002830180546001600160a01b0319169190921617905560808201518051614613916003840191602090910190614e84565b5060a0820151600482015560c0820151600582015560e08201516006820155610100820151600782015561012090910151600890910155601a805490600061465a83615c59565b91905055505050505050565b6000600360008381526019602052604090206001015460ff1660038111156146905761469061500e565b1492915050565b6080820181905260026020830152426101008301526146b582614ba3565b60a0830152815160009081526019602090815260409091208351815590830151600180830180548694939260ff19909116908360038111156146f9576146f961500e565b02179055506040820151600182018054610100600160a81b0319166101006001600160a01b039384160217905560608301516002830180546001600160a01b031916919092161790556080820151805161475d916003840191602090910190614e84565b5060a0820151816004015560c0820151816005015560e0820151816006015561010082015181600701556101208201518160080155905050816017836101200151815481106147ae576147ae615c74565b90600052602060002090600902016000820151816000015560208201518160010160006101000a81548160ff021916908360038111156147f0576147f061500e565b02179055506040820151600182018054610100600160a81b0319166101006001600160a01b039384160217905560608301516002830180546001600160a01b0319169190921617905560808201518051614854916003840191602090910190614e84565b5060a0820151600482015560c0820151600582015560e082015160068201556101008201516007820155610120909101516008909101555050565b600081815260196020908152604080832060018101546002909101546001600160a01b0390811680865260069485905292852060058101805460ff19169055909301805461010090920490931693919290916148ea83615c59565b90915550506001600160a01b038216600090815260036020526040812060058101805460ff1916905560060180549161492283615c59565b90915550506001600160a01b03821660009081526018602090815260408083208684526019835290832081546001818101845592855292909320835460099093020191825580830154828201805460ff90921692909160ff19169083600381111561498f5761498f61500e565b021790555060018281015490820180546001600160a01b03610100938490048116909302610100600160a81b031990911617905560028084015490830180546001600160a01b03191691909216179055600380830180546149f39284019190614edd565b50600482810154908201556005808301549082015560068083015490820155600780830154908201556008918201549101556001600160a01b03811660009081526018602090815260408083208684526019835290832081546001818101845592855292909320835460099093020191825580830154828201805460ff90921692909160ff191690836003811115614a8d57614a8d61500e565b021790555060018281015490820180546001600160a01b03610100938490048116909302610100600160a81b031990911617905560028084015490830180546001600160a01b0319169190921617905560038083018054614af19284019190614edd565b5060048201548160040155600582015481600501556006820154816006015560078201548160070155600882015481600801555050505050565b6001600160a01b038216600090815260036020526040908190206008015481518083019092529080614b5d8484615cbf565b8152600060209182018190526001600160a01b03959095168552600381526040909420815160088201559301516009909301805460ff1916931515939093179092555050565b608081015160009081614bb582614bbd565b949350505050565b6040805160a081018252600a81526005602082015260009181018290526004196060820152600919608082015281805b84518160ff161015614c6b576000858260ff1681518110614c1057614c10615c74565b6020026020010151600181518110614c2a57614c2a615c74565b60200260200101519050838160058110614c4657614c46615c74565b6020020151614c559084615d3d565b9250508080614c6390615d7e565b915050614bed565b509392505050565b60408051610120810182526000808252602082018190529091820190815260200160608152602001606081526020016060815260200160001515815260200160008152602001614ce46040518060800160405280606081526020016060815260200160608152602001606081525090565b905290565b828054614cf590615c8a565b90600052602060002090601f016020900481019282614d175760008555614d5d565b82601f10614d3057805160ff1916838001178555614d5d565b82800160010185558215614d5d579182015b82811115614d5d578251825591602001919060010190614d42565b50614d69929150614f29565b5090565b828054614d7990615c8a565b90600052602060002090601f016020900481019282614d9b5760008555614d5d565b82601f10614dac5780548555614d5d565b82800160010185558215614d5d57600052602060002091601f016020900482015b82811115614d5d578254825591600101919060010190614dcd565b6040805161016081018252600080825260208201819052909182019081526020016060815260200160608152602001606081526020016000151581526020016000815260200160008152602001614e546040518060400160405280600081526020016000151581525090565b8152602001614ce46040518060800160405280606081526020016060815260200160608152602001606081525090565b828054828255906000526020600020908101928215614ed1579160200282015b82811115614ed15782518051614ec1918491602090910190614f3e565b5091602001919060010190614ea4565b50614d69929150614f78565b828054828255906000526020600020908101928215614ed15760005260206000209182015b82811115614ed1578254614f199083908590614f95565b5091600101919060010190614f02565b5b80821115614d695760008155600101614f2a565b828054828255906000526020600020908101928215614d5d5791602002820182811115614d5d578251825591602001919060010190614d42565b80821115614d69576000614f8c8282614fd4565b50600101614f78565b828054828255906000526020600020908101928215614d5d57600052602060002091820182811115614d5d578254825591600101919060010190614dcd565b5080546000825590600052602060002090810190614ff29190614f29565b50565b60006020828403121561500757600080fd5b5035919050565b634e487b7160e01b600052602160045260246000fd5b60048110614ff257634e487b7160e01b600052602160045260246000fd5b61504b81615024565b9052565b6000815180845260005b8181101561507557602081850181015186830182015201615059565b81811115615087576000602083870101525b50601f01601f19169290920160200192915050565b60008151608084526150b1608085018261504f565b9050602083015184820360208601526150ca828261504f565b915050604083015184820360408601526150e4828261504f565b915050606083015184820360608601526150fe828261504f565b95945050505050565b8b81526001600160a01b038b16602082015260006101806151278c615024565b8b604084015280606084015261513f8184018c61504f565b90508281036080840152615153818b61504f565b905082810360a0840152615167818a61504f565b905087151560c08401528660e084015285610100840152615198610120840186805182526020908101511515910152565b8281036101608401526151ab818561509c565b9e9d5050505050505050505050505050565b634e487b7160e01b600052604160045260246000fd5b604051601f8201601f1916810167ffffffffffffffff811182821017156151fc576151fc6151bd565b604052919050565b600082601f83011261521557600080fd5b813567ffffffffffffffff81111561522f5761522f6151bd565b615242601f8201601f19166020016151d3565b81815284602083860101111561525757600080fd5b816020850160208301376000918101602001919091529392505050565b600080600080600080600060e0888a03121561528f57600080fd5b873567ffffffffffffffff808211156152a757600080fd5b6152b38b838c01615204565b985060208a01359150808211156152c957600080fd5b6152d58b838c01615204565b975060408a01359150808211156152eb57600080fd5b6152f78b838c01615204565b965060608a013591508082111561530d57600080fd5b6153198b838c01615204565b955060808a013591508082111561532f57600080fd5b61533b8b838c01615204565b945060a08a013591508082111561535157600080fd5b61535d8b838c01615204565b935060c08a013591508082111561537357600080fd5b506153808a828b01615204565b91505092959891949750929550565b60006101208251845260208301516153b260208601826001600160a01b03169052565b5060408301516153c56040860182615042565b5060608301518160608601526153dd8286018261504f565b915050608083015184820360808601526153f7828261504f565b91505060a083015184820360a0860152615411828261504f565b91505060c083015161542760c086018215159052565b5060e083015160e0850152610100808401518583038287015261544a838261509c565b9695505050505050565b602081526000615467602083018461538f565b9392505050565b6000602080830181845280855180835260408601915060408160051b870101925083870160005b828110156154c357603f198886030184526154b185835161538f565b94509285019290850190600101615495565b5092979650505050505050565b60006101608251845260208301516154f360208601826001600160a01b03169052565b50604083015181604086015261550b8286018261504f565b91505060608301518482036060860152615525828261504f565b9150506080830151848203608086015261553f828261504f565b91505060a083015184820360a0860152615559828261504f565b91505060c083015184820360c0860152615573828261504f565b91505060e083015184820360e086015261558d828261504f565b91505061010080840151858303828701526155a8838261504f565b610120868101519088015261014095860151959096019490945250929392505050565b6000602080830181845280855180835260408601915060408160051b870101925083870160005b828110156154c357603f1988860301845261560e8583516154d0565b945092850192908501906001016155f2565b60006020828403121561563257600080fd5b81356001600160a01b038116811461546757600080fd5b60608152600061565c606083018661504f565b828103602084015261566e818661504f565b9050828103604084015261544a818561504f565b6020810161568f83615024565b91905290565b600081518084526020808501808196508360051b810191508286016000805b86811015615703578385038a52825180518087529087019087870190845b818110156156ee578351835292890192918901916001016156d2565b50509a87019a955050918501916001016156b4565b509298975050505050505050565b600061014082518452602083015161572c6020860182615042565b50604083015161574760408601826001600160a01b03169052565b50606083015161576260608601826001600160a01b03169052565b50608083015181608086015261577a82860182615695565b91505060a083015160a085015260c083015160c085015260e083015160e08501526101008084015181860152506101208084015181860152508091505092915050565b6000602080830181845280855180835260408601915060408160051b870101925083870160005b828110156154c357603f19888603018452615800858351615711565b945092850192908501906001016157e4565b600061018082518452602083015161583560208601826001600160a01b03169052565b5060408301516158486040860182615042565b5060608301518160608601526158608286018261504f565b9150506080830151848203608086015261587a828261504f565b91505060a083015184820360a0860152615894828261504f565b91505060c08301516158aa60c086018215159052565b5060e083810151908501526101008084015190850152610120808401518051828701526020810151151561014087015250506101408301518482036101608601526150fe828261509c565b6020815260006154676020830184615812565b60a08152600061591b60a083018861504f565b828103602084015261592d818861504f565b90508281036040840152615941818761504f565b90508281036060840152615955818661504f565b90508281036080840152615969818561504f565b98975050505050505050565b600067ffffffffffffffff82111561598f5761598f6151bd565b5060051b60200190565b60008060408084860312156159ad57600080fd5b8335925060208085013567ffffffffffffffff808211156159cd57600080fd5b818701915087601f8301126159e157600080fd5b81356159f46159ef82615975565b6151d3565b81815260059190911b8301840190848101908a831115615a1357600080fd5b8585015b83811015615a9f57803585811115615a2f5760008081fd5b8601603f81018d13615a415760008081fd5b87810135615a516159ef82615975565b81815260059190911b82018a0190898101908f831115615a715760008081fd5b928b01925b82841015615a8f5783358252928a0192908a0190615a76565b8652505050918601918601615a17565b50809750505050505050509250929050565b608081526000615ac4608083018761504f565b8281036020840152615ad6818761504f565b90508281036040840152615aea818661504f565b90508281036060840152615afe818561504f565b979650505050505050565b6000602080830181845280855180835260408601915060408160051b870101925083870160005b828110156154c357603f19888603018452615b4c858351615812565b94509285019290850190600101615b30565b8b81526001600160a01b038b1660208201526000610160806040840152615b878184018d61504f565b90508281036060840152615b9b818c61504f565b90508281036080840152615baf818b61504f565b905082810360a0840152615bc3818a61504f565b905082810360c0840152615bd7818961504f565b905082810360e0840152615beb818861504f565b9050828103610100840152615c00818761504f565b610120840195909552505061014001529998505050505050505050565b6020815260006154676020830184615711565b60208152600061546760208301846154d0565b634e487b7160e01b600052601160045260246000fd5b6000600019821415615c6d57615c6d615c43565b5060010190565b634e487b7160e01b600052603260045260246000fd5b600181811c90821680615c9e57607f821691505b6020821081141561071857634e487b7160e01b600052602260045260246000fd5b60008219821115615cd257615cd2615c43565b500190565b600082821015615ce957615ce9615c43565b500390565b6020808252602f908201527f596f75206d75737420626520616e2061637469766973742120506c656173652060408201526e7265676973746572206173206f6e6560881b606082015260800190565b600080821280156001600160ff1b0384900385131615615d5f57615d5f615c43565b600160ff1b8390038412811615615d7857615d78615c43565b50500190565b600060ff821660ff811415615d9557615d95615c43565b6001019291505056fea26469706673582212209202d9b8a2609f2d160f15a5c4cb986207f2086372fe7c813d7bcdb1bcb554e064736f6c63430008090033",
  "immutableReferences": {},
  "source": "pragma solidity >=0.5.0 <=0.9.0;\r\n// SPDX-License-Identifier: GPL-3.0-or-later\r\n\r\nimport './ProducerContract.sol';\r\nimport './ActivistContract.sol';\r\nimport './CategoryContract.sol';\r\n\r\n/**\r\n* @title InspectionContract\r\n* @dev Inpection action core\r\n*/\r\ncontract InspectionContract is ProducerContract, ActivistContract, CategoryContract {\r\n    enum InspectionStatus { OPEN, EXPIRED, INSPECTED, ACCEPTED } \r\n    uint inspactionExpireIn = 604800; // Seven days\r\n    \r\n    struct Inspection {\r\n        uint id;\r\n        InspectionStatus status;\r\n        address producerWallet;\r\n        address activistWallet;\r\n        uint[][] isas;\r\n        int isaPoints;\r\n        uint expiresIn;\r\n        uint createdAt;\r\n        uint updatedAt;\r\n        uint index;\r\n    }\r\n    Inspection[] inspectionsList;\r\n    mapping(address => Inspection[]) userInspections;\r\n    mapping(uint256 => Inspection) inspections;\r\n    uint256 inspectionsCount;\r\n\r\n    /**\r\n   * @dev Allows the current user producer/activist get all yours inspections with status INSPECTED\r\n   */\r\n    function getInspectionsHistory(address addr) public view returns(Inspection[] memory) {\r\n        return userInspections[addr];\r\n    }\r\n\r\n  /**\r\n   * @dev Allows the current user (producer) request a inspection.\r\n   */\r\n    function requestInspection() public returns(bool) {\r\n        require(producerExists(msg.sender), \"You are not a producer! Please register as one\");\r\n        require(producers[msg.sender].recentInspection == false, \"You have a inspection request OPEN or ACCEPTED! Wait a activist realize inspection or you can close it\");\r\n        \r\n        createRequest();\r\n        producers[msg.sender].recentInspection = true;\r\n        \r\n        return true;\r\n    }     \r\n    \r\n    function createRequest() internal{\r\n        uint id = inspectionsCount + 1;\r\n        uint index = id - 1;\r\n        uint[][] memory isas;\r\n        uint expiresIn = block.timestamp + inspactionExpireIn;\r\n        Inspection memory inspection = Inspection(id, InspectionStatus.OPEN, msg.sender, msg.sender, \r\n                                                  isas,  0, expiresIn,  block.timestamp, 0, index);\r\n        inspectionsList.push(inspection);\r\n        inspections[id] = inspection;\r\n        inspectionsCount++;\r\n    }\r\n    \r\n    /**\r\n   * @dev Allows the current user (activist) accept a inspection.\r\n   * @param inspectionId The id of the inspection that the activist want accept.\r\n   */\r\n    function acceptInspection(uint inspectionId) public requireActivist requireInspectionExists(inspectionId) returns(bool) {\r\n        Inspection memory inspection = inspections[inspectionId];\r\n        if (inspection.status != InspectionStatus.OPEN) return false;\r\n\r\n        inspection.status = InspectionStatus.ACCEPTED;\r\n        inspection.updatedAt = block.timestamp;\r\n        inspection.activistWallet = msg.sender;\r\n        inspections[inspectionId] = inspection;\r\n\r\n        inspectionsList[inspection.index] = inspection;\r\n        return true;\r\n    }  \r\n    \r\n    /**\r\n     * @dev Allow a activist realize a inspection and mark as INSPECTED\r\n     * @param inspectionId The id of the inspection to be realized\r\n     * @param isas The uint[][] of categoryId and isaIndex. Ex: isas = [ [categoryId, isaIndex], [categoryId, isaIndex] ]\r\n     */ \r\n    function realizeInspection(uint inspectionId, uint[][] memory isas) public  requireActivist requireInspectionExists(inspectionId) returns(bool) {\r\n        if (!isAccepted(inspectionId)) return false;\r\n        if (!isActivistOwner(inspectionId)) return false;\r\n\r\n        Inspection memory inspection = inspections[inspectionId];\r\n\r\n        markAsRealized(inspection, isas);\r\n\r\n        afterRealizeInspection(inspectionId);\r\n\r\n        updateProducerIsa(inspectionId, inspection.isaPoints);\r\n\r\n        approveProducerNewTokens(inspection.producerWallet, 2000); \r\n\r\n        return true;\r\n    }\r\n\r\n  /**\r\n   * @dev Calculate the ISA of the inspection based in the category and the ISA level of the category\r\n   * @param inspection Receive the inspected inspection with your isas levels\r\n   */\r\n    function calculateIsa(Inspection memory inspection) internal pure returns(int){ \r\n        uint[][] memory isas = inspection.isas;\r\n        int isaPoints = sumIsaPoints(isas);\r\n        return isaPoints;\r\n    }\r\n\r\n  /**\r\n   * @dev Sum the ISA points\r\n   * @param isas The isas values as list of [[categoryId, isaIndex], [categoryId, isaIndex]]\r\n   */\r\n    function sumIsaPoints(uint[][] memory isas) internal pure returns(int) {\r\n        int[5] memory points = [int(10), int(5), int(0), int(-5), int(-10)];\r\n        int isaPoints = 0;\r\n\r\n        for (uint8 i = 0; i < isas.length; i++) {\r\n            uint isaIndex = isas[i][1];\r\n            isaPoints += points[isaIndex];\r\n        }\r\n        return isaPoints;\r\n    }\r\n\r\n    function markAsRealized(Inspection memory inspection, uint[][] memory isas) internal {   \r\n        inspection.isas = isas;\r\n        inspection.status = InspectionStatus.INSPECTED;\r\n        inspection.updatedAt = block.timestamp;\r\n        inspection.isaPoints = calculateIsa(inspection);\r\n        inspections[inspection.id] = inspection;\r\n        inspectionsList[inspection.index] = inspection;\r\n    }\r\n\r\n    function updateProducerIsa(uint inspectionId, int isaPoints) internal {\r\n        address producerAddress = inspections[inspectionId].producerWallet;\r\n        producers[producerAddress].isaPoints = isaPoints;\r\n    }  \r\n    \r\n    /**\r\n   * @dev Returns a inspection by id if that exists.\r\n   * @param id The id of the inspection to return.\r\n   */\r\n    function getInspection(uint256 id) public view returns(Inspection memory) {\r\n        return inspections[id];\r\n    }\r\n    \r\n    /**\r\n   * @dev Returns all requested inspections.\r\n   */\r\n    function getInspections() public view returns (Inspection[] memory) {\r\n        return inspectionsList;\r\n    }\r\n    \r\n    /**\r\n   * @dev Returns all inpections status string.\r\n   */\r\n    function getInspectionsStatus() public pure returns(string memory, string memory, string memory, string memory) {\r\n        return (\"OPEN\", \"EXPIRED\", \"INSPECTED\", \"ACCEPTED\");\r\n    }\r\n    \r\n    /**\r\n   * @dev Check if an inspections exists in mapping.\r\n   * @param id The id of the inspection that the activist want accept.\r\n   */\r\n    function inspectionExists(uint256 id) public view returns(bool) {\r\n        return inspections[id].id >= 1;\r\n    }\r\n    \r\n    /**\r\n   * @dev Inscrement producer and activist request action and mark both as no recent open requests and inspection\r\n   * @param inspectionId The id of the inspection\r\n   */\r\n    function afterRealizeInspection(uint inspectionId) internal {\r\n        address producerWallet = inspections[inspectionId].producerWallet;\r\n        address activistWallet = inspections[inspectionId].activistWallet;\r\n        \r\n        // Increment actvist inspections and release to carry out new inspections\r\n        activists[activistWallet].recentInspection = false;\r\n        activists[activistWallet].totalInspections++;\r\n        \r\n        // Increment producer requests and release to carry out new requests\r\n        producers[producerWallet].recentInspection = false;\r\n        producers[producerWallet].totalRequests++;\r\n        \r\n        userInspections[producerWallet].push(inspections[inspectionId]);\r\n        userInspections[activistWallet].push(inspections[inspectionId]);\r\n    }\r\n    \r\n    function isActivistOwner(uint inspectionId) internal view returns(bool) {\r\n        return inspections[inspectionId].activistWallet == msg.sender;\r\n    }\r\n \r\n    function isAccepted(uint inspectionId) internal view returns(bool) {\r\n        return inspections[inspectionId].status == InspectionStatus.ACCEPTED;\r\n    }\r\n    \r\n    // MODIFIERS\r\n    modifier requireActivist() {\r\n        require(activistExists(msg.sender), \"You must be an activist! Please register as one\");\r\n        _;\r\n    }\r\n    \r\n    modifier requireInspectionExists(uint inspectionId) {\r\n        require(inspectionExists(inspectionId), \"This inspection don't exists\");\r\n        _;\r\n    }\r\n    \r\n}\r\n",
  "sourcePath": "C:\\Users\\Breno\\Desktop\\Sintrop\\SintropContract\\contracts\\InspectionContract.sol",
  "compiler": {
    "name": "solc",
    "version": "0.8.9+commit.e5eed63a.Emscripten.clang"
  },
  "schemaVersion": "3.2.3",
  "updatedAt": "2022-01-08T18:19:13.099Z",
  "devdoc": {
    "details": "Inpection action core",
    "kind": "dev",
    "methods": {
      "acceptInspection(uint256)": {
        "details": "Allows the current user (activist) accept a inspection.",
        "params": {
          "inspectionId": "The id of the inspection that the activist want accept."
        }
      },
      "activistExists(address)": {
        "details": "Check if a specific activist exists",
        "returns": {
          "_0": "a bool that represent if a activist exists or not"
        }
      },
      "addActivist(string,string,string,string,string,string,string)": {
        "details": "Allow a new register of activist",
        "params": {
          "cep": "the cep of the activist",
          "city": "the of the activist",
          "country": "the country where the activist is",
          "document": "the document of activist",
          "documentType": "the document type type of activist. CPF/CNPJ",
          "name": "the name of the activist",
          "state": "the state of the activist"
        },
        "returns": {
          "_0": "a Activist"
        }
      },
      "addCategory(string,string,string,string,string,string,string)": {
        "details": "add a new category",
        "params": {
          "description": "the description of category",
          "name": "the name of category",
          "neutro": "the description text to this metric",
          "partiallyNotSustainable": "the description text to this metric",
          "partiallySustainable": "the description text to this metric",
          "totallyNotSustainable": "the description text to this metric",
          "totallySustainable": "the description text to this metric"
        },
        "returns": {
          "_0": "bool"
        }
      },
      "addProducer(string,string,string,string,string,string,string)": {
        "details": "Allow a new register of producer",
        "params": {
          "cep": "the cep of the producer",
          "city": "the of the producer",
          "country": "the country where the producer is",
          "document": "the document of producer",
          "documentType": "the document type type of producer. CPF/CNPJ",
          "name": "the name of the producer",
          "state": "the state of the producer"
        }
      },
      "getActivist(address)": {
        "details": "Return a specific activist",
        "params": {
          "addr": "the address of the activist."
        }
      },
      "getActivists()": {
        "details": "Returns all registered activists",
        "returns": {
          "_0": "Activist struct array"
        }
      },
      "getCategories()": {
        "details": "Returns all added categories",
        "returns": {
          "_0": "category struc array"
        }
      },
      "getCategory(uint256)": {
        "details": "get a specific category",
        "params": {
          "id": "the id of a category"
        }
      },
      "getInspection(uint256)": {
        "details": "Returns a inspection by id if that exists.",
        "params": {
          "id": "The id of the inspection to return."
        }
      },
      "getInspections()": {
        "details": "Returns all requested inspections."
      },
      "getInspectionsHistory(address)": {
        "details": "Allows the current user producer/activist get all yours inspections with status INSPECTED"
      },
      "getInspectionsStatus()": {
        "details": "Returns all inpections status string."
      },
      "getIsas()": {
        "details": "Returns all isas string."
      },
      "getProducer(address)": {
        "details": "Return a specific producer",
        "params": {
          "addr": "the address of the producer."
        }
      },
      "getProducers()": {
        "details": "Returns all registered producers",
        "returns": {
          "_0": "Producer struct array"
        }
      },
      "getUser(address)": {
        "details": "Returns the user type if the user is registered",
        "params": {
          "addr": "the user address that want check if exists"
        }
      },
      "getUserTypes()": {
        "details": "Returns the enum UserType of the system"
      },
      "inspectionExists(uint256)": {
        "details": "Check if an inspections exists in mapping.",
        "params": {
          "id": "The id of the inspection that the activist want accept."
        }
      },
      "producerExists(address)": {
        "details": "Check if a specific producer exists",
        "returns": {
          "_0": "a bool that represent if a producer exists or not"
        }
      },
      "realizeInspection(uint256,uint256[][])": {
        "details": "Allow a activist realize a inspection and mark as INSPECTED",
        "params": {
          "inspectionId": "The id of the inspection to be realized",
          "isas": "The uint[][] of categoryId and isaIndex. Ex: isas = [ [categoryId, isaIndex], [categoryId, isaIndex] ]"
        }
      },
      "requestInspection()": {
        "details": "Allows the current user (producer) request a inspection."
      },
      "vote(uint256)": {
        "details": "Allow a user vote in a category",
        "params": {
          "id": "the id of a category that receives a vote."
        },
        "returns": {
          "_0": "category struc array"
        }
      }
    },
    "title": "InspectionContract",
    "version": 1
  },
  "userdoc": {
    "kind": "user",
    "methods": {},
    "version": 1
  }
}