{
  "contractName": "InspectionContract",
  "abi": [
    {
      "inputs": [
        {
          "internalType": "address",
          "name": "addr",
          "type": "address"
        }
      ],
      "name": "activistExists",
      "outputs": [
        {
          "internalType": "bool",
          "name": "",
          "type": "bool"
        }
      ],
      "stateMutability": "view",
      "type": "function"
    },
    {
      "inputs": [],
      "name": "activistsCount",
      "outputs": [
        {
          "internalType": "uint256",
          "name": "",
          "type": "uint256"
        }
      ],
      "stateMutability": "view",
      "type": "function"
    },
    {
      "inputs": [
        {
          "internalType": "string",
          "name": "name",
          "type": "string"
        },
        {
          "internalType": "string",
          "name": "document",
          "type": "string"
        },
        {
          "internalType": "string",
          "name": "documentType",
          "type": "string"
        },
        {
          "internalType": "string",
          "name": "country",
          "type": "string"
        },
        {
          "internalType": "string",
          "name": "state",
          "type": "string"
        },
        {
          "internalType": "string",
          "name": "city",
          "type": "string"
        },
        {
          "internalType": "string",
          "name": "cep",
          "type": "string"
        }
      ],
      "name": "addActivist",
      "outputs": [
        {
          "components": [
            {
              "internalType": "uint256",
              "name": "id",
              "type": "uint256"
            },
            {
              "internalType": "address",
              "name": "activistWallet",
              "type": "address"
            },
            {
              "internalType": "enum UserContract.UserType",
              "name": "userType",
              "type": "uint8"
            },
            {
              "internalType": "string",
              "name": "name",
              "type": "string"
            },
            {
              "internalType": "string",
              "name": "document",
              "type": "string"
            },
            {
              "internalType": "string",
              "name": "documentType",
              "type": "string"
            },
            {
              "internalType": "bool",
              "name": "recentInspection",
              "type": "bool"
            },
            {
              "internalType": "uint256",
              "name": "totalInspections",
              "type": "uint256"
            },
            {
              "components": [
                {
                  "internalType": "string",
                  "name": "country",
                  "type": "string"
                },
                {
                  "internalType": "string",
                  "name": "state",
                  "type": "string"
                },
                {
                  "internalType": "string",
                  "name": "city",
                  "type": "string"
                },
                {
                  "internalType": "string",
                  "name": "cep",
                  "type": "string"
                }
              ],
              "internalType": "struct ActivistContract.ActivistAddress",
              "name": "activistAddress",
              "type": "tuple"
            }
          ],
          "internalType": "struct ActivistContract.Activist",
          "name": "",
          "type": "tuple"
        }
      ],
      "stateMutability": "nonpayable",
      "type": "function"
    },
    {
      "inputs": [
        {
          "internalType": "string",
          "name": "name",
          "type": "string"
        },
        {
          "internalType": "string",
          "name": "description",
          "type": "string"
        },
        {
          "internalType": "string",
          "name": "totallySustainable",
          "type": "string"
        },
        {
          "internalType": "string",
          "name": "partiallySustainable",
          "type": "string"
        },
        {
          "internalType": "string",
          "name": "neutro",
          "type": "string"
        },
        {
          "internalType": "string",
          "name": "partiallyNotSustainable",
          "type": "string"
        },
        {
          "internalType": "string",
          "name": "totallyNotSustainable",
          "type": "string"
        }
      ],
      "name": "addCategory",
      "outputs": [
        {
          "internalType": "bool",
          "name": "",
          "type": "bool"
        }
      ],
      "stateMutability": "nonpayable",
      "type": "function"
    },
    {
      "inputs": [
        {
          "internalType": "string",
          "name": "name",
          "type": "string"
        },
        {
          "internalType": "string",
          "name": "document",
          "type": "string"
        },
        {
          "internalType": "string",
          "name": "documentType",
          "type": "string"
        },
        {
          "internalType": "string",
          "name": "country",
          "type": "string"
        },
        {
          "internalType": "string",
          "name": "state",
          "type": "string"
        },
        {
          "internalType": "string",
          "name": "city",
          "type": "string"
        },
        {
          "internalType": "string",
          "name": "cep",
          "type": "string"
        }
      ],
      "name": "addProducer",
      "outputs": [
        {
          "internalType": "bool",
          "name": "",
          "type": "bool"
        }
      ],
      "stateMutability": "nonpayable",
      "type": "function"
    },
    {
      "inputs": [],
      "name": "category",
      "outputs": [
        {
          "internalType": "uint256",
          "name": "id",
          "type": "uint256"
        },
        {
          "internalType": "address",
          "name": "createdBy",
          "type": "address"
        },
        {
          "internalType": "string",
          "name": "name",
          "type": "string"
        },
        {
          "internalType": "string",
          "name": "description",
          "type": "string"
        },
        {
          "internalType": "string",
          "name": "totallySustainable",
          "type": "string"
        },
        {
          "internalType": "string",
          "name": "partiallySustainable",
          "type": "string"
        },
        {
          "internalType": "string",
          "name": "neutro",
          "type": "string"
        },
        {
          "internalType": "string",
          "name": "partiallyNotSustainable",
          "type": "string"
        },
        {
          "internalType": "string",
          "name": "totallyNotSustainable",
          "type": "string"
        },
        {
          "internalType": "uint256",
          "name": "votesCount",
          "type": "uint256"
        },
        {
          "internalType": "uint256",
          "name": "index",
          "type": "uint256"
        }
      ],
      "stateMutability": "view",
      "type": "function"
    },
    {
      "inputs": [],
      "name": "categoryCounts",
      "outputs": [
        {
          "internalType": "uint256",
          "name": "",
          "type": "uint256"
        }
      ],
      "stateMutability": "view",
      "type": "function"
    },
    {
      "inputs": [
        {
          "internalType": "address",
          "name": "addr",
          "type": "address"
        }
      ],
      "name": "getActivist",
      "outputs": [
        {
          "components": [
            {
              "internalType": "uint256",
              "name": "id",
              "type": "uint256"
            },
            {
              "internalType": "address",
              "name": "activistWallet",
              "type": "address"
            },
            {
              "internalType": "enum UserContract.UserType",
              "name": "userType",
              "type": "uint8"
            },
            {
              "internalType": "string",
              "name": "name",
              "type": "string"
            },
            {
              "internalType": "string",
              "name": "document",
              "type": "string"
            },
            {
              "internalType": "string",
              "name": "documentType",
              "type": "string"
            },
            {
              "internalType": "bool",
              "name": "recentInspection",
              "type": "bool"
            },
            {
              "internalType": "uint256",
              "name": "totalInspections",
              "type": "uint256"
            },
            {
              "components": [
                {
                  "internalType": "string",
                  "name": "country",
                  "type": "string"
                },
                {
                  "internalType": "string",
                  "name": "state",
                  "type": "string"
                },
                {
                  "internalType": "string",
                  "name": "city",
                  "type": "string"
                },
                {
                  "internalType": "string",
                  "name": "cep",
                  "type": "string"
                }
              ],
              "internalType": "struct ActivistContract.ActivistAddress",
              "name": "activistAddress",
              "type": "tuple"
            }
          ],
          "internalType": "struct ActivistContract.Activist",
          "name": "",
          "type": "tuple"
        }
      ],
      "stateMutability": "view",
      "type": "function"
    },
    {
      "inputs": [],
      "name": "getActivists",
      "outputs": [
        {
          "components": [
            {
              "internalType": "uint256",
              "name": "id",
              "type": "uint256"
            },
            {
              "internalType": "address",
              "name": "activistWallet",
              "type": "address"
            },
            {
              "internalType": "enum UserContract.UserType",
              "name": "userType",
              "type": "uint8"
            },
            {
              "internalType": "string",
              "name": "name",
              "type": "string"
            },
            {
              "internalType": "string",
              "name": "document",
              "type": "string"
            },
            {
              "internalType": "string",
              "name": "documentType",
              "type": "string"
            },
            {
              "internalType": "bool",
              "name": "recentInspection",
              "type": "bool"
            },
            {
              "internalType": "uint256",
              "name": "totalInspections",
              "type": "uint256"
            },
            {
              "components": [
                {
                  "internalType": "string",
                  "name": "country",
                  "type": "string"
                },
                {
                  "internalType": "string",
                  "name": "state",
                  "type": "string"
                },
                {
                  "internalType": "string",
                  "name": "city",
                  "type": "string"
                },
                {
                  "internalType": "string",
                  "name": "cep",
                  "type": "string"
                }
              ],
              "internalType": "struct ActivistContract.ActivistAddress",
              "name": "activistAddress",
              "type": "tuple"
            }
          ],
          "internalType": "struct ActivistContract.Activist[]",
          "name": "",
          "type": "tuple[]"
        }
      ],
      "stateMutability": "view",
      "type": "function"
    },
    {
      "inputs": [],
      "name": "getCategories",
      "outputs": [
        {
          "components": [
            {
              "internalType": "uint256",
              "name": "id",
              "type": "uint256"
            },
            {
              "internalType": "address",
              "name": "createdBy",
              "type": "address"
            },
            {
              "internalType": "string",
              "name": "name",
              "type": "string"
            },
            {
              "internalType": "string",
              "name": "description",
              "type": "string"
            },
            {
              "internalType": "string",
              "name": "totallySustainable",
              "type": "string"
            },
            {
              "internalType": "string",
              "name": "partiallySustainable",
              "type": "string"
            },
            {
              "internalType": "string",
              "name": "neutro",
              "type": "string"
            },
            {
              "internalType": "string",
              "name": "partiallyNotSustainable",
              "type": "string"
            },
            {
              "internalType": "string",
              "name": "totallyNotSustainable",
              "type": "string"
            },
            {
              "internalType": "uint256",
              "name": "votesCount",
              "type": "uint256"
            },
            {
              "internalType": "uint256",
              "name": "index",
              "type": "uint256"
            }
          ],
          "internalType": "struct CategoryContract.Category[]",
          "name": "",
          "type": "tuple[]"
        }
      ],
      "stateMutability": "view",
      "type": "function"
    },
    {
      "inputs": [
        {
          "internalType": "uint256",
          "name": "id",
          "type": "uint256"
        }
      ],
      "name": "getCategory",
      "outputs": [
        {
          "components": [
            {
              "internalType": "uint256",
              "name": "id",
              "type": "uint256"
            },
            {
              "internalType": "address",
              "name": "createdBy",
              "type": "address"
            },
            {
              "internalType": "string",
              "name": "name",
              "type": "string"
            },
            {
              "internalType": "string",
              "name": "description",
              "type": "string"
            },
            {
              "internalType": "string",
              "name": "totallySustainable",
              "type": "string"
            },
            {
              "internalType": "string",
              "name": "partiallySustainable",
              "type": "string"
            },
            {
              "internalType": "string",
              "name": "neutro",
              "type": "string"
            },
            {
              "internalType": "string",
              "name": "partiallyNotSustainable",
              "type": "string"
            },
            {
              "internalType": "string",
              "name": "totallyNotSustainable",
              "type": "string"
            },
            {
              "internalType": "uint256",
              "name": "votesCount",
              "type": "uint256"
            },
            {
              "internalType": "uint256",
              "name": "index",
              "type": "uint256"
            }
          ],
          "internalType": "struct CategoryContract.Category",
          "name": "",
          "type": "tuple"
        }
      ],
      "stateMutability": "view",
      "type": "function"
    },
    {
      "inputs": [],
      "name": "getIsas",
      "outputs": [
        {
          "internalType": "string",
          "name": "",
          "type": "string"
        },
        {
          "internalType": "string",
          "name": "",
          "type": "string"
        },
        {
          "internalType": "string",
          "name": "",
          "type": "string"
        },
        {
          "internalType": "string",
          "name": "",
          "type": "string"
        },
        {
          "internalType": "string",
          "name": "",
          "type": "string"
        }
      ],
      "stateMutability": "pure",
      "type": "function"
    },
    {
      "inputs": [
        {
          "internalType": "address",
          "name": "addr",
          "type": "address"
        }
      ],
      "name": "getProducer",
      "outputs": [
        {
          "components": [
            {
              "internalType": "uint256",
              "name": "id",
              "type": "uint256"
            },
            {
              "internalType": "address",
              "name": "producer_wallet",
              "type": "address"
            },
            {
              "internalType": "enum UserContract.UserType",
              "name": "userType",
              "type": "uint8"
            },
            {
              "internalType": "string",
              "name": "name",
              "type": "string"
            },
            {
              "internalType": "string",
              "name": "document",
              "type": "string"
            },
            {
              "internalType": "string",
              "name": "documentType",
              "type": "string"
            },
            {
              "internalType": "bool",
              "name": "recentInspection",
              "type": "bool"
            },
            {
              "internalType": "uint256",
              "name": "totalRequests",
              "type": "uint256"
            },
            {
              "internalType": "int256",
              "name": "isaPoints",
              "type": "int256"
            },
            {
              "components": [
                {
                  "internalType": "uint256",
                  "name": "allowed",
                  "type": "uint256"
                },
                {
                  "internalType": "bool",
                  "name": "withdrewToken",
                  "type": "bool"
                }
              ],
              "internalType": "struct ProducerContract.TokenApprove",
              "name": "tokenApprove",
              "type": "tuple"
            },
            {
              "components": [
                {
                  "internalType": "string",
                  "name": "country",
                  "type": "string"
                },
                {
                  "internalType": "string",
                  "name": "state",
                  "type": "string"
                },
                {
                  "internalType": "string",
                  "name": "city",
                  "type": "string"
                },
                {
                  "internalType": "string",
                  "name": "cep",
                  "type": "string"
                }
              ],
              "internalType": "struct ProducerContract.PropertyAddress",
              "name": "property_address",
              "type": "tuple"
            }
          ],
          "internalType": "struct ProducerContract.Producer",
          "name": "producer",
          "type": "tuple"
        }
      ],
      "stateMutability": "view",
      "type": "function"
    },
    {
      "inputs": [
        {
          "internalType": "address",
          "name": "address_",
          "type": "address"
        }
      ],
      "name": "getProducerApprove",
      "outputs": [
        {
          "internalType": "uint256",
          "name": "",
          "type": "uint256"
        }
      ],
      "stateMutability": "view",
      "type": "function"
    },
    {
      "inputs": [],
      "name": "getProducers",
      "outputs": [
        {
          "components": [
            {
              "internalType": "uint256",
              "name": "id",
              "type": "uint256"
            },
            {
              "internalType": "address",
              "name": "producer_wallet",
              "type": "address"
            },
            {
              "internalType": "enum UserContract.UserType",
              "name": "userType",
              "type": "uint8"
            },
            {
              "internalType": "string",
              "name": "name",
              "type": "string"
            },
            {
              "internalType": "string",
              "name": "document",
              "type": "string"
            },
            {
              "internalType": "string",
              "name": "documentType",
              "type": "string"
            },
            {
              "internalType": "bool",
              "name": "recentInspection",
              "type": "bool"
            },
            {
              "internalType": "uint256",
              "name": "totalRequests",
              "type": "uint256"
            },
            {
              "internalType": "int256",
              "name": "isaPoints",
              "type": "int256"
            },
            {
              "components": [
                {
                  "internalType": "uint256",
                  "name": "allowed",
                  "type": "uint256"
                },
                {
                  "internalType": "bool",
                  "name": "withdrewToken",
                  "type": "bool"
                }
              ],
              "internalType": "struct ProducerContract.TokenApprove",
              "name": "tokenApprove",
              "type": "tuple"
            },
            {
              "components": [
                {
                  "internalType": "string",
                  "name": "country",
                  "type": "string"
                },
                {
                  "internalType": "string",
                  "name": "state",
                  "type": "string"
                },
                {
                  "internalType": "string",
                  "name": "city",
                  "type": "string"
                },
                {
                  "internalType": "string",
                  "name": "cep",
                  "type": "string"
                }
              ],
              "internalType": "struct ProducerContract.PropertyAddress",
              "name": "property_address",
              "type": "tuple"
            }
          ],
          "internalType": "struct ProducerContract.Producer[]",
          "name": "",
          "type": "tuple[]"
        }
      ],
      "stateMutability": "view",
      "type": "function"
    },
    {
      "inputs": [
        {
          "internalType": "address",
          "name": "addr",
          "type": "address"
        }
      ],
      "name": "getUser",
      "outputs": [
        {
          "internalType": "enum UserContract.UserType",
          "name": "",
          "type": "uint8"
        }
      ],
      "stateMutability": "view",
      "type": "function"
    },
    {
      "inputs": [],
      "name": "getUserTypes",
      "outputs": [
        {
          "internalType": "string",
          "name": "",
          "type": "string"
        },
        {
          "internalType": "string",
          "name": "",
          "type": "string"
        },
        {
          "internalType": "string",
          "name": "",
          "type": "string"
        }
      ],
      "stateMutability": "pure",
      "type": "function"
    },
    {
      "inputs": [
        {
          "internalType": "address",
          "name": "addr",
          "type": "address"
        }
      ],
      "name": "producerExists",
      "outputs": [
        {
          "internalType": "bool",
          "name": "",
          "type": "bool"
        }
      ],
      "stateMutability": "view",
      "type": "function"
    },
    {
      "inputs": [],
      "name": "producersCount",
      "outputs": [
        {
          "internalType": "uint256",
          "name": "",
          "type": "uint256"
        }
      ],
      "stateMutability": "view",
      "type": "function"
    },
    {
      "inputs": [
        {
          "internalType": "uint256",
          "name": "",
          "type": "uint256"
        }
      ],
      "name": "producersList",
      "outputs": [
        {
          "internalType": "uint256",
          "name": "id",
          "type": "uint256"
        },
        {
          "internalType": "address",
          "name": "producer_wallet",
          "type": "address"
        },
        {
          "internalType": "enum UserContract.UserType",
          "name": "userType",
          "type": "uint8"
        },
        {
          "internalType": "string",
          "name": "name",
          "type": "string"
        },
        {
          "internalType": "string",
          "name": "document",
          "type": "string"
        },
        {
          "internalType": "string",
          "name": "documentType",
          "type": "string"
        },
        {
          "internalType": "bool",
          "name": "recentInspection",
          "type": "bool"
        },
        {
          "internalType": "uint256",
          "name": "totalRequests",
          "type": "uint256"
        },
        {
          "internalType": "int256",
          "name": "isaPoints",
          "type": "int256"
        },
        {
          "components": [
            {
              "internalType": "uint256",
              "name": "allowed",
              "type": "uint256"
            },
            {
              "internalType": "bool",
              "name": "withdrewToken",
              "type": "bool"
            }
          ],
          "internalType": "struct ProducerContract.TokenApprove",
          "name": "tokenApprove",
          "type": "tuple"
        },
        {
          "components": [
            {
              "internalType": "string",
              "name": "country",
              "type": "string"
            },
            {
              "internalType": "string",
              "name": "state",
              "type": "string"
            },
            {
              "internalType": "string",
              "name": "city",
              "type": "string"
            },
            {
              "internalType": "string",
              "name": "cep",
              "type": "string"
            }
          ],
          "internalType": "struct ProducerContract.PropertyAddress",
          "name": "property_address",
          "type": "tuple"
        }
      ],
      "stateMutability": "view",
      "type": "function"
    },
    {
      "inputs": [],
      "name": "usersCount",
      "outputs": [
        {
          "internalType": "uint256",
          "name": "",
          "type": "uint256"
        }
      ],
      "stateMutability": "view",
      "type": "function"
    },
    {
      "inputs": [
        {
          "internalType": "uint256",
          "name": "id",
          "type": "uint256"
        }
      ],
      "name": "vote",
      "outputs": [
        {
          "internalType": "bool",
          "name": "",
          "type": "bool"
        }
      ],
      "stateMutability": "nonpayable",
      "type": "function"
    },
    {
      "inputs": [],
      "name": "getInspectionsHistory",
      "outputs": [
        {
          "components": [
            {
              "internalType": "uint256",
              "name": "id",
              "type": "uint256"
            },
            {
              "internalType": "enum InspectionContract.InspectionStatus",
              "name": "status",
              "type": "uint8"
            },
            {
              "internalType": "address",
              "name": "producerWallet",
              "type": "address"
            },
            {
              "internalType": "address",
              "name": "activistWallet",
              "type": "address"
            },
            {
              "internalType": "uint256[][]",
              "name": "isas",
              "type": "uint256[][]"
            },
            {
              "internalType": "int256",
              "name": "isaPoints",
              "type": "int256"
            },
            {
              "internalType": "uint256",
              "name": "expiresIn",
              "type": "uint256"
            },
            {
              "internalType": "uint256",
              "name": "createdAt",
              "type": "uint256"
            },
            {
              "internalType": "uint256",
              "name": "updatedAt",
              "type": "uint256"
            },
            {
              "internalType": "uint256",
              "name": "index",
              "type": "uint256"
            }
          ],
          "internalType": "struct InspectionContract.Inspection[]",
          "name": "",
          "type": "tuple[]"
        }
      ],
      "stateMutability": "view",
      "type": "function"
    },
    {
      "inputs": [],
      "name": "requestInspection",
      "outputs": [
        {
          "internalType": "bool",
          "name": "",
          "type": "bool"
        }
      ],
      "stateMutability": "nonpayable",
      "type": "function"
    },
    {
      "inputs": [
        {
          "internalType": "uint256",
          "name": "inspectionId",
          "type": "uint256"
        }
      ],
      "name": "acceptInspection",
      "outputs": [
        {
          "internalType": "bool",
          "name": "",
          "type": "bool"
        }
      ],
      "stateMutability": "nonpayable",
      "type": "function"
    },
    {
      "inputs": [
        {
          "internalType": "uint256",
          "name": "inspectionId",
          "type": "uint256"
        },
        {
          "internalType": "uint256[][]",
          "name": "isas",
          "type": "uint256[][]"
        }
      ],
      "name": "realizeInspection",
      "outputs": [
        {
          "internalType": "bool",
          "name": "",
          "type": "bool"
        }
      ],
      "stateMutability": "nonpayable",
      "type": "function"
    },
    {
      "inputs": [
        {
          "internalType": "uint256",
          "name": "id",
          "type": "uint256"
        }
      ],
      "name": "getInspection",
      "outputs": [
        {
          "components": [
            {
              "internalType": "uint256",
              "name": "id",
              "type": "uint256"
            },
            {
              "internalType": "enum InspectionContract.InspectionStatus",
              "name": "status",
              "type": "uint8"
            },
            {
              "internalType": "address",
              "name": "producerWallet",
              "type": "address"
            },
            {
              "internalType": "address",
              "name": "activistWallet",
              "type": "address"
            },
            {
              "internalType": "uint256[][]",
              "name": "isas",
              "type": "uint256[][]"
            },
            {
              "internalType": "int256",
              "name": "isaPoints",
              "type": "int256"
            },
            {
              "internalType": "uint256",
              "name": "expiresIn",
              "type": "uint256"
            },
            {
              "internalType": "uint256",
              "name": "createdAt",
              "type": "uint256"
            },
            {
              "internalType": "uint256",
              "name": "updatedAt",
              "type": "uint256"
            },
            {
              "internalType": "uint256",
              "name": "index",
              "type": "uint256"
            }
          ],
          "internalType": "struct InspectionContract.Inspection",
          "name": "",
          "type": "tuple"
        }
      ],
      "stateMutability": "view",
      "type": "function"
    },
    {
      "inputs": [],
      "name": "getInspections",
      "outputs": [
        {
          "components": [
            {
              "internalType": "uint256",
              "name": "id",
              "type": "uint256"
            },
            {
              "internalType": "enum InspectionContract.InspectionStatus",
              "name": "status",
              "type": "uint8"
            },
            {
              "internalType": "address",
              "name": "producerWallet",
              "type": "address"
            },
            {
              "internalType": "address",
              "name": "activistWallet",
              "type": "address"
            },
            {
              "internalType": "uint256[][]",
              "name": "isas",
              "type": "uint256[][]"
            },
            {
              "internalType": "int256",
              "name": "isaPoints",
              "type": "int256"
            },
            {
              "internalType": "uint256",
              "name": "expiresIn",
              "type": "uint256"
            },
            {
              "internalType": "uint256",
              "name": "createdAt",
              "type": "uint256"
            },
            {
              "internalType": "uint256",
              "name": "updatedAt",
              "type": "uint256"
            },
            {
              "internalType": "uint256",
              "name": "index",
              "type": "uint256"
            }
          ],
          "internalType": "struct InspectionContract.Inspection[]",
          "name": "",
          "type": "tuple[]"
        }
      ],
      "stateMutability": "view",
      "type": "function"
    },
    {
      "inputs": [],
      "name": "getInspectionsStatus",
      "outputs": [
        {
          "internalType": "string",
          "name": "",
          "type": "string"
        },
        {
          "internalType": "string",
          "name": "",
          "type": "string"
        },
        {
          "internalType": "string",
          "name": "",
          "type": "string"
        },
        {
          "internalType": "string",
          "name": "",
          "type": "string"
        }
      ],
      "stateMutability": "pure",
      "type": "function"
    },
    {
      "inputs": [
        {
          "internalType": "uint256",
          "name": "id",
          "type": "uint256"
        }
      ],
      "name": "inspectionExists",
      "outputs": [
        {
          "internalType": "bool",
          "name": "",
          "type": "bool"
        }
      ],
      "stateMutability": "view",
      "type": "function"
    }
  ],
  "bytecode": "0x608060405262093a8060165534801561001757600080fd5b50615db880620000286000396000f3fe608060405234801561001057600080fd5b50600436106101da5760003560e01c80638ed5540d11610104578063e7857502116100a2578063ef430aa611610071578063ef430aa6146105b7578063f2836670146105d6578063f3052d26146105f6578063fe5a4fa41461061657600080fd5b8063e785750214610574578063e80a7eb914610587578063e9e797ac1461059c578063ee699fc1146105af57600080fd5b8063b7399d88116100de578063b7399d88146103fb578063b92bd2d9146104d8578063dd6850c6146104eb578063e53142e21461056b57600080fd5b80638ed5540d146103b5578063a1c24d64146103c8578063aab147b2146103db57600080fd5b806362efeff71161017c5780637333afcf1161014b5780637333afcf1461036557806386ae2fb11461036e5780638c4772fc146103765780638cf054421461038957600080fd5b806362efeff7146102a75780636337dc1a146102ba5780636ba13a82146103235780636f77926b1461032c57600080fd5b80630cc94acc116101b85780630cc94acc1461023357806340f528411461025d57806342e187dd1461027d5780634db0412c1461029257600080fd5b80630121b93f146101df57806309e1b1d1146102075780630bbec3c21461021e575b600080fd5b6101f26101ed366004614fd6565b61063a565b60405190151581526020015b60405180910390f35b61021060075481565b6040519081526020016101fe565b610226610713565b6040516101fe919061515b565b610246610241366004614fd6565b6108ba565b6040516101fe9b9a99989796959493929190615275565b61027061026b3660046153e2565b610d3a565b6040516101fe91906155c2565b6102856110ee565b6040516101fe91906155dc565b61029a6115c6565b6040516101fe919061572c565b6102706102b5366004615781565b611a4f565b604080518082018252600880825267282927a22aa1a2a960c11b60208084019190915283518085018552918252671050d512559254d560c21b8282015283518085018552600a8152692922a9a2a0a921a422a960b11b9181019190915292516101fe93906157aa565b61021060015481565b61035861033a366004615781565b6001600160a01b031660009081526020819052604090205460ff1690565b6040516101fe91906157e3565b61021060135481565b6101f2611efd565b6101f2610384366004615781565b612055565b610210610397366004615781565b6001600160a01b031660009081526003602052604090206008015490565b6101f26103c33660046153e2565b612088565b6101f26103d63660046153e2565b612491565b6103ee6103e9366004615781565b6128ea565b6040516101fe91906158d9565b604080518082018252601380825272544f54414c4c595f5355535441494e41424c4560681b60208084019190915283518085018552918252725041525449414c5f5355535441494e41424c4560681b828201528351808501855260068152654e455554524f60d01b818301528451808601865260178082527f5041525449414c5f4e4f545f5355535441494e41424c4500000000000000000082850152865180880188529081527f544f54414c4c595f4e4f545f5355535441494e41424c450000000000000000009381019390935294516101fe959192906158ec565b6101f26104e636600461597d565b612b8c565b604080518082018252600481526327a822a760e11b6020808301919091528251808401845260078152661156141254915160ca1b81830152835180850185526009815268125394d41150d5115160ba1b818401528451808601865260088152671050d0d15415115160c21b9381019390935293516101fe94919290615a95565b61021060045481565b6101f2610582366004614fd6565b612e10565b61058f6131fc565b6040516101fe9190615aed565b6101f26105aa366004615781565b61370a565b610226613733565b6105bf6138c6565b6040516101fe9b9a99989796959493929190615b42565b6105e96105e4366004614fd6565b613ccb565b6040516101fe9190615c01565b610609610604366004614fd6565b613e87565b6040516101fe9190615c14565b6101f2610624366004614fd6565b6000908152601960205260409020546001111590565b600081815260156020526040812054829061069c5760405162461bcd60e51b815260206004820152601a60248201527f546869732063617465676f727920646f6e27742065786973747300000000000060448201526064015b60405180910390fd5b60008381526015602052604081206009018054916106b983615c3d565b90915550506000838152601560205260409020600a01546014805490919081106106e5576106e5615c58565b6000918252602082206009600b909202010180549161070383615c3d565b9190505550600191505b50919050565b336000908152601860209081526040808320805482518185028101850190935280835260609492939192909184015b828210156108b1578382906000526020600020906009020160405180610140016040529081600082015481526020016001820160009054906101000a900460ff16600381111561079457610794614fef565b60038111156107a5576107a5614fef565b815260018201546001600160a01b0361010090910481166020808401919091526002840154909116604080840191909152600384018054825181850281018501909352808352606090940193919290919060009084015b828210156108685760008481526020908190208301805460408051828502810185019091528181529283018282801561085457602002820191906000526020600020905b815481526020019060010190808311610840575b5050505050815260200190600101906107fc565b5050505081526020016004820154815260200160058201548152602001600682015481526020016007820154815260200160088201548152505081526020019060010190610742565b50505050905090565b600281815481106108ca57600080fd5b60009182526020909120600e90910201805460018201546002830180549294506001600160a01b03821693600160a01b90920460ff169261090a90615c6e565b80601f016020809104026020016040519081016040528092919081815260200182805461093690615c6e565b80156109835780601f1061095857610100808354040283529160200191610983565b820191906000526020600020905b81548152906001019060200180831161096657829003601f168201915b50505050509080600301805461099890615c6e565b80601f01602080910402602001604051908101604052809291908181526020018280546109c490615c6e565b8015610a115780601f106109e657610100808354040283529160200191610a11565b820191906000526020600020905b8154815290600101906020018083116109f457829003601f168201915b505050505090806004018054610a2690615c6e565b80601f0160208091040260200160405190810160405280929190818152602001828054610a5290615c6e565b8015610a9f5780601f10610a7457610100808354040283529160200191610a9f565b820191906000526020600020905b815481529060010190602001808311610a8257829003601f168201915b5050505060058301546006840154600785015460408051808201825260088801548152600988015460ff90811615156020830152825160808101909352600a89018054989991909616979496509294909382908290610afd90615c6e565b80601f0160208091040260200160405190810160405280929190818152602001828054610b2990615c6e565b8015610b765780601f10610b4b57610100808354040283529160200191610b76565b820191906000526020600020905b815481529060010190602001808311610b5957829003601f168201915b50505050508152602001600182018054610b8f90615c6e565b80601f0160208091040260200160405190810160405280929190818152602001828054610bbb90615c6e565b8015610c085780601f10610bdd57610100808354040283529160200191610c08565b820191906000526020600020905b815481529060010190602001808311610beb57829003601f168201915b50505050508152602001600282018054610c2190615c6e565b80601f0160208091040260200160405190810160405280929190818152602001828054610c4d90615c6e565b8015610c9a5780601f10610c6f57610100808354040283529160200191610c9a565b820191906000526020600020905b815481529060010190602001808311610c7d57829003601f168201915b50505050508152602001600382018054610cb390615c6e565b80601f0160208091040260200160405190810160405280929190818152602001828054610cdf90615c6e565b8015610d2c5780601f10610d0157610100808354040283529160200191610d2c565b820191906000526020600020905b815481529060010190602001808311610d0f57829003601f168201915b50505050508152505090508b565b610d42614c54565b60006007546001610d539190615ca3565b604080516080810182528881526020808201899052818301889052606082018790528251610120810184528481523391810191909152929350600292909160009190810184815260208082018f905260408083018f9052606083018e905260006080840181905260a0840181905260c09093018690526005805460018101825593528351600b9093027f036b6384b5eca791c62761152d0c79bb0604c104a5fb6f4eb0703f3154bb3db08101938455918401517f036b6384b5eca791c62761152d0c79bb0604c104a5fb6f4eb0703f3154bb3db190920180546001600160a01b039093166001600160a01b03198416811782559185015194955085949290916001600160a81b031990911617600160a01b836003811115610e7657610e76614fef565b021790555060608201518051610e96916002840191602090910190614cca565b5060808201518051610eb2916003840191602090910190614cca565b5060a08201518051610ece916004840191602090910190614cca565b5060c082015160058201805460ff191691151591909117905560e08201516006820155610100820151805180516007840191610f0f91839160200190614cca565b506020828101518051610f289260018501920190614cca565b5060408201518051610f44916002840191602090910190614cca565b5060608201518051610f60916003840191602090910190614cca565b50503360009081526006602090815260409182902086518155908601516001820180546001600160a01b031981166001600160a01b0390931692831782559388015188975092955091935090916001600160a81b03191617600160a01b836003811115610fcf57610fcf614fef565b021790555060608201518051610fef916002840191602090910190614cca565b506080820151805161100b916003840191602090910190614cca565b5060a08201518051611027916004840191602090910190614cca565b5060c082015160058201805460ff191691151591909117905560e0820151600682015561010082015180518051600784019161106891839160200190614cca565b5060208281015180516110819260018501920190614cca565b506040820151805161109d916002840191602090910190614cca565b50606082015180516110b9916003840191602090910190614cca565b50506007805493509150600090506110d083615c3d565b91905055506110df3384614341565b9b9a5050505050505050505050565b60606005805480602002602001604051908101604052809291908181526020016000905b828210156108b15760008481526020908190206040805161012081018252600b86029092018054835260018101546001600160a01b03811694840194909452919290830190600160a01b900460ff16600381111561117257611172614fef565b600381111561118357611183614fef565b815260200160028201805461119790615c6e565b80601f01602080910402602001604051908101604052809291908181526020018280546111c390615c6e565b80156112105780601f106111e557610100808354040283529160200191611210565b820191906000526020600020905b8154815290600101906020018083116111f357829003601f168201915b5050505050815260200160038201805461122990615c6e565b80601f016020809104026020016040519081016040528092919081815260200182805461125590615c6e565b80156112a25780601f10611277576101008083540402835291602001916112a2565b820191906000526020600020905b81548152906001019060200180831161128557829003601f168201915b505050505081526020016004820180546112bb90615c6e565b80601f01602080910402602001604051908101604052809291908181526020018280546112e790615c6e565b80156113345780601f1061130957610100808354040283529160200191611334565b820191906000526020600020905b81548152906001019060200180831161131757829003601f168201915b5050509183525050600582015460ff161515602082015260068201546040808301919091528051608081019091526007830180546060909301928290829061137b90615c6e565b80601f01602080910402602001604051908101604052809291908181526020018280546113a790615c6e565b80156113f45780601f106113c9576101008083540402835291602001916113f4565b820191906000526020600020905b8154815290600101906020018083116113d757829003601f168201915b5050505050815260200160018201805461140d90615c6e565b80601f016020809104026020016040519081016040528092919081815260200182805461143990615c6e565b80156114865780601f1061145b57610100808354040283529160200191611486565b820191906000526020600020905b81548152906001019060200180831161146957829003601f168201915b5050505050815260200160028201805461149f90615c6e565b80601f01602080910402602001604051908101604052809291908181526020018280546114cb90615c6e565b80156115185780601f106114ed57610100808354040283529160200191611518565b820191906000526020600020905b8154815290600101906020018083116114fb57829003601f168201915b5050505050815260200160038201805461153190615c6e565b80601f016020809104026020016040519081016040528092919081815260200182805461155d90615c6e565b80156115aa5780601f1061157f576101008083540402835291602001916115aa565b820191906000526020600020905b81548152906001019060200180831161158d57829003601f168201915b5050505050815250508152505081526020019060010190611112565b60606014805480602002602001604051908101604052809291908181526020016000905b828210156108b15760008481526020908190206040805161016081018252600b86029092018054835260018101546001600160a01b0316938301939093526002830180549293929184019161163e90615c6e565b80601f016020809104026020016040519081016040528092919081815260200182805461166a90615c6e565b80156116b75780601f1061168c576101008083540402835291602001916116b7565b820191906000526020600020905b81548152906001019060200180831161169a57829003601f168201915b505050505081526020016003820180546116d090615c6e565b80601f01602080910402602001604051908101604052809291908181526020018280546116fc90615c6e565b80156117495780601f1061171e57610100808354040283529160200191611749565b820191906000526020600020905b81548152906001019060200180831161172c57829003601f168201915b5050505050815260200160048201805461176290615c6e565b80601f016020809104026020016040519081016040528092919081815260200182805461178e90615c6e565b80156117db5780601f106117b0576101008083540402835291602001916117db565b820191906000526020600020905b8154815290600101906020018083116117be57829003601f168201915b505050505081526020016005820180546117f490615c6e565b80601f016020809104026020016040519081016040528092919081815260200182805461182090615c6e565b801561186d5780601f106118425761010080835404028352916020019161186d565b820191906000526020600020905b81548152906001019060200180831161185057829003601f168201915b5050505050815260200160068201805461188690615c6e565b80601f01602080910402602001604051908101604052809291908181526020018280546118b290615c6e565b80156118ff5780601f106118d4576101008083540402835291602001916118ff565b820191906000526020600020905b8154815290600101906020018083116118e257829003601f168201915b5050505050815260200160078201805461191890615c6e565b80601f016020809104026020016040519081016040528092919081815260200182805461194490615c6e565b80156119915780601f1061196657610100808354040283529160200191611991565b820191906000526020600020905b81548152906001019060200180831161197457829003601f168201915b505050505081526020016008820180546119aa90615c6e565b80601f01602080910402602001604051908101604052809291908181526020018280546119d690615c6e565b8015611a235780601f106119f857610100808354040283529160200191611a23565b820191906000526020600020905b815481529060010190602001808311611a0657829003601f168201915b5050505050815260200160098201548152602001600a82015481525050815260200190600101906115ea565b611a57614c54565b6001600160a01b038281166000908152600660209081526040918290208251610120810184528154815260018201549485169281019290925290929091830190600160a01b900460ff166003811115611ab257611ab2614fef565b6003811115611ac357611ac3614fef565b8152602001600282018054611ad790615c6e565b80601f0160208091040260200160405190810160405280929190818152602001828054611b0390615c6e565b8015611b505780601f10611b2557610100808354040283529160200191611b50565b820191906000526020600020905b815481529060010190602001808311611b3357829003601f168201915b50505050508152602001600382018054611b6990615c6e565b80601f0160208091040260200160405190810160405280929190818152602001828054611b9590615c6e565b8015611be25780601f10611bb757610100808354040283529160200191611be2565b820191906000526020600020905b815481529060010190602001808311611bc557829003601f168201915b50505050508152602001600482018054611bfb90615c6e565b80601f0160208091040260200160405190810160405280929190818152602001828054611c2790615c6e565b8015611c745780601f10611c4957610100808354040283529160200191611c74565b820191906000526020600020905b815481529060010190602001808311611c5757829003601f168201915b5050509183525050600582015460ff1615156020820152600682015460408083019190915280516080810190915260078301805460609093019282908290611cbb90615c6e565b80601f0160208091040260200160405190810160405280929190818152602001828054611ce790615c6e565b8015611d345780601f10611d0957610100808354040283529160200191611d34565b820191906000526020600020905b815481529060010190602001808311611d1757829003601f168201915b50505050508152602001600182018054611d4d90615c6e565b80601f0160208091040260200160405190810160405280929190818152602001828054611d7990615c6e565b8015611dc65780601f10611d9b57610100808354040283529160200191611dc6565b820191906000526020600020905b815481529060010190602001808311611da957829003601f168201915b50505050508152602001600282018054611ddf90615c6e565b80601f0160208091040260200160405190810160405280929190818152602001828054611e0b90615c6e565b8015611e585780601f10611e2d57610100808354040283529160200191611e58565b820191906000526020600020905b815481529060010190602001808311611e3b57829003601f168201915b50505050508152602001600382018054611e7190615c6e565b80601f0160208091040260200160405190810160405280929190818152602001828054611e9d90615c6e565b8015611eea5780601f10611ebf57610100808354040283529160200191611eea565b820191906000526020600020905b815481529060010190602001808311611ecd57829003601f168201915b5050509190925250505090525092915050565b6000611f083361370a565b611f6b5760405162461bcd60e51b815260206004820152602e60248201527f596f7520617265206e6f7420612070726f64756365722120506c65617365207260448201526d65676973746572206173206f6e6560901b6064820152608401610693565b3360009081526003602052604090206005015460ff16156120295760405162461bcd60e51b815260206004820152606660248201527f596f752068617665206120696e7370656374696f6e2072657175657374204f5060448201527f454e206f7220414343455054454421205761697420612061637469766973742060648201527f7265616c697a6520696e7370656374696f6e206f7220796f752063616e20636c6084820152651bdcd9481a5d60d21b60a482015260c401610693565b612031614394565b50336000908152600360205260409020600501805460ff1916600190811790915590565b6001600160a01b0381166000908152600660205260408120600201805482919061207e90615c6e565b9050119050919050565b600080600454600161209a9190615ca3565b60408051608081018252888152602080820189905281830188905260608201879052825180840184526000808252818301819052845161016081018652868152339381019390935294955060019492939092919081018581526020018e81526020018d81526020018c8152602001600015158152602001600081526020016000815260200183815260200184815250905060028190806001815401808255809150506001900390600052602060002090600e02016000909190919091506000820151816000015560208201518160010160006101000a8154816001600160a01b0302191690836001600160a01b0316021790555060408201518160010160146101000a81548160ff021916908360038111156121b8576121b8614fef565b0217905550606082015180516121d8916002840191602090910190614cca565b50608082015180516121f4916003840191602090910190614cca565b5060a08201518051612210916004840191602090910190614cca565b5060c082015160058201805491151560ff1992831617905560e083015160068301556101008301516007830155610120830151805160088401556020908101516009840180549115159190931617909155610140830151805180519192600a85019261227f9284920190614cca565b5060208281015180516122989260018501920190614cca565b50604082015180516122b4916002840191602090910190614cca565b50606082015180516122d0916003840191602090910190614cca565b50503360009081526003602081815260409283902087518155908701516001820180546001600160a01b031981166001600160a01b0390931692831782559489015189985092965091945090926001600160a81b0319161790600160a01b90849081111561234057612340614fef565b021790555060608201518051612360916002840191602090910190614cca565b506080820151805161237c916003840191602090910190614cca565b5060a08201518051612398916004840191602090910190614cca565b5060c082015160058201805491151560ff1992831617905560e083015160068301556101008301516007830155610120830151805160088401556020908101516009840180549115159190931617909155610140830151805180519192600a8501926124079284920190614cca565b5060208281015180516124209260018501920190614cca565b506040820151805161243c916002840191602090910190614cca565b5060608201518051612458916003840191602090910190614cca565b505060048054935091506000905061246f83615c3d565b919050555061247e3385614341565b5060019c9b505050505050505050505050565b60008060135460016124a39190615ca3565b905060006124b2600183615cbb565b60408051610160810182528481523360208083018290529282018e9052606082018d9052608082018c905260a082018b905260c082018a905260e082018990526101008201889052600061012083015261014082018490526008868155600980546001600160a01b0319169092179091558d519394509092909161253b91600a918f0190614cca565b5060608201518051612557916003840191602090910190614cca565b5060808201518051612573916004840191602090910190614cca565b5060a0820151805161258f916005840191602090910190614cca565b5060c082015180516125ab916006840191602090910190614cca565b5060e082015180516125c7916007840191602090910190614cca565b5061010082015180516125e4916008840191602090910190614cca565b5061012082015160098083019190915561014090920151600a918201556014805460018101825560009190915260088054600b9092027fce6d7b5282bd9a3661ae061feed1dbda4e52ab073b1f9285be6e155d9c38d4ec810192835593547fce6d7b5282bd9a3661ae061feed1dbda4e52ab073b1f9285be6e155d9c38d4ed850180546001600160a01b0319166001600160a01b039092169190911790558254909391927fce6d7b5282bd9a3661ae061feed1dbda4e52ab073b1f9285be6e155d9c38d4ee90920191906126b790615c6e565b6126c2929190614d4e565b5060038201816003019080546126d790615c6e565b6126e2929190614d4e565b5060048201816004019080546126f790615c6e565b612702929190614d4e565b50600582018160050190805461271790615c6e565b612722929190614d4e565b50600682018160060190805461273790615c6e565b612742929190614d4e565b50600782018160070190805461275790615c6e565b612762929190614d4e565b50600882018160080190805461277790615c6e565b612782929190614d4e565b5060098281015482820155600a9283015491830191909155600084815260156020526040902060088054825591546001820180546001600160a01b0319166001600160a01b039092169190911790558254919290916002830191906127e690615c6e565b6127f1929190614d4e565b50600382018160030190805461280690615c6e565b612811929190614d4e565b50600482018160040190805461282690615c6e565b612831929190614d4e565b50600582018160050190805461284690615c6e565b612851929190614d4e565b50600682018160060190805461286690615c6e565b612871929190614d4e565b50600782018160070190805461288690615c6e565b612891929190614d4e565b5060088201816008019080546128a690615c6e565b6128b1929190614d4e565b5060098281015490820155600a91820154910155601380549060006128d583615c3d565b9091555060019b9a5050505050505050505050565b6128f2614dc9565b6001600160a01b038281166000908152600360208181526040928390208351610160810185528154815260018201549586169281019290925290939092840191600160a01b90910460ff169081111561294d5761294d614fef565b600381111561295e5761295e614fef565b815260200160028201805461297290615c6e565b80601f016020809104026020016040519081016040528092919081815260200182805461299e90615c6e565b80156129eb5780601f106129c0576101008083540402835291602001916129eb565b820191906000526020600020905b8154815290600101906020018083116129ce57829003601f168201915b50505050508152602001600382018054612a0490615c6e565b80601f0160208091040260200160405190810160405280929190818152602001828054612a3090615c6e565b8015612a7d5780601f10612a5257610100808354040283529160200191612a7d565b820191906000526020600020905b815481529060010190602001808311612a6057829003601f168201915b50505050508152602001600482018054612a9690615c6e565b80601f0160208091040260200160405190810160405280929190818152602001828054612ac290615c6e565b8015612b0f5780601f10612ae457610100808354040283529160200191612b0f565b820191906000526020600020905b815481529060010190602001808311612af257829003601f168201915b5050509183525050600582015460ff90811615156020808401919091526006840154604080850191909152600785015460608501528051808201825260088601548152600986015490931615159183019190915260808084019290925280519182019052600a8301805460a09093019282908290611cbb90615c6e565b6000612b9733612055565b612bb35760405162461bcd60e51b815260040161069390615cd2565b600083815260196020526040902054839060011115612c145760405162461bcd60e51b815260206004820152601c60248201527f5468697320696e7370656374696f6e20646f6e277420657869737473000000006044820152606401610693565b612c1d84614647565b612c2a5760009150612e09565b612c4e846000908152601960205260409020600201546001600160a01b0316331490565b612c5b5760009150612e09565b600084815260196020908152604080832081516101408101909252805482526001810154919290919083019060ff166003811115612c9b57612c9b614fef565b6003811115612cac57612cac614fef565b815260018201546001600160a01b0361010090910481166020808401919091526002840154909116604080840191909152600384018054825181850281018501909352808352606090940193919290919060009084015b82821015612d6f57600084815260209081902083018054604080518285028101850190915281815292830182828015612d5b57602002820191906000526020600020905b815481526020019060010190808311612d47575b505050505081526020019060010190612d03565b505050508152602001600482015481526020016005820154815260200160068201548152602001600782015481526020016008820154815250509050612db58185614678565b612dbe85614870565b60a081015160008681526019602090815260408083206001015461010090046001600160a01b031683526003909152902060070155612e0381604001516107d0614b0c565b60019250505b5092915050565b6000612e1b33612055565b612e375760405162461bcd60e51b815260040161069390615cd2565b600082815260196020526040902054829060011115612e985760405162461bcd60e51b815260206004820152601c60248201527f5468697320696e7370656374696f6e20646f6e277420657869737473000000006044820152606401610693565b600083815260196020908152604080832081516101408101909252805482526001810154919290919083019060ff166003811115612ed857612ed8614fef565b6003811115612ee957612ee9614fef565b815260018201546001600160a01b0361010090910481166020808401919091526002840154909116604080840191909152600384018054825181850281018501909352808352606090940193919290919060009084015b82821015612fac57600084815260209081902083018054604080518285028101850190915281815292830182828015612f9857602002820191906000526020600020905b815481526020019060010190808311612f84575b505050505081526020019060010190612f40565b505050908252506004820154602082015260058201546040820152600682015460608201526007820154608082015260089091015460a090910152905060008160200151600381111561300157613001614fef565b1461301057600092505061070d565b6003602082810182815242610100850152336060850152600087815260199092526040909120835181559051600180830180548695919260ff199190911691849081111561306057613060614fef565b02179055506040820151600182018054610100600160a81b0319166101006001600160a01b039384160217905560608301516002830180546001600160a01b03191691909216179055608082015180516130c4916003840191602090910190614e65565b5060a0820151816004015560c0820151816005015560e08201518160060155610100820151816007015561012082015181600801559050508060178261012001518154811061311557613115615c58565b90600052602060002090600902016000820151816000015560208201518160010160006101000a81548160ff0219169083600381111561315757613157614fef565b02179055506040820151600182018054610100600160a81b0319166101006001600160a01b039384160217905560608301516002830180546001600160a01b03191691909216179055608082015180516131bb916003840191602090910190614e65565b5060a0820151600482015560c0820151600582015560e082015160068201556101008201516007820155610120909101516008909101555060019392505050565b60606002805480602002602001604051908101604052809291908181526020016000905b828210156108b15760008481526020908190206040805161016081018252600e86029092018054835260018101546001600160a01b03811694840194909452919290830190600160a01b900460ff16600381111561328057613280614fef565b600381111561329157613291614fef565b81526020016002820180546132a590615c6e565b80601f01602080910402602001604051908101604052809291908181526020018280546132d190615c6e565b801561331e5780601f106132f35761010080835404028352916020019161331e565b820191906000526020600020905b81548152906001019060200180831161330157829003601f168201915b5050505050815260200160038201805461333790615c6e565b80601f016020809104026020016040519081016040528092919081815260200182805461336390615c6e565b80156133b05780601f10613385576101008083540402835291602001916133b0565b820191906000526020600020905b81548152906001019060200180831161339357829003601f168201915b505050505081526020016004820180546133c990615c6e565b80601f01602080910402602001604051908101604052809291908181526020018280546133f590615c6e565b80156134425780601f1061341757610100808354040283529160200191613442565b820191906000526020600020905b81548152906001019060200180831161342557829003601f168201915b5050509183525050600582015460ff90811615156020808401919091526006840154604080850191909152600785015460608501528051808201825260088601548152600986015490931615159183019190915260808084019290925280519182019052600a8301805460a090930192829082906134bf90615c6e565b80601f01602080910402602001604051908101604052809291908181526020018280546134eb90615c6e565b80156135385780601f1061350d57610100808354040283529160200191613538565b820191906000526020600020905b81548152906001019060200180831161351b57829003601f168201915b5050505050815260200160018201805461355190615c6e565b80601f016020809104026020016040519081016040528092919081815260200182805461357d90615c6e565b80156135ca5780601f1061359f576101008083540402835291602001916135ca565b820191906000526020600020905b8154815290600101906020018083116135ad57829003601f168201915b505050505081526020016002820180546135e390615c6e565b80601f016020809104026020016040519081016040528092919081815260200182805461360f90615c6e565b801561365c5780601f106136315761010080835404028352916020019161365c565b820191906000526020600020905b81548152906001019060200180831161363f57829003601f168201915b5050505050815260200160038201805461367590615c6e565b80601f01602080910402602001604051908101604052809291908181526020018280546136a190615c6e565b80156136ee5780601f106136c3576101008083540402835291602001916136ee565b820191906000526020600020905b8154815290600101906020018083116136d157829003601f168201915b5050505050815250508152505081526020019060010190613220565b6001600160a01b0381166000908152600360205260408120600201805482919061207e90615c6e565b60606017805480602002602001604051908101604052809291908181526020016000905b828210156108b1578382906000526020600020906009020160405180610140016040529081600082015481526020016001820160009054906101000a900460ff1660038111156137a9576137a9614fef565b60038111156137ba576137ba614fef565b815260018201546001600160a01b0361010090910481166020808401919091526002840154909116604080840191909152600384018054825181850281018501909352808352606090940193919290919060009084015b8282101561387d5760008481526020908190208301805460408051828502810185019091528181529283018282801561386957602002820191906000526020600020905b815481526020019060010190808311613855575b505050505081526020019060010190613811565b5050505081526020016004820154815260200160058201548152602001600682015481526020016007820154815260200160088201548152505081526020019060010190613757565b60088054600954600a805492936001600160a01b03909216926138e890615c6e565b80601f016020809104026020016040519081016040528092919081815260200182805461391490615c6e565b80156139615780601f1061393657610100808354040283529160200191613961565b820191906000526020600020905b81548152906001019060200180831161394457829003601f168201915b50505050509080600301805461397690615c6e565b80601f01602080910402602001604051908101604052809291908181526020018280546139a290615c6e565b80156139ef5780601f106139c4576101008083540402835291602001916139ef565b820191906000526020600020905b8154815290600101906020018083116139d257829003601f168201915b505050505090806004018054613a0490615c6e565b80601f0160208091040260200160405190810160405280929190818152602001828054613a3090615c6e565b8015613a7d5780601f10613a5257610100808354040283529160200191613a7d565b820191906000526020600020905b815481529060010190602001808311613a6057829003601f168201915b505050505090806005018054613a9290615c6e565b80601f0160208091040260200160405190810160405280929190818152602001828054613abe90615c6e565b8015613b0b5780601f10613ae057610100808354040283529160200191613b0b565b820191906000526020600020905b815481529060010190602001808311613aee57829003601f168201915b505050505090806006018054613b2090615c6e565b80601f0160208091040260200160405190810160405280929190818152602001828054613b4c90615c6e565b8015613b995780601f10613b6e57610100808354040283529160200191613b99565b820191906000526020600020905b815481529060010190602001808311613b7c57829003601f168201915b505050505090806007018054613bae90615c6e565b80601f0160208091040260200160405190810160405280929190818152602001828054613bda90615c6e565b8015613c275780601f10613bfc57610100808354040283529160200191613c27565b820191906000526020600020905b815481529060010190602001808311613c0a57829003601f168201915b505050505090806008018054613c3c90615c6e565b80601f0160208091040260200160405190810160405280929190818152602001828054613c6890615c6e565b8015613cb55780601f10613c8a57610100808354040283529160200191613cb5565b820191906000526020600020905b815481529060010190602001808311613c9857829003601f168201915b50505050509080600901549080600a015490508b565b613d3460408051610140810190915260008082526020820190815260200160006001600160a01b0316815260200160006001600160a01b031681526020016060815260200160008152602001600081526020016000815260200160008152602001600081525090565b60008281526019602090815260409182902082516101408101909352805483526001810154909183019060ff166003811115613d7257613d72614fef565b6003811115613d8357613d83614fef565b815260018201546001600160a01b0361010090910481166020808401919091526002840154909116604080840191909152600384018054825181850281018501909352808352606090940193919290919060009084015b82821015613e4657600084815260209081902083018054604080518285028101850190915281815292830182828015613e3257602002820191906000526020600020905b815481526020019060010190808311613e1e575b505050505081526020019060010190613dda565b505050508152602001600482015481526020016005820154815260200160068201548152602001600782015481526020016008820154815250509050919050565b613eed6040518061016001604052806000815260200160006001600160a01b031681526020016060815260200160608152602001606081526020016060815260200160608152602001606081526020016060815260200160008152602001600081525090565b6000828152601560209081526040918290208251610160810184528154815260018201546001600160a01b0316928101929092526002810180549293919291840191613f3890615c6e565b80601f0160208091040260200160405190810160405280929190818152602001828054613f6490615c6e565b8015613fb15780601f10613f8657610100808354040283529160200191613fb1565b820191906000526020600020905b815481529060010190602001808311613f9457829003601f168201915b50505050508152602001600382018054613fca90615c6e565b80601f0160208091040260200160405190810160405280929190818152602001828054613ff690615c6e565b80156140435780601f1061401857610100808354040283529160200191614043565b820191906000526020600020905b81548152906001019060200180831161402657829003601f168201915b5050505050815260200160048201805461405c90615c6e565b80601f016020809104026020016040519081016040528092919081815260200182805461408890615c6e565b80156140d55780601f106140aa576101008083540402835291602001916140d5565b820191906000526020600020905b8154815290600101906020018083116140b857829003601f168201915b505050505081526020016005820180546140ee90615c6e565b80601f016020809104026020016040519081016040528092919081815260200182805461411a90615c6e565b80156141675780601f1061413c57610100808354040283529160200191614167565b820191906000526020600020905b81548152906001019060200180831161414a57829003601f168201915b5050505050815260200160068201805461418090615c6e565b80601f01602080910402602001604051908101604052809291908181526020018280546141ac90615c6e565b80156141f95780601f106141ce576101008083540402835291602001916141f9565b820191906000526020600020905b8154815290600101906020018083116141dc57829003601f168201915b5050505050815260200160078201805461421290615c6e565b80601f016020809104026020016040519081016040528092919081815260200182805461423e90615c6e565b801561428b5780601f106142605761010080835404028352916020019161428b565b820191906000526020600020905b81548152906001019060200180831161426e57829003601f168201915b505050505081526020016008820180546142a490615c6e565b80601f01602080910402602001604051908101604052809291908181526020018280546142d090615c6e565b801561431d5780601f106142f25761010080835404028352916020019161431d565b820191906000526020600020905b81548152906001019060200180831161430057829003601f168201915b5050505050815260200160098201548152602001600a820154815250509050919050565b6001600160a01b0382166000908152602081905260409020805482919060ff1916600183600381111561437657614376614fef565b02179055506001805490600061438b83615c3d565b91905055505050565b6000601a5460016143a59190615ca3565b905060006143b4600183615cbb565b905060606000601654426143c89190615ca3565b90506000604051806101400160405280868152602001600060038111156143f1576143f1614fef565b815233602080830182905260408301919091526060820186905260006080830181905260a083018690524260c084015260e08301819052610100909201879052601780546001818101835591909352835160099093027fc624b66cc0138b8fabc209247f72d758e1cf3343756d543badbf24212bed8c158101938455918401517fc624b66cc0138b8fabc209247f72d758e1cf3343756d543badbf24212bed8c1690920180549495508594909160ff1991909116908360038111156144b8576144b8614fef565b02179055506040820151600182018054610100600160a81b0319166101006001600160a01b039384160217905560608301516002830180546001600160a01b031916919092161790556080820151805161451c916003840191602090910190614e65565b5060a0820151600482015560c0820151600582015560e0820151600682015561010082015160078201556101209091015160089091015560008581526019602090815260409091208251815590820151600180830180548594939260ff199091169083600381111561459057614590614fef565b02179055506040820151600182018054610100600160a81b0319166101006001600160a01b039384160217905560608301516002830180546001600160a01b03191691909216179055608082015180516145f4916003840191602090910190614e65565b5060a0820151600482015560c0820151600582015560e08201516006820155610100820151600782015561012090910151600890910155601a805490600061463b83615c3d565b91905055505050505050565b6000600360008381526019602052604090206001015460ff16600381111561467157614671614fef565b1492915050565b60808201819052600260208301524261010083015261469682614b84565b60a0830152815160009081526019602090815260409091208351815590830151600180830180548694939260ff19909116908360038111156146da576146da614fef565b02179055506040820151600182018054610100600160a81b0319166101006001600160a01b039384160217905560608301516002830180546001600160a01b031916919092161790556080820151805161473e916003840191602090910190614e65565b5060a0820151816004015560c0820151816005015560e08201518160060155610100820151816007015561012082015181600801559050508160178361012001518154811061478f5761478f615c58565b90600052602060002090600902016000820151816000015560208201518160010160006101000a81548160ff021916908360038111156147d1576147d1614fef565b02179055506040820151600182018054610100600160a81b0319166101006001600160a01b039384160217905560608301516002830180546001600160a01b0319169190921617905560808201518051614835916003840191602090910190614e65565b5060a0820151600482015560c0820151600582015560e082015160068201556101008201516007820155610120909101516008909101555050565b600081815260196020908152604080832060018101546002909101546001600160a01b0390811680865260069485905292852060058101805460ff19169055909301805461010090920490931693919290916148cb83615c3d565b90915550506001600160a01b038216600090815260036020526040812060058101805460ff1916905560060180549161490383615c3d565b90915550506001600160a01b03821660009081526018602090815260408083208684526019835290832081546001818101845592855292909320835460099093020191825580830154828201805460ff90921692909160ff19169083600381111561497057614970614fef565b021790555060018281015490820180546001600160a01b03610100938490048116909302610100600160a81b031990911617905560028084015490830180546001600160a01b03191691909216179055600380830180546149d49284019190614ebe565b50600482810154908201556005808301549082015560068083015490820155600780830154908201556008918201549101556001600160a01b03811660009081526018602090815260408083208684526019835290832081546001818101845592855292909320835460099093020191825580830154828201805460ff90921692909160ff191690836003811115614a6e57614a6e614fef565b021790555060018281015490820180546001600160a01b03610100938490048116909302610100600160a81b031990911617905560028084015490830180546001600160a01b0319169190921617905560038083018054614ad29284019190614ebe565b5060048201548160040155600582015481600501556006820154816006015560078201548160070155600882015481600801555050505050565b6001600160a01b038216600090815260036020526040908190206008015481518083019092529080614b3e8484615ca3565b8152600060209182018190526001600160a01b03959095168552600381526040909420815160088201559301516009909301805460ff1916931515939093179092555050565b608081015160009081614b9682614b9e565b949350505050565b6040805160a081018252600a81526005602082015260009181018290526004196060820152600919608082015281805b84518160ff161015614c4c576000858260ff1681518110614bf157614bf1615c58565b6020026020010151600181518110614c0b57614c0b615c58565b60200260200101519050838160058110614c2757614c27615c58565b6020020151614c369084615d21565b9250508080614c4490615d62565b915050614bce565b509392505050565b60408051610120810182526000808252602082018190529091820190815260200160608152602001606081526020016060815260200160001515815260200160008152602001614cc56040518060800160405280606081526020016060815260200160608152602001606081525090565b905290565b828054614cd690615c6e565b90600052602060002090601f016020900481019282614cf85760008555614d3e565b82601f10614d1157805160ff1916838001178555614d3e565b82800160010185558215614d3e579182015b82811115614d3e578251825591602001919060010190614d23565b50614d4a929150614f0a565b5090565b828054614d5a90615c6e565b90600052602060002090601f016020900481019282614d7c5760008555614d3e565b82601f10614d8d5780548555614d3e565b82800160010185558215614d3e57600052602060002091601f016020900482015b82811115614d3e578254825591600101919060010190614dae565b6040805161016081018252600080825260208201819052909182019081526020016060815260200160608152602001606081526020016000151581526020016000815260200160008152602001614e356040518060400160405280600081526020016000151581525090565b8152602001614cc56040518060800160405280606081526020016060815260200160608152602001606081525090565b828054828255906000526020600020908101928215614eb2579160200282015b82811115614eb25782518051614ea2918491602090910190614f1f565b5091602001919060010190614e85565b50614d4a929150614f59565b828054828255906000526020600020908101928215614eb25760005260206000209182015b82811115614eb2578254614efa9083908590614f76565b5091600101919060010190614ee3565b5b80821115614d4a5760008155600101614f0b565b828054828255906000526020600020908101928215614d3e5791602002820182811115614d3e578251825591602001919060010190614d23565b80821115614d4a576000614f6d8282614fb5565b50600101614f59565b828054828255906000526020600020908101928215614d3e57600052602060002091820182811115614d3e578254825591600101919060010190614dae565b5080546000825590600052602060002090810190614fd39190614f0a565b50565b600060208284031215614fe857600080fd5b5035919050565b634e487b7160e01b600052602160045260246000fd5b60048110614fd357634e487b7160e01b600052602160045260246000fd5b61502c81615005565b9052565b600082825180855260208086019550808260051b8401018186016000805b858110156150a157868403601f19018a52825180518086529086019086860190845b8181101561508c57835183529288019291880191600101615070565b50509a86019a9450509184019160010161504e565b509198975050505050505050565b60006101408251845260208301516150ca6020860182615023565b5060408301516150e560408601826001600160a01b03169052565b50606083015161510060608601826001600160a01b03169052565b50608083015181608086015261511882860182615030565b91505060a083015160a085015260c083015160c085015260e083015160e08501526101008084015181860152506101208084015181860152508091505092915050565b6000602080830181845280855180835260408601915060408160051b870101925083870160005b828110156151b057603f1988860301845261519e8583516150af565b94509285019290850190600101615182565b5092979650505050505050565b6000815180845260005b818110156151e3576020818501810151868301820152016151c7565b818111156151f5576000602083870101525b50601f01601f19169290920160200192915050565b600081516080845261521f60808501826151bd565b90506020830151848203602086015261523882826151bd565b9150506040830151848203604086015261525282826151bd565b9150506060830151848203606086015261526c82826151bd565b95945050505050565b8b81526001600160a01b038b16602082015260006101806152958c615005565b8b60408401528060608401526152ad8184018c6151bd565b905082810360808401526152c1818b6151bd565b905082810360a08401526152d5818a6151bd565b905087151560c08401528660e084015285610100840152615306610120840186805182526020908101511515910152565b828103610160840152615319818561520a565b9e9d5050505050505050505050505050565b634e487b7160e01b600052604160045260246000fd5b604051601f8201601f1916810167ffffffffffffffff8111828210171561536a5761536a61532b565b604052919050565b600082601f83011261538357600080fd5b813567ffffffffffffffff81111561539d5761539d61532b565b6153b0601f8201601f1916602001615341565b8181528460208386010111156153c557600080fd5b816020850160208301376000918101602001919091529392505050565b600080600080600080600060e0888a0312156153fd57600080fd5b873567ffffffffffffffff8082111561541557600080fd5b6154218b838c01615372565b985060208a013591508082111561543757600080fd5b6154438b838c01615372565b975060408a013591508082111561545957600080fd5b6154658b838c01615372565b965060608a013591508082111561547b57600080fd5b6154878b838c01615372565b955060808a013591508082111561549d57600080fd5b6154a98b838c01615372565b945060a08a01359150808211156154bf57600080fd5b6154cb8b838c01615372565b935060c08a01359150808211156154e157600080fd5b506154ee8a828b01615372565b91505092959891949750929550565b600061012082518452602083015161552060208601826001600160a01b03169052565b5060408301516155336040860182615023565b50606083015181606086015261554b828601826151bd565b9150506080830151848203608086015261556582826151bd565b91505060a083015184820360a086015261557f82826151bd565b91505060c083015161559560c086018215159052565b5060e083015160e085015261010080840151858303828701526155b8838261520a565b9695505050505050565b6020815260006155d560208301846154fd565b9392505050565b6000602080830181845280855180835260408601915060408160051b870101925083870160005b828110156151b057603f1988860301845261561f8583516154fd565b94509285019290850190600101615603565b600061016082518452602083015161565460208601826001600160a01b03169052565b50604083015181604086015261566c828601826151bd565b9150506060830151848203606086015261568682826151bd565b915050608083015184820360808601526156a082826151bd565b91505060a083015184820360a08601526156ba82826151bd565b91505060c083015184820360c08601526156d482826151bd565b91505060e083015184820360e08601526156ee82826151bd565b915050610100808401518583038287015261570983826151bd565b610120868101519088015261014095860151959096019490945250929392505050565b6000602080830181845280855180835260408601915060408160051b870101925083870160005b828110156151b057603f1988860301845261576f858351615631565b94509285019290850190600101615753565b60006020828403121561579357600080fd5b81356001600160a01b03811681146155d557600080fd5b6060815260006157bd60608301866151bd565b82810360208401526157cf81866151bd565b905082810360408401526155b881856151bd565b602081016157f083615005565b91905290565b600061018082518452602083015161581960208601826001600160a01b03169052565b50604083015161582c6040860182615023565b506060830151816060860152615844828601826151bd565b9150506080830151848203608086015261585e82826151bd565b91505060a083015184820360a086015261587882826151bd565b91505060c083015161588e60c086018215159052565b5060e0838101519085015261010080840151908501526101208084015180518287015260208101511515610140870152505061014083015184820361016086015261526c828261520a565b6020815260006155d560208301846157f6565b60a0815260006158ff60a08301886151bd565b828103602084015261591181886151bd565b9050828103604084015261592581876151bd565b9050828103606084015261593981866151bd565b9050828103608084015261594d81856151bd565b98975050505050505050565b600067ffffffffffffffff8211156159735761597361532b565b5060051b60200190565b600080604080848603121561599157600080fd5b8335925060208085013567ffffffffffffffff808211156159b157600080fd5b818701915087601f8301126159c557600080fd5b81356159d86159d382615959565b615341565b81815260059190911b8301840190848101908a8311156159f757600080fd5b8585015b83811015615a8357803585811115615a135760008081fd5b8601603f81018d13615a255760008081fd5b87810135615a356159d382615959565b81815260059190911b82018a0190898101908f831115615a555760008081fd5b928b01925b82841015615a735783358252928a0192908a0190615a5a565b86525050509186019186016159fb565b50809750505050505050509250929050565b608081526000615aa860808301876151bd565b8281036020840152615aba81876151bd565b90508281036040840152615ace81866151bd565b90508281036060840152615ae281856151bd565b979650505050505050565b6000602080830181845280855180835260408601915060408160051b870101925083870160005b828110156151b057603f19888603018452615b308583516157f6565b94509285019290850190600101615b14565b8b81526001600160a01b038b1660208201526000610160806040840152615b6b8184018d6151bd565b90508281036060840152615b7f818c6151bd565b90508281036080840152615b93818b6151bd565b905082810360a0840152615ba7818a6151bd565b905082810360c0840152615bbb81896151bd565b905082810360e0840152615bcf81886151bd565b9050828103610100840152615be481876151bd565b610120840195909552505061014001529998505050505050505050565b6020815260006155d560208301846150af565b6020815260006155d56020830184615631565b634e487b7160e01b600052601160045260246000fd5b6000600019821415615c5157615c51615c27565b5060010190565b634e487b7160e01b600052603260045260246000fd5b600181811c90821680615c8257607f821691505b6020821081141561070d57634e487b7160e01b600052602260045260246000fd5b60008219821115615cb657615cb6615c27565b500190565b600082821015615ccd57615ccd615c27565b500390565b6020808252602f908201527f596f75206d75737420626520616e2061637469766973742120506c656173652060408201526e7265676973746572206173206f6e6560881b606082015260800190565b600080821280156001600160ff1b0384900385131615615d4357615d43615c27565b600160ff1b8390038412811615615d5c57615d5c615c27565b50500190565b600060ff821660ff811415615d7957615d79615c27565b6001019291505056fea2646970667358221220d9d1bdbcc3ba077353fd34e6eff20e155e2bb96e5e0198069ffb1159e1d12c4d64736f6c634300080b0033",
  "immutableReferences": {},
  "source": "pragma solidity >=0.5.0 <=0.9.0;\r\n// SPDX-License-Identifier: GPL-3.0-or-later\r\n\r\nimport './ProducerContract.sol';\r\nimport './ActivistContract.sol';\r\nimport './CategoryContract.sol';\r\n\r\n/**\r\n* @title InspectionContract\r\n* @dev Inpection action core\r\n*/\r\ncontract InspectionContract is ProducerContract, ActivistContract, CategoryContract {\r\n    enum InspectionStatus { OPEN, EXPIRED, INSPECTED, ACCEPTED } \r\n    uint inspactionExpireIn = 604800; // Seven days\r\n    \r\n    struct Inspection {\r\n        uint id;\r\n        InspectionStatus status;\r\n        address producerWallet;\r\n        address activistWallet;\r\n        uint[][] isas;\r\n        int isaPoints;\r\n        uint expiresIn;\r\n        uint createdAt;\r\n        uint updatedAt;\r\n        uint index;\r\n    }\r\n    Inspection[] inspectionsList;\r\n    mapping(address => Inspection[]) userInspections;\r\n    mapping(uint256 => Inspection) inspections;\r\n    uint256 inspectionsCount;\r\n\r\n    /**\r\n   * @dev Allows the current user producer/activist get all yours inspections with status INSPECTED\r\n   */\r\n    function getInspectionsHistory() public view returns(Inspection[] memory) {\r\n        return userInspections[msg.sender];\r\n    }\r\n\r\n  /**\r\n   * @dev Allows the current user (producer) request a inspection.\r\n   */\r\n    function requestInspection() public returns(bool) {\r\n        require(producerExists(msg.sender), \"You are not a producer! Please register as one\");\r\n        require(producers[msg.sender].recentInspection == false, \"You have a inspection request OPEN or ACCEPTED! Wait a activist realize inspection or you can close it\");\r\n        \r\n        createRequest();\r\n        producers[msg.sender].recentInspection = true;\r\n        \r\n        return true;\r\n    }     \r\n    \r\n    function createRequest() internal{\r\n        uint id = inspectionsCount + 1;\r\n        uint index = id - 1;\r\n        uint[][] memory isas;\r\n        uint expiresIn = block.timestamp + inspactionExpireIn;\r\n        Inspection memory inspection = Inspection(id, InspectionStatus.OPEN, msg.sender, msg.sender, \r\n                                                  isas,  0, expiresIn,  block.timestamp, 0, index);\r\n        inspectionsList.push(inspection);\r\n        inspections[id] = inspection;\r\n        inspectionsCount++;\r\n    }\r\n    \r\n    /**\r\n   * @dev Allows the current user (activist) accept a inspection.\r\n   * @param inspectionId The id of the inspection that the activist want accept.\r\n   */\r\n    function acceptInspection(uint inspectionId) public requireActivist requireInspectionExists(inspectionId) returns(bool) {\r\n        Inspection memory inspection = inspections[inspectionId];\r\n        if (inspection.status != InspectionStatus.OPEN) return false;\r\n\r\n        inspection.status = InspectionStatus.ACCEPTED;\r\n        inspection.updatedAt = block.timestamp;\r\n        inspection.activistWallet = msg.sender;\r\n        inspections[inspectionId] = inspection;\r\n\r\n        inspectionsList[inspection.index] = inspection;\r\n        return true;\r\n    }  \r\n    \r\n    /**\r\n     * @dev Allow a activist realize a inspection and mark as INSPECTED\r\n     * @param inspectionId The id of the inspection to be realized\r\n     * @param isas The uint[][] of categoryId and isaIndex. Ex: isas = [ [categoryId, isaIndex], [categoryId, isaIndex] ]\r\n     */ \r\n    function realizeInspection(uint inspectionId, uint[][] memory isas) public  requireActivist requireInspectionExists(inspectionId) returns(bool) {\r\n        if (!isAccepted(inspectionId)) return false;\r\n        if (!isActivistOwner(inspectionId)) return false;\r\n\r\n        Inspection memory inspection = inspections[inspectionId];\r\n\r\n        markAsRealized(inspection, isas);\r\n\r\n        afterRealizeInspection(inspectionId);\r\n\r\n        updateProducerIsa(inspectionId, inspection.isaPoints);\r\n\r\n        approveProducerNewTokens(inspection.producerWallet, 2000); \r\n\r\n        return true;\r\n    }\r\n\r\n  /**\r\n   * @dev Calculate the ISA of the inspection based in the category and the ISA level of the category\r\n   * @param inspection Receive the inspected inspection with your isas levels\r\n   */\r\n    function calculateIsa(Inspection memory inspection) internal pure returns(int){ \r\n        uint[][] memory isas = inspection.isas;\r\n        int isaPoints = sumIsaPoints(isas);\r\n        return isaPoints;\r\n    }\r\n\r\n  /**\r\n   * @dev Sum the ISA points\r\n   * @param isas The isas values as list of [[categoryId, isaIndex], [categoryId, isaIndex]]\r\n   */\r\n    function sumIsaPoints(uint[][] memory isas) internal pure returns(int) {\r\n        int[5] memory points = [int(10), int(5), int(0), int(-5), int(-10)];\r\n        int isaPoints = 0;\r\n\r\n        for (uint8 i = 0; i < isas.length; i++) {\r\n            uint isaIndex = isas[i][1];\r\n            isaPoints += points[isaIndex];\r\n        }\r\n        return isaPoints;\r\n    }\r\n\r\n    function markAsRealized(Inspection memory inspection, uint[][] memory isas) internal {   \r\n        inspection.isas = isas;\r\n        inspection.status = InspectionStatus.INSPECTED;\r\n        inspection.updatedAt = block.timestamp;\r\n        inspection.isaPoints = calculateIsa(inspection);\r\n        inspections[inspection.id] = inspection;\r\n        inspectionsList[inspection.index] = inspection;\r\n    }\r\n\r\n    function updateProducerIsa(uint inspectionId, int isaPoints) internal {\r\n        address producerAddress = inspections[inspectionId].producerWallet;\r\n        producers[producerAddress].isaPoints = isaPoints;\r\n    }  \r\n    \r\n    /**\r\n   * @dev Returns a inspection by id if that exists.\r\n   * @param id The id of the inspection to return.\r\n   */\r\n    function getInspection(uint256 id) public view returns(Inspection memory) {\r\n        return inspections[id];\r\n    }\r\n    \r\n    /**\r\n   * @dev Returns all requested inspections.\r\n   */\r\n    function getInspections() public view returns (Inspection[] memory) {\r\n        return inspectionsList;\r\n    }\r\n    \r\n    /**\r\n   * @dev Returns all inpections status string.\r\n   */\r\n    function getInspectionsStatus() public pure returns(string memory, string memory, string memory, string memory) {\r\n        return (\"OPEN\", \"EXPIRED\", \"INSPECTED\", \"ACCEPTED\");\r\n    }\r\n    \r\n    /**\r\n   * @dev Check if an inspections exists in mapping.\r\n   * @param id The id of the inspection that the activist want accept.\r\n   */\r\n    function inspectionExists(uint256 id) public view returns(bool) {\r\n        return inspections[id].id >= 1;\r\n    }\r\n    \r\n    /**\r\n   * @dev Inscrement producer and activist request action and mark both as no recent open requests and inspection\r\n   * @param inspectionId The id of the inspection\r\n   */\r\n    function afterRealizeInspection(uint inspectionId) internal {\r\n        address producerWallet = inspections[inspectionId].producerWallet;\r\n        address activistWallet = inspections[inspectionId].activistWallet;\r\n        \r\n        // Increment actvist inspections and release to carry out new inspections\r\n        activists[activistWallet].recentInspection = false;\r\n        activists[activistWallet].totalInspections++;\r\n        \r\n        // Increment producer requests and release to carry out new requests\r\n        producers[producerWallet].recentInspection = false;\r\n        producers[producerWallet].totalRequests++;\r\n        \r\n        userInspections[producerWallet].push(inspections[inspectionId]);\r\n        userInspections[activistWallet].push(inspections[inspectionId]);\r\n    }\r\n    \r\n    function isActivistOwner(uint inspectionId) internal view returns(bool) {\r\n        return inspections[inspectionId].activistWallet == msg.sender;\r\n    }\r\n \r\n    function isAccepted(uint inspectionId) internal view returns(bool) {\r\n        return inspections[inspectionId].status == InspectionStatus.ACCEPTED;\r\n    }\r\n    \r\n    // MODIFIERS\r\n    modifier requireActivist() {\r\n        require(activistExists(msg.sender), \"You must be an activist! Please register as one\");\r\n        _;\r\n    }\r\n    \r\n    modifier requireInspectionExists(uint inspectionId) {\r\n        require(inspectionExists(inspectionId), \"This inspection don't exists\");\r\n        _;\r\n    }\r\n    \r\n}\r\n",
  "sourcePath": "C:\\Users\\Breno\\Desktop\\Sintrop\\SintropContract\\contracts\\InspectionContract.sol",
  "compiler": {
    "name": "solc",
    "version": "0.8.11+commit.d7f03943.Emscripten.clang"
  },
  "schemaVersion": "3.4.4",
  "updatedAt": "2022-01-31T20:39:34.412Z",
  "devdoc": {
    "details": "Inpection action core",
    "kind": "dev",
    "methods": {
      "acceptInspection(uint256)": {
        "details": "Allows the current user (activist) accept a inspection.",
        "params": {
          "inspectionId": "The id of the inspection that the activist want accept."
        }
      },
      "activistExists(address)": {
        "details": "Check if a specific activist exists",
        "returns": {
          "_0": "a bool that represent if a activist exists or not"
        }
      },
      "addActivist(string,string,string,string,string,string,string)": {
        "details": "Allow a new register of activist",
        "params": {
          "cep": "the cep of the activist",
          "city": "the of the activist",
          "country": "the country where the activist is",
          "document": "the document of activist",
          "documentType": "the document type type of activist. CPF/CNPJ",
          "name": "the name of the activist",
          "state": "the state of the activist"
        },
        "returns": {
          "_0": "a Activist"
        }
      },
      "addCategory(string,string,string,string,string,string,string)": {
        "details": "add a new category",
        "params": {
          "description": "the description of category",
          "name": "the name of category",
          "neutro": "the description text to this metric",
          "partiallyNotSustainable": "the description text to this metric",
          "partiallySustainable": "the description text to this metric",
          "totallyNotSustainable": "the description text to this metric",
          "totallySustainable": "the description text to this metric"
        },
        "returns": {
          "_0": "bool"
        }
      },
      "addProducer(string,string,string,string,string,string,string)": {
        "details": "Allow a new register of producer",
        "params": {
          "cep": "the cep of the producer",
          "city": "the of the producer",
          "country": "the country where the producer is",
          "document": "the document of producer",
          "documentType": "the document type type of producer. CPF/CNPJ",
          "name": "the name of the producer",
          "state": "the state of the producer"
        }
      },
      "getActivist(address)": {
        "details": "Return a specific activist",
        "params": {
          "addr": "the address of the activist."
        }
      },
      "getActivists()": {
        "details": "Returns all registered activists",
        "returns": {
          "_0": "Activist struct array"
        }
      },
      "getCategories()": {
        "details": "Returns all added categories",
        "returns": {
          "_0": "category struc array"
        }
      },
      "getCategory(uint256)": {
        "details": "get a specific category",
        "params": {
          "id": "the id of a category"
        }
      },
      "getInspection(uint256)": {
        "details": "Returns a inspection by id if that exists.",
        "params": {
          "id": "The id of the inspection to return."
        }
      },
      "getInspections()": {
        "details": "Returns all requested inspections."
      },
      "getInspectionsHistory()": {
        "details": "Allows the current user producer/activist get all yours inspections with status INSPECTED"
      },
      "getInspectionsStatus()": {
        "details": "Returns all inpections status string."
      },
      "getIsas()": {
        "details": "Returns all isas string."
      },
      "getProducer(address)": {
        "details": "Return a specific producer",
        "params": {
          "addr": "the address of the producer."
        }
      },
      "getProducers()": {
        "details": "Returns all registered producers",
        "returns": {
          "_0": "Producer struct array"
        }
      },
      "getUser(address)": {
        "details": "Returns the user type if the user is registered",
        "params": {
          "addr": "the user address that want check if exists"
        }
      },
      "getUserTypes()": {
        "details": "Returns the enum UserType of the system"
      },
      "inspectionExists(uint256)": {
        "details": "Check if an inspections exists in mapping.",
        "params": {
          "id": "The id of the inspection that the activist want accept."
        }
      },
      "producerExists(address)": {
        "details": "Check if a specific producer exists",
        "returns": {
          "_0": "a bool that represent if a producer exists or not"
        }
      },
      "realizeInspection(uint256,uint256[][])": {
        "details": "Allow a activist realize a inspection and mark as INSPECTED",
        "params": {
          "inspectionId": "The id of the inspection to be realized",
          "isas": "The uint[][] of categoryId and isaIndex. Ex: isas = [ [categoryId, isaIndex], [categoryId, isaIndex] ]"
        }
      },
      "requestInspection()": {
        "details": "Allows the current user (producer) request a inspection."
      },
      "vote(uint256)": {
        "details": "Allow a user vote in a category",
        "params": {
          "id": "the id of a category that receives a vote."
        },
        "returns": {
          "_0": "category struc array"
        }
      }
    },
    "title": "InspectionContract",
    "version": 1
  },
  "userdoc": {
    "kind": "user",
    "methods": {},
    "version": 1
  }
}