{
  "contractName": "ProducerPool",
  "abi": [
    {
      "inputs": [
        {
          "internalType": "address",
          "name": "satTokenAddress",
          "type": "address"
        },
        {
          "internalType": "address",
          "name": "sintropAddress",
          "type": "address"
        }
      ],
      "stateMutability": "nonpayable",
      "type": "constructor"
    },
    {
      "inputs": [],
      "name": "approve",
      "outputs": [
        {
          "internalType": "bool",
          "name": "",
          "type": "bool"
        }
      ],
      "stateMutability": "nonpayable",
      "type": "function"
    },
    {
      "inputs": [],
      "name": "withDraw",
      "outputs": [
        {
          "internalType": "bool",
          "name": "",
          "type": "bool"
        }
      ],
      "stateMutability": "nonpayable",
      "type": "function"
    },
    {
      "inputs": [],
      "name": "allowance",
      "outputs": [
        {
          "internalType": "uint256",
          "name": "",
          "type": "uint256"
        }
      ],
      "stateMutability": "view",
      "type": "function",
      "constant": true
    }
  ],
  "bytecode": "0x608060405234801561001057600080fd5b506040516103bb3803806103bb83398101604081905261002f9161007c565b600080546001600160a01b039384166001600160a01b031991821617909155600180549290931691161790556100af565b80516001600160a01b038116811461007757600080fd5b919050565b6000806040838503121561008f57600080fd5b61009883610060565b91506100a660208401610060565b90509250929050565b6102fd806100be6000396000f3fe608060405234801561001057600080fd5b50600436106100415760003560e01c80630fdb1c101461004657806312424e3f14610063578063de242ff41461006b575b600080fd5b61004e610081565b60405190151581526020015b60405180910390f35b61004e61011d565b61007361020d565b60405190815260200161005a565b600080546001600160a01b03166323b872dd303361009d61020d565b6040516001600160e01b031960e086901b1681526001600160a01b03938416600482015292909116602483015260448201526064016020604051808303816000875af11580156100f1573d6000803e3d6000fd5b505050506040513d601f19601f820116820180604052508101906101159190610285565b506001905090565b6001546040516346782a2160e11b815233600482015260009182916001600160a01b0390911690638cf0544290602401602060405180830381865afa15801561016a573d6000803e3d6000fd5b505050506040513d601f19601f8201168201806040525081019061018e91906102ae565b6000546040516333ff8bd360e11b8152336004820152602481018390529192506001600160a01b0316906367ff17a6906044016020604051808303816000875af11580156101e0573d6000803e3d6000fd5b505050506040513d601f19601f8201168201806040525081019061020491906102ae565b50600191505090565b60008054604051636eb1769f60e11b81523060048201523360248201526001600160a01b039091169063dd62ed3e90604401602060405180830381865afa15801561025c573d6000803e3d6000fd5b505050506040513d601f19601f8201168201806040525081019061028091906102ae565b905090565b60006020828403121561029757600080fd5b815180151581146102a757600080fd5b9392505050565b6000602082840312156102c057600080fd5b505191905056fea26469706673582212202784cd1d337bc7fb638bbe875651c60960d3db2498a0951029d86a020e959f0b64736f6c634300080b0033",
  "immutableReferences": {},
  "source": "pragma solidity >=0.7.0 <=0.9.0;\r\n// SPDX-License-Identifier: GPL-3.0-or-later\r\n\r\nimport \"./PoolInterface.sol\";\r\n\r\ninterface SintropInterface {\r\n    function getProducerApprove(address delegate) external view returns(uint);\r\n}\r\n\r\ninterface SatTokenInterface {\r\n    function allowance(address owner, address delegate) external view returns(uint);\r\n    function approveWith(address delegate, uint numTokens) external returns(uint);\r\n    function transferFrom(address owner, address to, uint numTokens) external returns(bool);\r\n}\r\n\r\ncontract ProducerPool is PoolInterface {\r\n    SatTokenInterface satToken;\r\n    SintropInterface sintrop;\r\n\r\n    constructor(address satTokenAddress, address sintropAddress) {\r\n        satToken = SatTokenInterface(satTokenAddress);\r\n        sintrop = SintropInterface(sintropAddress);\r\n    }\r\n\r\n    function approve() public override returns(bool) {\r\n        uint numTokens = sintrop.getProducerApprove(msg.sender);\r\n\r\n        satToken.approveWith(msg.sender, numTokens);\r\n        return true;\r\n    }\r\n\r\n    function withDraw() public override returns(bool){\r\n        satToken.transferFrom(address(this), msg.sender, allowance()); \r\n        return true;\r\n    }\r\n\r\n    function allowance() public view override returns (uint) {\r\n        return satToken.allowance(address(this), msg.sender);\r\n    }\r\n}",
  "sourcePath": "C:\\Users\\felip\\OneDrive\\\\Ionic\\SintropContract\\contracts\\ProducerPool.sol",
  "compiler": {
    "name": "solc",
    "version": "0.8.11+commit.d7f03943.Emscripten.clang"
  },
  "schemaVersion": "3.4.3",
  "updatedAt": "2022-01-07T02:44:00.844Z",
  "networkType": "ethereum",
  "devdoc": {
    "kind": "dev",
    "methods": {},
    "version": 1
  },
  "userdoc": {
    "kind": "user",
    "methods": {},
    "version": 1
  }
}