{
  "contractName": "ProducerContract",
  "abi": [
    {
      "inputs": [
        {
          "internalType": "address",
          "name": "addr",
          "type": "address"
        }
      ],
      "name": "getUser",
      "outputs": [
        {
          "internalType": "enum UserContract.UserType",
          "name": "",
          "type": "uint8"
        }
      ],
      "stateMutability": "view",
      "type": "function"
    },
    {
      "inputs": [],
      "name": "getUserTypes",
      "outputs": [
        {
          "internalType": "string",
          "name": "",
          "type": "string"
        },
        {
          "internalType": "string",
          "name": "",
          "type": "string"
        },
        {
          "internalType": "string",
          "name": "",
          "type": "string"
        }
      ],
      "stateMutability": "pure",
      "type": "function"
    },
    {
      "inputs": [],
      "name": "producersCount",
      "outputs": [
        {
          "internalType": "uint256",
          "name": "",
          "type": "uint256"
        }
      ],
      "stateMutability": "view",
      "type": "function"
    },
    {
      "inputs": [
        {
          "internalType": "uint256",
          "name": "",
          "type": "uint256"
        }
      ],
      "name": "producersList",
      "outputs": [
        {
          "internalType": "uint256",
          "name": "id",
          "type": "uint256"
        },
        {
          "internalType": "address",
          "name": "producer_wallet",
          "type": "address"
        },
        {
          "internalType": "enum UserContract.UserType",
          "name": "userType",
          "type": "uint8"
        },
        {
          "internalType": "string",
          "name": "name",
          "type": "string"
        },
        {
          "internalType": "string",
          "name": "document",
          "type": "string"
        },
        {
          "internalType": "string",
          "name": "documentType",
          "type": "string"
        },
        {
          "internalType": "bool",
          "name": "recentInspection",
          "type": "bool"
        },
        {
          "internalType": "uint256",
          "name": "totalRequests",
          "type": "uint256"
        },
        {
          "internalType": "int256",
          "name": "isaPoints",
          "type": "int256"
        },
        {
          "components": [
            {
              "internalType": "uint256",
              "name": "allowed",
              "type": "uint256"
            },
            {
              "internalType": "bool",
              "name": "withdrewToken",
              "type": "bool"
            }
          ],
          "internalType": "struct ProducerContract.TokenApprove",
          "name": "tokenApprove",
          "type": "tuple"
        },
        {
          "components": [
            {
              "internalType": "string",
              "name": "country",
              "type": "string"
            },
            {
              "internalType": "string",
              "name": "state",
              "type": "string"
            },
            {
              "internalType": "string",
              "name": "city",
              "type": "string"
            },
            {
              "internalType": "string",
              "name": "cep",
              "type": "string"
            }
          ],
          "internalType": "struct ProducerContract.PropertyAddress",
          "name": "property_address",
          "type": "tuple"
        }
      ],
      "stateMutability": "view",
      "type": "function"
    },
    {
      "inputs": [],
      "name": "usersCount",
      "outputs": [
        {
          "internalType": "uint256",
          "name": "",
          "type": "uint256"
        }
      ],
      "stateMutability": "view",
      "type": "function"
    },
    {
      "inputs": [
        {
          "internalType": "string",
          "name": "name",
          "type": "string"
        },
        {
          "internalType": "string",
          "name": "document",
          "type": "string"
        },
        {
          "internalType": "string",
          "name": "documentType",
          "type": "string"
        },
        {
          "internalType": "string",
          "name": "country",
          "type": "string"
        },
        {
          "internalType": "string",
          "name": "state",
          "type": "string"
        },
        {
          "internalType": "string",
          "name": "city",
          "type": "string"
        },
        {
          "internalType": "string",
          "name": "cep",
          "type": "string"
        }
      ],
      "name": "addProducer",
      "outputs": [
        {
          "internalType": "bool",
          "name": "",
          "type": "bool"
        }
      ],
      "stateMutability": "nonpayable",
      "type": "function"
    },
    {
      "inputs": [],
      "name": "getProducers",
      "outputs": [
        {
          "components": [
            {
              "internalType": "uint256",
              "name": "id",
              "type": "uint256"
            },
            {
              "internalType": "address",
              "name": "producer_wallet",
              "type": "address"
            },
            {
              "internalType": "enum UserContract.UserType",
              "name": "userType",
              "type": "uint8"
            },
            {
              "internalType": "string",
              "name": "name",
              "type": "string"
            },
            {
              "internalType": "string",
              "name": "document",
              "type": "string"
            },
            {
              "internalType": "string",
              "name": "documentType",
              "type": "string"
            },
            {
              "internalType": "bool",
              "name": "recentInspection",
              "type": "bool"
            },
            {
              "internalType": "uint256",
              "name": "totalRequests",
              "type": "uint256"
            },
            {
              "internalType": "int256",
              "name": "isaPoints",
              "type": "int256"
            },
            {
              "components": [
                {
                  "internalType": "uint256",
                  "name": "allowed",
                  "type": "uint256"
                },
                {
                  "internalType": "bool",
                  "name": "withdrewToken",
                  "type": "bool"
                }
              ],
              "internalType": "struct ProducerContract.TokenApprove",
              "name": "tokenApprove",
              "type": "tuple"
            },
            {
              "components": [
                {
                  "internalType": "string",
                  "name": "country",
                  "type": "string"
                },
                {
                  "internalType": "string",
                  "name": "state",
                  "type": "string"
                },
                {
                  "internalType": "string",
                  "name": "city",
                  "type": "string"
                },
                {
                  "internalType": "string",
                  "name": "cep",
                  "type": "string"
                }
              ],
              "internalType": "struct ProducerContract.PropertyAddress",
              "name": "property_address",
              "type": "tuple"
            }
          ],
          "internalType": "struct ProducerContract.Producer[]",
          "name": "",
          "type": "tuple[]"
        }
      ],
      "stateMutability": "view",
      "type": "function"
    },
    {
      "inputs": [
        {
          "internalType": "address",
          "name": "addr",
          "type": "address"
        }
      ],
      "name": "getProducer",
      "outputs": [
        {
          "components": [
            {
              "internalType": "uint256",
              "name": "id",
              "type": "uint256"
            },
            {
              "internalType": "address",
              "name": "producer_wallet",
              "type": "address"
            },
            {
              "internalType": "enum UserContract.UserType",
              "name": "userType",
              "type": "uint8"
            },
            {
              "internalType": "string",
              "name": "name",
              "type": "string"
            },
            {
              "internalType": "string",
              "name": "document",
              "type": "string"
            },
            {
              "internalType": "string",
              "name": "documentType",
              "type": "string"
            },
            {
              "internalType": "bool",
              "name": "recentInspection",
              "type": "bool"
            },
            {
              "internalType": "uint256",
              "name": "totalRequests",
              "type": "uint256"
            },
            {
              "internalType": "int256",
              "name": "isaPoints",
              "type": "int256"
            },
            {
              "components": [
                {
                  "internalType": "uint256",
                  "name": "allowed",
                  "type": "uint256"
                },
                {
                  "internalType": "bool",
                  "name": "withdrewToken",
                  "type": "bool"
                }
              ],
              "internalType": "struct ProducerContract.TokenApprove",
              "name": "tokenApprove",
              "type": "tuple"
            },
            {
              "components": [
                {
                  "internalType": "string",
                  "name": "country",
                  "type": "string"
                },
                {
                  "internalType": "string",
                  "name": "state",
                  "type": "string"
                },
                {
                  "internalType": "string",
                  "name": "city",
                  "type": "string"
                },
                {
                  "internalType": "string",
                  "name": "cep",
                  "type": "string"
                }
              ],
              "internalType": "struct ProducerContract.PropertyAddress",
              "name": "property_address",
              "type": "tuple"
            }
          ],
          "internalType": "struct ProducerContract.Producer",
          "name": "producer",
          "type": "tuple"
        }
      ],
      "stateMutability": "view",
      "type": "function"
    },
    {
      "inputs": [
        {
          "internalType": "address",
          "name": "addr",
          "type": "address"
        }
      ],
      "name": "producerExists",
      "outputs": [
        {
          "internalType": "bool",
          "name": "",
          "type": "bool"
        }
      ],
      "stateMutability": "view",
      "type": "function"
    },
    {
      "inputs": [
        {
          "internalType": "address",
          "name": "address_",
          "type": "address"
        }
      ],
      "name": "getProducerApprove",
      "outputs": [
        {
          "internalType": "uint256",
          "name": "",
          "type": "uint256"
        }
      ],
      "stateMutability": "view",
      "type": "function"
    }
  ],
  "bytecode": "0x608060405234801561001057600080fd5b50611c87806100206000396000f3fe608060405234801561001057600080fd5b506004361061009e5760003560e01c80638ed5540d116100665780638ed5540d146101bb578063aab147b2146101de578063e53142e2146101fe578063e80a7eb914610207578063e9e797ac1461021c57600080fd5b80630cc94acc146100a35780636337dc1a146100d65780636ba13a821461013f5780636f77926b146101565780638cf054421461018f575b600080fd5b6100b66100b1366004611673565b61022f565b6040516100cd9b9a9998979695949392919061177c565b60405180910390f35b604080518082018252600880825267282927a22aa1a2a960c11b60208084019190915283518085018552918252671050d512559254d560c21b8282015283518085018552600a8152692922a9a2a0a921a422a960b11b9181019190915292516100cd9390611830565b61014860015481565b6040519081526020016100cd565b610182610164366004611873565b6001600160a01b031660009081526020819052604090205460ff1690565b6040516100cd91906118a3565b61014861019d366004611873565b6001600160a01b031660009081526003602052604090206008015490565b6101ce6101c936600461195a565b6106af565b60405190151581526020016100cd565b6101f16101ec366004611873565b610ab8565b6040516100cd9190611b58565b61014860045481565b61020f610f9c565b6040516100cd9190611b6b565b6101ce61022a366004611873565b6114b3565b6002818154811061023f57600080fd5b60009182526020909120600e90910201805460018201546002830180549294506001600160a01b03821693600160a01b90920460ff169261027f90611bcd565b80601f01602080910402602001604051908101604052809291908181526020018280546102ab90611bcd565b80156102f85780601f106102cd576101008083540402835291602001916102f8565b820191906000526020600020905b8154815290600101906020018083116102db57829003601f168201915b50505050509080600301805461030d90611bcd565b80601f016020809104026020016040519081016040528092919081815260200182805461033990611bcd565b80156103865780601f1061035b57610100808354040283529160200191610386565b820191906000526020600020905b81548152906001019060200180831161036957829003601f168201915b50505050509080600401805461039b90611bcd565b80601f01602080910402602001604051908101604052809291908181526020018280546103c790611bcd565b80156104145780601f106103e957610100808354040283529160200191610414565b820191906000526020600020905b8154815290600101906020018083116103f757829003601f168201915b5050505060058301546006840154600785015460408051808201825260088801548152600988015460ff90811615156020830152825160808101909352600a8901805498999190961697949650929490938290829061047290611bcd565b80601f016020809104026020016040519081016040528092919081815260200182805461049e90611bcd565b80156104eb5780601f106104c0576101008083540402835291602001916104eb565b820191906000526020600020905b8154815290600101906020018083116104ce57829003601f168201915b5050505050815260200160018201805461050490611bcd565b80601f016020809104026020016040519081016040528092919081815260200182805461053090611bcd565b801561057d5780601f106105525761010080835404028352916020019161057d565b820191906000526020600020905b81548152906001019060200180831161056057829003601f168201915b5050505050815260200160028201805461059690611bcd565b80601f01602080910402602001604051908101604052809291908181526020018280546105c290611bcd565b801561060f5780601f106105e45761010080835404028352916020019161060f565b820191906000526020600020905b8154815290600101906020018083116105f257829003601f168201915b5050505050815260200160038201805461062890611bcd565b80601f016020809104026020016040519081016040528092919081815260200182805461065490611bcd565b80156106a15780601f10610676576101008083540402835291602001916106a1565b820191906000526020600020905b81548152906001019060200180831161068457829003601f168201915b50505050508152505090508b565b60008060045460016106c19190611c1e565b60408051608081018252888152602080820189905281830188905260608201879052825180840184526000808252818301819052845161016081018652868152339381019390935294955060019492939092919081018581526020018e81526020018d81526020018c8152602001600015158152602001600081526020016000815260200183815260200184815250905060028190806001815401808255809150506001900390600052602060002090600e02016000909190919091506000820151816000015560208201518160010160006101000a8154816001600160a01b0302191690836001600160a01b0316021790555060408201518160010160146101000a81548160ff021916908360038111156107df576107df61168c565b0217905550606082015180516107ff916002840191602090910190611539565b506080820151805161081b916003840191602090910190611539565b5060a08201518051610837916004840191602090910190611539565b5060c082015160058201805491151560ff1992831617905560e083015160068301556101008301516007830155610120830151805160088401556020908101516009840180549115159190931617909155610140830151805180519192600a8501926108a69284920190611539565b5060208281015180516108bf9260018501920190611539565b50604082015180516108db916002840191602090910190611539565b50606082015180516108f7916003840191602090910190611539565b50503360009081526003602081815260409283902087518155908701516001820180546001600160a01b031981166001600160a01b0390931692831782559489015189985092965091945090926001600160a81b0319161790600160a01b9084908111156109675761096761168c565b021790555060608201518051610987916002840191602090910190611539565b50608082015180516109a3916003840191602090910190611539565b5060a082015180516109bf916004840191602090910190611539565b5060c082015160058201805491151560ff1992831617905560e083015160068301556101008301516007830155610120830151805160088401556020908101516009840180549115159190931617909155610140830151805180519192600a850192610a2e9284920190611539565b506020828101518051610a479260018501920190611539565b5060408201518051610a63916002840191602090910190611539565b5060608201518051610a7f916003840191602090910190611539565b5050600480549350915060009050610a9683611c36565b9190505550610aa533856114e6565b5060019c9b505050505050505050505050565b610ac06115bd565b6001600160a01b038281166000908152600360208181526040928390208351610160810185528154815260018201549586169281019290925290939092840191600160a01b90910460ff1690811115610b1b57610b1b61168c565b6003811115610b2c57610b2c61168c565b8152602001600282018054610b4090611bcd565b80601f0160208091040260200160405190810160405280929190818152602001828054610b6c90611bcd565b8015610bb95780601f10610b8e57610100808354040283529160200191610bb9565b820191906000526020600020905b815481529060010190602001808311610b9c57829003601f168201915b50505050508152602001600382018054610bd290611bcd565b80601f0160208091040260200160405190810160405280929190818152602001828054610bfe90611bcd565b8015610c4b5780601f10610c2057610100808354040283529160200191610c4b565b820191906000526020600020905b815481529060010190602001808311610c2e57829003601f168201915b50505050508152602001600482018054610c6490611bcd565b80601f0160208091040260200160405190810160405280929190818152602001828054610c9090611bcd565b8015610cdd5780601f10610cb257610100808354040283529160200191610cdd565b820191906000526020600020905b815481529060010190602001808311610cc057829003601f168201915b5050509183525050600582015460ff90811615156020808401919091526006840154604080850191909152600785015460608501528051808201825260088601548152600986015490931615159183019190915260808084019290925280519182019052600a8301805460a09093019282908290610d5a90611bcd565b80601f0160208091040260200160405190810160405280929190818152602001828054610d8690611bcd565b8015610dd35780601f10610da857610100808354040283529160200191610dd3565b820191906000526020600020905b815481529060010190602001808311610db657829003601f168201915b50505050508152602001600182018054610dec90611bcd565b80601f0160208091040260200160405190810160405280929190818152602001828054610e1890611bcd565b8015610e655780601f10610e3a57610100808354040283529160200191610e65565b820191906000526020600020905b815481529060010190602001808311610e4857829003601f168201915b50505050508152602001600282018054610e7e90611bcd565b80601f0160208091040260200160405190810160405280929190818152602001828054610eaa90611bcd565b8015610ef75780601f10610ecc57610100808354040283529160200191610ef7565b820191906000526020600020905b815481529060010190602001808311610eda57829003601f168201915b50505050508152602001600382018054610f1090611bcd565b80601f0160208091040260200160405190810160405280929190818152602001828054610f3c90611bcd565b8015610f895780601f10610f5e57610100808354040283529160200191610f89565b820191906000526020600020905b815481529060010190602001808311610f6c57829003601f168201915b5050509190925250505090525092915050565b60606002805480602002602001604051908101604052809291908181526020016000905b828210156114aa5760008481526020908190206040805161016081018252600e86029092018054835260018101546001600160a01b03811694840194909452919290830190600160a01b900460ff1660038111156110205761102061168c565b60038111156110315761103161168c565b815260200160028201805461104590611bcd565b80601f016020809104026020016040519081016040528092919081815260200182805461107190611bcd565b80156110be5780601f10611093576101008083540402835291602001916110be565b820191906000526020600020905b8154815290600101906020018083116110a157829003601f168201915b505050505081526020016003820180546110d790611bcd565b80601f016020809104026020016040519081016040528092919081815260200182805461110390611bcd565b80156111505780601f1061112557610100808354040283529160200191611150565b820191906000526020600020905b81548152906001019060200180831161113357829003601f168201915b5050505050815260200160048201805461116990611bcd565b80601f016020809104026020016040519081016040528092919081815260200182805461119590611bcd565b80156111e25780601f106111b7576101008083540402835291602001916111e2565b820191906000526020600020905b8154815290600101906020018083116111c557829003601f168201915b5050509183525050600582015460ff90811615156020808401919091526006840154604080850191909152600785015460608501528051808201825260088601548152600986015490931615159183019190915260808084019290925280519182019052600a8301805460a0909301928290829061125f90611bcd565b80601f016020809104026020016040519081016040528092919081815260200182805461128b90611bcd565b80156112d85780601f106112ad576101008083540402835291602001916112d8565b820191906000526020600020905b8154815290600101906020018083116112bb57829003601f168201915b505050505081526020016001820180546112f190611bcd565b80601f016020809104026020016040519081016040528092919081815260200182805461131d90611bcd565b801561136a5780601f1061133f5761010080835404028352916020019161136a565b820191906000526020600020905b81548152906001019060200180831161134d57829003601f168201915b5050505050815260200160028201805461138390611bcd565b80601f01602080910402602001604051908101604052809291908181526020018280546113af90611bcd565b80156113fc5780601f106113d1576101008083540402835291602001916113fc565b820191906000526020600020905b8154815290600101906020018083116113df57829003601f168201915b5050505050815260200160038201805461141590611bcd565b80601f016020809104026020016040519081016040528092919081815260200182805461144190611bcd565b801561148e5780601f106114635761010080835404028352916020019161148e565b820191906000526020600020905b81548152906001019060200180831161147157829003601f168201915b5050505050815250508152505081526020019060010190610fc0565b50505050905090565b6001600160a01b038116600090815260036020526040812060020180548291906114dc90611bcd565b9050119050919050565b6001600160a01b0382166000908152602081905260409020805482919060ff1916600183600381111561151b5761151b61168c565b02179055506001805490600061153083611c36565b91905055505050565b82805461154590611bcd565b90600052602060002090601f01602090048101928261156757600085556115ad565b82601f1061158057805160ff19168380011785556115ad565b828001600101855582156115ad579182015b828111156115ad578251825591602001919060010190611592565b506115b992915061165e565b5090565b60408051610160810182526000808252602082018190529091820190815260200160608152602001606081526020016060815260200160001515815260200160008152602001600081526020016116296040518060400160405280600081526020016000151581525090565b81526020016116596040518060800160405280606081526020016060815260200160608152602001606081525090565b905290565b5b808211156115b9576000815560010161165f565b60006020828403121561168557600080fd5b5035919050565b634e487b7160e01b600052602160045260246000fd5b600481106116c057634e487b7160e01b600052602160045260246000fd5b9052565b6000815180845260005b818110156116ea576020818501810151868301820152016116ce565b818111156116fc576000602083870101525b50601f01601f19169290920160200192915050565b600081516080845261172660808501826116c4565b90506020830151848203602086015261173f82826116c4565b9150506040830151848203604086015261175982826116c4565b9150506060830151848203606086015261177382826116c4565b95945050505050565b8b81526001600160a01b038b16602082015260006101806117a0604084018d6116a2565b8060608401526117b28184018c6116c4565b905082810360808401526117c6818b6116c4565b905082810360a08401526117da818a6116c4565b905087151560c08401528660e08401528561010084015261180b610120840186805182526020908101511515910152565b82810361016084015261181e8185611711565b9e9d5050505050505050505050505050565b60608152600061184360608301866116c4565b828103602084015261185581866116c4565b9050828103604084015261186981856116c4565b9695505050505050565b60006020828403121561188557600080fd5b81356001600160a01b038116811461189c57600080fd5b9392505050565b602081016118b182846116a2565b92915050565b634e487b7160e01b600052604160045260246000fd5b600082601f8301126118de57600080fd5b813567ffffffffffffffff808211156118f9576118f96118b7565b604051601f8301601f19908116603f01168101908282118183101715611921576119216118b7565b8160405283815286602085880101111561193a57600080fd5b836020870160208301376000602085830101528094505050505092915050565b600080600080600080600060e0888a03121561197557600080fd5b873567ffffffffffffffff8082111561198d57600080fd5b6119998b838c016118cd565b985060208a01359150808211156119af57600080fd5b6119bb8b838c016118cd565b975060408a01359150808211156119d157600080fd5b6119dd8b838c016118cd565b965060608a01359150808211156119f357600080fd5b6119ff8b838c016118cd565b955060808a0135915080821115611a1557600080fd5b611a218b838c016118cd565b945060a08a0135915080821115611a3757600080fd5b611a438b838c016118cd565b935060c08a0135915080821115611a5957600080fd5b50611a668a828b016118cd565b91505092959891949750929550565b6000610180825184526020830151611a9860208601826001600160a01b03169052565b506040830151611aab60408601826116a2565b506060830151816060860152611ac3828601826116c4565b91505060808301518482036080860152611add82826116c4565b91505060a083015184820360a0860152611af782826116c4565b91505060c0830151611b0d60c086018215159052565b5060e083810151908501526101008084015190850152610120808401518051828701526020810151151561014087015250506101408301518482036101608601526117738282611711565b60208152600061189c6020830184611a75565b6000602080830181845280855180835260408601915060408160051b870101925083870160005b82811015611bc057603f19888603018452611bae858351611a75565b94509285019290850190600101611b92565b5092979650505050505050565b600181811c90821680611be157607f821691505b60208210811415611c0257634e487b7160e01b600052602260045260246000fd5b50919050565b634e487b7160e01b600052601160045260246000fd5b60008219821115611c3157611c31611c08565b500190565b6000600019821415611c4a57611c4a611c08565b506001019056fea264697066735822122070b6006c6774a78393d4b24bf005b48ab5b54ea1cdb216e9e87b843b901f0ad464736f6c63430008090033",
  "immutableReferences": {},
  "source": "// SPDX-License-Identifier: GPL-3.0\r\n\r\npragma solidity >=0.7.0 <0.9.0;\r\n\r\nimport './UserContract.sol';\r\n\r\n/**\r\n* @title ProducerContract\r\n* @dev Producer resource that represent a user that can request a inspection\r\n*/\r\ncontract ProducerContract is UserContract {\r\n    struct Producer {\r\n        uint id;\r\n        address producer_wallet;\r\n        UserType userType;\r\n        string name;\r\n        string document;\r\n        string documentType;\r\n        bool recentInspection;\r\n        uint totalRequests;\r\n        int isaPoints;\r\n        TokenApprove tokenApprove;\r\n        PropertyAddress property_address;\r\n    }\r\n  \r\n    struct TokenApprove {\r\n        uint allowed;\r\n        bool withdrewToken;\r\n    }\r\n    \r\n    struct PropertyAddress {\r\n        string country;\r\n        string state;\r\n        string city;\r\n        string cep;\r\n    }\r\n    \r\n    Producer[] public producersList;\r\n    mapping(address => Producer) producers;\r\n    uint public producersCount;\r\n\r\n    /**\r\n   * @dev Allow a new register of producer\r\n   * @param name the name of the producer\r\n   * @param document the document of producer\r\n   * @param documentType the document type type of producer. CPF/CNPJ\r\n   * @param country the country where the producer is\r\n   * @param state the state of the producer\r\n   * @param city the of the producer\r\n   * @param cep the cep of the producer\r\n   */\r\n    function addProducer( \r\n        string memory name, \r\n        string memory document, \r\n        string memory documentType, \r\n        string memory country, \r\n        string memory state, \r\n        string memory city, \r\n        string memory cep) public returns(bool) {\r\n            \r\n            uint id = producersCount + 1;\r\n            UserType userType = UserType.PRODUCER;\r\n            \r\n            PropertyAddress memory property_address = PropertyAddress(country, state, city, cep);\r\n            TokenApprove memory tokenApprove = TokenApprove(0, false);\r\n            Producer memory producer = Producer(id, msg.sender, userType, name, document, documentType, false, 0, 0, tokenApprove, property_address);\r\n            \r\n            producersList.push(producer);\r\n            producers[msg.sender] = producer;\r\n            producersCount++;\r\n            addUser(msg.sender, userType);\r\n            \r\n            return true;\r\n    }\r\n    \r\n    /**\r\n   * @dev Returns all registered producers\r\n   * @return Producer struct array\r\n   */\r\n    function getProducers() public view returns(Producer[] memory) {\r\n        return producersList;\r\n    }\r\n    \r\n    /**\r\n   * @dev Return a specific producer\r\n   * @param addr the address of the producer.\r\n   */\r\n    function getProducer(address addr) public view returns(Producer memory producer) {\r\n        return producers[addr];\r\n    }\r\n    \r\n    /**\r\n   * @dev Check if a specific producer exists\r\n   * @return a bool that represent if a producer exists or not\r\n   */\r\n    function producerExists(address addr) public view returns(bool) {\r\n        return bytes(producers[addr].name).length > 0;\r\n    }\r\n\r\n    function approveProducerNewTokens(address addr, uint numTokens) internal {\r\n        uint tokens = producers[addr].tokenApprove.allowed;\r\n        producers[addr].tokenApprove = TokenApprove(tokens += numTokens, false);\r\n    }\r\n\r\n    function getProducerApprove(address address_) public view returns (uint) {\r\n        return producers[address_].tokenApprove.allowed;\r\n    }\r\n\r\n    function undoProducerApprove() internal returns (bool) {\r\n        producers[msg.sender].tokenApprove = TokenApprove(0, false);\r\n        return true;\r\n    }\r\n}",
  "sourcePath": "C:\\Users\\Breno\\Desktop\\Sintrop\\SintropContract\\contracts\\ProducerContract.sol",
  "compiler": {
    "name": "solc",
    "version": "0.8.9+commit.e5eed63a.Emscripten.clang"
  },
  "schemaVersion": "3.2.3",
  "updatedAt": "2022-01-08T18:19:13.120Z",
  "devdoc": {
    "details": "Producer resource that represent a user that can request a inspection",
    "kind": "dev",
    "methods": {
      "addProducer(string,string,string,string,string,string,string)": {
        "details": "Allow a new register of producer",
        "params": {
          "cep": "the cep of the producer",
          "city": "the of the producer",
          "country": "the country where the producer is",
          "document": "the document of producer",
          "documentType": "the document type type of producer. CPF/CNPJ",
          "name": "the name of the producer",
          "state": "the state of the producer"
        }
      },
      "getProducer(address)": {
        "details": "Return a specific producer",
        "params": {
          "addr": "the address of the producer."
        }
      },
      "getProducers()": {
        "details": "Returns all registered producers",
        "returns": {
          "_0": "Producer struct array"
        }
      },
      "getUser(address)": {
        "details": "Returns the user type if the user is registered",
        "params": {
          "addr": "the user address that want check if exists"
        }
      },
      "getUserTypes()": {
        "details": "Returns the enum UserType of the system"
      },
      "producerExists(address)": {
        "details": "Check if a specific producer exists",
        "returns": {
          "_0": "a bool that represent if a producer exists or not"
        }
      }
    },
    "title": "ProducerContract",
    "version": 1
  },
  "userdoc": {
    "kind": "user",
    "methods": {},
    "version": 1
  }
}