{
  "contractName": "ProducerContract",
  "abi": [
    {
      "inputs": [
        {
          "internalType": "address",
          "name": "addr",
          "type": "address"
        }
      ],
      "name": "getUser",
      "outputs": [
        {
          "internalType": "enum UserContract.UserType",
          "name": "",
          "type": "uint8"
        }
      ],
      "stateMutability": "view",
      "type": "function"
    },
    {
      "inputs": [],
      "name": "getUserTypes",
      "outputs": [
        {
          "internalType": "string",
          "name": "",
          "type": "string"
        },
        {
          "internalType": "string",
          "name": "",
          "type": "string"
        },
        {
          "internalType": "string",
          "name": "",
          "type": "string"
        }
      ],
      "stateMutability": "pure",
      "type": "function"
    },
    {
      "inputs": [],
      "name": "producersCount",
      "outputs": [
        {
          "internalType": "uint256",
          "name": "",
          "type": "uint256"
        }
      ],
      "stateMutability": "view",
      "type": "function"
    },
    {
      "inputs": [],
      "name": "usersCount",
      "outputs": [
        {
          "internalType": "uint256",
          "name": "",
          "type": "uint256"
        }
      ],
      "stateMutability": "view",
      "type": "function"
    },
    {
      "inputs": [
        {
          "internalType": "string",
          "name": "name",
          "type": "string"
        },
        {
          "internalType": "string",
          "name": "document",
          "type": "string"
        },
        {
          "internalType": "string",
          "name": "documentType",
          "type": "string"
        },
        {
          "internalType": "string",
          "name": "country",
          "type": "string"
        },
        {
          "internalType": "string",
          "name": "state",
          "type": "string"
        },
        {
          "internalType": "string",
          "name": "city",
          "type": "string"
        },
        {
          "internalType": "string",
          "name": "cep",
          "type": "string"
        }
      ],
      "name": "addProducer",
      "outputs": [
        {
          "components": [
            {
              "internalType": "uint256",
              "name": "id",
              "type": "uint256"
            },
            {
              "internalType": "address",
              "name": "producer_wallet",
              "type": "address"
            },
            {
              "internalType": "enum UserContract.UserType",
              "name": "userType",
              "type": "uint8"
            },
            {
              "internalType": "string",
              "name": "name",
              "type": "string"
            },
            {
              "internalType": "string",
              "name": "document",
              "type": "string"
            },
            {
              "internalType": "string",
              "name": "documentType",
              "type": "string"
            },
            {
              "internalType": "bool",
              "name": "recentInspection",
              "type": "bool"
            },
            {
              "internalType": "uint256",
              "name": "totalRequests",
              "type": "uint256"
            },
            {
              "internalType": "uint256",
              "name": "isaAverage",
              "type": "uint256"
            },
            {
              "components": [
                {
                  "internalType": "string",
                  "name": "country",
                  "type": "string"
                },
                {
                  "internalType": "string",
                  "name": "state",
                  "type": "string"
                },
                {
                  "internalType": "string",
                  "name": "city",
                  "type": "string"
                },
                {
                  "internalType": "string",
                  "name": "cep",
                  "type": "string"
                }
              ],
              "internalType": "struct ProducerContract.PropertyAddress",
              "name": "property_address",
              "type": "tuple"
            }
          ],
          "internalType": "struct ProducerContract.Producer",
          "name": "",
          "type": "tuple"
        }
      ],
      "stateMutability": "nonpayable",
      "type": "function"
    },
    {
      "inputs": [],
      "name": "getProducers",
      "outputs": [
        {
          "components": [
            {
              "internalType": "uint256",
              "name": "id",
              "type": "uint256"
            },
            {
              "internalType": "address",
              "name": "producer_wallet",
              "type": "address"
            },
            {
              "internalType": "enum UserContract.UserType",
              "name": "userType",
              "type": "uint8"
            },
            {
              "internalType": "string",
              "name": "name",
              "type": "string"
            },
            {
              "internalType": "string",
              "name": "document",
              "type": "string"
            },
            {
              "internalType": "string",
              "name": "documentType",
              "type": "string"
            },
            {
              "internalType": "bool",
              "name": "recentInspection",
              "type": "bool"
            },
            {
              "internalType": "uint256",
              "name": "totalRequests",
              "type": "uint256"
            },
            {
              "internalType": "uint256",
              "name": "isaAverage",
              "type": "uint256"
            },
            {
              "components": [
                {
                  "internalType": "string",
                  "name": "country",
                  "type": "string"
                },
                {
                  "internalType": "string",
                  "name": "state",
                  "type": "string"
                },
                {
                  "internalType": "string",
                  "name": "city",
                  "type": "string"
                },
                {
                  "internalType": "string",
                  "name": "cep",
                  "type": "string"
                }
              ],
              "internalType": "struct ProducerContract.PropertyAddress",
              "name": "property_address",
              "type": "tuple"
            }
          ],
          "internalType": "struct ProducerContract.Producer[]",
          "name": "",
          "type": "tuple[]"
        }
      ],
      "stateMutability": "view",
      "type": "function"
    },
    {
      "inputs": [
        {
          "internalType": "address",
          "name": "addr",
          "type": "address"
        }
      ],
      "name": "getProducer",
      "outputs": [
        {
          "components": [
            {
              "internalType": "uint256",
              "name": "id",
              "type": "uint256"
            },
            {
              "internalType": "address",
              "name": "producer_wallet",
              "type": "address"
            },
            {
              "internalType": "enum UserContract.UserType",
              "name": "userType",
              "type": "uint8"
            },
            {
              "internalType": "string",
              "name": "name",
              "type": "string"
            },
            {
              "internalType": "string",
              "name": "document",
              "type": "string"
            },
            {
              "internalType": "string",
              "name": "documentType",
              "type": "string"
            },
            {
              "internalType": "bool",
              "name": "recentInspection",
              "type": "bool"
            },
            {
              "internalType": "uint256",
              "name": "totalRequests",
              "type": "uint256"
            },
            {
              "internalType": "uint256",
              "name": "isaAverage",
              "type": "uint256"
            },
            {
              "components": [
                {
                  "internalType": "string",
                  "name": "country",
                  "type": "string"
                },
                {
                  "internalType": "string",
                  "name": "state",
                  "type": "string"
                },
                {
                  "internalType": "string",
                  "name": "city",
                  "type": "string"
                },
                {
                  "internalType": "string",
                  "name": "cep",
                  "type": "string"
                }
              ],
              "internalType": "struct ProducerContract.PropertyAddress",
              "name": "property_address",
              "type": "tuple"
            }
          ],
          "internalType": "struct ProducerContract.Producer",
          "name": "producer",
          "type": "tuple"
        }
      ],
      "stateMutability": "view",
      "type": "function"
    },
    {
      "inputs": [
        {
          "internalType": "address",
          "name": "addr",
          "type": "address"
        }
      ],
      "name": "producerExists",
      "outputs": [
        {
          "internalType": "bool",
          "name": "",
          "type": "bool"
        }
      ],
      "stateMutability": "view",
      "type": "function"
    }
  ],
  "bytecode": "0x608060405234801561001057600080fd5b50611610806100206000396000f3fe608060405234801561001057600080fd5b50600436106100885760003560e01c8063aab147b21161005b578063aab147b21461016f578063e53142e214610182578063e80a7eb91461018b578063e9e797ac146101a057600080fd5b80636337dc1a1461008d5780636ba13a82146100ff5780636f77926b146101165780638ed5540d1461014f575b600080fd5b604080518082018252600880825267282927a22aa1a2a960c11b60208084019190915283518085018552918252671050d512559254d560c21b8282015283518085018552600a8152692922a9a2a0a921a422a960b11b9181019190915292516100f69390611132565b60405180910390f35b61010860015481565b6040519081526020016100f6565b610142610124366004611175565b6001600160a01b031660009081526020819052604090205460ff1690565b6040516100f691906111dd565b61016261015d366004611294565b6101c3565b6040516100f691906114e1565b61016261017d366004611175565b610595565b61010860045481565b610193610a54565b6040516100f691906114f4565b6101b36101ae366004611175565b610f46565b60405190151581526020016100f6565b6101cb610fcf565b600060045460016101dc919061156c565b604080516080810182528881526020808201899052818301889052606082018790528251610140810184528481523391810191909152929350600192909160009190810184815260208082018f905260408083018f9052606083018e905260006080840181905260a0840181905260c0840181905260e09093018690526002805460018101825593528351600c9093027f405787fa12a823e0f2b7631cc41b3ba8828b3321ca811111fa75cd3aa3bb5ace8101938455918401517f405787fa12a823e0f2b7631cc41b3ba8828b3321ca811111fa75cd3aa3bb5acf90920180546001600160a01b039093166001600160a01b03198416811782559185015194955085949290916001600160a81b031990911617600160a01b836003811115610306576103066111a5565b02179055506060820151805161032691600284019160209091019061104c565b506080820151805161034291600384019160209091019061104c565b5060a0820151805161035e91600484019160209091019061104c565b5060c082015160058201805460ff191691151591909117905560e0820151600682015561010082015160078201556101208201518051805160088401916103aa9183916020019061104c565b5060208281015180516103c3926001850192019061104c565b50604082015180516103df91600284019160209091019061104c565b50606082015180516103fb91600384019160209091019061104c565b50503360009081526003602081815260409283902087518155908701516001820180546001600160a01b031981166001600160a01b0390931692831782559489015189985092965091945090926001600160a81b0319161790600160a01b90849081111561046b5761046b6111a5565b02179055506060820151805161048b91600284019160209091019061104c565b50608082015180516104a791600384019160209091019061104c565b5060a082015180516104c391600484019160209091019061104c565b5060c082015160058201805460ff191691151591909117905560e08201516006820155610100820151600782015561012082015180518051600884019161050f9183916020019061104c565b506020828101518051610528926001850192019061104c565b506040820151805161054491600284019160209091019061104c565b506060820151805161056091600384019160209091019061104c565b505060048054935091506000905061057783611584565b91905055506105863384610f7c565b9b9a5050505050505050505050565b61059d610fcf565b6001600160a01b038281166000908152600360208181526040928390208351610140810185528154815260018201549586169281019290925290939092840191600160a01b90910460ff16908111156105f8576105f86111a5565b6003811115610609576106096111a5565b815260200160028201805461061d9061159f565b80601f01602080910402602001604051908101604052809291908181526020018280546106499061159f565b80156106965780601f1061066b57610100808354040283529160200191610696565b820191906000526020600020905b81548152906001019060200180831161067957829003601f168201915b505050505081526020016003820180546106af9061159f565b80601f01602080910402602001604051908101604052809291908181526020018280546106db9061159f565b80156107285780601f106106fd57610100808354040283529160200191610728565b820191906000526020600020905b81548152906001019060200180831161070b57829003601f168201915b505050505081526020016004820180546107419061159f565b80601f016020809104026020016040519081016040528092919081815260200182805461076d9061159f565b80156107ba5780601f1061078f576101008083540402835291602001916107ba565b820191906000526020600020905b81548152906001019060200180831161079d57829003601f168201915b505050505081526020016005820160009054906101000a900460ff161515151581526020016006820154815260200160078201548152602001600882016040518060800160405290816000820180546108129061159f565b80601f016020809104026020016040519081016040528092919081815260200182805461083e9061159f565b801561088b5780601f106108605761010080835404028352916020019161088b565b820191906000526020600020905b81548152906001019060200180831161086e57829003601f168201915b505050505081526020016001820180546108a49061159f565b80601f01602080910402602001604051908101604052809291908181526020018280546108d09061159f565b801561091d5780601f106108f25761010080835404028352916020019161091d565b820191906000526020600020905b81548152906001019060200180831161090057829003601f168201915b505050505081526020016002820180546109369061159f565b80601f01602080910402602001604051908101604052809291908181526020018280546109629061159f565b80156109af5780601f10610984576101008083540402835291602001916109af565b820191906000526020600020905b81548152906001019060200180831161099257829003601f168201915b505050505081526020016003820180546109c89061159f565b80601f01602080910402602001604051908101604052809291908181526020018280546109f49061159f565b8015610a415780601f10610a1657610100808354040283529160200191610a41565b820191906000526020600020905b815481529060010190602001808311610a2457829003601f168201915b5050509190925250505090525092915050565b60606002805480602002602001604051908101604052809291908181526020016000905b82821015610f3d5760008481526020908190206040805161014081018252600c86029092018054835260018101546001600160a01b03811694840194909452919290830190600160a01b900460ff166003811115610ad857610ad86111a5565b6003811115610ae957610ae96111a5565b8152602001600282018054610afd9061159f565b80601f0160208091040260200160405190810160405280929190818152602001828054610b299061159f565b8015610b765780601f10610b4b57610100808354040283529160200191610b76565b820191906000526020600020905b815481529060010190602001808311610b5957829003601f168201915b50505050508152602001600382018054610b8f9061159f565b80601f0160208091040260200160405190810160405280929190818152602001828054610bbb9061159f565b8015610c085780601f10610bdd57610100808354040283529160200191610c08565b820191906000526020600020905b815481529060010190602001808311610beb57829003601f168201915b50505050508152602001600482018054610c219061159f565b80601f0160208091040260200160405190810160405280929190818152602001828054610c4d9061159f565b8015610c9a5780601f10610c6f57610100808354040283529160200191610c9a565b820191906000526020600020905b815481529060010190602001808311610c7d57829003601f168201915b505050505081526020016005820160009054906101000a900460ff16151515158152602001600682015481526020016007820154815260200160088201604051806080016040529081600082018054610cf29061159f565b80601f0160208091040260200160405190810160405280929190818152602001828054610d1e9061159f565b8015610d6b5780601f10610d4057610100808354040283529160200191610d6b565b820191906000526020600020905b815481529060010190602001808311610d4e57829003601f168201915b50505050508152602001600182018054610d849061159f565b80601f0160208091040260200160405190810160405280929190818152602001828054610db09061159f565b8015610dfd5780601f10610dd257610100808354040283529160200191610dfd565b820191906000526020600020905b815481529060010190602001808311610de057829003601f168201915b50505050508152602001600282018054610e169061159f565b80601f0160208091040260200160405190810160405280929190818152602001828054610e429061159f565b8015610e8f5780601f10610e6457610100808354040283529160200191610e8f565b820191906000526020600020905b815481529060010190602001808311610e7257829003601f168201915b50505050508152602001600382018054610ea89061159f565b80601f0160208091040260200160405190810160405280929190818152602001828054610ed49061159f565b8015610f215780601f10610ef657610100808354040283529160200191610f21565b820191906000526020600020905b815481529060010190602001808311610f0457829003601f168201915b5050505050815250508152505081526020019060010190610a78565b50505050905090565b6001600160a01b0381166000908152600360205260408120600201805482918291610f709061159f565b91909111949350505050565b6001600160a01b0382166000908152602081905260409020805482919060ff19166001836003811115610fb157610fb16111a5565b021790555060018054906000610fc683611584565b91905055505050565b60408051610140810182526000808252602082018190529091820190815260200160608152602001606081526020016060815260200160001515815260200160008152602001600081526020016110476040518060800160405280606081526020016060815260200160608152602001606081525090565b905290565b8280546110589061159f565b90600052602060002090601f01602090048101928261107a57600085556110c0565b82601f1061109357805160ff19168380011785556110c0565b828001600101855582156110c0579182015b828111156110c05782518255916020019190600101906110a5565b506110cc9291506110d0565b5090565b5b808211156110cc57600081556001016110d1565b6000815180845260005b8181101561110b576020818501810151868301820152016110ef565b8181111561111d576000602083870101525b50601f01601f19169290920160200192915050565b60608152600061114560608301866110e5565b828103602084015261115781866110e5565b9050828103604084015261116b81856110e5565b9695505050505050565b60006020828403121561118757600080fd5b81356001600160a01b038116811461119e57600080fd5b9392505050565b634e487b7160e01b600052602160045260246000fd5b600481106111d957634e487b7160e01b600052602160045260246000fd5b9052565b602081016111eb82846111bb565b92915050565b634e487b7160e01b600052604160045260246000fd5b600082601f83011261121857600080fd5b813567ffffffffffffffff80821115611233576112336111f1565b604051601f8301601f19908116603f0116810190828211818310171561125b5761125b6111f1565b8160405283815286602085880101111561127457600080fd5b836020870160208301376000602085830101528094505050505092915050565b600080600080600080600060e0888a0312156112af57600080fd5b873567ffffffffffffffff808211156112c757600080fd5b6112d38b838c01611207565b985060208a01359150808211156112e957600080fd5b6112f58b838c01611207565b975060408a013591508082111561130b57600080fd5b6113178b838c01611207565b965060608a013591508082111561132d57600080fd5b6113398b838c01611207565b955060808a013591508082111561134f57600080fd5b61135b8b838c01611207565b945060a08a013591508082111561137157600080fd5b61137d8b838c01611207565b935060c08a013591508082111561139357600080fd5b506113a08a828b01611207565b91505092959891949750929550565b60008151608084526113c460808501826110e5565b9050602083015184820360208601526113dd82826110e5565b915050604083015184820360408601526113f782826110e5565b9150506060830151848203606086015261141182826110e5565b95945050505050565b600061014082518452602083015161143d60208601826001600160a01b03169052565b50604083015161145060408601826111bb565b506060830151816060860152611468828601826110e5565b9150506080830151848203608086015261148282826110e5565b91505060a083015184820360a086015261149c82826110e5565b91505060c08301516114b260c086018215159052565b5060e083015160e0850152610100808401518186015250610120808401518583038287015261116b83826113af565b60208152600061119e602083018461141a565b6000602080830181845280855180835260408601915060408160051b870101925083870160005b8281101561154957603f1988860301845261153785835161141a565b9450928501929085019060010161151b565b5092979650505050505050565b634e487b7160e01b600052601160045260246000fd5b6000821982111561157f5761157f611556565b500190565b600060001982141561159857611598611556565b5060010190565b600181811c908216806115b357607f821691505b602082108114156115d457634e487b7160e01b600052602260045260246000fd5b5091905056fea264697066735822122093f98c7c8fdfed4e4c97431b843a47b28d8081697528dddb712e723e66ad33be64736f6c63430008090033",
  "immutableReferences": {},
  "source": "// SPDX-License-Identifier: GPL-3.0\r\n\r\npragma solidity >=0.7.0 <0.9.0;\r\n\r\nimport './UserContract.sol';\r\n\r\n/**\r\n* @title ProducerContract\r\n* @dev Producer resource that represent a user that can request a inspection\r\n*/\r\ncontract ProducerContract is UserContract {\r\n    struct Producer {\r\n        uint id;\r\n        address producer_wallet;\r\n        UserType userType;\r\n        string name;\r\n        string document;\r\n        string documentType;\r\n        bool recentInspection;\r\n        uint totalRequests;\r\n        uint isaAverage;\r\n        PropertyAddress property_address;\r\n    }\r\n    \r\n    struct PropertyAddress {\r\n        string country;\r\n        string state;\r\n        string city;\r\n        string cep;\r\n    }\r\n    \r\n    Producer[] producersArray;\r\n    mapping(address => Producer) producers;\r\n    uint public producersCount;\r\n    \r\n    /**\r\n   * @dev Allow a new register of producer\r\n   * @param name the name of the producer\r\n   * @param document the document of producer\r\n   * @param documentType the document type type of producer. CPF/CNPJ\r\n   * @param country the country where the producer is\r\n   * @param state the state of the producer\r\n   * @param city the of the producer\r\n   * @param cep the cep of the producer\r\n   */\r\n    function addProducer( \r\n        string memory name, \r\n        string memory document, \r\n        string memory documentType, \r\n        string memory country, \r\n        string memory state, \r\n        string memory city, \r\n        string memory cep) public returns(Producer memory) {\r\n            \r\n            uint id = producersCount + 1;\r\n            UserType userType = UserType.PRODUCER;\r\n            \r\n            PropertyAddress memory property_address = PropertyAddress(country, state, city, cep);\r\n            Producer memory producer = Producer(id, msg.sender, userType, name, document, documentType, false, 0, 0, property_address);\r\n            \r\n            producersArray.push(producer);\r\n            producers[msg.sender] = producer;\r\n            producersCount++;\r\n            addUser(msg.sender, userType);\r\n            \r\n            return producer;\r\n    }\r\n    \r\n    /**\r\n   * @dev Returns all registered producers\r\n   * @return Producer struct array\r\n   */\r\n    function getProducers() public view returns(Producer[] memory) {\r\n        return producersArray;\r\n    }\r\n    \r\n    /**\r\n   * @dev Return a specific producer\r\n   * @param addr the address of the producer.\r\n   */\r\n    function getProducer(address addr) public view returns(Producer memory producer) {\r\n        return producers[addr];\r\n    }\r\n    \r\n    /**\r\n   * @dev Check if a specific producer exists\r\n   * @return a bool that represent if a producer exists or not\r\n   */\r\n    function producerExists(address addr) public view returns(bool) {\r\n        bool exists = bytes(producers[addr].name).length > 0;\r\n        return exists;\r\n    }\r\n}",
  "sourcePath": "C:\\Users\\Breno\\Downloads\\SintropContract\\contracts\\ProducerContract.sol",
  "compiler": {
    "name": "solc",
    "version": "0.8.9+commit.e5eed63a.Emscripten.clang"
  },
  "schemaVersion": "3.2.3",
  "updatedAt": "2021-11-29T16:47:04.298Z",
  "devdoc": {
    "details": "Producer resource that represent a user that can request a inspection",
    "kind": "dev",
    "methods": {
      "addProducer(string,string,string,string,string,string,string)": {
        "details": "Allow a new register of producer",
        "params": {
          "cep": "the cep of the producer",
          "city": "the of the producer",
          "country": "the country where the producer is",
          "document": "the document of producer",
          "documentType": "the document type type of producer. CPF/CNPJ",
          "name": "the name of the producer",
          "state": "the state of the producer"
        }
      },
      "getProducer(address)": {
        "details": "Return a specific producer",
        "params": {
          "addr": "the address of the producer."
        }
      },
      "getProducers()": {
        "details": "Returns all registered producers",
        "returns": {
          "_0": "Producer struct array"
        }
      },
      "getUser(address)": {
        "details": "Returns the user type if the user is registered",
        "params": {
          "addr": "the user address that want check if exists"
        }
      },
      "getUserTypes()": {
        "details": "Returns the enum UserType of the system"
      },
      "producerExists(address)": {
        "details": "Check if a specific producer exists",
        "returns": {
          "_0": "a bool that represent if a producer exists or not"
        }
      }
    },
    "title": "ProducerContract",
    "version": 1
  },
  "userdoc": {
    "kind": "user",
    "methods": {},
    "version": 1
  }
}