{
  "contractName": "SATdistribution",
  "abi": [
    {
      "inputs": [],
      "name": "addToPoolProducer",
      "outputs": [],
      "stateMutability": "nonpayable",
      "type": "function"
    },
    {
      "inputs": [],
      "name": "addToPoolActivist",
      "outputs": [],
      "stateMutability": "nonpayable",
      "type": "function"
    }
  ],
  "bytecode": "0x6080604052348015600f57600080fd5b50606f80601d6000396000f3fe6080604052348015600f57600080fd5b506004361060325760003560e01c80632f359df1146037578063588a9745146037575b600080fd5b00fea264697066735822122022ba9f284505264e062f5cdf071734f8a18ac976283bc1b40321211d426c9c5564736f6c63430008090033",
  "immutableReferences": {},
  "source": "pragma solidity ^0.8.0;\r\n// SPDX-License-Identifier: GPL-3.0-or-later\r\n\r\n\r\nimport \"@openzeppelin/contracts/token/ERC20/ERC20.sol\";\r\n\r\ncontract SATdistribution {\r\n\r\n\r\n    function approveProducer() private {\r\n        // requer average ISA > 10 \r\n        // requer mínimo de inspeções = 2 \r\n        // aprovar\r\n    }\r\n    \r\n    function approveActivist() private {\r\n        // requer average ISA > 10 \r\n        // requer mínimo de inspeções = 2 \r\n        // aprovar\r\n    }\r\n    \r\n    function addToPoolProducer() public {\r\n        // requer produtor aprovado\r\n        // \r\n    }\r\n    \r\n     function addToPoolActivist() public {\r\n        // requer produtor aprovado\r\n        // \r\n    }\r\n}    \r\n",
  "sourcePath": "C:/Users/Breno/Desktop/Sintrop/SintropContract/contracts/SAT-pools.sol",
  "compiler": {
    "name": "solc",
    "version": "0.8.9+commit.e5eed63a.Emscripten.clang"
  },
  "schemaVersion": "3.2.3",
  "updatedAt": "2022-01-07T13:04:13.285Z",
  "devdoc": {
    "kind": "dev",
    "methods": {},
    "version": 1
  },
  "userdoc": {
    "kind": "user",
    "methods": {},
    "version": 1
  }
}