{
  "contractName": "SATdistribution",
  "abi": [
    {
      "inputs": [],
      "name": "addToPoolProducer",
      "outputs": [],
      "stateMutability": "nonpayable",
      "type": "function"
    },
    {
      "inputs": [],
      "name": "addToPoolActivist",
      "outputs": [],
      "stateMutability": "nonpayable",
      "type": "function"
    }
  ],
  "bytecode": "0x6080604052348015600f57600080fd5b50606f80601d6000396000f3fe6080604052348015600f57600080fd5b506004361060325760003560e01c80632f359df1146037578063588a9745146037575b600080fd5b00fea26469706673582212207876f12e2243eebf3dd0767637556334e3bcc4fd8e4bcd1097f9083a1eb4b79664736f6c63430008090033",
  "immutableReferences": {},
  "source": "pragma solidity ^0.8.0;\n// SPDX-License-Identifier: GPL-3.0-or-later\n\n\nimport \"@openzeppelin/contracts/token/ERC20/ERC20.sol\";\n\ncontract SATdistribution {\n\n\n    function approveProducer() private {\n        // requer average ISA > 10 \n        // requer mínimo de inspeções = 2 \n        // aprovar\n    }\n    \n    function approveActivist() private {\n        // requer average ISA > 10 \n        // requer mínimo de inspeções = 2 \n        // aprovar\n    }\n    \n    function addToPoolProducer() public {\n        // requer produtor aprovado\n        // \n    }\n    \n     function addToPoolActivist() public {\n        // requer produtor aprovado\n        // \n    }\n}    \n",
  "sourcePath": "C:/Users/Breno/Downloads/SintropContract/contracts/SAT-pools.sol",
  "compiler": {
    "name": "solc",
    "version": "0.8.9+commit.e5eed63a.Emscripten.clang"
  },
  "schemaVersion": "3.2.3",
  "updatedAt": "2021-11-29T16:47:04.306Z",
  "devdoc": {
    "kind": "dev",
    "methods": {},
    "version": 1
  },
  "userdoc": {
    "kind": "user",
    "methods": {},
    "version": 1
  }
}