{
  "contractName": "SATdistribution",
  "abi": [
    {
      "inputs": [],
      "name": "addToPoolProducer",
      "outputs": [],
      "stateMutability": "nonpayable",
      "type": "function"
    },
    {
      "inputs": [],
      "name": "addToPoolActivist",
      "outputs": [],
      "stateMutability": "nonpayable",
      "type": "function"
    }
  ],
  "bytecode": "0x6080604052348015600f57600080fd5b50606f80601d6000396000f3fe6080604052348015600f57600080fd5b506004361060325760003560e01c80632f359df1146037578063588a9745146037575b600080fd5b00fea264697066735822122092b48b002fd7abeca35a0096aa4c9117000eace76b4f5465c3ec3c3b1be2e0c464736f6c634300080b0033",
  "immutableReferences": {},
  "source": "pragma solidity ^0.8.0;\r\n// SPDX-License-Identifier: GPL-3.0-or-later\r\n\r\n\r\nimport \"@openzeppelin/contracts/token/ERC20/ERC20.sol\";\r\n\r\ncontract SATdistribution {\r\n\r\n\r\n    function approveProducer() private {\r\n        // requer average ISA > 10 \r\n        // requer mínimo de inspeções = 2 \r\n        // aprovar\r\n    }\r\n    \r\n    function approveActivist() private {\r\n        // requer average ISA > 10 \r\n        // requer mínimo de inspeções = 2 \r\n        // aprovar\r\n    }\r\n    \r\n    function addToPoolProducer() public {\r\n        // requer produtor aprovado\r\n        // \r\n    }\r\n    \r\n     function addToPoolActivist() public {\r\n        // requer produtor aprovado\r\n        // \r\n    }\r\n}    \r\n",
  "sourcePath": "C:\\Users\\felip\\OneDrive\\ドキュメント\\Ionic\\SintropContract\\contracts\\SAT-pools.sol",
  "compiler": {
    "name": "solc",
    "version": "0.8.11+commit.d7f03943.Emscripten.clang"
  },
  "schemaVersion": "3.4.3",
  "updatedAt": "2022-01-07T02:43:17.778Z",
  "devdoc": {
    "kind": "dev",
    "methods": {},
    "version": 1
  },
  "userdoc": {
    "kind": "user",
    "methods": {},
    "version": 1
  }
}