{
  "contractName": "SatTokenERC20",
  "abi": [
    {
      "inputs": [
        {
          "internalType": "uint256",
          "name": "total",
          "type": "uint256"
        },
        {
          "internalType": "address",
          "name": "_producerFundsAddress",
          "type": "address"
        },
        {
          "internalType": "address",
          "name": "_activistFundsAddress",
          "type": "address"
        },
        {
          "internalType": "address",
          "name": "sintropAddress",
          "type": "address"
        }
      ],
      "stateMutability": "nonpayable",
      "type": "constructor"
    },
    {
      "anonymous": false,
      "inputs": [
        {
          "indexed": true,
          "internalType": "address",
          "name": "tokenOwner",
          "type": "address"
        },
        {
          "indexed": true,
          "internalType": "address",
          "name": "spender",
          "type": "address"
        },
        {
          "indexed": false,
          "internalType": "uint256",
          "name": "tokens",
          "type": "uint256"
        }
      ],
      "name": "Approval",
      "type": "event"
    },
    {
      "anonymous": false,
      "inputs": [
        {
          "indexed": true,
          "internalType": "address",
          "name": "from",
          "type": "address"
        },
        {
          "indexed": true,
          "internalType": "address",
          "name": "to",
          "type": "address"
        },
        {
          "indexed": false,
          "internalType": "uint256",
          "name": "tokens",
          "type": "uint256"
        }
      ],
      "name": "Transfer",
      "type": "event"
    },
    {
      "inputs": [],
      "name": "decimals",
      "outputs": [
        {
          "internalType": "uint8",
          "name": "",
          "type": "uint8"
        }
      ],
      "stateMutability": "view",
      "type": "function",
      "constant": true
    },
    {
      "inputs": [],
      "name": "name",
      "outputs": [
        {
          "internalType": "string",
          "name": "",
          "type": "string"
        }
      ],
      "stateMutability": "view",
      "type": "function",
      "constant": true
    },
    {
      "inputs": [],
      "name": "symbol",
      "outputs": [
        {
          "internalType": "string",
          "name": "",
          "type": "string"
        }
      ],
      "stateMutability": "view",
      "type": "function",
      "constant": true
    },
    {
      "inputs": [],
      "name": "producerFundsAddress",
      "outputs": [
        {
          "internalType": "address",
          "name": "",
          "type": "address"
        }
      ],
      "stateMutability": "view",
      "type": "function",
      "constant": true
    },
    {
      "inputs": [],
      "name": "activistFundsAddress",
      "outputs": [
        {
          "internalType": "address",
          "name": "",
          "type": "address"
        }
      ],
      "stateMutability": "view",
      "type": "function",
      "constant": true
    },
    {
      "inputs": [
        {
          "internalType": "address",
          "name": "from",
          "type": "address"
        },
        {
          "internalType": "address",
          "name": "delegate",
          "type": "address"
        }
      ],
      "name": "approveWith",
      "outputs": [
        {
          "internalType": "uint256",
          "name": "",
          "type": "uint256"
        }
      ],
      "stateMutability": "nonpayable",
      "type": "function"
    },
    {
      "inputs": [],
      "name": "totalSupply",
      "outputs": [
        {
          "internalType": "uint256",
          "name": "",
          "type": "uint256"
        }
      ],
      "stateMutability": "view",
      "type": "function",
      "constant": true
    },
    {
      "inputs": [
        {
          "internalType": "address",
          "name": "tokenOwner",
          "type": "address"
        }
      ],
      "name": "balanceOf",
      "outputs": [
        {
          "internalType": "uint256",
          "name": "",
          "type": "uint256"
        }
      ],
      "stateMutability": "view",
      "type": "function",
      "constant": true
    },
    {
      "inputs": [
        {
          "internalType": "address",
          "name": "receiver",
          "type": "address"
        },
        {
          "internalType": "uint256",
          "name": "numTokens",
          "type": "uint256"
        }
      ],
      "name": "transfer",
      "outputs": [
        {
          "internalType": "bool",
          "name": "",
          "type": "bool"
        }
      ],
      "stateMutability": "nonpayable",
      "type": "function"
    },
    {
      "inputs": [
        {
          "internalType": "address",
          "name": "delegate",
          "type": "address"
        },
        {
          "internalType": "uint256",
          "name": "numTokens",
          "type": "uint256"
        }
      ],
      "name": "approve",
      "outputs": [
        {
          "internalType": "bool",
          "name": "",
          "type": "bool"
        }
      ],
      "stateMutability": "nonpayable",
      "type": "function"
    },
    {
      "inputs": [
        {
          "internalType": "address",
          "name": "owner",
          "type": "address"
        },
        {
          "internalType": "address",
          "name": "delegate",
          "type": "address"
        }
      ],
      "name": "allowance",
      "outputs": [
        {
          "internalType": "uint256",
          "name": "",
          "type": "uint256"
        }
      ],
      "stateMutability": "view",
      "type": "function",
      "constant": true
    },
    {
      "inputs": [
        {
          "internalType": "address",
          "name": "owner",
          "type": "address"
        },
        {
          "internalType": "address",
          "name": "buyer",
          "type": "address"
        },
        {
          "internalType": "uint256",
          "name": "numTokens",
          "type": "uint256"
        }
      ],
      "name": "transferFrom",
      "outputs": [
        {
          "internalType": "bool",
          "name": "",
          "type": "bool"
        }
      ],
      "stateMutability": "nonpayable",
      "type": "function"
    }
  ],
  "bytecode": "0x608060405234801561001057600080fd5b506040516109c13803806109c183398101604081905261002f91610132565b6002849055600580546001600160a01b038084166001600160a01b03199283161790925560038054868416908316179055600480549285169290911691909117905561007b8383610084565b505050506101c6565b600060028054610094919061017f565b33600090815260208190526040902081905560028054919250906100b99083906101a1565b6100c3919061017f565b6001600160a01b038416600090815260208190526040902055600280546100eb9083906101a1565b6100f5919061017f565b6001600160a01b039092166000908152602081905260409020919091555050565b80516001600160a01b038116811461012d57600080fd5b919050565b6000806000806080858703121561014857600080fd5b8451935061015860208601610116565b925061016660408601610116565b915061017460608601610116565b905092959194509250565b60008261019c57634e487b7160e01b600052601260045260246000fd5b500490565b6000828210156101c157634e487b7160e01b600052601160045260246000fd5b500390565b6107ec806101d56000396000f3fe608060405234801561001057600080fd5b50600436106100b45760003560e01c806370a082311161007157806370a082311461018457806391b3ce81146101ad57806395d89b41146101d2578063a9059cbb146101f4578063dd62ed3e14610207578063f21111f01461024057600080fd5b806306fdde03146100b95780630821e6791461010b578063095ea7b31461012c57806318160ddd1461014f57806323b872dd14610157578063313ce5671461016a575b600080fd5b6100f56040518060400160405280601d81526020017f5355535441494e41424c45204147524943554c5455524520544f4b454e00000081525081565b604051610102919061061d565b60405180910390f35b61011e61011936600461068e565b610251565b604051908152602001610102565b61013f61013a3660046106c1565b610377565b6040519015158152602001610102565b60025461011e565b61013f6101653660046106eb565b6103e3565b610172601281565b60405160ff9091168152602001610102565b61011e610192366004610727565b6001600160a01b031660009081526020819052604090205490565b6003546001600160a01b03165b6040516001600160a01b039091168152602001610102565b6100f56040518060400160405280600381526020016214d05560ea1b81525081565b61013f6102023660046106c1565b61052b565b61011e61021536600461068e565b6001600160a01b03918216600090815260016020908152604080832093909416825291909152205490565b6004546001600160a01b03166101ba565b6003546000906001600160a01b0384811691161480159061028057506004546001600160a01b03848116911614155b1561028d57506000610371565b6005546040516346782a2160e11b81526001600160a01b0384811660048301526000921690638cf054429060240160206040518083038186803b1580156102d357600080fd5b505afa1580156102e7573d6000803e3d6000fd5b505050506040513d601f19601f8201168201806040525081019061030b9190610742565b6001600160a01b038581166000818152600160209081526040808320948916808452948252918290208590559051848152939450919290917f8c5be1e5ebec7d5bd14f71427d1e84f3dd0314c0f7b2291e5b200ac8c7c3b925910160405180910390a390505b92915050565b3360008181526001602090815260408083206001600160a01b038716808552925280832085905551919290917f8c5be1e5ebec7d5bd14f71427d1e84f3dd0314c0f7b2291e5b200ac8c7c3b925906103d29086815260200190565b60405180910390a350600192915050565b6001600160a01b03831660009081526020819052604081205482111561040857600080fd5b6001600160a01b038416600090815260016020908152604080832033845290915290205482111561043857600080fd5b6001600160a01b03841660009081526020819052604090205461045b90836105db565b6001600160a01b03851660009081526020818152604080832093909355600181528282203383529052205461049090836105db565b6001600160a01b03808616600090815260016020908152604080832033845282528083209490945591861681529081905220546104cd90836105fe565b6001600160a01b038481166000818152602081815260409182902094909455518581529092918716917fddf252ad1be2c89b69c2b068fc378daa952ba7f163c4a11628f55a4df523b3ef910160405180910390a35060019392505050565b3360009081526020819052604081205482111561054757600080fd5b3360009081526020819052604090205461056190836105db565b33600090815260208190526040808220929092556001600160a01b0385168152205461058d90836105fe565b6001600160a01b038416600081815260208181526040918290209390935551848152909133917fddf252ad1be2c89b69c2b068fc378daa952ba7f163c4a11628f55a4df523b3ef91016103d2565b6000828211156105ed576105ed61075b565b6105f78284610787565b9392505050565b60008061060b838561079e565b9050838110156105f7576105f761075b565b600060208083528351808285015260005b8181101561064a5785810183015185820160400152820161062e565b8181111561065c576000604083870101525b50601f01601f1916929092016040019392505050565b80356001600160a01b038116811461068957600080fd5b919050565b600080604083850312156106a157600080fd5b6106aa83610672565b91506106b860208401610672565b90509250929050565b600080604083850312156106d457600080fd5b6106dd83610672565b946020939093013593505050565b60008060006060848603121561070057600080fd5b61070984610672565b925061071760208501610672565b9150604084013590509250925092565b60006020828403121561073957600080fd5b6105f782610672565b60006020828403121561075457600080fd5b5051919050565b634e487b7160e01b600052600160045260246000fd5b634e487b7160e01b600052601160045260246000fd5b60008282101561079957610799610771565b500390565b600082198211156107b1576107b1610771565b50019056fea26469706673582212207364ee1161ac1ebbdfb61be62f6c756f84103adbf503485d5a4026fad95c067664736f6c63430008090033",
  "immutableReferences": {},
  "source": "pragma solidity >=0.5.0 <=0.9.0;\r\n// SPDX-License-Identifier: GPL-3.0-or-later\r\n\r\ninterface SintropInterface {\r\n    function getProducerApprove(address delegate) external view returns(uint);\r\n}\r\n\r\ncontract SatTokenERC20 {\r\n    string public constant name = \"SUSTAINABLE AGRICULTURE TOKEN\";\r\n    string public constant symbol = \"SAT\";\r\n    uint8 public constant decimals = 18;  \r\n\r\n    event Approval(address indexed tokenOwner, address indexed spender, uint tokens);\r\n    event Transfer(address indexed from, address indexed to, uint tokens);\r\n\r\n    mapping(address => uint256) balances;\r\n    mapping(address => mapping (address => uint256)) allowed;\r\n\r\n    uint256 totalSupply_;\r\n    address producerFundsAddress_;\r\n    address activistFundsAddress_;\r\n\r\n    using SafeMath for uint256;\r\n    SintropInterface sintrop;\r\n\r\n    constructor(uint256 total, address _producerFundsAddress, address _activistFundsAddress, address sintropAddress) {  \r\n        totalSupply_ = total;\r\n        sintrop = SintropInterface(sintropAddress);\r\n        producerFundsAddress_ = _producerFundsAddress;\r\n        activistFundsAddress_ = _activistFundsAddress;\r\n        shareFunds(_producerFundsAddress, _activistFundsAddress);\r\n    }\r\n\r\n    function producerFundsAddress() public view returns(address) {\r\n        return producerFundsAddress_;\r\n    }\r\n\r\n    function activistFundsAddress() public view returns(address) {\r\n        return activistFundsAddress_;\r\n    }\r\n\r\n    function shareFunds(address _producerFundsAddress, address _activistFundsAddress) internal {\r\n        uint ownerFunds = totalSupply_/2;\r\n        balances[msg.sender] = ownerFunds;\r\n        balances[_producerFundsAddress] = (totalSupply_ - ownerFunds)/2;\r\n        balances[_activistFundsAddress] = (totalSupply_ - ownerFunds)/2;\r\n    }\r\n\r\n    function approveWith(address from, address delegate) public returns(uint) {\r\n        if (from != producerFundsAddress_ && from != activistFundsAddress_) return 0;\r\n\r\n        uint numTokens = sintrop.getProducerApprove(delegate);\r\n        allowed[from][delegate] = numTokens;\r\n        emit Approval(from, delegate, numTokens);\r\n        return numTokens;\r\n    }\r\n\r\n    function totalSupply() public view returns (uint256) {\r\n        return totalSupply_;\r\n    }\r\n    \r\n    function balanceOf(address tokenOwner) public view returns (uint) {\r\n        return balances[tokenOwner];\r\n    }\r\n\r\n    function transfer(address receiver, uint numTokens) public returns (bool) {\r\n        require(numTokens <= balances[msg.sender]);\r\n        balances[msg.sender] = balances[msg.sender].sub(numTokens);\r\n        balances[receiver] = balances[receiver].add(numTokens);\r\n        emit Transfer(msg.sender, receiver, numTokens);\r\n        return true;\r\n    }\r\n\r\n    function approve(address delegate, uint numTokens) public returns (bool) {\r\n        allowed[msg.sender][delegate] = numTokens;\r\n        emit Approval(msg.sender, delegate, numTokens);\r\n        return true;\r\n    }\r\n\r\n    function allowance(address owner, address delegate) public view returns (uint) {\r\n        return allowed[owner][delegate];\r\n    }\r\n\r\n    function transferFrom(address owner, address buyer, uint numTokens) public returns (bool) {\r\n        require(numTokens <= balances[owner]);    \r\n        require(numTokens <= allowed[owner][msg.sender]);\r\n    \r\n        balances[owner] = balances[owner].sub(numTokens);\r\n        allowed[owner][msg.sender] = allowed[owner][msg.sender].sub(numTokens);\r\n        balances[buyer] = balances[buyer].add(numTokens);\r\n        emit Transfer(owner, buyer, numTokens);\r\n        return true;\r\n    }\r\n}\r\n\r\nlibrary SafeMath { \r\n    function sub(uint256 a, uint256 b) internal pure returns (uint256) {\r\n      assert(b <= a);\r\n      return a - b;\r\n    }\r\n    \r\n    function add(uint256 a, uint256 b) internal pure returns (uint256) {\r\n      uint256 c = a + b;\r\n      assert(c >= a);\r\n      return c;\r\n    }\r\n}",
  "sourcePath": "C:/Users/Breno/Downloads/SintropContract (1)/contracts/SatToken.sol",
  "compiler": {
    "name": "solc",
    "version": "0.8.9+commit.e5eed63a.Emscripten.clang"
  },
  "schemaVersion": "3.2.3",
  "updatedAt": "2021-12-21T17:22:00.336Z",
  "networkType": "ethereum",
  "devdoc": {
    "kind": "dev",
    "methods": {},
    "version": 1
  },
  "userdoc": {
    "kind": "user",
    "methods": {},
    "version": 1
  }
}