{
  "contractName": "SatTokenERC20",
  "abi": [
    {
      "inputs": [
        {
          "internalType": "uint256",
          "name": "total",
          "type": "uint256"
        }
      ],
      "stateMutability": "nonpayable",
      "type": "constructor"
    },
    {
      "anonymous": false,
      "inputs": [
        {
          "indexed": true,
          "internalType": "address",
          "name": "tokenOwner",
          "type": "address"
        },
        {
          "indexed": true,
          "internalType": "address",
          "name": "spender",
          "type": "address"
        },
        {
          "indexed": false,
          "internalType": "uint256",
          "name": "tokens",
          "type": "uint256"
        }
      ],
      "name": "Approval",
      "type": "event"
    },
    {
      "anonymous": false,
      "inputs": [
        {
          "indexed": true,
          "internalType": "address",
          "name": "from",
          "type": "address"
        },
        {
          "indexed": true,
          "internalType": "address",
          "name": "to",
          "type": "address"
        },
        {
          "indexed": false,
          "internalType": "uint256",
          "name": "tokens",
          "type": "uint256"
        }
      ],
      "name": "Transfer",
      "type": "event"
    },
    {
      "inputs": [],
      "name": "decimals",
      "outputs": [
        {
          "internalType": "uint8",
          "name": "",
          "type": "uint8"
        }
      ],
      "stateMutability": "view",
      "type": "function",
      "constant": true
    },
    {
      "inputs": [],
      "name": "name",
      "outputs": [
        {
          "internalType": "string",
          "name": "",
          "type": "string"
        }
      ],
      "stateMutability": "view",
      "type": "function",
      "constant": true
    },
    {
      "inputs": [],
      "name": "symbol",
      "outputs": [
        {
          "internalType": "string",
          "name": "",
          "type": "string"
        }
      ],
      "stateMutability": "view",
      "type": "function",
      "constant": true
    },
    {
      "inputs": [
        {
          "internalType": "address",
          "name": "_fundAddress",
          "type": "address"
        },
        {
          "internalType": "uint256",
          "name": "_numTokens",
          "type": "uint256"
        }
      ],
      "name": "addContractPool",
      "outputs": [
        {
          "internalType": "bool",
          "name": "",
          "type": "bool"
        }
      ],
      "stateMutability": "nonpayable",
      "type": "function"
    },
    {
      "inputs": [
        {
          "internalType": "address",
          "name": "delegate",
          "type": "address"
        },
        {
          "internalType": "uint256",
          "name": "numTokens",
          "type": "uint256"
        }
      ],
      "name": "approveWith",
      "outputs": [
        {
          "internalType": "uint256",
          "name": "",
          "type": "uint256"
        }
      ],
      "stateMutability": "nonpayable",
      "type": "function"
    },
    {
      "inputs": [],
      "name": "totalSupply",
      "outputs": [
        {
          "internalType": "uint256",
          "name": "",
          "type": "uint256"
        }
      ],
      "stateMutability": "view",
      "type": "function",
      "constant": true
    },
    {
      "inputs": [
        {
          "internalType": "address",
          "name": "tokenOwner",
          "type": "address"
        }
      ],
      "name": "balanceOf",
      "outputs": [
        {
          "internalType": "uint256",
          "name": "",
          "type": "uint256"
        }
      ],
      "stateMutability": "view",
      "type": "function",
      "constant": true
    },
    {
      "inputs": [
        {
          "internalType": "address",
          "name": "receiver",
          "type": "address"
        },
        {
          "internalType": "uint256",
          "name": "numTokens",
          "type": "uint256"
        }
      ],
      "name": "transfer",
      "outputs": [
        {
          "internalType": "bool",
          "name": "",
          "type": "bool"
        }
      ],
      "stateMutability": "nonpayable",
      "type": "function"
    },
    {
      "inputs": [
        {
          "internalType": "address",
          "name": "delegate",
          "type": "address"
        },
        {
          "internalType": "uint256",
          "name": "numTokens",
          "type": "uint256"
        }
      ],
      "name": "approve",
      "outputs": [
        {
          "internalType": "bool",
          "name": "",
          "type": "bool"
        }
      ],
      "stateMutability": "nonpayable",
      "type": "function"
    },
    {
      "inputs": [
        {
          "internalType": "address",
          "name": "owner",
          "type": "address"
        },
        {
          "internalType": "address",
          "name": "delegate",
          "type": "address"
        }
      ],
      "name": "allowance",
      "outputs": [
        {
          "internalType": "uint256",
          "name": "",
          "type": "uint256"
        }
      ],
      "stateMutability": "view",
      "type": "function",
      "constant": true
    },
    {
      "inputs": [
        {
          "internalType": "address",
          "name": "owner",
          "type": "address"
        },
        {
          "internalType": "address",
          "name": "buyer",
          "type": "address"
        },
        {
          "internalType": "uint256",
          "name": "numTokens",
          "type": "uint256"
        }
      ],
      "name": "transferFrom",
      "outputs": [
        {
          "internalType": "bool",
          "name": "",
          "type": "bool"
        }
      ],
      "stateMutability": "nonpayable",
      "type": "function"
    }
  ],
  "bytecode": "0x608060405234801561001057600080fd5b5060405161080638038061080683398101604081905261002f91610054565b600281815561003e908261006d565b336000908152602081905260409020555061008f565b60006020828403121561006657600080fd5b5051919050565b60008261008a57634e487b7160e01b600052601260045260246000fd5b500490565b6107688061009e6000396000f3fe608060405234801561001057600080fd5b50600436106100a95760003560e01c80634d65a846116100715780634d65a8461461016257806367ff17a6146101a857806370a08231146101bb57806395d89b41146101e4578063a9059cbb14610206578063dd62ed3e1461021957600080fd5b806306fdde03146100ae578063095ea7b31461010057806318160ddd1461012357806323b872dd14610135578063313ce56714610148575b600080fd5b6100ea6040518060400160405280601d81526020017f5355535441494e41424c45204147524943554c5455524520544f4b454e00000081525081565b6040516100f791906105b2565b60405180910390f35b61011361010e366004610623565b610252565b60405190151581526020016100f7565b6002545b6040519081526020016100f7565b61011361014336600461064d565b6102be565b610150601281565b60405160ff90911681526020016100f7565b610113610170366004610623565b6001600160a01b0382166000908152600360209081526040808320805460ff1916600117905590829052812082905550600192915050565b6101276101b6366004610623565b610406565b6101276101c9366004610689565b6001600160a01b031660009081526020819052604090205490565b6100ea6040518060400160405280600381526020016214d05560ea1b81525081565b610113610214366004610623565b6104c0565b6101276102273660046106a4565b6001600160a01b03918216600090815260016020908152604080832093909416825291909152205490565b3360008181526001602090815260408083206001600160a01b038716808552925280832085905551919290917f8c5be1e5ebec7d5bd14f71427d1e84f3dd0314c0f7b2291e5b200ac8c7c3b925906102ad9086815260200190565b60405180910390a350600192915050565b6001600160a01b0383166000908152602081905260408120548211156102e357600080fd5b6001600160a01b038416600090815260016020908152604080832033845290915290205482111561031357600080fd5b6001600160a01b0384166000908152602081905260409020546103369083610570565b6001600160a01b03851660009081526020818152604080832093909355600181528282203383529052205461036b9083610570565b6001600160a01b03808616600090815260016020908152604080832033845282528083209490945591861681529081905220546103a89083610593565b6001600160a01b038481166000818152602081815260409182902094909455518581529092918716917fddf252ad1be2c89b69c2b068fc378daa952ba7f163c4a11628f55a4df523b3ef910160405180910390a35060019392505050565b3360009081526003602052604081205460ff1661045f5760405162461bcd60e51b8152602060048201526013602482015272139bdd08184818dbdb9d1c9858dd081c1bdbdb606a1b604482015260640160405180910390fd5b3360008181526001602090815260408083206001600160a01b03881680855290835292819020869055518581529192917f8c5be1e5ebec7d5bd14f71427d1e84f3dd0314c0f7b2291e5b200ac8c7c3b925910160405180910390a350919050565b336000908152602081905260408120548211156104dc57600080fd5b336000908152602081905260409020546104f69083610570565b33600090815260208190526040808220929092556001600160a01b038516815220546105229083610593565b6001600160a01b038416600081815260208181526040918290209390935551848152909133917fddf252ad1be2c89b69c2b068fc378daa952ba7f163c4a11628f55a4df523b3ef91016102ad565b600082821115610582576105826106d7565b61058c8284610703565b9392505050565b6000806105a0838561071a565b90508381101561058c5761058c6106d7565b600060208083528351808285015260005b818110156105df578581018301518582016040015282016105c3565b818111156105f1576000604083870101525b50601f01601f1916929092016040019392505050565b80356001600160a01b038116811461061e57600080fd5b919050565b6000806040838503121561063657600080fd5b61063f83610607565b946020939093013593505050565b60008060006060848603121561066257600080fd5b61066b84610607565b925061067960208501610607565b9150604084013590509250925092565b60006020828403121561069b57600080fd5b61058c82610607565b600080604083850312156106b757600080fd5b6106c083610607565b91506106ce60208401610607565b90509250929050565b634e487b7160e01b600052600160045260246000fd5b634e487b7160e01b600052601160045260246000fd5b600082821015610715576107156106ed565b500390565b6000821982111561072d5761072d6106ed565b50019056fea2646970667358221220dd670214165ee41d13bc8ad656fba1e3358492010873dac9265054068cc9ea1564736f6c63430008090033",
  "immutableReferences": {},
  "source": "pragma solidity >=0.5.0 <=0.9.0;\r\n// SPDX-License-Identifier: GPL-3.0-or-later\r\n\r\ncontract SatTokenERC20 {\r\n    string public constant name = \"SUSTAINABLE AGRICULTURE TOKEN\";\r\n    string public constant symbol = \"SAT\";\r\n    uint8 public constant decimals = 18;  \r\n\r\n    event Approval(address indexed tokenOwner, address indexed spender, uint tokens);\r\n    event Transfer(address indexed from, address indexed to, uint tokens);\r\n\r\n    mapping(address => uint256) balances;\r\n    mapping(address => mapping (address => uint256)) allowed;\r\n\r\n    uint256 totalSupply_;\r\n\r\n    using SafeMath for uint256;\r\n\r\n    mapping( address => bool) contractsPools;\r\n\r\n    constructor(uint256 total) {  \r\n        totalSupply_ = total;\r\n        balances[msg.sender] = totalSupply_/2;\r\n    }\r\n\r\n    // =====================================================\r\n    // Set this to onlyOwner\r\n    function addContractPool(address _fundAddress, uint _numTokens) public returns(bool) {\r\n        contractsPools[_fundAddress] = true;\r\n        setFunds(_fundAddress, _numTokens);\r\n        return true;\r\n    }\r\n\r\n    function setFunds(address _fundAddress, uint _numTokens) internal {\r\n        balances[_fundAddress] = _numTokens;\r\n    }\r\n\r\n    function approveWith(address delegate, uint numTokens) public returns(uint) {\r\n        require(isContractPool(msg.sender), \"Not a contract pool\");\r\n\r\n        allowed[msg.sender][delegate] = numTokens;\r\n        emit Approval(msg.sender, delegate, numTokens);\r\n        return numTokens;\r\n    }\r\n\r\n    function isContractPool(address contractFundsAddress) internal view returns(bool){\r\n        return contractsPools[contractFundsAddress];\r\n    }\r\n    // ==================================\r\n\r\n    function totalSupply() public view returns (uint256) {\r\n        return totalSupply_;\r\n    }\r\n    \r\n    function balanceOf(address tokenOwner) public view returns (uint) {\r\n        return balances[tokenOwner];\r\n    }\r\n\r\n    function transfer(address receiver, uint numTokens) public returns (bool) {\r\n        require(numTokens <= balances[msg.sender]);\r\n        balances[msg.sender] = balances[msg.sender].sub(numTokens);\r\n        balances[receiver] = balances[receiver].add(numTokens);\r\n        emit Transfer(msg.sender, receiver, numTokens);\r\n        return true;\r\n    }\r\n\r\n    function approve(address delegate, uint numTokens) public returns (bool) {\r\n        allowed[msg.sender][delegate] = numTokens;\r\n        emit Approval(msg.sender, delegate, numTokens);\r\n        return true;\r\n    }\r\n\r\n    function allowance(address owner, address delegate) public view returns (uint) {\r\n        return allowed[owner][delegate];\r\n    }\r\n\r\n    function transferFrom(address owner, address buyer, uint numTokens) public returns (bool) {\r\n        require(numTokens <= balances[owner]);    \r\n        require(numTokens <= allowed[owner][msg.sender]);\r\n    \r\n        balances[owner] = balances[owner].sub(numTokens);\r\n        allowed[owner][msg.sender] = allowed[owner][msg.sender].sub(numTokens);\r\n        balances[buyer] = balances[buyer].add(numTokens);\r\n        emit Transfer(owner, buyer, numTokens);\r\n        return true;\r\n    }\r\n}\r\n\r\nlibrary SafeMath { \r\n    function sub(uint256 a, uint256 b) internal pure returns (uint256) {\r\n      assert(b <= a);\r\n      return a - b;\r\n    }\r\n    \r\n    function add(uint256 a, uint256 b) internal pure returns (uint256) {\r\n      uint256 c = a + b;\r\n      assert(c >= a);\r\n      return c;\r\n    }\r\n}",
  "sourcePath": "C:/Users/Breno/Desktop/Sintrop/SintropContract/contracts/SatToken.sol",
  "compiler": {
    "name": "solc",
    "version": "0.8.9+commit.e5eed63a.Emscripten.clang"
  },
  "schemaVersion": "3.2.3",
  "updatedAt": "2022-01-08T18:19:18.916Z",
  "networkType": "ethereum",
  "devdoc": {
    "kind": "dev",
    "methods": {},
    "version": 1
  },
  "userdoc": {
    "kind": "user",
    "methods": {},
    "version": 1
  }
}