{
  "contractName": "SatTokenERC20",
  "abi": [
    {
      "inputs": [
        {
          "internalType": "uint256",
          "name": "total",
          "type": "uint256"
        }
      ],
      "stateMutability": "nonpayable",
      "type": "constructor"
    },
    {
      "anonymous": false,
      "inputs": [
        {
          "indexed": true,
          "internalType": "address",
          "name": "tokenOwner",
          "type": "address"
        },
        {
          "indexed": true,
          "internalType": "address",
          "name": "spender",
          "type": "address"
        },
        {
          "indexed": false,
          "internalType": "uint256",
          "name": "tokens",
          "type": "uint256"
        }
      ],
      "name": "Approval",
      "type": "event"
    },
    {
      "anonymous": false,
      "inputs": [
        {
          "indexed": true,
          "internalType": "address",
          "name": "previousOwner",
          "type": "address"
        },
        {
          "indexed": true,
          "internalType": "address",
          "name": "newOwner",
          "type": "address"
        }
      ],
      "name": "OwnershipTransferred",
      "type": "event"
    },
    {
      "anonymous": false,
      "inputs": [
        {
          "indexed": true,
          "internalType": "address",
          "name": "from",
          "type": "address"
        },
        {
          "indexed": true,
          "internalType": "address",
          "name": "to",
          "type": "address"
        },
        {
          "indexed": false,
          "internalType": "uint256",
          "name": "tokens",
          "type": "uint256"
        }
      ],
      "name": "Transfer",
      "type": "event"
    },
    {
      "inputs": [],
      "name": "DECIMALS",
      "outputs": [
        {
          "internalType": "uint8",
          "name": "",
          "type": "uint8"
        }
      ],
      "stateMutability": "view",
      "type": "function"
    },
    {
      "inputs": [],
      "name": "NAME",
      "outputs": [
        {
          "internalType": "string",
          "name": "",
          "type": "string"
        }
      ],
      "stateMutability": "view",
      "type": "function"
    },
    {
      "inputs": [],
      "name": "SYMBOL",
      "outputs": [
        {
          "internalType": "string",
          "name": "",
          "type": "string"
        }
      ],
      "stateMutability": "view",
      "type": "function"
    },
    {
      "inputs": [],
      "name": "owner",
      "outputs": [
        {
          "internalType": "address",
          "name": "",
          "type": "address"
        }
      ],
      "stateMutability": "view",
      "type": "function"
    },
    {
      "inputs": [],
      "name": "renounceOwnership",
      "outputs": [],
      "stateMutability": "nonpayable",
      "type": "function"
    },
    {
      "inputs": [
        {
          "internalType": "address",
          "name": "newOwner",
          "type": "address"
        }
      ],
      "name": "transferOwnership",
      "outputs": [],
      "stateMutability": "nonpayable",
      "type": "function"
    },
    {
      "inputs": [
        {
          "internalType": "address",
          "name": "_fundAddress",
          "type": "address"
        },
        {
          "internalType": "uint256",
          "name": "_numTokens",
          "type": "uint256"
        }
      ],
      "name": "addContractPool",
      "outputs": [
        {
          "internalType": "bool",
          "name": "",
          "type": "bool"
        }
      ],
      "stateMutability": "nonpayable",
      "type": "function"
    },
    {
      "inputs": [
        {
          "internalType": "address",
          "name": "delegate",
          "type": "address"
        },
        {
          "internalType": "uint256",
          "name": "numTokens",
          "type": "uint256"
        }
      ],
      "name": "approveWith",
      "outputs": [
        {
          "internalType": "uint256",
          "name": "",
          "type": "uint256"
        }
      ],
      "stateMutability": "nonpayable",
      "type": "function"
    },
    {
      "inputs": [],
      "name": "totalSupply",
      "outputs": [
        {
          "internalType": "uint256",
          "name": "",
          "type": "uint256"
        }
      ],
      "stateMutability": "view",
      "type": "function"
    },
    {
      "inputs": [
        {
          "internalType": "address",
          "name": "tokenOwner",
          "type": "address"
        }
      ],
      "name": "balanceOf",
      "outputs": [
        {
          "internalType": "uint256",
          "name": "",
          "type": "uint256"
        }
      ],
      "stateMutability": "view",
      "type": "function"
    },
    {
      "inputs": [
        {
          "internalType": "address",
          "name": "receiver",
          "type": "address"
        },
        {
          "internalType": "uint256",
          "name": "numTokens",
          "type": "uint256"
        }
      ],
      "name": "transfer",
      "outputs": [
        {
          "internalType": "bool",
          "name": "",
          "type": "bool"
        }
      ],
      "stateMutability": "nonpayable",
      "type": "function"
    },
    {
      "inputs": [
        {
          "internalType": "address",
          "name": "delegate",
          "type": "address"
        },
        {
          "internalType": "uint256",
          "name": "numTokens",
          "type": "uint256"
        }
      ],
      "name": "approve",
      "outputs": [
        {
          "internalType": "bool",
          "name": "",
          "type": "bool"
        }
      ],
      "stateMutability": "nonpayable",
      "type": "function"
    },
    {
      "inputs": [
        {
          "internalType": "address",
          "name": "owner",
          "type": "address"
        },
        {
          "internalType": "address",
          "name": "delegate",
          "type": "address"
        }
      ],
      "name": "allowance",
      "outputs": [
        {
          "internalType": "uint256",
          "name": "",
          "type": "uint256"
        }
      ],
      "stateMutability": "view",
      "type": "function"
    },
    {
      "inputs": [
        {
          "internalType": "address",
          "name": "owner",
          "type": "address"
        },
        {
          "internalType": "address",
          "name": "buyer",
          "type": "address"
        },
        {
          "internalType": "uint256",
          "name": "numTokens",
          "type": "uint256"
        }
      ],
      "name": "transferFrom",
      "outputs": [
        {
          "internalType": "bool",
          "name": "",
          "type": "bool"
        }
      ],
      "stateMutability": "nonpayable",
      "type": "function"
    }
  ],
  "bytecode": "0x608060405234801561001057600080fd5b50604051610a73380380610a7383398101604081905261002f916100a2565b61003833610052565b6003819055336000908152600160205260409020556100bb565b600080546001600160a01b038381166001600160a01b0319831681178455604051919092169283917f8be0079c531659141344cd1fd0a4f28419497f9722a3daafe3b4186f6b6457e09190a35050565b6000602082840312156100b457600080fd5b5051919050565b6109a9806100ca6000396000f3fe608060405234801561001057600080fd5b50600436106100ea5760003560e01c8063715018a61161008c578063a9059cbb11610066578063a9059cbb14610213578063dd62ed3e14610226578063f2fde38b1461025f578063f76f8d781461027257600080fd5b8063715018a6146101a55780638da5cb5b146101af578063a3f4df7e146101ca57600080fd5b80632e0f2625116100c85780632e0f26251461013c5780634d65a8461461015657806367ff17a61461016957806370a082311461017c57600080fd5b8063095ea7b3146100ef57806318160ddd1461011757806323b872dd14610129575b600080fd5b6101026100fd3660046107da565b610294565b60405190151581526020015b60405180910390f35b6003545b60405190815260200161010e565b610102610137366004610804565b610300565b610144601281565b60405160ff909116815260200161010e565b6101026101643660046107da565b610453565b61011b6101773660046107da565b6104be565b61011b61018a366004610840565b6001600160a01b031660009081526001602052604090205490565b6101ad6105a8565b005b6000546040516001600160a01b03909116815260200161010e565b6102066040518060400160405280601d81526020017f5355535441494e41424c45204147524943554c5455524520544f4b454e00000081525081565b60405161010e919061085b565b6101026102213660046107da565b6105de565b61011b6102343660046108b0565b6001600160a01b03918216600090815260026020908152604080832093909416825291909152205490565b6101ad61026d366004610840565b610691565b6102066040518060400160405280600381526020016214d05560ea1b81525081565b3360008181526002602090815260408083206001600160a01b038716808552925280832085905551919290917f8c5be1e5ebec7d5bd14f71427d1e84f3dd0314c0f7b2291e5b200ac8c7c3b925906102ef9086815260200190565b60405180910390a350600192915050565b6001600160a01b03831660009081526001602052604081205482111561032557600080fd5b6001600160a01b038416600090815260026020908152604080832033845290915290205482111561035557600080fd5b6001600160a01b038416600090815260016020526040902054610378908361072c565b6001600160a01b03851660009081526001602090815260408083209390935560028152828220338352905220546103af908361072c565b6001600160a01b0380861660009081526002602090815260408083203384528252808320949094559186168152600190915220546103ed908361074f565b6001600160a01b0380851660008181526001602052604090819020939093559151908616907fddf252ad1be2c89b69c2b068fc378daa952ba7f163c4a11628f55a4df523b3ef906104419086815260200190565b60405180910390a35060019392505050565b600080546001600160a01b031633146104875760405162461bcd60e51b815260040161047e906108e3565b60405180910390fd5b6001600160a01b0383166000908152600460205260409020805460ff191660011790556104b483836105de565b5060019392505050565b3360009081526004602052604081205460ff166105135760405162461bcd60e51b8152602060048201526013602482015272139bdd08184818dbdb9d1c9858dd081c1bdbdb606a1b604482015260640161047e565b3360009081526002602090815260408083206001600160a01b0387168452909152902054610541908361092e565b3360008181526002602090815260408083206001600160a01b03891680855292529182902093909355517f8c5be1e5ebec7d5bd14f71427d1e84f3dd0314c0f7b2291e5b200ac8c7c3b9259061059a9086815260200190565b60405180910390a350919050565b6000546001600160a01b031633146105d25760405162461bcd60e51b815260040161047e906108e3565b6105dc600061076e565b565b336000908152600160205260408120548211156105fa57600080fd5b33600090815260016020526040902054610614908361072c565b33600090815260016020526040808220929092556001600160a01b03851681522054610640908361074f565b6001600160a01b0384166000818152600160205260409081902092909255905133907fddf252ad1be2c89b69c2b068fc378daa952ba7f163c4a11628f55a4df523b3ef906102ef9086815260200190565b6000546001600160a01b031633146106bb5760405162461bcd60e51b815260040161047e906108e3565b6001600160a01b0381166107205760405162461bcd60e51b815260206004820152602660248201527f4f776e61626c653a206e6577206f776e657220697320746865207a65726f206160448201526564647265737360d01b606482015260840161047e565b6107298161076e565b50565b60008282111561073e5761073e610946565b610748828461095c565b9392505050565b60008061075c838561092e565b90508381101561074857610748610946565b600080546001600160a01b038381166001600160a01b0319831681178455604051919092169283917f8be0079c531659141344cd1fd0a4f28419497f9722a3daafe3b4186f6b6457e09190a35050565b80356001600160a01b03811681146107d557600080fd5b919050565b600080604083850312156107ed57600080fd5b6107f6836107be565b946020939093013593505050565b60008060006060848603121561081957600080fd5b610822846107be565b9250610830602085016107be565b9150604084013590509250925092565b60006020828403121561085257600080fd5b610748826107be565b600060208083528351808285015260005b818110156108885785810183015185820160400152820161086c565b8181111561089a576000604083870101525b50601f01601f1916929092016040019392505050565b600080604083850312156108c357600080fd5b6108cc836107be565b91506108da602084016107be565b90509250929050565b6020808252818101527f4f776e61626c653a2063616c6c6572206973206e6f7420746865206f776e6572604082015260600190565b634e487b7160e01b600052601160045260246000fd5b6000821982111561094157610941610918565b500190565b634e487b7160e01b600052600160045260246000fd5b60008282101561096e5761096e610918565b50039056fea2646970667358221220f230478db1f0642330a91dc13a1af2574794be76b49da241fdba7c635d04b4b764736f6c634300080b0033",
  "immutableReferences": {},
  "source": "pragma solidity >=0.5.0 <=0.9.0;\r\n// SPDX-License-Identifier: GPL-3.0-or-later\r\n\r\nimport \"@openzeppelin/contracts/access/Ownable.sol\";\r\n\r\ncontract SatTokenERC20 is Ownable {\r\n    string public constant NAME = \"SUSTAINABLE AGRICULTURE TOKEN\";\r\n    string public constant SYMBOL = \"SAT\";\r\n    uint8 public constant DECIMALS = 18;  \r\n\r\n    event Approval(address indexed tokenOwner, address indexed spender, uint tokens);\r\n    event Transfer(address indexed from, address indexed to, uint tokens);\r\n\r\n    mapping(address => uint256) internal balances;\r\n    mapping(address => mapping (address => uint256)) internal allowed;\r\n\r\n    uint256 internal totalSupply_;\r\n\r\n    using SafeMath for uint256;\r\n\r\n    mapping( address => bool) internal contractsPools;\r\n\r\n    constructor(uint256 total) {  \r\n        totalSupply_ = total;\r\n        balances[msg.sender] = totalSupply_;\r\n    }\r\n\r\n    // =====================================================\r\n    function addContractPool(address _fundAddress, uint _numTokens) public onlyOwner returns(bool) {\r\n        contractsPools[_fundAddress] = true;\r\n        transfer(_fundAddress, _numTokens);\r\n        return true;\r\n    }\r\n\r\n    function approveWith(address delegate, uint numTokens) public returns(uint) {\r\n        require(contractPool(msg.sender), \"Not a contract pool\");\r\n\r\n        allowed[msg.sender][delegate] = numTokens + allowance(msg.sender, delegate);\r\n        emit Approval(msg.sender, delegate, numTokens);\r\n        return numTokens;\r\n    }\r\n\r\n    function contractPool(address contractFundsAddress) internal view returns(bool){\r\n        return contractsPools[contractFundsAddress];\r\n    }\r\n    // ==================================\r\n\r\n    function totalSupply() public view returns (uint256) {\r\n        return totalSupply_;\r\n    }\r\n    \r\n    function balanceOf(address tokenOwner) public view returns (uint) {\r\n        return balances[tokenOwner];\r\n    }\r\n\r\n    function transfer(address receiver, uint numTokens) public returns (bool) {\r\n        require(numTokens <= balances[msg.sender]);\r\n        balances[msg.sender] = balances[msg.sender].sub(numTokens);\r\n        balances[receiver] = balances[receiver].add(numTokens);\r\n        emit Transfer(msg.sender, receiver, numTokens);\r\n        return true;\r\n    }\r\n\r\n    function approve(address delegate, uint numTokens) public returns (bool) {\r\n        allowed[msg.sender][delegate] = numTokens;\r\n        emit Approval(msg.sender, delegate, numTokens);\r\n        return true;\r\n    }\r\n\r\n    function allowance(address owner, address delegate) public view returns (uint) {\r\n        return allowed[owner][delegate];\r\n    }\r\n\r\n    function transferFrom(address owner, address buyer, uint numTokens) public returns (bool) {\r\n        require(numTokens <= balances[owner]);    \r\n        require(numTokens <= allowed[owner][msg.sender]);\r\n    \r\n        balances[owner] = balances[owner].sub(numTokens);\r\n        allowed[owner][msg.sender] = allowed[owner][msg.sender].sub(numTokens);\r\n        balances[buyer] = balances[buyer].add(numTokens);\r\n        emit Transfer(owner, buyer, numTokens);\r\n        return true;\r\n    }\r\n}\r\n\r\nlibrary SafeMath { \r\n    function sub(uint256 a, uint256 b) internal pure returns (uint256) {\r\n      assert(b <= a);\r\n      return a - b;\r\n    }\r\n    \r\n    function add(uint256 a, uint256 b) internal pure returns (uint256) {\r\n      uint256 c = a + b;\r\n      assert(c >= a);\r\n      return c;\r\n    }\r\n}",
  "sourcePath": "C:\\Users\\Breno\\Desktop\\Sintrop\\SintropContract\\contracts\\SatToken.sol",
  "compiler": {
    "name": "solc",
    "version": "0.8.11+commit.d7f03943.Emscripten.clang"
  },
  "schemaVersion": "3.4.4",
  "updatedAt": "2022-01-31T20:39:42.733Z",
  "networkType": "ethereum",
  "devdoc": {
    "kind": "dev",
    "methods": {
      "owner()": {
        "details": "Returns the address of the current owner."
      },
      "renounceOwnership()": {
        "details": "Leaves the contract without owner. It will not be possible to call `onlyOwner` functions anymore. Can only be called by the current owner. NOTE: Renouncing ownership will leave the contract without an owner, thereby removing any functionality that is only available to the owner."
      },
      "transferOwnership(address)": {
        "details": "Transfers ownership of the contract to a new account (`newOwner`). Can only be called by the current owner."
      }
    },
    "version": 1
  },
  "userdoc": {
    "kind": "user",
    "methods": {},
    "version": 1
  }
}