{
  "contractName": "SATtoken",
  "abi": [
    {
      "inputs": [],
      "stateMutability": "nonpayable",
      "type": "constructor"
    },
    {
      "anonymous": false,
      "inputs": [
        {
          "indexed": true,
          "internalType": "address",
          "name": "owner",
          "type": "address"
        },
        {
          "indexed": true,
          "internalType": "address",
          "name": "spender",
          "type": "address"
        },
        {
          "indexed": false,
          "internalType": "uint256",
          "name": "value",
          "type": "uint256"
        }
      ],
      "name": "Approval",
      "type": "event"
    },
    {
      "anonymous": false,
      "inputs": [
        {
          "indexed": true,
          "internalType": "address",
          "name": "from",
          "type": "address"
        },
        {
          "indexed": true,
          "internalType": "address",
          "name": "to",
          "type": "address"
        },
        {
          "indexed": false,
          "internalType": "uint256",
          "name": "value",
          "type": "uint256"
        }
      ],
      "name": "Transfer",
      "type": "event"
    },
    {
      "inputs": [],
      "name": "DECIMALS",
      "outputs": [
        {
          "internalType": "uint8",
          "name": "",
          "type": "uint8"
        }
      ],
      "stateMutability": "view",
      "type": "function"
    },
    {
      "inputs": [],
      "name": "INITIAL_SUPPLY",
      "outputs": [
        {
          "internalType": "uint256",
          "name": "",
          "type": "uint256"
        }
      ],
      "stateMutability": "view",
      "type": "function"
    },
    {
      "inputs": [],
      "name": "NAME",
      "outputs": [
        {
          "internalType": "string",
          "name": "",
          "type": "string"
        }
      ],
      "stateMutability": "view",
      "type": "function"
    },
    {
      "inputs": [],
      "name": "SYMBOL",
      "outputs": [
        {
          "internalType": "string",
          "name": "",
          "type": "string"
        }
      ],
      "stateMutability": "view",
      "type": "function"
    },
    {
      "inputs": [
        {
          "internalType": "address",
          "name": "owner",
          "type": "address"
        },
        {
          "internalType": "address",
          "name": "spender",
          "type": "address"
        }
      ],
      "name": "allowance",
      "outputs": [
        {
          "internalType": "uint256",
          "name": "",
          "type": "uint256"
        }
      ],
      "stateMutability": "view",
      "type": "function"
    },
    {
      "inputs": [
        {
          "internalType": "address",
          "name": "spender",
          "type": "address"
        },
        {
          "internalType": "uint256",
          "name": "amount",
          "type": "uint256"
        }
      ],
      "name": "approve",
      "outputs": [
        {
          "internalType": "bool",
          "name": "",
          "type": "bool"
        }
      ],
      "stateMutability": "nonpayable",
      "type": "function"
    },
    {
      "inputs": [
        {
          "internalType": "address",
          "name": "account",
          "type": "address"
        }
      ],
      "name": "balanceOf",
      "outputs": [
        {
          "internalType": "uint256",
          "name": "",
          "type": "uint256"
        }
      ],
      "stateMutability": "view",
      "type": "function"
    },
    {
      "inputs": [],
      "name": "decimals",
      "outputs": [
        {
          "internalType": "uint8",
          "name": "",
          "type": "uint8"
        }
      ],
      "stateMutability": "view",
      "type": "function"
    },
    {
      "inputs": [
        {
          "internalType": "address",
          "name": "spender",
          "type": "address"
        },
        {
          "internalType": "uint256",
          "name": "subtractedValue",
          "type": "uint256"
        }
      ],
      "name": "decreaseAllowance",
      "outputs": [
        {
          "internalType": "bool",
          "name": "",
          "type": "bool"
        }
      ],
      "stateMutability": "nonpayable",
      "type": "function"
    },
    {
      "inputs": [
        {
          "internalType": "address",
          "name": "spender",
          "type": "address"
        },
        {
          "internalType": "uint256",
          "name": "addedValue",
          "type": "uint256"
        }
      ],
      "name": "increaseAllowance",
      "outputs": [
        {
          "internalType": "bool",
          "name": "",
          "type": "bool"
        }
      ],
      "stateMutability": "nonpayable",
      "type": "function"
    },
    {
      "inputs": [],
      "name": "name",
      "outputs": [
        {
          "internalType": "string",
          "name": "",
          "type": "string"
        }
      ],
      "stateMutability": "view",
      "type": "function"
    },
    {
      "inputs": [],
      "name": "symbol",
      "outputs": [
        {
          "internalType": "string",
          "name": "",
          "type": "string"
        }
      ],
      "stateMutability": "view",
      "type": "function"
    },
    {
      "inputs": [],
      "name": "totalSupply",
      "outputs": [
        {
          "internalType": "uint256",
          "name": "",
          "type": "uint256"
        }
      ],
      "stateMutability": "view",
      "type": "function"
    },
    {
      "inputs": [
        {
          "internalType": "address",
          "name": "recipient",
          "type": "address"
        },
        {
          "internalType": "uint256",
          "name": "amount",
          "type": "uint256"
        }
      ],
      "name": "transfer",
      "outputs": [
        {
          "internalType": "bool",
          "name": "",
          "type": "bool"
        }
      ],
      "stateMutability": "nonpayable",
      "type": "function"
    },
    {
      "inputs": [
        {
          "internalType": "address",
          "name": "sender",
          "type": "address"
        },
        {
          "internalType": "address",
          "name": "recipient",
          "type": "address"
        },
        {
          "internalType": "uint256",
          "name": "amount",
          "type": "uint256"
        }
      ],
      "name": "transferFrom",
      "outputs": [
        {
          "internalType": "bool",
          "name": "",
          "type": "bool"
        }
      ],
      "stateMutability": "nonpayable",
      "type": "function"
    },
    {
      "inputs": [],
      "name": "addToPoolProducer",
      "outputs": [],
      "stateMutability": "nonpayable",
      "type": "function"
    }
  ],
  "bytecode": "0x60c0604052600360808190526214d05560ea1b60a0908152620000269160059190620002f1565b5060408051808201909152601d8082527f5355535441494e41424c45204147524943554c5455524520544f4b454e00000060209092019182526200006d91600691620002f1565b506007805460ff191660089081179091556b04d8c55aefb8c05b5c00000090553480156200009a57600080fd5b5060068054620000aa9062000397565b80601f0160208091040260200160405190810160405280929190818152602001828054620000d89062000397565b8015620001295780601f10620000fd5761010080835404028352916020019162000129565b820191906000526020600020905b8154815290600101906020018083116200010b57829003601f168201915b5050505050600580546200013d9062000397565b80601f01602080910402602001604051908101604052809291908181526020018280546200016b9062000397565b8015620001bc5780601f106200019057610100808354040283529160200191620001bc565b820191906000526020600020905b8154815290600101906020018083116200019e57829003601f168201915b50508451620001d6935060039250602086019150620002f1565b508051620001ec906004906020840190620002f1565b50505062000203336008546200020960201b60201c565b620003fb565b6001600160a01b038216620002645760405162461bcd60e51b815260206004820152601f60248201527f45524332303a206d696e7420746f20746865207a65726f206164647265737300604482015260640160405180910390fd5b8060026000828254620002789190620003d4565b90915550506001600160a01b03821660009081526020819052604081208054839290620002a7908490620003d4565b90915550506040518181526001600160a01b038316906000907fddf252ad1be2c89b69c2b068fc378daa952ba7f163c4a11628f55a4df523b3ef9060200160405180910390a35050565b828054620002ff9062000397565b90600052602060002090601f0160209004810192826200032357600085556200036e565b82601f106200033e57805160ff19168380011785556200036e565b828001600101855582156200036e579182015b828111156200036e57825182559160200191906001019062000351565b506200037c92915062000380565b5090565b5b808211156200037c576000815560010162000381565b600181811c90821680620003ac57607f821691505b60208210811415620003ce57634e487b7160e01b600052602260045260246000fd5b50919050565b60008219821115620003f657634e487b7160e01b600052601160045260246000fd5b500190565b6109e8806200040b6000396000f3fe608060405234801561001057600080fd5b50600436106101005760003560e01c80633950935111610097578063a457c2d711610066578063a457c2d7146101e8578063a9059cbb146101fb578063dd62ed3e1461020e578063f76f8d781461024757600080fd5b8063395093511461019c57806370a08231146101af57806395d89b41146101d8578063a3f4df7e146101e057600080fd5b80632e0f2625116100d35780632e0f26251461016b5780632f359df11461018a5780632ff2e9dc1461018c578063313ce5671461019557600080fd5b806306fdde0314610105578063095ea7b31461012357806318160ddd1461014657806323b872dd14610158575b600080fd5b61010d61024f565b60405161011a9190610825565b60405180910390f35b610136610131366004610896565b6102e1565b604051901515815260200161011a565b6002545b60405190815260200161011a565b6101366101663660046108c0565b6102f7565b6007546101789060ff1681565b60405160ff909116815260200161011a565b005b61014a60085481565b6012610178565b6101366101aa366004610896565b6103a6565b61014a6101bd3660046108fc565b6001600160a01b031660009081526020819052604090205490565b61010d6103e2565b61010d6103f1565b6101366101f6366004610896565b61047f565b610136610209366004610896565b610518565b61014a61021c36600461091e565b6001600160a01b03918216600090815260016020908152604080832093909416825291909152205490565b61010d610525565b60606003805461025e90610951565b80601f016020809104026020016040519081016040528092919081815260200182805461028a90610951565b80156102d75780601f106102ac576101008083540402835291602001916102d7565b820191906000526020600020905b8154815290600101906020018083116102ba57829003601f168201915b5050505050905090565b60006102ee338484610532565b50600192915050565b6000610304848484610656565b6001600160a01b03841660009081526001602090815260408083203384529091529020548281101561038e5760405162461bcd60e51b815260206004820152602860248201527f45524332303a207472616e7366657220616d6f756e74206578636565647320616044820152676c6c6f77616e636560c01b60648201526084015b60405180910390fd5b61039b8533858403610532565b506001949350505050565b3360008181526001602090815260408083206001600160a01b038716845290915281205490916102ee9185906103dd90869061098c565b610532565b60606004805461025e90610951565b600680546103fe90610951565b80601f016020809104026020016040519081016040528092919081815260200182805461042a90610951565b80156104775780601f1061044c57610100808354040283529160200191610477565b820191906000526020600020905b81548152906001019060200180831161045a57829003601f168201915b505050505081565b3360009081526001602090815260408083206001600160a01b0386168452909152812054828110156105015760405162461bcd60e51b815260206004820152602560248201527f45524332303a2064656372656173656420616c6c6f77616e63652062656c6f77604482015264207a65726f60d81b6064820152608401610385565b61050e3385858403610532565b5060019392505050565b60006102ee338484610656565b600580546103fe90610951565b6001600160a01b0383166105945760405162461bcd60e51b8152602060048201526024808201527f45524332303a20617070726f76652066726f6d20746865207a65726f206164646044820152637265737360e01b6064820152608401610385565b6001600160a01b0382166105f55760405162461bcd60e51b815260206004820152602260248201527f45524332303a20617070726f766520746f20746865207a65726f206164647265604482015261737360f01b6064820152608401610385565b6001600160a01b0383811660008181526001602090815260408083209487168084529482529182902085905590518481527f8c5be1e5ebec7d5bd14f71427d1e84f3dd0314c0f7b2291e5b200ac8c7c3b925910160405180910390a3505050565b6001600160a01b0383166106ba5760405162461bcd60e51b815260206004820152602560248201527f45524332303a207472616e736665722066726f6d20746865207a65726f206164604482015264647265737360d81b6064820152608401610385565b6001600160a01b03821661071c5760405162461bcd60e51b815260206004820152602360248201527f45524332303a207472616e7366657220746f20746865207a65726f206164647260448201526265737360e81b6064820152608401610385565b6001600160a01b038316600090815260208190526040902054818110156107945760405162461bcd60e51b815260206004820152602660248201527f45524332303a207472616e7366657220616d6f756e7420657863656564732062604482015265616c616e636560d01b6064820152608401610385565b6001600160a01b038085166000908152602081905260408082208585039055918516815290812080548492906107cb90849061098c565b92505081905550826001600160a01b0316846001600160a01b03167fddf252ad1be2c89b69c2b068fc378daa952ba7f163c4a11628f55a4df523b3ef8460405161081791815260200190565b60405180910390a350505050565b600060208083528351808285015260005b8181101561085257858101830151858201604001528201610836565b81811115610864576000604083870101525b50601f01601f1916929092016040019392505050565b80356001600160a01b038116811461089157600080fd5b919050565b600080604083850312156108a957600080fd5b6108b28361087a565b946020939093013593505050565b6000806000606084860312156108d557600080fd5b6108de8461087a565b92506108ec6020850161087a565b9150604084013590509250925092565b60006020828403121561090e57600080fd5b6109178261087a565b9392505050565b6000806040838503121561093157600080fd5b61093a8361087a565b91506109486020840161087a565b90509250929050565b600181811c9082168061096557607f821691505b6020821081141561098657634e487b7160e01b600052602260045260246000fd5b50919050565b600082198211156109ad57634e487b7160e01b600052601160045260246000fd5b50019056fea264697066735822122080de949b839428da3315add3c217c9ceb4c5cbb5efc5b73ce3c3087c6c4c961264736f6c63430008090033",
  "immutableReferences": {},
  "source": "pragma solidity ^0.8.0;\r\n// SPDX-License-Identifier: GPL-3.0-or-later\r\n\r\nimport \"@openzeppelin/contracts/token/ERC20/ERC20.sol\";\r\n\r\ncontract SATtoken is ERC20 {\r\n    string public SYMBOL = \"SAT\";\r\n    string public NAME = \"SUSTAINABLE AGRICULTURE TOKEN\";\r\n    uint8 public DECIMALS = 8;\r\n    uint256 public INITIAL_SUPPLY = 1500000000000000000000000000;\r\n    \r\n    constructor() ERC20(NAME, SYMBOL) {\r\n    _mint(msg.sender, INITIAL_SUPPLY);\r\n    // alocar proprieamente o initial supply conforme paper\r\n    }\r\n    \r\n    function _beforeTokenTransfer(\r\n    address from,\r\n    address to,\r\n    uint256 amount\r\n    ) internal override(ERC20) {}\r\n    \r\n    \r\n    function approveProducer() private {\r\n        // requer average ISA > 10 \r\n        // requer mínimo de inspeções = 2 \r\n        // aprovar\r\n    }\r\n    \r\n    function approveActivist() private {\r\n        // requer average ISA > 10 \r\n        // requer mínimo de inspeções = 2 \r\n        // aprovar\r\n    }\r\n    \r\n    function addToPoolProducer() public {\r\n        // requer produtor aprovado\r\n        // \r\n    }\r\n    \r\n}\r\n",
  "sourcePath": "C:/Users/Breno/Downloads/SintropContract (1)/contracts/SAT-token.sol",
  "compiler": {
    "name": "solc",
    "version": "0.8.9+commit.e5eed63a.Emscripten.clang"
  },
  "schemaVersion": "3.2.3",
  "updatedAt": "2021-12-20T16:37:13.315Z",
  "devdoc": {
    "kind": "dev",
    "methods": {
      "allowance(address,address)": {
        "details": "See {IERC20-allowance}."
      },
      "approve(address,uint256)": {
        "details": "See {IERC20-approve}. Requirements: - `spender` cannot be the zero address."
      },
      "balanceOf(address)": {
        "details": "See {IERC20-balanceOf}."
      },
      "decimals()": {
        "details": "Returns the number of decimals used to get its user representation. For example, if `decimals` equals `2`, a balance of `505` tokens should be displayed to a user as `5.05` (`505 / 10 ** 2`). Tokens usually opt for a value of 18, imitating the relationship between Ether and Wei. This is the value {ERC20} uses, unless this function is overridden; NOTE: This information is only used for _display_ purposes: it in no way affects any of the arithmetic of the contract, including {IERC20-balanceOf} and {IERC20-transfer}."
      },
      "decreaseAllowance(address,uint256)": {
        "details": "Atomically decreases the allowance granted to `spender` by the caller. This is an alternative to {approve} that can be used as a mitigation for problems described in {IERC20-approve}. Emits an {Approval} event indicating the updated allowance. Requirements: - `spender` cannot be the zero address. - `spender` must have allowance for the caller of at least `subtractedValue`."
      },
      "increaseAllowance(address,uint256)": {
        "details": "Atomically increases the allowance granted to `spender` by the caller. This is an alternative to {approve} that can be used as a mitigation for problems described in {IERC20-approve}. Emits an {Approval} event indicating the updated allowance. Requirements: - `spender` cannot be the zero address."
      },
      "name()": {
        "details": "Returns the name of the token."
      },
      "symbol()": {
        "details": "Returns the symbol of the token, usually a shorter version of the name."
      },
      "totalSupply()": {
        "details": "See {IERC20-totalSupply}."
      },
      "transfer(address,uint256)": {
        "details": "See {IERC20-transfer}. Requirements: - `recipient` cannot be the zero address. - the caller must have a balance of at least `amount`."
      },
      "transferFrom(address,address,uint256)": {
        "details": "See {IERC20-transferFrom}. Emits an {Approval} event indicating the updated allowance. This is not required by the EIP. See the note at the beginning of {ERC20}. Requirements: - `sender` and `recipient` cannot be the zero address. - `sender` must have a balance of at least `amount`. - the caller must have allowance for ``sender``'s tokens of at least `amount`."
      }
    },
    "version": 1
  },
  "userdoc": {
    "kind": "user",
    "methods": {},
    "version": 1
  }
}