{
  "contractName": "SintropContract",
  "abi": [
    {
      "inputs": [
        {
          "internalType": "uint256",
          "name": "inspectionId",
          "type": "uint256"
        }
      ],
      "name": "acceptInspection",
      "outputs": [
        {
          "internalType": "bool",
          "name": "",
          "type": "bool"
        }
      ],
      "stateMutability": "nonpayable",
      "type": "function"
    },
    {
      "inputs": [
        {
          "internalType": "address",
          "name": "addr",
          "type": "address"
        }
      ],
      "name": "activistExists",
      "outputs": [
        {
          "internalType": "bool",
          "name": "",
          "type": "bool"
        }
      ],
      "stateMutability": "view",
      "type": "function",
      "constant": true
    },
    {
      "inputs": [],
      "name": "activistsCount",
      "outputs": [
        {
          "internalType": "uint256",
          "name": "",
          "type": "uint256"
        }
      ],
      "stateMutability": "view",
      "type": "function",
      "constant": true
    },
    {
      "inputs": [
        {
          "internalType": "string",
          "name": "name",
          "type": "string"
        },
        {
          "internalType": "string",
          "name": "document",
          "type": "string"
        },
        {
          "internalType": "string",
          "name": "documentType",
          "type": "string"
        },
        {
          "internalType": "string",
          "name": "country",
          "type": "string"
        },
        {
          "internalType": "string",
          "name": "state",
          "type": "string"
        },
        {
          "internalType": "string",
          "name": "city",
          "type": "string"
        },
        {
          "internalType": "string",
          "name": "cep",
          "type": "string"
        }
      ],
      "name": "addActivist",
      "outputs": [
        {
          "components": [
            {
              "internalType": "uint256",
              "name": "id",
              "type": "uint256"
            },
            {
              "internalType": "address",
              "name": "activistWallet",
              "type": "address"
            },
            {
              "internalType": "enum UserContract.UserType",
              "name": "userType",
              "type": "uint8"
            },
            {
              "internalType": "string",
              "name": "name",
              "type": "string"
            },
            {
              "internalType": "string",
              "name": "document",
              "type": "string"
            },
            {
              "internalType": "string",
              "name": "documentType",
              "type": "string"
            },
            {
              "internalType": "bool",
              "name": "recentInspection",
              "type": "bool"
            },
            {
              "internalType": "uint256",
              "name": "totalInspections",
              "type": "uint256"
            },
            {
              "components": [
                {
                  "internalType": "string",
                  "name": "country",
                  "type": "string"
                },
                {
                  "internalType": "string",
                  "name": "state",
                  "type": "string"
                },
                {
                  "internalType": "string",
                  "name": "city",
                  "type": "string"
                },
                {
                  "internalType": "string",
                  "name": "cep",
                  "type": "string"
                }
              ],
              "internalType": "struct ActivistContract.ActivistAddress",
              "name": "activistAddress",
              "type": "tuple"
            }
          ],
          "internalType": "struct ActivistContract.Activist",
          "name": "",
          "type": "tuple"
        }
      ],
      "stateMutability": "nonpayable",
      "type": "function"
    },
    {
      "inputs": [
        {
          "internalType": "string",
          "name": "name",
          "type": "string"
        },
        {
          "internalType": "string",
          "name": "description",
          "type": "string"
        },
        {
          "internalType": "string",
          "name": "totallySustainable",
          "type": "string"
        },
        {
          "internalType": "string",
          "name": "partiallySustainable",
          "type": "string"
        },
        {
          "internalType": "string",
          "name": "neutro",
          "type": "string"
        },
        {
          "internalType": "string",
          "name": "partiallyNotSustainable",
          "type": "string"
        },
        {
          "internalType": "string",
          "name": "totallyNotSustainable",
          "type": "string"
        }
      ],
      "name": "addCategory",
      "outputs": [
        {
          "internalType": "bool",
          "name": "",
          "type": "bool"
        }
      ],
      "stateMutability": "nonpayable",
      "type": "function"
    },
    {
      "inputs": [
        {
          "internalType": "string",
          "name": "name",
          "type": "string"
        },
        {
          "internalType": "string",
          "name": "document",
          "type": "string"
        },
        {
          "internalType": "string",
          "name": "documentType",
          "type": "string"
        },
        {
          "internalType": "string",
          "name": "country",
          "type": "string"
        },
        {
          "internalType": "string",
          "name": "state",
          "type": "string"
        },
        {
          "internalType": "string",
          "name": "city",
          "type": "string"
        },
        {
          "internalType": "string",
          "name": "cep",
          "type": "string"
        }
      ],
      "name": "addProducer",
      "outputs": [
        {
          "components": [
            {
              "internalType": "uint256",
              "name": "id",
              "type": "uint256"
            },
            {
              "internalType": "address",
              "name": "producer_wallet",
              "type": "address"
            },
            {
              "internalType": "enum UserContract.UserType",
              "name": "userType",
              "type": "uint8"
            },
            {
              "internalType": "string",
              "name": "name",
              "type": "string"
            },
            {
              "internalType": "string",
              "name": "document",
              "type": "string"
            },
            {
              "internalType": "string",
              "name": "documentType",
              "type": "string"
            },
            {
              "internalType": "bool",
              "name": "recentInspection",
              "type": "bool"
            },
            {
              "internalType": "uint256",
              "name": "totalRequests",
              "type": "uint256"
            },
            {
              "internalType": "uint256",
              "name": "isaAverage",
              "type": "uint256"
            },
            {
              "components": [
                {
                  "internalType": "string",
                  "name": "country",
                  "type": "string"
                },
                {
                  "internalType": "string",
                  "name": "state",
                  "type": "string"
                },
                {
                  "internalType": "string",
                  "name": "city",
                  "type": "string"
                },
                {
                  "internalType": "string",
                  "name": "cep",
                  "type": "string"
                }
              ],
              "internalType": "struct ProducerContract.PropertyAddress",
              "name": "property_address",
              "type": "tuple"
            }
          ],
          "internalType": "struct ProducerContract.Producer",
          "name": "",
          "type": "tuple"
        }
      ],
      "stateMutability": "nonpayable",
      "type": "function"
    },
    {
      "inputs": [],
      "name": "category",
      "outputs": [
        {
          "internalType": "uint256",
          "name": "id",
          "type": "uint256"
        },
        {
          "internalType": "address",
          "name": "createdBy",
          "type": "address"
        },
        {
          "internalType": "string",
          "name": "name",
          "type": "string"
        },
        {
          "internalType": "string",
          "name": "description",
          "type": "string"
        },
        {
          "internalType": "string",
          "name": "totallySustainable",
          "type": "string"
        },
        {
          "internalType": "string",
          "name": "partiallySustainable",
          "type": "string"
        },
        {
          "internalType": "string",
          "name": "neutro",
          "type": "string"
        },
        {
          "internalType": "string",
          "name": "partiallyNotSustainable",
          "type": "string"
        },
        {
          "internalType": "string",
          "name": "totallyNotSustainable",
          "type": "string"
        },
        {
          "internalType": "uint256",
          "name": "votesCount",
          "type": "uint256"
        },
        {
          "internalType": "uint256",
          "name": "index",
          "type": "uint256"
        }
      ],
      "stateMutability": "view",
      "type": "function",
      "constant": true
    },
    {
      "inputs": [],
      "name": "categoryCounts",
      "outputs": [
        {
          "internalType": "uint256",
          "name": "",
          "type": "uint256"
        }
      ],
      "stateMutability": "view",
      "type": "function",
      "constant": true
    },
    {
      "inputs": [
        {
          "internalType": "address",
          "name": "addr",
          "type": "address"
        }
      ],
      "name": "getActivist",
      "outputs": [
        {
          "components": [
            {
              "internalType": "uint256",
              "name": "id",
              "type": "uint256"
            },
            {
              "internalType": "address",
              "name": "activistWallet",
              "type": "address"
            },
            {
              "internalType": "enum UserContract.UserType",
              "name": "userType",
              "type": "uint8"
            },
            {
              "internalType": "string",
              "name": "name",
              "type": "string"
            },
            {
              "internalType": "string",
              "name": "document",
              "type": "string"
            },
            {
              "internalType": "string",
              "name": "documentType",
              "type": "string"
            },
            {
              "internalType": "bool",
              "name": "recentInspection",
              "type": "bool"
            },
            {
              "internalType": "uint256",
              "name": "totalInspections",
              "type": "uint256"
            },
            {
              "components": [
                {
                  "internalType": "string",
                  "name": "country",
                  "type": "string"
                },
                {
                  "internalType": "string",
                  "name": "state",
                  "type": "string"
                },
                {
                  "internalType": "string",
                  "name": "city",
                  "type": "string"
                },
                {
                  "internalType": "string",
                  "name": "cep",
                  "type": "string"
                }
              ],
              "internalType": "struct ActivistContract.ActivistAddress",
              "name": "activistAddress",
              "type": "tuple"
            }
          ],
          "internalType": "struct ActivistContract.Activist",
          "name": "",
          "type": "tuple"
        }
      ],
      "stateMutability": "view",
      "type": "function",
      "constant": true
    },
    {
      "inputs": [],
      "name": "getActivists",
      "outputs": [
        {
          "components": [
            {
              "internalType": "uint256",
              "name": "id",
              "type": "uint256"
            },
            {
              "internalType": "address",
              "name": "activistWallet",
              "type": "address"
            },
            {
              "internalType": "enum UserContract.UserType",
              "name": "userType",
              "type": "uint8"
            },
            {
              "internalType": "string",
              "name": "name",
              "type": "string"
            },
            {
              "internalType": "string",
              "name": "document",
              "type": "string"
            },
            {
              "internalType": "string",
              "name": "documentType",
              "type": "string"
            },
            {
              "internalType": "bool",
              "name": "recentInspection",
              "type": "bool"
            },
            {
              "internalType": "uint256",
              "name": "totalInspections",
              "type": "uint256"
            },
            {
              "components": [
                {
                  "internalType": "string",
                  "name": "country",
                  "type": "string"
                },
                {
                  "internalType": "string",
                  "name": "state",
                  "type": "string"
                },
                {
                  "internalType": "string",
                  "name": "city",
                  "type": "string"
                },
                {
                  "internalType": "string",
                  "name": "cep",
                  "type": "string"
                }
              ],
              "internalType": "struct ActivistContract.ActivistAddress",
              "name": "activistAddress",
              "type": "tuple"
            }
          ],
          "internalType": "struct ActivistContract.Activist[]",
          "name": "",
          "type": "tuple[]"
        }
      ],
      "stateMutability": "view",
      "type": "function",
      "constant": true
    },
    {
      "inputs": [],
      "name": "getCategories",
      "outputs": [
        {
          "components": [
            {
              "internalType": "uint256",
              "name": "id",
              "type": "uint256"
            },
            {
              "internalType": "address",
              "name": "createdBy",
              "type": "address"
            },
            {
              "internalType": "string",
              "name": "name",
              "type": "string"
            },
            {
              "internalType": "string",
              "name": "description",
              "type": "string"
            },
            {
              "internalType": "string",
              "name": "totallySustainable",
              "type": "string"
            },
            {
              "internalType": "string",
              "name": "partiallySustainable",
              "type": "string"
            },
            {
              "internalType": "string",
              "name": "neutro",
              "type": "string"
            },
            {
              "internalType": "string",
              "name": "partiallyNotSustainable",
              "type": "string"
            },
            {
              "internalType": "string",
              "name": "totallyNotSustainable",
              "type": "string"
            },
            {
              "internalType": "uint256",
              "name": "votesCount",
              "type": "uint256"
            },
            {
              "internalType": "uint256",
              "name": "index",
              "type": "uint256"
            }
          ],
          "internalType": "struct CategoryContract.Category[]",
          "name": "",
          "type": "tuple[]"
        }
      ],
      "stateMutability": "view",
      "type": "function",
      "constant": true
    },
    {
      "inputs": [
        {
          "internalType": "uint256",
          "name": "id",
          "type": "uint256"
        }
      ],
      "name": "getCategory",
      "outputs": [
        {
          "components": [
            {
              "internalType": "uint256",
              "name": "id",
              "type": "uint256"
            },
            {
              "internalType": "address",
              "name": "createdBy",
              "type": "address"
            },
            {
              "internalType": "string",
              "name": "name",
              "type": "string"
            },
            {
              "internalType": "string",
              "name": "description",
              "type": "string"
            },
            {
              "internalType": "string",
              "name": "totallySustainable",
              "type": "string"
            },
            {
              "internalType": "string",
              "name": "partiallySustainable",
              "type": "string"
            },
            {
              "internalType": "string",
              "name": "neutro",
              "type": "string"
            },
            {
              "internalType": "string",
              "name": "partiallyNotSustainable",
              "type": "string"
            },
            {
              "internalType": "string",
              "name": "totallyNotSustainable",
              "type": "string"
            },
            {
              "internalType": "uint256",
              "name": "votesCount",
              "type": "uint256"
            },
            {
              "internalType": "uint256",
              "name": "index",
              "type": "uint256"
            }
          ],
          "internalType": "struct CategoryContract.Category",
          "name": "",
          "type": "tuple"
        }
      ],
      "stateMutability": "view",
      "type": "function",
      "constant": true
    },
    {
      "inputs": [
        {
          "internalType": "uint256",
          "name": "id",
          "type": "uint256"
        }
      ],
      "name": "getInspection",
      "outputs": [
        {
          "components": [
            {
              "internalType": "uint256",
              "name": "id",
              "type": "uint256"
            },
            {
              "internalType": "enum InspectionContract.InspectionStatus",
              "name": "status",
              "type": "uint8"
            },
            {
              "internalType": "address",
              "name": "producerWallet",
              "type": "address"
            },
            {
              "internalType": "address",
              "name": "activistWallet",
              "type": "address"
            },
            {
              "internalType": "uint256[][]",
              "name": "isas",
              "type": "uint256[][]"
            },
            {
              "internalType": "uint256",
              "name": "isaAverage",
              "type": "uint256"
            },
            {
              "internalType": "uint256",
              "name": "expiresIn",
              "type": "uint256"
            },
            {
              "internalType": "uint256",
              "name": "createdAt",
              "type": "uint256"
            },
            {
              "internalType": "uint256",
              "name": "index",
              "type": "uint256"
            }
          ],
          "internalType": "struct InspectionContract.Inspection",
          "name": "",
          "type": "tuple"
        }
      ],
      "stateMutability": "view",
      "type": "function",
      "constant": true
    },
    {
      "inputs": [],
      "name": "getInspections",
      "outputs": [
        {
          "components": [
            {
              "internalType": "uint256",
              "name": "id",
              "type": "uint256"
            },
            {
              "internalType": "enum InspectionContract.InspectionStatus",
              "name": "status",
              "type": "uint8"
            },
            {
              "internalType": "address",
              "name": "producerWallet",
              "type": "address"
            },
            {
              "internalType": "address",
              "name": "activistWallet",
              "type": "address"
            },
            {
              "internalType": "uint256[][]",
              "name": "isas",
              "type": "uint256[][]"
            },
            {
              "internalType": "uint256",
              "name": "isaAverage",
              "type": "uint256"
            },
            {
              "internalType": "uint256",
              "name": "expiresIn",
              "type": "uint256"
            },
            {
              "internalType": "uint256",
              "name": "createdAt",
              "type": "uint256"
            },
            {
              "internalType": "uint256",
              "name": "index",
              "type": "uint256"
            }
          ],
          "internalType": "struct InspectionContract.Inspection[]",
          "name": "",
          "type": "tuple[]"
        }
      ],
      "stateMutability": "view",
      "type": "function",
      "constant": true
    },
    {
      "inputs": [],
      "name": "getInspectionsHistory",
      "outputs": [
        {
          "components": [
            {
              "internalType": "uint256",
              "name": "id",
              "type": "uint256"
            },
            {
              "internalType": "enum InspectionContract.InspectionStatus",
              "name": "status",
              "type": "uint8"
            },
            {
              "internalType": "address",
              "name": "producerWallet",
              "type": "address"
            },
            {
              "internalType": "address",
              "name": "activistWallet",
              "type": "address"
            },
            {
              "internalType": "uint256[][]",
              "name": "isas",
              "type": "uint256[][]"
            },
            {
              "internalType": "uint256",
              "name": "isaAverage",
              "type": "uint256"
            },
            {
              "internalType": "uint256",
              "name": "expiresIn",
              "type": "uint256"
            },
            {
              "internalType": "uint256",
              "name": "createdAt",
              "type": "uint256"
            },
            {
              "internalType": "uint256",
              "name": "index",
              "type": "uint256"
            }
          ],
          "internalType": "struct InspectionContract.Inspection[]",
          "name": "",
          "type": "tuple[]"
        }
      ],
      "stateMutability": "view",
      "type": "function",
      "constant": true
    },
    {
      "inputs": [],
      "name": "getInspectionsStatus",
      "outputs": [
        {
          "internalType": "string",
          "name": "",
          "type": "string"
        },
        {
          "internalType": "string",
          "name": "",
          "type": "string"
        },
        {
          "internalType": "string",
          "name": "",
          "type": "string"
        },
        {
          "internalType": "string",
          "name": "",
          "type": "string"
        }
      ],
      "stateMutability": "pure",
      "type": "function",
      "constant": true
    },
    {
      "inputs": [],
      "name": "getIsas",
      "outputs": [
        {
          "internalType": "string",
          "name": "",
          "type": "string"
        },
        {
          "internalType": "string",
          "name": "",
          "type": "string"
        },
        {
          "internalType": "string",
          "name": "",
          "type": "string"
        },
        {
          "internalType": "string",
          "name": "",
          "type": "string"
        },
        {
          "internalType": "string",
          "name": "",
          "type": "string"
        }
      ],
      "stateMutability": "pure",
      "type": "function",
      "constant": true
    },
    {
      "inputs": [
        {
          "internalType": "address",
          "name": "addr",
          "type": "address"
        }
      ],
      "name": "getProducer",
      "outputs": [
        {
          "components": [
            {
              "internalType": "uint256",
              "name": "id",
              "type": "uint256"
            },
            {
              "internalType": "address",
              "name": "producer_wallet",
              "type": "address"
            },
            {
              "internalType": "enum UserContract.UserType",
              "name": "userType",
              "type": "uint8"
            },
            {
              "internalType": "string",
              "name": "name",
              "type": "string"
            },
            {
              "internalType": "string",
              "name": "document",
              "type": "string"
            },
            {
              "internalType": "string",
              "name": "documentType",
              "type": "string"
            },
            {
              "internalType": "bool",
              "name": "recentInspection",
              "type": "bool"
            },
            {
              "internalType": "uint256",
              "name": "totalRequests",
              "type": "uint256"
            },
            {
              "internalType": "uint256",
              "name": "isaAverage",
              "type": "uint256"
            },
            {
              "components": [
                {
                  "internalType": "string",
                  "name": "country",
                  "type": "string"
                },
                {
                  "internalType": "string",
                  "name": "state",
                  "type": "string"
                },
                {
                  "internalType": "string",
                  "name": "city",
                  "type": "string"
                },
                {
                  "internalType": "string",
                  "name": "cep",
                  "type": "string"
                }
              ],
              "internalType": "struct ProducerContract.PropertyAddress",
              "name": "property_address",
              "type": "tuple"
            }
          ],
          "internalType": "struct ProducerContract.Producer",
          "name": "producer",
          "type": "tuple"
        }
      ],
      "stateMutability": "view",
      "type": "function",
      "constant": true
    },
    {
      "inputs": [],
      "name": "getProducers",
      "outputs": [
        {
          "components": [
            {
              "internalType": "uint256",
              "name": "id",
              "type": "uint256"
            },
            {
              "internalType": "address",
              "name": "producer_wallet",
              "type": "address"
            },
            {
              "internalType": "enum UserContract.UserType",
              "name": "userType",
              "type": "uint8"
            },
            {
              "internalType": "string",
              "name": "name",
              "type": "string"
            },
            {
              "internalType": "string",
              "name": "document",
              "type": "string"
            },
            {
              "internalType": "string",
              "name": "documentType",
              "type": "string"
            },
            {
              "internalType": "bool",
              "name": "recentInspection",
              "type": "bool"
            },
            {
              "internalType": "uint256",
              "name": "totalRequests",
              "type": "uint256"
            },
            {
              "internalType": "uint256",
              "name": "isaAverage",
              "type": "uint256"
            },
            {
              "components": [
                {
                  "internalType": "string",
                  "name": "country",
                  "type": "string"
                },
                {
                  "internalType": "string",
                  "name": "state",
                  "type": "string"
                },
                {
                  "internalType": "string",
                  "name": "city",
                  "type": "string"
                },
                {
                  "internalType": "string",
                  "name": "cep",
                  "type": "string"
                }
              ],
              "internalType": "struct ProducerContract.PropertyAddress",
              "name": "property_address",
              "type": "tuple"
            }
          ],
          "internalType": "struct ProducerContract.Producer[]",
          "name": "",
          "type": "tuple[]"
        }
      ],
      "stateMutability": "view",
      "type": "function",
      "constant": true
    },
    {
      "inputs": [
        {
          "internalType": "address",
          "name": "addr",
          "type": "address"
        }
      ],
      "name": "getUser",
      "outputs": [
        {
          "internalType": "enum UserContract.UserType",
          "name": "",
          "type": "uint8"
        }
      ],
      "stateMutability": "view",
      "type": "function",
      "constant": true
    },
    {
      "inputs": [],
      "name": "getUserTypes",
      "outputs": [
        {
          "internalType": "string",
          "name": "",
          "type": "string"
        },
        {
          "internalType": "string",
          "name": "",
          "type": "string"
        },
        {
          "internalType": "string",
          "name": "",
          "type": "string"
        }
      ],
      "stateMutability": "pure",
      "type": "function",
      "constant": true
    },
    {
      "inputs": [
        {
          "internalType": "uint256",
          "name": "id",
          "type": "uint256"
        }
      ],
      "name": "inspectionExists",
      "outputs": [
        {
          "internalType": "bool",
          "name": "",
          "type": "bool"
        }
      ],
      "stateMutability": "view",
      "type": "function",
      "constant": true
    },
    {
      "inputs": [
        {
          "internalType": "address",
          "name": "addr",
          "type": "address"
        }
      ],
      "name": "producerExists",
      "outputs": [
        {
          "internalType": "bool",
          "name": "",
          "type": "bool"
        }
      ],
      "stateMutability": "view",
      "type": "function",
      "constant": true
    },
    {
      "inputs": [],
      "name": "producersCount",
      "outputs": [
        {
          "internalType": "uint256",
          "name": "",
          "type": "uint256"
        }
      ],
      "stateMutability": "view",
      "type": "function",
      "constant": true
    },
    {
      "inputs": [
        {
          "internalType": "uint256",
          "name": "inspectionId",
          "type": "uint256"
        },
        {
          "internalType": "uint256[][]",
          "name": "isas",
          "type": "uint256[][]"
        }
      ],
      "name": "realizeInspection",
      "outputs": [
        {
          "internalType": "bool",
          "name": "",
          "type": "bool"
        }
      ],
      "stateMutability": "nonpayable",
      "type": "function"
    },
    {
      "inputs": [],
      "name": "requestInspection",
      "outputs": [
        {
          "internalType": "bool",
          "name": "",
          "type": "bool"
        }
      ],
      "stateMutability": "nonpayable",
      "type": "function"
    },
    {
      "inputs": [],
      "name": "usersCount",
      "outputs": [
        {
          "internalType": "uint256",
          "name": "",
          "type": "uint256"
        }
      ],
      "stateMutability": "view",
      "type": "function",
      "constant": true
    },
    {
      "inputs": [
        {
          "internalType": "uint256",
          "name": "id",
          "type": "uint256"
        }
      ],
      "name": "vote",
      "outputs": [
        {
          "internalType": "bool",
          "name": "",
          "type": "bool"
        }
      ],
      "stateMutability": "nonpayable",
      "type": "function"
    }
  ],
  "bytecode": "0x608060405262093a8060165534801561001757600080fd5b50615e7480620000286000396000f3fe608060405234801561001057600080fd5b50600436106101c45760003560e01c8063a1c24d64116100f9578063e80a7eb911610097578063ef430aa611610071578063ef430aa61461054b578063f28366701461056a578063f3052d261461058a578063fe5a4fa4146105aa57600080fd5b8063e80a7eb91461051b578063e9e797ac14610530578063ee699fc11461054357600080fd5b8063b92bd2d9116100d3578063b92bd2d91461046c578063dd6850c61461047f578063e53142e2146104ff578063e78575021461050857600080fd5b8063a1c24d6414610369578063aab147b21461037c578063b7399d881461038f57600080fd5b80636337dc1a116101665780637333afcf116101405780637333afcf1461032557806386ae2fb11461032e5780638c4772fc146103365780638ed5540d1461034957600080fd5b80636337dc1a1461027a5780636ba13a82146102e35780636f77926b146102ec57600080fd5b806340f52841116101a257806340f528411461021d57806342e187dd1461023d5780634db0412c1461025257806362efeff71461026757600080fd5b80630121b93f146101c957806309e1b1d1146101f15780630bbec3c214610208575b600080fd5b6101dc6101d736600461518d565b6105ce565b60405190151581526020015b60405180910390f35b6101fa60075481565b6040519081526020016101e8565b610210610af2565b6040516101e89190615308565b61023061022b366004615421565b610c8f565b6040516101e891906156b9565b610245611043565b6040516101e891906156d3565b61025a61151b565b6040516101e89190615823565b610230610275366004615878565b6119a4565b604080518082018252600880825267282927a22aa1a2a960c11b60208084019190915283518085018552918252671050d512559254d560c21b8282015283518085018552600a8152692922a9a2a0a921a422a960b11b9181019190915292516101e893906158a1565b6101fa60015481565b6103186102fa366004615878565b6001600160a01b031660009081526020819052604090205460ff1690565b6040516101e891906158da565b6101fa60135481565b6101dc611e52565b6101dc610344366004615878565b612449565b61035c610357366004615421565b61247f565b6040516101e891906159b4565b6101dc610377366004615421565b612833565b61035c61038a366004615878565b612c8c565b604080518082018252601380825272544f54414c4c595f5355535441494e41424c4560681b60208084019190915283518085018552918252725041525449414c5f5355535441494e41424c4560681b828201528351808501855260068152654e455554524f60d01b818301528451808601865260178082527f5041525449414c5f4e4f545f5355535441494e41424c4500000000000000000082850152865180880188529081527f544f54414c4c595f4e4f545f5355535441494e41424c450000000000000000009381019390935294516101e8959192906159c7565b6101dc61047a366004615a58565b612f09565b604080518082018252600481526327a822a760e11b6020808301919091528251808401845260078152661156141254915160ca1b81830152835180850185526009815268125394d41150d5115160ba1b818401528451808601865260088152671050d0d15415115160c21b9381019390935293516101e894919290615b70565b6101fa60045481565b6101dc61051636600461518d565b61335d565b6105236136d6565b6040516101e89190615bc8565b6101dc61053e366004615878565b613bbf565b610210613be9565b610553613d72565b6040516101e89b9a99989796959493929190615c1d565b61057d61057836600461518d565b614177565b6040516101e89190615cdc565b61059d61059836600461518d565b614322565b6040516101e89190615cef565b6101dc6105b836600461518d565b6000908152601960205260409020546001111590565b6000816105df565b60405180910390fd5b60008181526015602052604090205461063a5760405162461bcd60e51b815260206004820152601a60248201527f546869732063617465676f727920646f6e27742065786973747300000000000060448201526064016105d6565b60008381526015602090815260408083208151610160810183528154815260018201546001600160a01b031693810193909352600281018054919284019161068190615d02565b80601f01602080910402602001604051908101604052809291908181526020018280546106ad90615d02565b80156106fa5780601f106106cf576101008083540402835291602001916106fa565b820191906000526020600020905b8154815290600101906020018083116106dd57829003601f168201915b5050505050815260200160038201805461071390615d02565b80601f016020809104026020016040519081016040528092919081815260200182805461073f90615d02565b801561078c5780601f106107615761010080835404028352916020019161078c565b820191906000526020600020905b81548152906001019060200180831161076f57829003601f168201915b505050505081526020016004820180546107a590615d02565b80601f01602080910402602001604051908101604052809291908181526020018280546107d190615d02565b801561081e5780601f106107f35761010080835404028352916020019161081e565b820191906000526020600020905b81548152906001019060200180831161080157829003601f168201915b5050505050815260200160058201805461083790615d02565b80601f016020809104026020016040519081016040528092919081815260200182805461086390615d02565b80156108b05780601f10610885576101008083540402835291602001916108b0565b820191906000526020600020905b81548152906001019060200180831161089357829003601f168201915b505050505081526020016006820180546108c990615d02565b80601f01602080910402602001604051908101604052809291908181526020018280546108f590615d02565b80156109425780601f1061091757610100808354040283529160200191610942565b820191906000526020600020905b81548152906001019060200180831161092557829003601f168201915b5050505050815260200160078201805461095b90615d02565b80601f016020809104026020016040519081016040528092919081815260200182805461098790615d02565b80156109d45780601f106109a9576101008083540402835291602001916109d4565b820191906000526020600020905b8154815290600101906020018083116109b757829003601f168201915b505050505081526020016008820180546109ed90615d02565b80601f0160208091040260200160405190810160405280929190818152602001828054610a1990615d02565b8015610a665780601f10610a3b57610100808354040283529160200191610a66565b820191906000526020600020905b815481529060010190602001808311610a4957829003601f168201915b5050509183525050600982810154602080840191909152600a909301546040928301526000888152601590935290822001805492935090610aa683615d4d565b9190505550601481610140015181548110610ac357610ac3615d68565b6000918252602082206009600b9092020101805491610ae183615d4d565b919050555060019250505b50919050565b336000908152601860209081526040808320805482518185028101850190935280835260609492939192909184015b82821015610c86578382906000526020600020906008020160405180610120016040529081600082015481526020016001820160009054906101000a900460ff166003811115610b7357610b736151a6565b6003811115610b8457610b846151a6565b815260018201546001600160a01b0361010090910481166020808401919091526002840154909116604080840191909152600384018054825181850281018501909352808352606090940193919290919060009084015b82821015610c4757600084815260209081902083018054604080518285028101850190915281815292830182828015610c3357602002820191906000526020600020905b815481526020019060010190808311610c1f575b505050505081526020019060010190610bdb565b50505050815260200160048201548152602001600582015481526020016006820154815260200160078201548152505081526020019060010190610b21565b50505050905090565b610c97614e2f565b60006007546001610ca89190615d7e565b604080516080810182528881526020808201899052818301889052606082018790528251610120810184528481523391810191909152929350600292909160009190810184815260208082018f905260408083018f9052606083018e905260006080840181905260a0840181905260c09093018690526005805460018101825593528351600b9093027f036b6384b5eca791c62761152d0c79bb0604c104a5fb6f4eb0703f3154bb3db08101938455918401517f036b6384b5eca791c62761152d0c79bb0604c104a5fb6f4eb0703f3154bb3db190920180546001600160a01b039093166001600160a01b03198416811782559185015194955085949290916001600160a81b031990911617600160a01b836003811115610dcb57610dcb6151a6565b021790555060608201518051610deb916002840191602090910190614ea5565b5060808201518051610e07916003840191602090910190614ea5565b5060a08201518051610e23916004840191602090910190614ea5565b5060c082015160058201805460ff191691151591909117905560e08201516006820155610100820151805180516007840191610e6491839160200190614ea5565b506020828101518051610e7d9260018501920190614ea5565b5060408201518051610e99916002840191602090910190614ea5565b5060608201518051610eb5916003840191602090910190614ea5565b50503360009081526006602090815260409182902086518155908601516001820180546001600160a01b031981166001600160a01b0390931692831782559388015188975092955091935090916001600160a81b03191617600160a01b836003811115610f2457610f246151a6565b021790555060608201518051610f44916002840191602090910190614ea5565b5060808201518051610f60916003840191602090910190614ea5565b5060a08201518051610f7c916004840191602090910190614ea5565b5060c082015160058201805460ff191691151591909117905560e08201516006820155610100820151805180516007840191610fbd91839160200190614ea5565b506020828101518051610fd69260018501920190614ea5565b5060408201518051610ff2916002840191602090910190614ea5565b506060820151805161100e916003840191602090910190614ea5565b505060078054935091506000905061102583615d4d565b919050555061103433846147dc565b9b9a5050505050505050505050565b60606005805480602002602001604051908101604052809291908181526020016000905b82821015610c865760008481526020908190206040805161012081018252600b86029092018054835260018101546001600160a01b03811694840194909452919290830190600160a01b900460ff1660038111156110c7576110c76151a6565b60038111156110d8576110d86151a6565b81526020016002820180546110ec90615d02565b80601f016020809104026020016040519081016040528092919081815260200182805461111890615d02565b80156111655780601f1061113a57610100808354040283529160200191611165565b820191906000526020600020905b81548152906001019060200180831161114857829003601f168201915b5050505050815260200160038201805461117e90615d02565b80601f01602080910402602001604051908101604052809291908181526020018280546111aa90615d02565b80156111f75780601f106111cc576101008083540402835291602001916111f7565b820191906000526020600020905b8154815290600101906020018083116111da57829003601f168201915b5050505050815260200160048201805461121090615d02565b80601f016020809104026020016040519081016040528092919081815260200182805461123c90615d02565b80156112895780601f1061125e57610100808354040283529160200191611289565b820191906000526020600020905b81548152906001019060200180831161126c57829003601f168201915b5050509183525050600582015460ff16151560208201526006820154604080830191909152805160808101909152600783018054606090930192829082906112d090615d02565b80601f01602080910402602001604051908101604052809291908181526020018280546112fc90615d02565b80156113495780601f1061131e57610100808354040283529160200191611349565b820191906000526020600020905b81548152906001019060200180831161132c57829003601f168201915b5050505050815260200160018201805461136290615d02565b80601f016020809104026020016040519081016040528092919081815260200182805461138e90615d02565b80156113db5780601f106113b0576101008083540402835291602001916113db565b820191906000526020600020905b8154815290600101906020018083116113be57829003601f168201915b505050505081526020016002820180546113f490615d02565b80601f016020809104026020016040519081016040528092919081815260200182805461142090615d02565b801561146d5780601f106114425761010080835404028352916020019161146d565b820191906000526020600020905b81548152906001019060200180831161145057829003601f168201915b5050505050815260200160038201805461148690615d02565b80601f01602080910402602001604051908101604052809291908181526020018280546114b290615d02565b80156114ff5780601f106114d4576101008083540402835291602001916114ff565b820191906000526020600020905b8154815290600101906020018083116114e257829003601f168201915b5050505050815250508152505081526020019060010190611067565b60606014805480602002602001604051908101604052809291908181526020016000905b82821015610c865760008481526020908190206040805161016081018252600b86029092018054835260018101546001600160a01b0316938301939093526002830180549293929184019161159390615d02565b80601f01602080910402602001604051908101604052809291908181526020018280546115bf90615d02565b801561160c5780601f106115e15761010080835404028352916020019161160c565b820191906000526020600020905b8154815290600101906020018083116115ef57829003601f168201915b5050505050815260200160038201805461162590615d02565b80601f016020809104026020016040519081016040528092919081815260200182805461165190615d02565b801561169e5780601f106116735761010080835404028352916020019161169e565b820191906000526020600020905b81548152906001019060200180831161168157829003601f168201915b505050505081526020016004820180546116b790615d02565b80601f01602080910402602001604051908101604052809291908181526020018280546116e390615d02565b80156117305780601f1061170557610100808354040283529160200191611730565b820191906000526020600020905b81548152906001019060200180831161171357829003601f168201915b5050505050815260200160058201805461174990615d02565b80601f016020809104026020016040519081016040528092919081815260200182805461177590615d02565b80156117c25780601f10611797576101008083540402835291602001916117c2565b820191906000526020600020905b8154815290600101906020018083116117a557829003601f168201915b505050505081526020016006820180546117db90615d02565b80601f016020809104026020016040519081016040528092919081815260200182805461180790615d02565b80156118545780601f1061182957610100808354040283529160200191611854565b820191906000526020600020905b81548152906001019060200180831161183757829003601f168201915b5050505050815260200160078201805461186d90615d02565b80601f016020809104026020016040519081016040528092919081815260200182805461189990615d02565b80156118e65780601f106118bb576101008083540402835291602001916118e6565b820191906000526020600020905b8154815290600101906020018083116118c957829003601f168201915b505050505081526020016008820180546118ff90615d02565b80601f016020809104026020016040519081016040528092919081815260200182805461192b90615d02565b80156119785780601f1061194d57610100808354040283529160200191611978565b820191906000526020600020905b81548152906001019060200180831161195b57829003601f168201915b5050505050815260200160098201548152602001600a820154815250508152602001906001019061153f565b6119ac614e2f565b6001600160a01b038281166000908152600660209081526040918290208251610120810184528154815260018201549485169281019290925290929091830190600160a01b900460ff166003811115611a0757611a076151a6565b6003811115611a1857611a186151a6565b8152602001600282018054611a2c90615d02565b80601f0160208091040260200160405190810160405280929190818152602001828054611a5890615d02565b8015611aa55780601f10611a7a57610100808354040283529160200191611aa5565b820191906000526020600020905b815481529060010190602001808311611a8857829003601f168201915b50505050508152602001600382018054611abe90615d02565b80601f0160208091040260200160405190810160405280929190818152602001828054611aea90615d02565b8015611b375780601f10611b0c57610100808354040283529160200191611b37565b820191906000526020600020905b815481529060010190602001808311611b1a57829003601f168201915b50505050508152602001600482018054611b5090615d02565b80601f0160208091040260200160405190810160405280929190818152602001828054611b7c90615d02565b8015611bc95780601f10611b9e57610100808354040283529160200191611bc9565b820191906000526020600020905b815481529060010190602001808311611bac57829003601f168201915b5050509183525050600582015460ff1615156020820152600682015460408083019190915280516080810190915260078301805460609093019282908290611c1090615d02565b80601f0160208091040260200160405190810160405280929190818152602001828054611c3c90615d02565b8015611c895780601f10611c5e57610100808354040283529160200191611c89565b820191906000526020600020905b815481529060010190602001808311611c6c57829003601f168201915b50505050508152602001600182018054611ca290615d02565b80601f0160208091040260200160405190810160405280929190818152602001828054611cce90615d02565b8015611d1b5780601f10611cf057610100808354040283529160200191611d1b565b820191906000526020600020905b815481529060010190602001808311611cfe57829003601f168201915b50505050508152602001600282018054611d3490615d02565b80601f0160208091040260200160405190810160405280929190818152602001828054611d6090615d02565b8015611dad5780601f10611d8257610100808354040283529160200191611dad565b820191906000526020600020905b815481529060010190602001808311611d9057829003601f168201915b50505050508152602001600382018054611dc690615d02565b80601f0160208091040260200160405190810160405280929190818152602001828054611df290615d02565b8015611e3f5780601f10611e1457610100808354040283529160200191611e3f565b820191906000526020600020905b815481529060010190602001808311611e2257829003601f168201915b5050509190925250505090525092915050565b6000611e5d33613bbf565b611ec05760405162461bcd60e51b815260206004820152602e60248201527f596f7520617265206e6f7420612070726f64756365722120506c65617365207260448201526d65676973746572206173206f6e6560901b60648201526084016105d6565b3360009081526003602081815260408084208151610140810183528154815260018201546001600160a01b0381169482019490945293909291840191600160a01b900460ff1690811115611f1657611f166151a6565b6003811115611f2757611f276151a6565b8152602001600282018054611f3b90615d02565b80601f0160208091040260200160405190810160405280929190818152602001828054611f6790615d02565b8015611fb45780601f10611f8957610100808354040283529160200191611fb4565b820191906000526020600020905b815481529060010190602001808311611f9757829003601f168201915b50505050508152602001600382018054611fcd90615d02565b80601f0160208091040260200160405190810160405280929190818152602001828054611ff990615d02565b80156120465780601f1061201b57610100808354040283529160200191612046565b820191906000526020600020905b81548152906001019060200180831161202957829003601f168201915b5050505050815260200160048201805461205f90615d02565b80601f016020809104026020016040519081016040528092919081815260200182805461208b90615d02565b80156120d85780601f106120ad576101008083540402835291602001916120d8565b820191906000526020600020905b8154815290600101906020018083116120bb57829003601f168201915b505050505081526020016005820160009054906101000a900460ff1615151515815260200160068201548152602001600782015481526020016008820160405180608001604052908160008201805461213090615d02565b80601f016020809104026020016040519081016040528092919081815260200182805461215c90615d02565b80156121a95780601f1061217e576101008083540402835291602001916121a9565b820191906000526020600020905b81548152906001019060200180831161218c57829003601f168201915b505050505081526020016001820180546121c290615d02565b80601f01602080910402602001604051908101604052809291908181526020018280546121ee90615d02565b801561223b5780601f106122105761010080835404028352916020019161223b565b820191906000526020600020905b81548152906001019060200180831161221e57829003601f168201915b5050505050815260200160028201805461225490615d02565b80601f016020809104026020016040519081016040528092919081815260200182805461228090615d02565b80156122cd5780601f106122a2576101008083540402835291602001916122cd565b820191906000526020600020905b8154815290600101906020018083116122b057829003601f168201915b505050505081526020016003820180546122e690615d02565b80601f016020809104026020016040519081016040528092919081815260200182805461231290615d02565b801561235f5780601f106123345761010080835404028352916020019161235f565b820191906000526020600020905b81548152906001019060200180831161234257829003601f168201915b5050509190925250505090525060c08101519091501561241c5760405162461bcd60e51b815260206004820152606660248201527f596f752068617665206120696e7370656374696f6e2072657175657374204f5060448201527f454e206f7220414343455054454421205761697420612061637469766973742060648201527f7265616c697a6520696e7370656374696f6e206f7220796f752063616e20636c6084820152651bdcd9481a5d60d21b60a482015260c4016105d6565b61242461482f565b5050336000908152600360205260409020600501805460ff1916600190811790915590565b6001600160a01b038116600090815260066020526040812060020180548291829161247390615d02565b91909111949350505050565b612487614f29565b600060045460016124989190615d7e565b604080516080810182528881526020808201899052818301889052606082018790528251610140810184528481523391810191909152929350600192909160009190810184815260208082018f905260408083018f9052606083018e905260006080840181905260a0840181905260c0840181905260e09093018690526002805460018101825593528351600c9093027f405787fa12a823e0f2b7631cc41b3ba8828b3321ca811111fa75cd3aa3bb5ace8101938455918401517f405787fa12a823e0f2b7631cc41b3ba8828b3321ca811111fa75cd3aa3bb5acf90920180546001600160a01b039093166001600160a01b03198416811782559185015194955085949290916001600160a81b031990911617600160a01b8360038111156125c2576125c26151a6565b0217905550606082015180516125e2916002840191602090910190614ea5565b50608082015180516125fe916003840191602090910190614ea5565b5060a0820151805161261a916004840191602090910190614ea5565b5060c082015160058201805460ff191691151591909117905560e08201516006820155610100820151600782015561012082015180518051600884019161266691839160200190614ea5565b50602082810151805161267f9260018501920190614ea5565b506040820151805161269b916002840191602090910190614ea5565b50606082015180516126b7916003840191602090910190614ea5565b50503360009081526003602081815260409283902087518155908701516001820180546001600160a01b031981166001600160a01b0390931692831782559489015189985092965091945090926001600160a81b0319161790600160a01b908490811115612727576127276151a6565b021790555060608201518051612747916002840191602090910190614ea5565b5060808201518051612763916003840191602090910190614ea5565b5060a0820151805161277f916004840191602090910190614ea5565b5060c082015160058201805460ff191691151591909117905560e0820151600682015561010082015160078201556101208201518051805160088401916127cb91839160200190614ea5565b5060208281015180516127e49260018501920190614ea5565b5060408201518051612800916002840191602090910190614ea5565b506060820151805161281c916003840191602090910190614ea5565b505060048054935091506000905061102583615d4d565b60008060135460016128459190615d7e565b90506000612854600183615d96565b60408051610160810182528481523360208083018290529282018e9052606082018d9052608082018c905260a082018b905260c082018a905260e082018990526101008201889052600061012083015261014082018490526008868155600980546001600160a01b0319169092179091558d51939450909290916128dd91600a918f0190614ea5565b50606082015180516128f9916003840191602090910190614ea5565b5060808201518051612915916004840191602090910190614ea5565b5060a08201518051612931916005840191602090910190614ea5565b5060c0820151805161294d916006840191602090910190614ea5565b5060e08201518051612969916007840191602090910190614ea5565b506101008201518051612986916008840191602090910190614ea5565b5061012082015160098083019190915561014090920151600a918201556014805460018101825560009190915260088054600b9092027fce6d7b5282bd9a3661ae061feed1dbda4e52ab073b1f9285be6e155d9c38d4ec810192835593547fce6d7b5282bd9a3661ae061feed1dbda4e52ab073b1f9285be6e155d9c38d4ed850180546001600160a01b0319166001600160a01b039092169190911790558254909391927fce6d7b5282bd9a3661ae061feed1dbda4e52ab073b1f9285be6e155d9c38d4ee9092019190612a5990615d02565b612a64929190614fa1565b506003820181600301908054612a7990615d02565b612a84929190614fa1565b506004820181600401908054612a9990615d02565b612aa4929190614fa1565b506005820181600501908054612ab990615d02565b612ac4929190614fa1565b506006820181600601908054612ad990615d02565b612ae4929190614fa1565b506007820181600701908054612af990615d02565b612b04929190614fa1565b506008820181600801908054612b1990615d02565b612b24929190614fa1565b5060098281015482820155600a9283015491830191909155600084815260156020526040902060088054825591546001820180546001600160a01b0319166001600160a01b03909216919091179055825491929091600283019190612b8890615d02565b612b93929190614fa1565b506003820181600301908054612ba890615d02565b612bb3929190614fa1565b506004820181600401908054612bc890615d02565b612bd3929190614fa1565b506005820181600501908054612be890615d02565b612bf3929190614fa1565b506006820181600601908054612c0890615d02565b612c13929190614fa1565b506007820181600701908054612c2890615d02565b612c33929190614fa1565b506008820181600801908054612c4890615d02565b612c53929190614fa1565b5060098281015490820155600a9182015491015560138054906000612c7783615d4d565b9091555060019b9a5050505050505050505050565b612c94614f29565b6001600160a01b038281166000908152600360208181526040928390208351610140810185528154815260018201549586169281019290925290939092840191600160a01b90910460ff1690811115612cef57612cef6151a6565b6003811115612d0057612d006151a6565b8152602001600282018054612d1490615d02565b80601f0160208091040260200160405190810160405280929190818152602001828054612d4090615d02565b8015612d8d5780601f10612d6257610100808354040283529160200191612d8d565b820191906000526020600020905b815481529060010190602001808311612d7057829003601f168201915b50505050508152602001600382018054612da690615d02565b80601f0160208091040260200160405190810160405280929190818152602001828054612dd290615d02565b8015612e1f5780601f10612df457610100808354040283529160200191612e1f565b820191906000526020600020905b815481529060010190602001808311612e0257829003601f168201915b50505050508152602001600482018054612e3890615d02565b80601f0160208091040260200160405190810160405280929190818152602001828054612e6490615d02565b8015612eb15780601f10612e8657610100808354040283529160200191612eb1565b820191906000526020600020905b815481529060010190602001808311612e9457829003601f168201915b505050505081526020016005820160009054906101000a900460ff16151515158152602001600682015481526020016007820154815260200160088201604051806080016040529081600082018054611c1090615d02565b6000612f1433612449565b612f305760405162461bcd60e51b81526004016105d690615dad565b600083815260196020526040902054839060011115612f915760405162461bcd60e51b815260206004820152601c60248201527f5468697320696e7370656374696f6e20646f6e2774206578697374730000000060448201526064016105d6565b600360008581526019602052604090206001015460ff166003811115612fb957612fb96151a6565b14612fc75760009150613356565b6000848152601960205260409020600201546001600160a01b03163314612ff15760009150613356565b600084815260196020908152604090912084516130169260039092019186019061501c565b506000848152601960209081526040808320600181018054600260ff19909116811791829055835161012081018552835481528086018290526101009092046001600160a01b0390811683860152908301541660608201526003820180548451818702810187019095528085526131379692959394608087019490939084015b82821015613102576000848152602090819020830180546040805182850281018501909152818152928301828280156130ee57602002820191906000526020600020905b8154815260200190600101908083116130da575b505050505081526020019060010190613096565b505050508152602001600482015481526020016005820154815260200160068201548152602001600782015481525050614ac3565b60008581526019602052604090206004015561315284614aec565b60008481526019602052604090206007015460178054859290811061317957613179615d68565b9060005260206000209060080201600301908051906020019061319d92919061501c565b50600084815260196020908152604091829020825161012081019093528054835260018101546132b3939283019060ff1660038111156131df576131df6151a6565b60038111156131f0576131f06151a6565b815260018201546001600160a01b0361010090910481166020808401919091526002840154909116604080840191909152600384018054825181850281018501909352808352606090940193919290919060009084015b828210156131025760008481526020908190208301805460408051828502810185019091528181529283018282801561329f57602002820191906000526020600020905b81548152602001906001019080831161328b575b505050505081526020019060010190613247565b6000858152601960205260409020600701546017805490919081106132da576132da615d68565b9060005260206000209060080201600401819055506002601760196000878152602001908152602001600020600701548154811061331a5761331a615d68565b906000526020600020906008020160010160006101000a81548160ff0219169083600381111561334c5761334c6151a6565b0217905550600191505b5092915050565b600061336833612449565b6133845760405162461bcd60e51b81526004016105d690615dad565b6000828152601960205260409020548290600111156133e55760405162461bcd60e51b815260206004820152601c60248201527f5468697320696e7370656374696f6e20646f6e2774206578697374730000000060448201526064016105d6565b600083815260196020908152604080832081516101208101909252805482526001810154919290919083019060ff166003811115613425576134256151a6565b6003811115613436576134366151a6565b815260018201546001600160a01b0361010090910481166020808401919091526002840154909116604080840191909152600384018054825181850281018501909352808352606090940193919290919060009084015b828210156134f9576000848152602090819020830180546040805182850281018501909152818152928301828280156134e557602002820191906000526020600020905b8154815260200190600101908083116134d1575b50505050508152602001906001019061348d565b505050908252506004820154602082015260058201546040820152600682015460608201526007909101546080909101529050600081602001516003811115613544576135446151a6565b14156136cc5760036020828101828152336060850152600087815260199092526040909120835181559051600180830180548695919260ff19909116918490811115613592576135926151a6565b02179055506040820151600182018054610100600160a81b0319166101006001600160a01b039384160217905560608301516002830180546001600160a01b03191691909216179055608082015180516135f691600384019160209091019061501c565b5060a0820151816004015560c0820151816005015560e082015181600601556101008201518160070155905050600360178261010001518154811061363d5761363d615d68565b906000526020600020906008020160010160006101000a81548160ff0219169083600381111561366f5761366f6151a6565b02179055503360178261010001518154811061368d5761368d615d68565b906000526020600020906008020160020160006101000a8154816001600160a01b0302191690836001600160a01b031602179055506001925050610aec565b6000925050610aec565b60606002805480602002602001604051908101604052809291908181526020016000905b82821015610c865760008481526020908190206040805161014081018252600c86029092018054835260018101546001600160a01b03811694840194909452919290830190600160a01b900460ff16600381111561375a5761375a6151a6565b600381111561376b5761376b6151a6565b815260200160028201805461377f90615d02565b80601f01602080910402602001604051908101604052809291908181526020018280546137ab90615d02565b80156137f85780601f106137cd576101008083540402835291602001916137f8565b820191906000526020600020905b8154815290600101906020018083116137db57829003601f168201915b5050505050815260200160038201805461381190615d02565b80601f016020809104026020016040519081016040528092919081815260200182805461383d90615d02565b801561388a5780601f1061385f5761010080835404028352916020019161388a565b820191906000526020600020905b81548152906001019060200180831161386d57829003601f168201915b505050505081526020016004820180546138a390615d02565b80601f01602080910402602001604051908101604052809291908181526020018280546138cf90615d02565b801561391c5780601f106138f15761010080835404028352916020019161391c565b820191906000526020600020905b8154815290600101906020018083116138ff57829003601f168201915b505050505081526020016005820160009054906101000a900460ff1615151515815260200160068201548152602001600782015481526020016008820160405180608001604052908160008201805461397490615d02565b80601f01602080910402602001604051908101604052809291908181526020018280546139a090615d02565b80156139ed5780601f106139c2576101008083540402835291602001916139ed565b820191906000526020600020905b8154815290600101906020018083116139d057829003601f168201915b50505050508152602001600182018054613a0690615d02565b80601f0160208091040260200160405190810160405280929190818152602001828054613a3290615d02565b8015613a7f5780601f10613a5457610100808354040283529160200191613a7f565b820191906000526020600020905b815481529060010190602001808311613a6257829003601f168201915b50505050508152602001600282018054613a9890615d02565b80601f0160208091040260200160405190810160405280929190818152602001828054613ac490615d02565b8015613b115780601f10613ae657610100808354040283529160200191613b11565b820191906000526020600020905b815481529060010190602001808311613af457829003601f168201915b50505050508152602001600382018054613b2a90615d02565b80601f0160208091040260200160405190810160405280929190818152602001828054613b5690615d02565b8015613ba35780601f10613b7857610100808354040283529160200191613ba3565b820191906000526020600020905b815481529060010190602001808311613b8657829003601f168201915b50505050508152505081525050815260200190600101906136fa565b6001600160a01b038116600090815260036020526040812060020180548291829161247390615d02565b60606017805480602002602001604051908101604052809291908181526020016000905b82821015610c86578382906000526020600020906008020160405180610120016040529081600082015481526020016001820160009054906101000a900460ff166003811115613c5f57613c5f6151a6565b6003811115613c7057613c706151a6565b815260018201546001600160a01b0361010090910481166020808401919091526002840154909116604080840191909152600384018054825181850281018501909352808352606090940193919290919060009084015b82821015613d3357600084815260209081902083018054604080518285028101850190915281815292830182828015613d1f57602002820191906000526020600020905b815481526020019060010190808311613d0b575b505050505081526020019060010190613cc7565b50505050815260200160048201548152602001600582015481526020016006820154815260200160078201548152505081526020019060010190613c0d565b60088054600954600a805492936001600160a01b0390921692613d9490615d02565b80601f0160208091040260200160405190810160405280929190818152602001828054613dc090615d02565b8015613e0d5780601f10613de257610100808354040283529160200191613e0d565b820191906000526020600020905b815481529060010190602001808311613df057829003601f168201915b505050505090806003018054613e2290615d02565b80601f0160208091040260200160405190810160405280929190818152602001828054613e4e90615d02565b8015613e9b5780601f10613e7057610100808354040283529160200191613e9b565b820191906000526020600020905b815481529060010190602001808311613e7e57829003601f168201915b505050505090806004018054613eb090615d02565b80601f0160208091040260200160405190810160405280929190818152602001828054613edc90615d02565b8015613f295780601f10613efe57610100808354040283529160200191613f29565b820191906000526020600020905b815481529060010190602001808311613f0c57829003601f168201915b505050505090806005018054613f3e90615d02565b80601f0160208091040260200160405190810160405280929190818152602001828054613f6a90615d02565b8015613fb75780601f10613f8c57610100808354040283529160200191613fb7565b820191906000526020600020905b815481529060010190602001808311613f9a57829003601f168201915b505050505090806006018054613fcc90615d02565b80601f0160208091040260200160405190810160405280929190818152602001828054613ff890615d02565b80156140455780601f1061401a57610100808354040283529160200191614045565b820191906000526020600020905b81548152906001019060200180831161402857829003601f168201915b50505050509080600701805461405a90615d02565b80601f016020809104026020016040519081016040528092919081815260200182805461408690615d02565b80156140d35780601f106140a8576101008083540402835291602001916140d3565b820191906000526020600020905b8154815290600101906020018083116140b657829003601f168201915b5050505050908060080180546140e890615d02565b80601f016020809104026020016040519081016040528092919081815260200182805461411490615d02565b80156141615780601f1061413657610100808354040283529160200191614161565b820191906000526020600020905b81548152906001019060200180831161414457829003601f168201915b50505050509080600901549080600a015490508b565b6141d960408051610120810190915260008082526020820190815260200160006001600160a01b0316815260200160006001600160a01b0316815260200160608152602001600081526020016000815260200160008152602001600081525090565b60008281526019602090815260409182902082516101208101909352805483526001810154909183019060ff166003811115614217576142176151a6565b6003811115614228576142286151a6565b815260018201546001600160a01b0361010090910481166020808401919091526002840154909116604080840191909152600384018054825181850281018501909352808352606090940193919290919060009084015b828210156142eb576000848152602090819020830180546040805182850281018501909152818152928301828280156142d757602002820191906000526020600020905b8154815260200190600101908083116142c3575b50505050508152602001906001019061427f565b5050505081526020016004820154815260200160058201548152602001600682015481526020016007820154815250509050919050565b6143886040518061016001604052806000815260200160006001600160a01b031681526020016060815260200160608152602001606081526020016060815260200160608152602001606081526020016060815260200160008152602001600081525090565b6000828152601560209081526040918290208251610160810184528154815260018201546001600160a01b03169281019290925260028101805492939192918401916143d390615d02565b80601f01602080910402602001604051908101604052809291908181526020018280546143ff90615d02565b801561444c5780601f106144215761010080835404028352916020019161444c565b820191906000526020600020905b81548152906001019060200180831161442f57829003601f168201915b5050505050815260200160038201805461446590615d02565b80601f016020809104026020016040519081016040528092919081815260200182805461449190615d02565b80156144de5780601f106144b3576101008083540402835291602001916144de565b820191906000526020600020905b8154815290600101906020018083116144c157829003601f168201915b505050505081526020016004820180546144f790615d02565b80601f016020809104026020016040519081016040528092919081815260200182805461452390615d02565b80156145705780601f1061454557610100808354040283529160200191614570565b820191906000526020600020905b81548152906001019060200180831161455357829003601f168201915b5050505050815260200160058201805461458990615d02565b80601f01602080910402602001604051908101604052809291908181526020018280546145b590615d02565b80156146025780601f106145d757610100808354040283529160200191614602565b820191906000526020600020905b8154815290600101906020018083116145e557829003601f168201915b5050505050815260200160068201805461461b90615d02565b80601f016020809104026020016040519081016040528092919081815260200182805461464790615d02565b80156146945780601f1061466957610100808354040283529160200191614694565b820191906000526020600020905b81548152906001019060200180831161467757829003601f168201915b505050505081526020016007820180546146ad90615d02565b80601f01602080910402602001604051908101604052809291908181526020018280546146d990615d02565b80156147265780601f106146fb57610100808354040283529160200191614726565b820191906000526020600020905b81548152906001019060200180831161470957829003601f168201915b5050505050815260200160088201805461473f90615d02565b80601f016020809104026020016040519081016040528092919081815260200182805461476b90615d02565b80156147b85780601f1061478d576101008083540402835291602001916147b8565b820191906000526020600020905b81548152906001019060200180831161479b57829003601f168201915b5050505050815260200160098201548152602001600a820154815250509050919050565b6001600160a01b0382166000908152602081905260409020805482919060ff19166001836003811115614811576148116151a6565b02179055506001805490600061482683615d4d565b91905055505050565b6000601a5460016148409190615d7e565b9050600061484f600183615d96565b905060606000601654426148639190615d7e565b905060006040518061012001604052808681526020016000600381111561488c5761488c6151a6565b815233602080830182905260408301919091526060820186905260006080830181905260a083018690524260c084015260e0909201879052601780546001818101835591909352835160089093027fc624b66cc0138b8fabc209247f72d758e1cf3343756d543badbf24212bed8c158101938455918401517fc624b66cc0138b8fabc209247f72d758e1cf3343756d543badbf24212bed8c1690920180549495508594909160ff199091169083600381111561494a5761494a6151a6565b02179055506040820151600182018054610100600160a81b0319166101006001600160a01b039384160217905560608301516002830180546001600160a01b03191691909216179055608082015180516149ae91600384019160209091019061501c565b5060a0820151600482015560c0820151600582015560e082015160068201556101009091015160079091015560008581526019602090815260409091208251815590820151600180830180548594939260ff1990911690836003811115614a1757614a176151a6565b02179055506040820151600182018054610100600160a81b0319166101006001600160a01b039384160217905560608301516002830180546001600160a01b0319169190921617905560808201518051614a7b91600384019160209091019061501c565b5060a0820151600482015560c0820151600582015560e0820151600682015561010090910151600790910155601a8054906000614ab783615d4d565b91905055505050505050565b608081015160009081614ad582614d74565b9050815181614ae49190615dfc565b949350505050565b600081815260196020908152604080832060018101546002909101546001600160a01b0390811680865260069485905292852060058101805460ff1916905590930180546101009092049093169391929091614b4783615d4d565b90915550506001600160a01b038216600090815260036020526040812060058101805460ff19169055600601805491614b7f83615d4d565b90915550506001600160a01b03821660009081526018602090815260408083208684526019835290832081546001818101845592855292909320835460089093020191825580830154828201805460ff90921692909160ff191690836003811115614bec57614bec6151a6565b021790555060018281015490820180546001600160a01b03610100938490048116909302610100600160a81b031990911617905560028084015490830180546001600160a01b0319169190921617905560038083018054614c509284019190615075565b506004828101549082015560058083015490820155600680830154908201556007918201549101556001600160a01b03811660009081526018602090815260408083208684526019835290832081546001818101845592855292909320835460089093020191825580830154828201805460ff90921692909160ff191690836003811115614ce057614ce06151a6565b021790555060018281015490820180546001600160a01b03610100938490048116909302610100600160a81b031990911617905560028084015490830180546001600160a01b0319169190921617905560038083018054614d449284019190615075565b50600482015481600401556005820154816005015560068201548160060155600782015481600701555050505050565b6040805160a081018252600a815260086020820152600691810191909152600460608201526002608082015260009081805b84518160ff161015614e27576000858260ff1681518110614dc957614dc9615d68565b6020026020010151600181518110614de357614de3615d68565b60200260200101519050838160058110614dff57614dff615d68565b6020020151614e119060ff1684615d7e565b9250508080614e1f90615e1e565b915050614da6565b509392505050565b60408051610120810182526000808252602082018190529091820190815260200160608152602001606081526020016060815260200160001515815260200160008152602001614ea06040518060800160405280606081526020016060815260200160608152602001606081525090565b905290565b828054614eb190615d02565b90600052602060002090601f016020900481019282614ed35760008555614f19565b82601f10614eec57805160ff1916838001178555614f19565b82800160010185558215614f19579182015b82811115614f19578251825591602001919060010190614efe565b50614f259291506150c1565b5090565b6040805161014081018252600080825260208201819052909182019081526020016060815260200160608152602001606081526020016000151581526020016000815260200160008152602001614ea06040518060800160405280606081526020016060815260200160608152602001606081525090565b828054614fad90615d02565b90600052602060002090601f016020900481019282614fcf5760008555614f19565b82601f10614fe05780548555614f19565b82800160010185558215614f1957600052602060002091601f016020900482015b82811115614f19578254825591600101919060010190615001565b828054828255906000526020600020908101928215615069579160200282015b8281111561506957825180516150599184916020909101906150d6565b509160200191906001019061503c565b50614f25929150615110565b8280548282559060005260206000209081019282156150695760005260206000209182015b828111156150695782546150b1908390859061512d565b509160010191906001019061509a565b5b80821115614f2557600081556001016150c2565b828054828255906000526020600020908101928215614f195791602002820182811115614f19578251825591602001919060010190614efe565b80821115614f25576000615124828261516c565b50600101615110565b828054828255906000526020600020908101928215614f1957600052602060002091820182811115614f19578254825591600101919060010190615001565b508054600082559060005260206000209081019061518a91906150c1565b50565b60006020828403121561519f57600080fd5b5035919050565b634e487b7160e01b600052602160045260246000fd5b6004811061518a57634e487b7160e01b600052602160045260246000fd5b6151e3816151bc565b9052565b600082825180855260208086019550808260051b8401018186016000805b8581101561525857868403601f19018a52825180518086529086019086860190845b8181101561524357835183529288019291880191600101615227565b50509a86019a94505091840191600101615205565b509198975050505050505050565b600061012082518452602083015161527d816151bc565b80602086015250604083015161529e60408601826001600160a01b03169052565b5060608301516152b960608601826001600160a01b03169052565b5060808301518160808601526152d1828601826151e7565b91505060a083015160a085015260c083015160c085015260e083015160e08501526101008084015181860152508091505092915050565b6000602080830181845280855180835260408601915060408160051b870101925083870160005b8281101561535d57603f1988860301845261534b858351615266565b9450928501929085019060010161532f565b5092979650505050505050565b634e487b7160e01b600052604160045260246000fd5b604051601f8201601f1916810167ffffffffffffffff811182821017156153a9576153a961536a565b604052919050565b600082601f8301126153c257600080fd5b813567ffffffffffffffff8111156153dc576153dc61536a565b6153ef601f8201601f1916602001615380565b81815284602083860101111561540457600080fd5b816020850160208301376000918101602001919091529392505050565b600080600080600080600060e0888a03121561543c57600080fd5b873567ffffffffffffffff8082111561545457600080fd5b6154608b838c016153b1565b985060208a013591508082111561547657600080fd5b6154828b838c016153b1565b975060408a013591508082111561549857600080fd5b6154a48b838c016153b1565b965060608a01359150808211156154ba57600080fd5b6154c68b838c016153b1565b955060808a01359150808211156154dc57600080fd5b6154e88b838c016153b1565b945060a08a01359150808211156154fe57600080fd5b61550a8b838c016153b1565b935060c08a013591508082111561552057600080fd5b5061552d8a828b016153b1565b91505092959891949750929550565b6000815180845260005b8181101561556257602081850181015186830182015201615546565b81811115615574576000602083870101525b50601f01601f19169290920160200192915050565b600081516080845261559e608085018261553c565b9050602083015184820360208601526155b7828261553c565b915050604083015184820360408601526155d1828261553c565b915050606083015184820360608601526155eb828261553c565b95945050505050565b600061012082518452602083015161561760208601826001600160a01b03169052565b50604083015161562a60408601826151da565b5060608301518160608601526156428286018261553c565b9150506080830151848203608086015261565c828261553c565b91505060a083015184820360a0860152615676828261553c565b91505060c083015161568c60c086018215159052565b5060e083015160e085015261010080840151858303828701526156af8382615589565b9695505050505050565b6020815260006156cc60208301846155f4565b9392505050565b6000602080830181845280855180835260408601915060408160051b870101925083870160005b8281101561535d57603f198886030184526157168583516155f4565b945092850192908501906001016156fa565b600061016082518452602083015161574b60208601826001600160a01b03169052565b5060408301518160408601526157638286018261553c565b9150506060830151848203606086015261577d828261553c565b91505060808301518482036080860152615797828261553c565b91505060a083015184820360a08601526157b1828261553c565b91505060c083015184820360c08601526157cb828261553c565b91505060e083015184820360e08601526157e5828261553c565b9150506101008084015185830382870152615800838261553c565b610120868101519088015261014095860151959096019490945250929392505050565b6000602080830181845280855180835260408601915060408160051b870101925083870160005b8281101561535d57603f19888603018452615866858351615728565b9450928501929085019060010161584a565b60006020828403121561588a57600080fd5b81356001600160a01b03811681146156cc57600080fd5b6060815260006158b4606083018661553c565b82810360208401526158c6818661553c565b905082810360408401526156af818561553c565b602081016158e7836151bc565b91905290565b600061014082518452602083015161591060208601826001600160a01b03169052565b50604083015161592360408601826151da565b50606083015181606086015261593b8286018261553c565b91505060808301518482036080860152615955828261553c565b91505060a083015184820360a086015261596f828261553c565b91505060c083015161598560c086018215159052565b5060e083015160e085015261010080840151818601525061012080840151858303828701526156af8382615589565b6020815260006156cc60208301846158ed565b60a0815260006159da60a083018861553c565b82810360208401526159ec818861553c565b90508281036040840152615a00818761553c565b90508281036060840152615a14818661553c565b90508281036080840152615a28818561553c565b98975050505050505050565b600067ffffffffffffffff821115615a4e57615a4e61536a565b5060051b60200190565b6000806040808486031215615a6c57600080fd5b8335925060208085013567ffffffffffffffff80821115615a8c57600080fd5b818701915087601f830112615aa057600080fd5b8135615ab3615aae82615a34565b615380565b81815260059190911b8301840190848101908a831115615ad257600080fd5b8585015b83811015615b5e57803585811115615aee5760008081fd5b8601603f81018d13615b005760008081fd5b87810135615b10615aae82615a34565b81815260059190911b82018a0190898101908f831115615b305760008081fd5b928b01925b82841015615b4e5783358252928a0192908a0190615b35565b8652505050918601918601615ad6565b50809750505050505050509250929050565b608081526000615b83608083018761553c565b8281036020840152615b95818761553c565b90508281036040840152615ba9818661553c565b90508281036060840152615bbd818561553c565b979650505050505050565b6000602080830181845280855180835260408601915060408160051b870101925083870160005b8281101561535d57603f19888603018452615c0b8583516158ed565b94509285019290850190600101615bef565b8b81526001600160a01b038b1660208201526000610160806040840152615c468184018d61553c565b90508281036060840152615c5a818c61553c565b90508281036080840152615c6e818b61553c565b905082810360a0840152615c82818a61553c565b905082810360c0840152615c96818961553c565b905082810360e0840152615caa818861553c565b9050828103610100840152615cbf818761553c565b610120840195909552505061014001529998505050505050505050565b6020815260006156cc6020830184615266565b6020815260006156cc6020830184615728565b600181811c90821680615d1657607f821691505b60208210811415610aec57634e487b7160e01b600052602260045260246000fd5b634e487b7160e01b600052601160045260246000fd5b6000600019821415615d6157615d61615d37565b5060010190565b634e487b7160e01b600052603260045260246000fd5b60008219821115615d9157615d91615d37565b500190565b600082821015615da857615da8615d37565b500390565b6020808252602f908201527f596f75206d75737420626520616e2061637469766973742120506c656173652060408201526e7265676973746572206173206f6e6560881b606082015260800190565b600082615e1957634e487b7160e01b600052601260045260246000fd5b500490565b600060ff821660ff811415615e3557615e35615d37565b6001019291505056fea2646970667358221220c9d8d05f825c69ec972e427693c0ce8281de48c64004b381ff3bcad25b48945864736f6c63430008090033",
  "immutableReferences": {},
  "source": "pragma solidity >=0.5.0 <=0.9.0;\n// SPDX-License-Identifier: GPL-3.0-or-later\n\nimport './InspectionContract.sol';\n\ncontract Ownable {}\ncontract SATtoken {}\n\n/**\n* @title SintropContract\n* @dev Sintrop application to certificated a rural producer\n*/\ncontract SintropContract is InspectionContract, SATtoken, Ownable {\n\n    \n}",
  "sourcePath": "C:/Users/Breno/Downloads/SintropContract/contracts/SintropContract.sol",
  "compiler": {
    "name": "solc",
    "version": "0.8.9+commit.e5eed63a.Emscripten.clang"
  },
  "schemaVersion": "3.2.3",
  "updatedAt": "2021-11-29T16:47:11.795Z",
  "networkType": "ethereum",
  "devdoc": {
    "details": "Sintrop application to certificated a rural producer",
    "kind": "dev",
    "methods": {
      "acceptInspection(uint256)": {
        "details": "Allows the current user (activist) accept a inspection.",
        "params": {
          "inspectionId": "The id of the inspection that the activist want accept."
        }
      },
      "activistExists(address)": {
        "details": "Check if a specific activist exists",
        "returns": {
          "_0": "a bool that represent if a activist exists or not"
        }
      },
      "addActivist(string,string,string,string,string,string,string)": {
        "details": "Allow a new register of activist",
        "params": {
          "cep": "the cep of the activist",
          "city": "the of the activist",
          "country": "the country where the activist is",
          "document": "the document of activist",
          "documentType": "the document type type of activist. CPF/CNPJ",
          "name": "the name of the activist",
          "state": "the state of the activist"
        },
        "returns": {
          "_0": "a Activist"
        }
      },
      "addCategory(string,string,string,string,string,string,string)": {
        "details": "add a new category",
        "params": {
          "description": "the description of category",
          "name": "the name of category",
          "neutro": "the description text to this metric",
          "partiallyNotSustainable": "the description text to this metric",
          "partiallySustainable": "the description text to this metric",
          "totallyNotSustainable": "the description text to this metric",
          "totallySustainable": "the description text to this metric"
        },
        "returns": {
          "_0": "bool"
        }
      },
      "addProducer(string,string,string,string,string,string,string)": {
        "details": "Allow a new register of producer",
        "params": {
          "cep": "the cep of the producer",
          "city": "the of the producer",
          "country": "the country where the producer is",
          "document": "the document of producer",
          "documentType": "the document type type of producer. CPF/CNPJ",
          "name": "the name of the producer",
          "state": "the state of the producer"
        }
      },
      "getActivist(address)": {
        "details": "Return a specific activist",
        "params": {
          "addr": "the address of the activist."
        }
      },
      "getActivists()": {
        "details": "Returns all registered activists",
        "returns": {
          "_0": "Activist struct array"
        }
      },
      "getCategories()": {
        "details": "Returns all added categories",
        "returns": {
          "_0": "category struc array"
        }
      },
      "getCategory(uint256)": {
        "details": "get a specific category",
        "params": {
          "id": "the id of a category"
        }
      },
      "getInspection(uint256)": {
        "details": "Returns a inspection by id if that exists.",
        "params": {
          "id": "The id of the inspection to return."
        }
      },
      "getInspections()": {
        "details": "Returns all requested inspections."
      },
      "getInspectionsHistory()": {
        "details": "Allows the current user producer/activist get all yours inspections with status INSPECTED"
      },
      "getInspectionsStatus()": {
        "details": "Returns all inpections status string."
      },
      "getIsas()": {
        "details": "Returns all isas string."
      },
      "getProducer(address)": {
        "details": "Return a specific producer",
        "params": {
          "addr": "the address of the producer."
        }
      },
      "getProducers()": {
        "details": "Returns all registered producers",
        "returns": {
          "_0": "Producer struct array"
        }
      },
      "getUser(address)": {
        "details": "Returns the user type if the user is registered",
        "params": {
          "addr": "the user address that want check if exists"
        }
      },
      "getUserTypes()": {
        "details": "Returns the enum UserType of the system"
      },
      "inspectionExists(uint256)": {
        "details": "Check if an inspections exists in mapping.",
        "params": {
          "id": "The id of the inspection that the activist want accept."
        }
      },
      "producerExists(address)": {
        "details": "Check if a specific producer exists",
        "returns": {
          "_0": "a bool that represent if a producer exists or not"
        }
      },
      "realizeInspection(uint256,uint256[][])": {
        "details": "Allow a activist realize a inspection and mark as INSPECTED",
        "params": {
          "inspectionId": "The id of the inspection to be realized",
          "isas": "The uint[][] of categoryId and isaIndex. Ex: isas = [ [categoryId, isaIndex], [categoryId, isaIndex] ]"
        }
      },
      "requestInspection()": {
        "details": "Allows the current user (producer) request a inspection."
      },
      "vote(uint256)": {
        "details": "Allow a user vote in a category",
        "params": {
          "id": "the id of a category that receives a vote."
        },
        "returns": {
          "_0": "category struc array"
        }
      }
    },
    "title": "SintropContract",
    "version": 1
  },
  "userdoc": {
    "kind": "user",
    "methods": {},
    "version": 1
  }
}