{
  "contractName": "UserContract",
  "abi": [
    {
      "inputs": [],
      "name": "usersCount",
      "outputs": [
        {
          "internalType": "uint256",
          "name": "",
          "type": "uint256"
        }
      ],
      "stateMutability": "view",
      "type": "function"
    },
    {
      "inputs": [
        {
          "internalType": "address",
          "name": "addr",
          "type": "address"
        }
      ],
      "name": "getUser",
      "outputs": [
        {
          "internalType": "enum UserContract.UserType",
          "name": "",
          "type": "uint8"
        }
      ],
      "stateMutability": "view",
      "type": "function"
    },
    {
      "inputs": [],
      "name": "getUserTypes",
      "outputs": [
        {
          "internalType": "string",
          "name": "",
          "type": "string"
        },
        {
          "internalType": "string",
          "name": "",
          "type": "string"
        },
        {
          "internalType": "string",
          "name": "",
          "type": "string"
        }
      ],
      "stateMutability": "pure",
      "type": "function"
    }
  ],
  "bytecode": "0x608060405234801561001057600080fd5b50610226806100206000396000f3fe608060405234801561001057600080fd5b50600436106100415760003560e01c80636337dc1a146100465780636ba13a82146100b85780636f77926b146100cf575b600080fd5b604080518082018252600880825267282927a22aa1a2a960c11b60208084019190915283518085018552918252671050d512559254d560c21b8282015283518085018552600a8152692922a9a2a0a921a422a960b11b9181019190915292516100af9390610155565b60405180910390f35b6100c160015481565b6040519081526020016100af565b6100fb6100dd366004610198565b6001600160a01b031660009081526020819052604090205460ff1690565b6040516100af91906101c8565b6000815180845260005b8181101561012e57602081850181015186830182015201610112565b81811115610140576000602083870101525b50601f01601f19169290920160200192915050565b6060815260006101686060830186610108565b828103602084015261017a8186610108565b9050828103604084015261018e8185610108565b9695505050505050565b6000602082840312156101aa57600080fd5b81356001600160a01b03811681146101c157600080fd5b9392505050565b60208101600483106101ea57634e487b7160e01b600052602160045260246000fd5b9190529056fea2646970667358221220b35384b807829cdccd8737aca26c8321fddbbe0bb12598f923f56496ac92864064736f6c634300080b0033",
  "immutableReferences": {},
  "source": "pragma solidity >=0.5.0 <=0.9.0;\r\n// SPDX-License-Identifier: GPL-3.0-or-later\r\n\r\n\r\n/**\r\n* @title UserContract\r\n* @dev This contract work as a centralized user's system, where all users has your userType here\r\n*/\r\ncontract UserContract {\r\n    enum UserType { UNDEFINED, PRODUCER, ACTIVIST, RESEARCHER }\r\n\r\n    mapping(address => UserType) users;\r\n    uint public usersCount;\r\n\r\n    /**\r\n   * @dev Add new user in the system\r\n   * @param addr The address of the user\r\n   * @param userType The type of the user - enum UserType\r\n   */\r\n    function addUser(address addr, UserType userType) internal {\r\n        users[addr] = userType;\r\n        usersCount++;\r\n    }\r\n\r\n    /**\r\n   * @dev Returns the user type if the user is registered\r\n   * @param addr the user address that want check if exists\r\n   */\r\n    function getUser(address addr) public view returns(UserType) {\r\n        return users[addr];\r\n    }\r\n\r\n    /**\r\n   * @dev Returns the enum UserType of the system\r\n   */\r\n    function getUserTypes() public pure returns(string memory, string memory, string memory) {\r\n        return (\"PRODUCER\", \"ACTIVIST\", \"RESEARCHER\");\r\n    }\r\n}",
  "sourcePath": "C:\\Users\\felip\\OneDrive\\\\Ionic\\SintropContract\\contracts\\UserContract.sol",
  "compiler": {
    "name": "solc",
    "version": "0.8.11+commit.d7f03943.Emscripten.clang"
  },
  "schemaVersion": "3.4.3",
  "updatedAt": "2022-01-07T02:43:17.875Z",
  "devdoc": {
    "details": "This contract work as a centralized user's system, where all users has your userType here",
    "kind": "dev",
    "methods": {
      "getUser(address)": {
        "details": "Returns the user type if the user is registered",
        "params": {
          "addr": "the user address that want check if exists"
        }
      },
      "getUserTypes()": {
        "details": "Returns the enum UserType of the system"
      }
    },
    "title": "UserContract",
    "version": 1
  },
  "userdoc": {
    "kind": "user",
    "methods": {},
    "version": 1
  }
}